{
  "_format": "hh-sol-artifact-1",
  "contractName": "ERC721ABurnableStartTokenIdMock",
  "sourceName": "contracts/mocks/ERC721ABurnableStartTokenIdMock.sol",
  "abi": [
    {
      "inputs": [
        {
          "internalType": "string",
          "name": "name_",
          "type": "string"
        },
        {
          "internalType": "string",
          "name": "symbol_",
          "type": "string"
        },
        {
          "internalType": "uint256",
          "name": "startTokenId_",
          "type": "uint256"
        }
      ],
      "stateMutability": "nonpayable",
      "type": "constructor"
    },
    {
      "inputs": [],
      "name": "ApprovalCallerNotOwnerNorApproved",
      "type": "error"
    },
    {
      "inputs": [],
      "name": "ApprovalQueryForNonexistentToken",
      "type": "error"
    },
    {
      "inputs": [],
      "name": "BalanceQueryForZeroAddress",
      "type": "error"
    },
    {
      "inputs": [],
      "name": "MintERC2309QuantityExceedsLimit",
      "type": "error"
    },
    {
      "inputs": [],
      "name": "MintToZeroAddress",
      "type": "error"
    },
    {
      "inputs": [],
      "name": "MintZeroQuantity",
      "type": "error"
    },
    {
      "inputs": [],
      "name": "OwnerQueryForNonexistentToken",
      "type": "error"
    },
    {
      "inputs": [],
      "name": "OwnershipNotInitializedForExtraData",
      "type": "error"
    },
    {
      "inputs": [],
      "name": "TransferCallerNotOwnerNorApproved",
      "type": "error"
    },
    {
      "inputs": [],
      "name": "TransferFromIncorrectOwner",
      "type": "error"
    },
    {
      "inputs": [],
      "name": "TransferToNonERC721ReceiverImplementer",
      "type": "error"
    },
    {
      "inputs": [],
      "name": "TransferToZeroAddress",
      "type": "error"
    },
    {
      "inputs": [],
      "name": "URIQueryForNonexistentToken",
      "type": "error"
    },
    {
      "anonymous": false,
      "inputs": [
        {
          "indexed": true,
          "internalType": "address",
          "name": "owner",
          "type": "address"
        },
        {
          "indexed": true,
          "internalType": "address",
          "name": "approved",
          "type": "address"
        },
        {
          "indexed": true,
          "internalType": "uint256",
          "name": "tokenId",
          "type": "uint256"
        }
      ],
      "name": "Approval",
      "type": "event"
    },
    {
      "anonymous": false,
      "inputs": [
        {
          "indexed": true,
          "internalType": "address",
          "name": "owner",
          "type": "address"
        },
        {
          "indexed": true,
          "internalType": "address",
          "name": "operator",
          "type": "address"
        },
        {
          "indexed": false,
          "internalType": "bool",
          "name": "approved",
          "type": "bool"
        }
      ],
      "name": "ApprovalForAll",
      "type": "event"
    },
    {
      "anonymous": false,
      "inputs": [
        {
          "indexed": true,
          "internalType": "uint256",
          "name": "fromTokenId",
          "type": "uint256"
        },
        {
          "indexed": false,
          "internalType": "uint256",
          "name": "toTokenId",
          "type": "uint256"
        },
        {
          "indexed": true,
          "internalType": "address",
          "name": "from",
          "type": "address"
        },
        {
          "indexed": true,
          "internalType": "address",
          "name": "to",
          "type": "address"
        }
      ],
      "name": "ConsecutiveTransfer",
      "type": "event"
    },
    {
      "anonymous": false,
      "inputs": [
        {
          "indexed": true,
          "internalType": "address",
          "name": "from",
          "type": "address"
        },
        {
          "indexed": true,
          "internalType": "address",
          "name": "to",
          "type": "address"
        },
        {
          "indexed": true,
          "internalType": "uint256",
          "name": "tokenId",
          "type": "uint256"
        }
      ],
      "name": "Transfer",
      "type": "event"
    },
    {
      "inputs": [
        {
          "internalType": "address",
          "name": "to",
          "type": "address"
        },
        {
          "internalType": "uint256",
          "name": "tokenId",
          "type": "uint256"
        }
      ],
      "name": "approve",
      "outputs": [],
      "stateMutability": "payable",
      "type": "function"
    },
    {
      "inputs": [
        {
          "internalType": "address",
          "name": "owner",
          "type": "address"
        }
      ],
      "name": "balanceOf",
      "outputs": [
        {
          "internalType": "uint256",
          "name": "",
          "type": "uint256"
        }
      ],
      "stateMutability": "view",
      "type": "function"
    },
    {
      "inputs": [
        {
          "internalType": "uint256",
          "name": "tokenId",
          "type": "uint256"
        }
      ],
      "name": "burn",
      "outputs": [],
      "stateMutability": "nonpayable",
      "type": "function"
    },
    {
      "inputs": [
        {
          "internalType": "uint256",
          "name": "tokenId",
          "type": "uint256"
        }
      ],
      "name": "exists",
      "outputs": [
        {
          "internalType": "bool",
          "name": "",
          "type": "bool"
        }
      ],
      "stateMutability": "view",
      "type": "function"
    },
    {
      "inputs": [
        {
          "internalType": "uint256",
          "name": "tokenId",
          "type": "uint256"
        }
      ],
      "name": "getApproved",
      "outputs": [
        {
          "internalType": "address",
          "name": "",
          "type": "address"
        }
      ],
      "stateMutability": "view",
      "type": "function"
    },
    {
      "inputs": [
        {
          "internalType": "uint256",
          "name": "index",
          "type": "uint256"
        }
      ],
      "name": "getOwnershipAt",
      "outputs": [
        {
          "components": [
            {
              "internalType": "address",
              "name": "addr",
              "type": "address"
            },
            {
              "internalType": "uint64",
              "name": "startTimestamp",
              "type": "uint64"
            },
            {
              "internalType": "bool",
              "name": "burned",
              "type": "bool"
            },
            {
              "internalType": "uint24",
              "name": "extraData",
              "type": "uint24"
            }
          ],
          "internalType": "struct IERC721A.TokenOwnership",
          "name": "",
          "type": "tuple"
        }
      ],
      "stateMutability": "view",
      "type": "function"
    },
    {
      "inputs": [
        {
          "internalType": "address",
          "name": "owner",
          "type": "address"
        },
        {
          "internalType": "address",
          "name": "operator",
          "type": "address"
        }
      ],
      "name": "isApprovedForAll",
      "outputs": [
        {
          "internalType": "bool",
          "name": "",
          "type": "bool"
        }
      ],
      "stateMutability": "view",
      "type": "function"
    },
    {
      "inputs": [],
      "name": "name",
      "outputs": [
        {
          "internalType": "string",
          "name": "",
          "type": "string"
        }
      ],
      "stateMutability": "view",
      "type": "function"
    },
    {
      "inputs": [
        {
          "internalType": "address",
          "name": "owner",
          "type": "address"
        }
      ],
      "name": "numberBurned",
      "outputs": [
        {
          "internalType": "uint256",
          "name": "",
          "type": "uint256"
        }
      ],
      "stateMutability": "view",
      "type": "function"
    },
    {
      "inputs": [
        {
          "internalType": "uint256",
          "name": "tokenId",
          "type": "uint256"
        }
      ],
      "name": "ownerOf",
      "outputs": [
        {
          "internalType": "address",
          "name": "",
          "type": "address"
        }
      ],
      "stateMutability": "view",
      "type": "function"
    },
    {
      "inputs": [
        {
          "internalType": "address",
          "name": "to",
          "type": "address"
        },
        {
          "internalType": "uint256",
          "name": "quantity",
          "type": "uint256"
        }
      ],
      "name": "safeMint",
      "outputs": [],
      "stateMutability": "nonpayable",
      "type": "function"
    },
    {
      "inputs": [
        {
          "internalType": "address",
          "name": "from",
          "type": "address"
        },
        {
          "internalType": "address",
          "name": "to",
          "type": "address"
        },
        {
          "internalType": "uint256",
          "name": "tokenId",
          "type": "uint256"
        }
      ],
      "name": "safeTransferFrom",
      "outputs": [],
      "stateMutability": "payable",
      "type": "function"
    },
    {
      "inputs": [
        {
          "internalType": "address",
          "name": "from",
          "type": "address"
        },
        {
          "internalType": "address",
          "name": "to",
          "type": "address"
        },
        {
          "internalType": "uint256",
          "name": "tokenId",
          "type": "uint256"
        },
        {
          "internalType": "bytes",
          "name": "_data",
          "type": "bytes"
        }
      ],
      "name": "safeTransferFrom",
      "outputs": [],
      "stateMutability": "payable",
      "type": "function"
    },
    {
      "inputs": [
        {
          "internalType": "address",
          "name": "operator",
          "type": "address"
        },
        {
          "internalType": "bool",
          "name": "approved",
          "type": "bool"
        }
      ],
      "name": "setApprovalForAll",
      "outputs": [],
      "stateMutability": "nonpayable",
      "type": "function"
    },
    {
      "inputs": [],
      "name": "startTokenId",
      "outputs": [
        {
          "internalType": "uint256",
          "name": "",
          "type": "uint256"
        }
      ],
      "stateMutability": "view",
      "type": "function"
    },
    {
      "inputs": [
        {
          "internalType": "bytes4",
          "name": "interfaceId",
          "type": "bytes4"
        }
      ],
      "name": "supportsInterface",
      "outputs": [
        {
          "internalType": "bool",
          "name": "",
          "type": "bool"
        }
      ],
      "stateMutability": "view",
      "type": "function"
    },
    {
      "inputs": [],
      "name": "symbol",
      "outputs": [
        {
          "internalType": "string",
          "name": "",
          "type": "string"
        }
      ],
      "stateMutability": "view",
      "type": "function"
    },
    {
      "inputs": [
        {
          "internalType": "uint256",
          "name": "tokenId",
          "type": "uint256"
        }
      ],
      "name": "tokenURI",
      "outputs": [
        {
          "internalType": "string",
          "name": "",
          "type": "string"
        }
      ],
      "stateMutability": "view",
      "type": "function"
    },
    {
      "inputs": [],
      "name": "totalBurned",
      "outputs": [
        {
          "internalType": "uint256",
          "name": "",
          "type": "uint256"
        }
      ],
      "stateMutability": "view",
      "type": "function"
    },
    {
      "inputs": [],
      "name": "totalMinted",
      "outputs": [
        {
          "internalType": "uint256",
          "name": "",
          "type": "uint256"
        }
      ],
      "stateMutability": "view",
      "type": "function"
    },
    {
      "inputs": [],
      "name": "totalSupply",
      "outputs": [
        {
          "internalType": "uint256",
          "name": "",
          "type": "uint256"
        }
      ],
      "stateMutability": "view",
      "type": "function"
    },
    {
      "inputs": [
        {
          "internalType": "address",
          "name": "from",
          "type": "address"
        },
        {
          "internalType": "address",
          "name": "to",
          "type": "address"
        },
        {
          "internalType": "uint256",
          "name": "tokenId",
          "type": "uint256"
        }
      ],
      "name": "transferFrom",
      "outputs": [],
      "stateMutability": "payable",
      "type": "function"
    }
  ],
  "bytecode": "0x60806040523480156200001157600080fd5b50604051620015f0380380620015f08339810160408190526200003491620001f4565b6000819055825183908390829082906200005690600390602085019062000081565b5080516200006c90600490602084019062000081565b5060005460015550620002a495505050505050565b8280546200008f9062000267565b90600052602060002090601f016020900481019282620000b35760008555620000fe565b82601f10620000ce57805160ff1916838001178555620000fe565b82800160010185558215620000fe579182015b82811115620000fe578251825591602001919060010190620000e1565b506200010c92915062000110565b5090565b5b808211156200010c576000815560010162000111565b634e487b7160e01b600052604160045260246000fd5b600082601f8301126200014f57600080fd5b81516001600160401b03808211156200016c576200016c62000127565b604051601f8301601f19908116603f0116810190828211818310171562000197576200019762000127565b81604052838152602092508683858801011115620001b457600080fd5b600091505b83821015620001d85785820183015181830184015290820190620001b9565b83821115620001ea5760008385830101525b9695505050505050565b6000806000606084860312156200020a57600080fd5b83516001600160401b03808211156200022257600080fd5b62000230878388016200013d565b945060208601519150808211156200024757600080fd5b5062000256868287016200013d565b925050604084015190509250925092565b600181811c908216806200027c57607f821691505b602082108114156200029e57634e487b7160e01b600052602260045260246000fd5b50919050565b61133c80620002b46000396000f3fe6080604052600436106101755760003560e01c806370a08231116100cb578063b88d4fde1161007f578063e6798baa11610059578063e6798baa146103c1578063e985e9c5146103d7578063f25236331461042057600080fd5b8063b88d4fde14610379578063c87b56dd1461038c578063d89135cd146103ac57600080fd5b8063a1448194116100b0578063a144819414610320578063a22cb46514610340578063a2309ff81461036057600080fd5b806370a08231146102eb57806395d89b411461030b57600080fd5b806323b872dd1161012d57806342966c681161010757806342966c681461028b5780634f558e79146102ab5780636352211e146102cb57600080fd5b806323b872dd146102455780632478d6391461025857806342842e0e1461027857600080fd5b8063081812fc1161015e578063081812fc146101d1578063095ea7b31461020957806318160ddd1461021e57600080fd5b806301ffc9a71461017a57806306fdde03146101af575b600080fd5b34801561018657600080fd5b5061019a610195366004610fa4565b61048d565b60405190151581526020015b60405180910390f35b3480156101bb57600080fd5b506101c46104df565b6040516101a69190611019565b3480156101dd57600080fd5b506101f16101ec36600461102c565b610571565b6040516001600160a01b0390911681526020016101a6565b61021c610217366004611061565b6105b5565b005b34801561022a57600080fd5b5060005460025460015403035b6040519081526020016101a6565b61021c61025336600461108b565b61066d565b34801561026457600080fd5b506102376102733660046110c7565b610808565b61021c61028636600461108b565b610836565b34801561029757600080fd5b5061021c6102a636600461102c565b610856565b3480156102b757600080fd5b5061019a6102c636600461102c565b610864565b3480156102d757600080fd5b506101f16102e636600461102c565b61086f565b3480156102f757600080fd5b506102376103063660046110c7565b61087a565b34801561031757600080fd5b506101c46108c9565b34801561032c57600080fd5b5061021c61033b366004611061565b6108d8565b34801561034c57600080fd5b5061021c61035b3660046110e2565b6108e6565b34801561036c57600080fd5b5060005460015403610237565b61021c610387366004611134565b610957565b34801561039857600080fd5b506101c46103a736600461102c565b6109a1565b3480156103b857600080fd5b50610237610a33565b3480156103cd57600080fd5b5061023760005481565b3480156103e357600080fd5b5061019a6103f2366004611210565b6001600160a01b03918216600090815260086020908152604080832093909416825291909152205460ff1690565b34801561042c57600080fd5b5061044061043b36600461102c565b610a3e565b6040516101a6919081516001600160a01b0316815260208083015167ffffffffffffffff169082015260408083015115159082015260609182015162ffffff169181019190915260800190565b60006301ffc9a760e01b6001600160e01b0319831614806104be57506380ac58cd60e01b6001600160e01b03198316145b806104d95750635b5e139f60e01b6001600160e01b03198316145b92915050565b6060600380546104ee90611243565b80601f016020809104026020016040519081016040528092919081815260200182805461051a90611243565b80156105675780601f1061053c57610100808354040283529160200191610567565b820191906000526020600020905b81548152906001019060200180831161054a57829003601f168201915b5050505050905090565b600061057c82610a6b565b610599576040516333d1c03960e21b815260040160405180910390fd5b506000908152600760205260409020546001600160a01b031690565b60006105c08261086f565b9050336001600160a01b038216146105f9576105dc81336103f2565b6105f9576040516367d9dca160e11b815260040160405180910390fd5b60008281526007602052604080822080547fffffffffffffffffffffffff0000000000000000000000000000000000000000166001600160a01b0387811691821790925591518593918516917f8c5be1e5ebec7d5bd14f71427d1e84f3dd0314c0f7b2291e5b200ac8c7c3b92591a4505050565b600061067882610aa7565b9050836001600160a01b0316816001600160a01b0316146106ab5760405162a1148160e81b815260040160405180910390fd5b600082815260076020526040902080546106d78187335b6001600160a01b039081169116811491141790565b610702576106e586336103f2565b61070257604051632ce44b5f60e11b815260040160405180910390fd5b6001600160a01b03851661072957604051633a954ecd60e21b815260040160405180910390fd5b801561073457600082555b6001600160a01b038681166000908152600660205260408082208054600019019055918716808252919020805460010190554260a01b17600160e11b17600085815260056020526040902055600160e11b83166107bf57600184016000818152600560205260409020546107bd5760015481146107bd5760008181526005602052604090208490555b505b83856001600160a01b0316876001600160a01b03167fddf252ad1be2c89b69c2b068fc378daa952ba7f163c4a11628f55a4df523b3ef60405160405180910390a4505050505050565b60006104d9826001600160a01b031660009081526006602052604090205460801c67ffffffffffffffff1690565b61085183838360405180602001604052806000815250610957565b505050565b610861816001610b17565b50565b60006104d982610a6b565b60006104d982610aa7565b60006001600160a01b0382166108a3576040516323d3ad8160e21b815260040160405180910390fd5b506001600160a01b031660009081526006602052604090205467ffffffffffffffff1690565b6060600480546104ee90611243565b6108e28282610c5b565b5050565b3360008181526008602090815260408083206001600160a01b03871680855290835292819020805460ff191686151590811790915590519081529192917f17307eab39ab6107e8899845ad3d59bd9653f200f220920489ca2b5937696c31910160405180910390a35050565b905090565b61096284848461066d565b6001600160a01b0383163b1561099b5761097e84848484610c75565b61099b576040516368d2bf6b60e11b815260040160405180910390fd5b50505050565b60606109ac82610a6b565b6109c957604051630a14c4b560e41b815260040160405180910390fd5b60006109e060408051602081019091526000815290565b9050805160001415610a015760405180602001604052806000815250610a2c565b80610a0b84610d5d565b604051602001610a1c92919061127e565b6040516020818303038152906040525b9392505050565b600061095260025490565b6040805160808101825260008082526020820181905291810182905260608101919091526104d982610dab565b600081610a7760005490565b11158015610a86575060015482105b80156104d9575050600090815260056020526040902054600160e01b161590565b60008180610ab460005490565b11610afe57600154811015610afe57600081815260056020526040902054600160e01b8116610afc575b80610a2c575060001901600081815260056020526040902054610ade565b505b604051636f96cda160e11b815260040160405180910390fd5b6000610b2283610aa7565b905080600080610b4086600090815260076020526040902080549091565b915091508415610b8057610b558184336106c2565b610b8057610b6383336103f2565b610b8057604051632ce44b5f60e11b815260040160405180910390fd5b8015610b8b57600082555b6001600160a01b038316600081815260066020526040902080546fffffffffffffffffffffffffffffffff0190554260a01b17600360e01b17600087815260056020526040902055600160e11b8416610c125760018601600081815260056020526040902054610c10576001548114610c105760008181526005602052604090208590555b505b60405186906000906001600160a01b038616907fddf252ad1be2c89b69c2b068fc378daa952ba7f163c4a11628f55a4df523b3ef908390a4505060028054600101905550505050565b6108e2828260405180602001604052806000815250610e2a565b604051630a85bd0160e11b81526000906001600160a01b0385169063150b7a0290610caa9033908990889088906004016112ad565b6020604051808303816000875af1925050508015610ce5575060408051601f3d908101601f19168201909252610ce2918101906112e9565b60015b610d40573d808015610d13576040519150601f19603f3d011682016040523d82523d6000602084013e610d18565b606091505b508051610d38576040516368d2bf6b60e11b815260040160405180910390fd5b805181602001fd5b6001600160e01b031916630a85bd0160e11b149050949350505050565b606060a06040510180604052602081039150506000815280825b600183039250600a81066030018353600a900480610d9457610d99565b610d77565b50819003601f19909101908152919050565b6040805160808101825260008082526020820181905291810182905260608101919091526000828152600560205260409020546104d990604080516080810182526001600160a01b038316815260a083901c67ffffffffffffffff166020820152600160e01b831615159181019190915260e89190911c606082015290565b610e348383610e97565b6001600160a01b0383163b15610851576001548281035b610e5e6000868380600101945086610c75565b610e7b576040516368d2bf6b60e11b815260040160405180910390fd5b818110610e4b578160015414610e9057600080fd5b5050505050565b60015481610eb85760405163b562e8dd60e01b815260040160405180910390fd5b6001600160a01b03831660008181526006602090815260408083208054680100000000000000018802019055848352600590915281206001851460e11b4260a01b178317905582840190839083907fddf252ad1be2c89b69c2b068fc378daa952ba7f163c4a11628f55a4df523b3ef8180a4600183015b818114610f6757808360007fddf252ad1be2c89b69c2b068fc378daa952ba7f163c4a11628f55a4df523b3ef600080a4600101610f2f565b5081610f8557604051622e076360e81b815260040160405180910390fd5b60015550505050565b6001600160e01b03198116811461086157600080fd5b600060208284031215610fb657600080fd5b8135610a2c81610f8e565b60005b83811015610fdc578181015183820152602001610fc4565b8381111561099b5750506000910152565b60008151808452611005816020860160208601610fc1565b601f01601f19169290920160200192915050565b602081526000610a2c6020830184610fed565b60006020828403121561103e57600080fd5b5035919050565b80356001600160a01b038116811461105c57600080fd5b919050565b6000806040838503121561107457600080fd5b61107d83611045565b946020939093013593505050565b6000806000606084860312156110a057600080fd5b6110a984611045565b92506110b760208501611045565b9150604084013590509250925092565b6000602082840312156110d957600080fd5b610a2c82611045565b600080604083850312156110f557600080fd5b6110fe83611045565b91506020830135801515811461111357600080fd5b809150509250929050565b634e487b7160e01b600052604160045260246000fd5b6000806000806080858703121561114a57600080fd5b61115385611045565b935061116160208601611045565b925060408501359150606085013567ffffffffffffffff8082111561118557600080fd5b818701915087601f83011261119957600080fd5b8135818111156111ab576111ab61111e565b604051601f8201601f19908116603f011681019083821181831017156111d3576111d361111e565b816040528281528a60208487010111156111ec57600080fd5b82602086016020830137600060208483010152809550505050505092959194509250565b6000806040838503121561122357600080fd5b61122c83611045565b915061123a60208401611045565b90509250929050565b600181811c9082168061125757607f821691505b6020821081141561127857634e487b7160e01b600052602260045260246000fd5b50919050565b60008351611290818460208801610fc1565b8351908301906112a4818360208801610fc1565b01949350505050565b60006001600160a01b038087168352808616602084015250836040830152608060608301526112df6080830184610fed565b9695505050505050565b6000602082840312156112fb57600080fd5b8151610a2c81610f8e56fea264697066735822122086e630e038bba36a99a21cb0a6395ea74a275075bdf05007f7b0919deb67de0964736f6c634300080b0033",
  "linkReferences": {},
  "deployedLinkReferences": {}
}