{"contracts/mocks/ERC4907AMock.sol":{"ERC4907AMock":{"abi":[{"inputs":[{"internalType":"string","name":"name_","type":"string"},{"internalType":"string","name":"symbol_","type":"string"}],"stateMutability":"nonpayable","type":"constructor"},{"inputs":[],"name":"ApprovalCallerNotOwnerNorApproved","type":"error"},{"inputs":[],"name":"ApprovalQueryForNonexistentToken","type":"error"},{"inputs":[],"name":"BalanceQueryForZeroAddress","type":"error"},{"inputs":[],"name":"MintERC2309QuantityExceedsLimit","type":"error"},{"inputs":[],"name":"MintToZeroAddress","type":"error"},{"inputs":[],"name":"MintZeroQuantity","type":"error"},{"inputs":[],"name":"OwnerQueryForNonexistentToken","type":"error"},{"inputs":[],"name":"OwnershipNotInitializedForExtraData","type":"error"},{"inputs":[],"name":"SetUserCallerNotOwnerNorApproved","type":"error"},{"inputs":[],"name":"TransferCallerNotOwnerNorApproved","type":"error"},{"inputs":[],"name":"TransferFromIncorrectOwner","type":"error"},{"inputs":[],"name":"TransferToNonERC721ReceiverImplementer","type":"error"},{"inputs":[],"name":"TransferToZeroAddress","type":"error"},{"inputs":[],"name":"URIQueryForNonexistentToken","type":"error"},{"anonymous":false,"inputs":[{"indexed":true,"internalType":"address","name":"owner","type":"address"},{"indexed":true,"internalType":"address","name":"approved","type":"address"},{"indexed":true,"internalType":"uint256","name":"tokenId","type":"uint256"}],"name":"Approval","type":"event"},{"anonymous":false,"inputs":[{"indexed":true,"internalType":"address","name":"owner","type":"address"},{"indexed":true,"internalType":"address","name":"operator","type":"address"},{"indexed":false,"internalType":"bool","name":"approved","type":"bool"}],"name":"ApprovalForAll","type":"event"},{"anonymous":false,"inputs":[{"indexed":true,"internalType":"uint256","name":"fromTokenId","type":"uint256"},{"indexed":false,"internalType":"uint256","name":"toTokenId","type":"uint256"},{"indexed":true,"internalType":"address","name":"from","type":"address"},{"indexed":true,"internalType":"address","name":"to","type":"address"}],"name":"ConsecutiveTransfer","type":"event"},{"anonymous":false,"inputs":[{"indexed":true,"internalType":"address","name":"from","type":"address"},{"indexed":true,"internalType":"address","name":"to","type":"address"},{"indexed":true,"internalType":"uint256","name":"tokenId","type":"uint256"}],"name":"Transfer","type":"event"},{"anonymous":false,"inputs":[{"indexed":true,"internalType":"uint256","name":"tokenId","type":"uint256"},{"indexed":true,"internalType":"address","name":"user","type":"address"},{"indexed":false,"internalType":"uint64","name":"expires","type":"uint64"}],"name":"UpdateUser","type":"event"},{"inputs":[{"internalType":"address","name":"to","type":"address"},{"internalType":"uint256","name":"tokenId","type":"uint256"}],"name":"approve","outputs":[],"stateMutability":"payable","type":"function"},{"inputs":[{"internalType":"address","name":"owner","type":"address"}],"name":"balanceOf","outputs":[{"internalType":"uint256","name":"","type":"uint256"}],"stateMutability":"view","type":"function"},{"inputs":[{"internalType":"uint256","name":"tokenId","type":"uint256"}],"name":"explicitUserOf","outputs":[{"internalType":"address","name":"","type":"address"}],"stateMutability":"view","type":"function"},{"inputs":[{"internalType":"uint256","name":"tokenId","type":"uint256"}],"name":"getApproved","outputs":[{"internalType":"address","name":"","type":"address"}],"stateMutability":"view","type":"function"},{"inputs":[{"internalType":"address","name":"owner","type":"address"},{"internalType":"address","name":"operator","type":"address"}],"name":"isApprovedForAll","outputs":[{"internalType":"bool","name":"","type":"bool"}],"stateMutability":"view","type":"function"},{"inputs":[{"internalType":"address","name":"to","type":"address"},{"internalType":"uint256","name":"quantity","type":"uint256"}],"name":"mint","outputs":[],"stateMutability":"nonpayable","type":"function"},{"inputs":[],"name":"name","outputs":[{"internalType":"string","name":"","type":"string"}],"stateMutability":"view","type":"function"},{"inputs":[{"internalType":"uint256","name":"tokenId","type":"uint256"}],"name":"ownerOf","outputs":[{"internalType":"address","name":"","type":"address"}],"stateMutability":"view","type":"function"},{"inputs":[{"internalType":"address","name":"from","type":"address"},{"internalType":"address","name":"to","type":"address"},{"internalType":"uint256","name":"tokenId","type":"uint256"}],"name":"safeTransferFrom","outputs":[],"stateMutability":"payable","type":"function"},{"inputs":[{"internalType":"address","name":"from","type":"address"},{"internalType":"address","name":"to","type":"address"},{"internalType":"uint256","name":"tokenId","type":"uint256"},{"internalType":"bytes","name":"_data","type":"bytes"}],"name":"safeTransferFrom","outputs":[],"stateMutability":"payable","type":"function"},{"inputs":[{"internalType":"address","name":"operator","type":"address"},{"internalType":"bool","name":"approved","type":"bool"}],"name":"setApprovalForAll","outputs":[],"stateMutability":"nonpayable","type":"function"},{"inputs":[{"internalType":"uint256","name":"tokenId","type":"uint256"},{"internalType":"address","name":"user","type":"address"},{"internalType":"uint64","name":"expires","type":"uint64"}],"name":"setUser","outputs":[],"stateMutability":"nonpayable","type":"function"},{"inputs":[{"internalType":"bytes4","name":"interfaceId","type":"bytes4"}],"name":"supportsInterface","outputs":[{"internalType":"bool","name":"","type":"bool"}],"stateMutability":"view","type":"function"},{"inputs":[],"name":"symbol","outputs":[{"internalType":"string","name":"","type":"string"}],"stateMutability":"view","type":"function"},{"inputs":[{"internalType":"uint256","name":"tokenId","type":"uint256"}],"name":"tokenURI","outputs":[{"internalType":"string","name":"","type":"string"}],"stateMutability":"view","type":"function"},{"inputs":[],"name":"totalSupply","outputs":[{"internalType":"uint256","name":"","type":"uint256"}],"stateMutability":"view","type":"function"},{"inputs":[{"internalType":"address","name":"from","type":"address"},{"internalType":"address","name":"to","type":"address"},{"internalType":"uint256","name":"tokenId","type":"uint256"}],"name":"transferFrom","outputs":[],"stateMutability":"payable","type":"function"},{"inputs":[{"internalType":"uint256","name":"tokenId","type":"uint256"}],"name":"userExpires","outputs":[{"internalType":"uint256","name":"","type":"uint256"}],"stateMutability":"view","type":"function"},{"inputs":[{"internalType":"uint256","name":"tokenId","type":"uint256"}],"name":"userOf","outputs":[{"internalType":"address","name":"","type":"address"}],"stateMutability":"view","type":"function"}],"evm":{"bytecode":{"linkReferences":{},"object":"60806040523480156200001157600080fd5b50604051620013b6380380620013b68339810160408190526200003491620001e6565b8151829082906200004d90600290602085019062000073565b5080516200006390600390602084019062000073565b5060008055506200028d92505050565b828054620000819062000250565b90600052602060002090601f016020900481019282620000a55760008555620000f0565b82601f10620000c057805160ff1916838001178555620000f0565b82800160010185558215620000f0579182015b82811115620000f0578251825591602001919060010190620000d3565b50620000fe92915062000102565b5090565b5b80821115620000fe576000815560010162000103565b634e487b7160e01b600052604160045260246000fd5b600082601f8301126200014157600080fd5b81516001600160401b03808211156200015e576200015e62000119565b604051601f8301601f19908116603f0116810190828211818310171562000189576200018962000119565b81604052838152602092508683858801011115620001a657600080fd5b600091505b83821015620001ca5785820183015181830184015290820190620001ab565b83821115620001dc5760008385830101525b9695505050505050565b60008060408385031215620001fa57600080fd5b82516001600160401b03808211156200021257600080fd5b62000220868387016200012f565b935060208501519150808211156200023757600080fd5b5062000246858286016200012f565b9150509250929050565b600181811c908216806200026557607f821691505b602082108114156200028757634e487b7160e01b600052602260045260246000fd5b50919050565b611119806200029d6000396000f3fe6080604052600436106101445760003560e01c806370a08231116100c0578063c2f1f14a11610074578063e030565e11610059578063e030565e14610362578063e985e9c514610382578063ed195968146103cb57600080fd5b8063c2f1f14a1461030e578063c87b56dd1461034257600080fd5b806395d89b41116100a557806395d89b41146102c6578063a22cb465146102db578063b88d4fde146102fb57600080fd5b806370a08231146102765780638fc88c481461029657600080fd5b806318160ddd1161011757806340c10f19116100fc57806340c10f191461022357806342842e0e146102435780636352211e1461025657600080fd5b806318160ddd146101ed57806323b872dd1461021057600080fd5b806301ffc9a71461014957806306fdde031461017e578063081812fc146101a0578063095ea7b3146101d8575b600080fd5b34801561015557600080fd5b50610169610164366004610d34565b6103eb565b60405190151581526020015b60405180910390f35b34801561018a57600080fd5b506101936103fc565b6040516101759190610da9565b3480156101ac57600080fd5b506101c06101bb366004610dbc565b61048e565b6040516001600160a01b039091168152602001610175565b6101eb6101e6366004610df1565b6104d2565b005b3480156101f957600080fd5b50600154600054035b604051908152602001610175565b6101eb61021e366004610e1b565b61058a565b34801561022f57600080fd5b506101eb61023e366004610df1565b61071b565b6101eb610251366004610e1b565b610729565b34801561026257600080fd5b506101c0610271366004610dbc565b610749565b34801561028257600080fd5b50610202610291366004610e57565b610754565b3480156102a257600080fd5b506102026102b1366004610dbc565b60009081526008602052604090205460a01c90565b3480156102d257600080fd5b506101936107a3565b3480156102e757600080fd5b506101eb6102f6366004610e72565b6107b2565b6101eb610309366004610ec4565b61081e565b34801561031a57600080fd5b506101c0610329366004610dbc565b6000908152600860205260409020544260a01b81110290565b34801561034e57600080fd5b5061019361035d366004610dbc565b610868565b34801561036e57600080fd5b506101eb61037d366004610fa0565b6108fa565b34801561038e57600080fd5b5061016961039d366004610fed565b6001600160a01b03918216600090815260076020908152604080832093909416825291909152205460ff1690565b3480156103d757600080fd5b506101c06103e6366004610dbc565b6109dc565b60006103f6826109f0565b92915050565b60606002805461040b90611020565b80601f016020809104026020016040519081016040528092919081815260200182805461043790611020565b80156104845780601f1061045957610100808354040283529160200191610484565b820191906000526020600020905b81548152906001019060200180831161046757829003601f168201915b5050505050905090565b600061049982610a18565b6104b6576040516333d1c03960e21b815260040160405180910390fd5b506000908152600660205260409020546001600160a01b031690565b60006104dd82610749565b9050336001600160a01b03821614610516576104f9813361039d565b610516576040516367d9dca160e11b815260040160405180910390fd5b60008281526006602052604080822080547fffffffffffffffffffffffff0000000000000000000000000000000000000000166001600160a01b0387811691821790925591518593918516917f8c5be1e5ebec7d5bd14f71427d1e84f3dd0314c0f7b2291e5b200ac8c7c3b92591a4505050565b600061059582610a3f565b9050836001600160a01b0316816001600160a01b0316146105c85760405162a1148160e81b815260040160405180910390fd5b60008281526006602052604090208054338082146001600160a01b03881690911417610615576105f8863361039d565b61061557604051632ce44b5f60e11b815260040160405180910390fd5b6001600160a01b03851661063c57604051633a954ecd60e21b815260040160405180910390fd5b801561064757600082555b6001600160a01b038681166000908152600560205260408082208054600019019055918716808252919020805460010190554260a01b17600160e11b17600085815260046020526040902055600160e11b83166106d257600184016000818152600460205260409020546106d05760005481146106d05760008181526004602052604090208490555b505b83856001600160a01b0316876001600160a01b03167fddf252ad1be2c89b69c2b068fc378daa952ba7f163c4a11628f55a4df523b3ef60405160405180910390a4505050505050565b6107258282610aa0565b5050565b6107448383836040518060200160405280600081525061081e565b505050565b60006103f682610a3f565b60006001600160a01b03821661077d576040516323d3ad8160e21b815260040160405180910390fd5b506001600160a01b031660009081526005602052604090205467ffffffffffffffff1690565b60606003805461040b90611020565b3360008181526007602090815260408083206001600160a01b03871680855290835292819020805460ff191686151590811790915590519081529192917f17307eab39ab6107e8899845ad3d59bd9653f200f220920489ca2b5937696c31910160405180910390a35050565b61082984848461058a565b6001600160a01b0383163b156108625761084584848484610b97565b610862576040516368d2bf6b60e11b815260040160405180910390fd5b50505050565b606061087382610a18565b61089057604051630a14c4b560e41b815260040160405180910390fd5b60006108a760408051602081019091526000815290565b90508051600014156108c857604051806020016040528060008152506108f3565b806108d284610c7f565b6040516020016108e392919061105b565b6040516020818303038152906040525b9392505050565b600061090584610749565b9050336001600160a01b0382161461095657610921813361039d565b610956573361092f8561048e565b6001600160a01b031614610956576040516309e3bb1d60e31b815260040160405180910390fd5b6000848152600860209081526040918290206001600160a01b03861660a086901b7bffffffffffffffff0000000000000000000000000000000000000000168117909155915167ffffffffffffffff8516815286917f4e06b4e7000e659094299b3533b47b6aa8ad048e95e872d23d1f4ee55af89cfe910160405180910390a350505050565b6000818152600860205260408120546103f6565b60006109fb82610ccd565b806103f65750506001600160e01b031916632b424ad760e21b1490565b60008054821080156103f6575050600090815260046020526040902054600160e01b161590565b600081600054811015610a8757600081815260046020526040902054600160e01b8116610a85575b806108f3575060001901600081815260046020526040902054610a67565b505b604051636f96cda160e11b815260040160405180910390fd5b60005481610ac15760405163b562e8dd60e01b815260040160405180910390fd5b6001600160a01b03831660008181526005602090815260408083208054680100000000000000018802019055848352600490915281206001851460e11b4260a01b178317905582840190839083907fddf252ad1be2c89b69c2b068fc378daa952ba7f163c4a11628f55a4df523b3ef8180a4600183015b818114610b7057808360007fddf252ad1be2c89b69c2b068fc378daa952ba7f163c4a11628f55a4df523b3ef600080a4600101610b38565b5081610b8e57604051622e076360e81b815260040160405180910390fd5b60005550505050565b604051630a85bd0160e11b81526000906001600160a01b0385169063150b7a0290610bcc90339089908890889060040161108a565b6020604051808303816000875af1925050508015610c07575060408051601f3d908101601f19168201909252610c04918101906110c6565b60015b610c62573d808015610c35576040519150601f19603f3d011682016040523d82523d6000602084013e610c3a565b606091505b508051610c5a576040516368d2bf6b60e11b815260040160405180910390fd5b805181602001fd5b6001600160e01b031916630a85bd0160e11b149050949350505050565b606060a06040510180604052602081039150506000815280825b600183039250600a81066030018353600a900480610cb657610cbb565b610c99565b50819003601f19909101908152919050565b60006301ffc9a760e01b6001600160e01b031983161480610cfe57506380ac58cd60e01b6001600160e01b03198316145b806103f65750506001600160e01b031916635b5e139f60e01b1490565b6001600160e01b031981168114610d3157600080fd5b50565b600060208284031215610d4657600080fd5b81356108f381610d1b565b60005b83811015610d6c578181015183820152602001610d54565b838111156108625750506000910152565b60008151808452610d95816020860160208601610d51565b601f01601f19169290920160200192915050565b6020815260006108f36020830184610d7d565b600060208284031215610dce57600080fd5b5035919050565b80356001600160a01b0381168114610dec57600080fd5b919050565b60008060408385031215610e0457600080fd5b610e0d83610dd5565b946020939093013593505050565b600080600060608486031215610e3057600080fd5b610e3984610dd5565b9250610e4760208501610dd5565b9150604084013590509250925092565b600060208284031215610e6957600080fd5b6108f382610dd5565b60008060408385031215610e8557600080fd5b610e8e83610dd5565b915060208301358015158114610ea357600080fd5b809150509250929050565b634e487b7160e01b600052604160045260246000fd5b60008060008060808587031215610eda57600080fd5b610ee385610dd5565b9350610ef160208601610dd5565b925060408501359150606085013567ffffffffffffffff80821115610f1557600080fd5b818701915087601f830112610f2957600080fd5b813581811115610f3b57610f3b610eae565b604051601f8201601f19908116603f01168101908382118183101715610f6357610f63610eae565b816040528281528a6020848701011115610f7c57600080fd5b82602086016020830137600060208483010152809550505050505092959194509250565b600080600060608486031215610fb557600080fd5b83359250610fc560208501610dd5565b9150604084013567ffffffffffffffff81168114610fe257600080fd5b809150509250925092565b6000806040838503121561100057600080fd5b61100983610dd5565b915061101760208401610dd5565b90509250929050565b600181811c9082168061103457607f821691505b6020821081141561105557634e487b7160e01b600052602260045260246000fd5b50919050565b6000835161106d818460208801610d51565b835190830190611081818360208801610d51565b01949350505050565b60006001600160a01b038087168352808616602084015250836040830152608060608301526110bc6080830184610d7d565b9695505050505050565b6000602082840312156110d857600080fd5b81516108f381610d1b56fea26469706673582212201e7e72d28e0ced0cc8a2fa99fe3cd085bb644c0976064df45f30d0543b84670e64736f6c634300080b0033","opcodes":"PUSH1 0x80 PUSH1 0x40 MSTORE CALLVALUE DUP1 ISZERO PUSH3 0x11 JUMPI PUSH1 0x0 DUP1 REVERT JUMPDEST POP PUSH1 0x40 MLOAD PUSH3 0x13B6 CODESIZE SUB DUP1 PUSH3 0x13B6 DUP4 CODECOPY DUP2 ADD PUSH1 0x40 DUP2 SWAP1 MSTORE PUSH3 0x34 SWAP2 PUSH3 0x1E6 JUMP JUMPDEST DUP2 MLOAD DUP3 SWAP1 DUP3 SWAP1 PUSH3 0x4D SWAP1 PUSH1 0x2 SWAP1 PUSH1 0x20 DUP6 ADD SWAP1 PUSH3 0x73 JUMP JUMPDEST POP DUP1 MLOAD PUSH3 0x63 SWAP1 PUSH1 0x3 SWAP1 PUSH1 0x20 DUP5 ADD SWAP1 PUSH3 0x73 JUMP JUMPDEST POP PUSH1 0x0 DUP1 SSTORE POP PUSH3 0x28D SWAP3 POP POP POP JUMP JUMPDEST DUP3 DUP1 SLOAD PUSH3 0x81 SWAP1 PUSH3 0x250 JUMP JUMPDEST SWAP1 PUSH1 0x0 MSTORE PUSH1 0x20 PUSH1 0x0 KECCAK256 SWAP1 PUSH1 0x1F ADD PUSH1 0x20 SWAP1 DIV DUP2 ADD SWAP3 DUP3 PUSH3 0xA5 JUMPI PUSH1 0x0 DUP6 SSTORE PUSH3 0xF0 JUMP JUMPDEST DUP3 PUSH1 0x1F LT PUSH3 0xC0 JUMPI DUP1 MLOAD PUSH1 0xFF NOT AND DUP4 DUP1 ADD OR DUP6 SSTORE PUSH3 0xF0 JUMP JUMPDEST DUP3 DUP1 ADD PUSH1 0x1 ADD DUP6 SSTORE DUP3 ISZERO PUSH3 0xF0 JUMPI SWAP2 DUP3 ADD JUMPDEST DUP3 DUP2 GT ISZERO PUSH3 0xF0 JUMPI DUP3 MLOAD DUP3 SSTORE SWAP2 PUSH1 0x20 ADD SWAP2 SWAP1 PUSH1 0x1 ADD SWAP1 PUSH3 0xD3 JUMP JUMPDEST POP PUSH3 0xFE SWAP3 SWAP2 POP PUSH3 0x102 JUMP JUMPDEST POP SWAP1 JUMP JUMPDEST JUMPDEST DUP1 DUP3 GT ISZERO PUSH3 0xFE JUMPI PUSH1 0x0 DUP2 SSTORE PUSH1 0x1 ADD PUSH3 0x103 JUMP JUMPDEST PUSH4 0x4E487B71 PUSH1 0xE0 SHL PUSH1 0x0 MSTORE PUSH1 0x41 PUSH1 0x4 MSTORE PUSH1 0x24 PUSH1 0x0 REVERT JUMPDEST PUSH1 0x0 DUP3 PUSH1 0x1F DUP4 ADD SLT PUSH3 0x141 JUMPI PUSH1 0x0 DUP1 REVERT JUMPDEST DUP2 MLOAD PUSH1 0x1 PUSH1 0x1 PUSH1 0x40 SHL SUB DUP1 DUP3 GT ISZERO PUSH3 0x15E JUMPI PUSH3 0x15E PUSH3 0x119 JUMP JUMPDEST PUSH1 0x40 MLOAD PUSH1 0x1F DUP4 ADD PUSH1 0x1F NOT SWAP1 DUP2 AND PUSH1 0x3F ADD AND DUP2 ADD SWAP1 DUP3 DUP3 GT DUP2 DUP4 LT OR ISZERO PUSH3 0x189 JUMPI PUSH3 0x189 PUSH3 0x119 JUMP JUMPDEST DUP2 PUSH1 0x40 MSTORE DUP4 DUP2 MSTORE PUSH1 0x20 SWAP3 POP DUP7 DUP4 DUP6 DUP9 ADD ADD GT ISZERO PUSH3 0x1A6 JUMPI PUSH1 0x0 DUP1 REVERT JUMPDEST PUSH1 0x0 SWAP2 POP JUMPDEST DUP4 DUP3 LT ISZERO PUSH3 0x1CA JUMPI DUP6 DUP3 ADD DUP4 ADD MLOAD DUP2 DUP4 ADD DUP5 ADD MSTORE SWAP1 DUP3 ADD SWAP1 PUSH3 0x1AB JUMP JUMPDEST DUP4 DUP3 GT ISZERO PUSH3 0x1DC JUMPI PUSH1 0x0 DUP4 DUP6 DUP4 ADD ADD MSTORE JUMPDEST SWAP7 SWAP6 POP POP POP POP POP POP JUMP JUMPDEST PUSH1 0x0 DUP1 PUSH1 0x40 DUP4 DUP6 SUB SLT ISZERO PUSH3 0x1FA JUMPI PUSH1 0x0 DUP1 REVERT JUMPDEST DUP3 MLOAD PUSH1 0x1 PUSH1 0x1 PUSH1 0x40 SHL SUB DUP1 DUP3 GT ISZERO PUSH3 0x212 JUMPI PUSH1 0x0 DUP1 REVERT JUMPDEST PUSH3 0x220 DUP7 DUP4 DUP8 ADD PUSH3 0x12F JUMP JUMPDEST SWAP4 POP PUSH1 0x20 DUP6 ADD MLOAD SWAP2 POP DUP1 DUP3 GT ISZERO PUSH3 0x237 JUMPI PUSH1 0x0 DUP1 REVERT JUMPDEST POP PUSH3 0x246 DUP6 DUP3 DUP7 ADD PUSH3 0x12F JUMP JUMPDEST SWAP2 POP POP SWAP3 POP SWAP3 SWAP1 POP JUMP JUMPDEST PUSH1 0x1 DUP2 DUP2 SHR SWAP1 DUP3 AND DUP1 PUSH3 0x265 JUMPI PUSH1 0x7F DUP3 AND SWAP2 POP JUMPDEST PUSH1 0x20 DUP3 LT DUP2 EQ ISZERO PUSH3 0x287 JUMPI PUSH4 0x4E487B71 PUSH1 0xE0 SHL PUSH1 0x0 MSTORE PUSH1 0x22 PUSH1 0x4 MSTORE PUSH1 0x24 PUSH1 0x0 REVERT JUMPDEST POP SWAP2 SWAP1 POP JUMP JUMPDEST PUSH2 0x1119 DUP1 PUSH3 0x29D PUSH1 0x0 CODECOPY PUSH1 0x0 RETURN INVALID PUSH1 0x80 PUSH1 0x40 MSTORE PUSH1 0x4 CALLDATASIZE LT PUSH2 0x144 JUMPI PUSH1 0x0 CALLDATALOAD PUSH1 0xE0 SHR DUP1 PUSH4 0x70A08231 GT PUSH2 0xC0 JUMPI DUP1 PUSH4 0xC2F1F14A GT PUSH2 0x74 JUMPI DUP1 PUSH4 0xE030565E GT PUSH2 0x59 JUMPI DUP1 PUSH4 0xE030565E EQ PUSH2 0x362 JUMPI DUP1 PUSH4 0xE985E9C5 EQ PUSH2 0x382 JUMPI DUP1 PUSH4 0xED195968 EQ PUSH2 0x3CB JUMPI PUSH1 0x0 DUP1 REVERT JUMPDEST DUP1 PUSH4 0xC2F1F14A EQ PUSH2 0x30E JUMPI DUP1 PUSH4 0xC87B56DD EQ PUSH2 0x342 JUMPI PUSH1 0x0 DUP1 REVERT JUMPDEST DUP1 PUSH4 0x95D89B41 GT PUSH2 0xA5 JUMPI DUP1 PUSH4 0x95D89B41 EQ PUSH2 0x2C6 JUMPI DUP1 PUSH4 0xA22CB465 EQ PUSH2 0x2DB JUMPI DUP1 PUSH4 0xB88D4FDE EQ PUSH2 0x2FB JUMPI PUSH1 0x0 DUP1 REVERT JUMPDEST DUP1 PUSH4 0x70A08231 EQ PUSH2 0x276 JUMPI DUP1 PUSH4 0x8FC88C48 EQ PUSH2 0x296 JUMPI PUSH1 0x0 DUP1 REVERT JUMPDEST DUP1 PUSH4 0x18160DDD GT PUSH2 0x117 JUMPI DUP1 PUSH4 0x40C10F19 GT PUSH2 0xFC JUMPI DUP1 PUSH4 0x40C10F19 EQ PUSH2 0x223 JUMPI DUP1 PUSH4 0x42842E0E EQ PUSH2 0x243 JUMPI DUP1 PUSH4 0x6352211E EQ PUSH2 0x256 JUMPI PUSH1 0x0 DUP1 REVERT JUMPDEST DUP1 PUSH4 0x18160DDD EQ PUSH2 0x1ED JUMPI DUP1 PUSH4 0x23B872DD EQ PUSH2 0x210 JUMPI PUSH1 0x0 DUP1 REVERT JUMPDEST DUP1 PUSH4 0x1FFC9A7 EQ PUSH2 0x149 JUMPI DUP1 PUSH4 0x6FDDE03 EQ PUSH2 0x17E JUMPI DUP1 PUSH4 0x81812FC EQ PUSH2 0x1A0 JUMPI DUP1 PUSH4 0x95EA7B3 EQ PUSH2 0x1D8 JUMPI JUMPDEST PUSH1 0x0 DUP1 REVERT JUMPDEST CALLVALUE DUP1 ISZERO PUSH2 0x155 JUMPI PUSH1 0x0 DUP1 REVERT JUMPDEST POP PUSH2 0x169 PUSH2 0x164 CALLDATASIZE PUSH1 0x4 PUSH2 0xD34 JUMP JUMPDEST PUSH2 0x3EB JUMP JUMPDEST PUSH1 0x40 MLOAD SWAP1 ISZERO ISZERO DUP2 MSTORE PUSH1 0x20 ADD JUMPDEST PUSH1 0x40 MLOAD DUP1 SWAP2 SUB SWAP1 RETURN JUMPDEST CALLVALUE DUP1 ISZERO PUSH2 0x18A JUMPI PUSH1 0x0 DUP1 REVERT JUMPDEST POP PUSH2 0x193 PUSH2 0x3FC JUMP JUMPDEST PUSH1 0x40 MLOAD PUSH2 0x175 SWAP2 SWAP1 PUSH2 0xDA9 JUMP JUMPDEST CALLVALUE DUP1 ISZERO PUSH2 0x1AC JUMPI PUSH1 0x0 DUP1 REVERT JUMPDEST POP PUSH2 0x1C0 PUSH2 0x1BB CALLDATASIZE PUSH1 0x4 PUSH2 0xDBC JUMP JUMPDEST PUSH2 0x48E JUMP JUMPDEST PUSH1 0x40 MLOAD PUSH1 0x1 PUSH1 0x1 PUSH1 0xA0 SHL SUB SWAP1 SWAP2 AND DUP2 MSTORE PUSH1 0x20 ADD PUSH2 0x175 JUMP JUMPDEST PUSH2 0x1EB PUSH2 0x1E6 CALLDATASIZE PUSH1 0x4 PUSH2 0xDF1 JUMP JUMPDEST PUSH2 0x4D2 JUMP JUMPDEST STOP JUMPDEST CALLVALUE DUP1 ISZERO PUSH2 0x1F9 JUMPI PUSH1 0x0 DUP1 REVERT JUMPDEST POP PUSH1 0x1 SLOAD PUSH1 0x0 SLOAD SUB JUMPDEST PUSH1 0x40 MLOAD SWAP1 DUP2 MSTORE PUSH1 0x20 ADD PUSH2 0x175 JUMP JUMPDEST PUSH2 0x1EB PUSH2 0x21E CALLDATASIZE PUSH1 0x4 PUSH2 0xE1B JUMP JUMPDEST PUSH2 0x58A JUMP JUMPDEST CALLVALUE DUP1 ISZERO PUSH2 0x22F JUMPI PUSH1 0x0 DUP1 REVERT JUMPDEST POP PUSH2 0x1EB PUSH2 0x23E CALLDATASIZE PUSH1 0x4 PUSH2 0xDF1 JUMP JUMPDEST PUSH2 0x71B JUMP JUMPDEST PUSH2 0x1EB PUSH2 0x251 CALLDATASIZE PUSH1 0x4 PUSH2 0xE1B JUMP JUMPDEST PUSH2 0x729 JUMP JUMPDEST CALLVALUE DUP1 ISZERO PUSH2 0x262 JUMPI PUSH1 0x0 DUP1 REVERT JUMPDEST POP PUSH2 0x1C0 PUSH2 0x271 CALLDATASIZE PUSH1 0x4 PUSH2 0xDBC JUMP JUMPDEST PUSH2 0x749 JUMP JUMPDEST CALLVALUE DUP1 ISZERO PUSH2 0x282 JUMPI PUSH1 0x0 DUP1 REVERT JUMPDEST POP PUSH2 0x202 PUSH2 0x291 CALLDATASIZE PUSH1 0x4 PUSH2 0xE57 JUMP JUMPDEST PUSH2 0x754 JUMP JUMPDEST CALLVALUE DUP1 ISZERO PUSH2 0x2A2 JUMPI PUSH1 0x0 DUP1 REVERT JUMPDEST POP PUSH2 0x202 PUSH2 0x2B1 CALLDATASIZE PUSH1 0x4 PUSH2 0xDBC JUMP JUMPDEST PUSH1 0x0 SWAP1 DUP2 MSTORE PUSH1 0x8 PUSH1 0x20 MSTORE PUSH1 0x40 SWAP1 KECCAK256 SLOAD PUSH1 0xA0 SHR SWAP1 JUMP JUMPDEST CALLVALUE DUP1 ISZERO PUSH2 0x2D2 JUMPI PUSH1 0x0 DUP1 REVERT JUMPDEST POP PUSH2 0x193 PUSH2 0x7A3 JUMP JUMPDEST CALLVALUE DUP1 ISZERO PUSH2 0x2E7 JUMPI PUSH1 0x0 DUP1 REVERT JUMPDEST POP PUSH2 0x1EB PUSH2 0x2F6 CALLDATASIZE PUSH1 0x4 PUSH2 0xE72 JUMP JUMPDEST PUSH2 0x7B2 JUMP JUMPDEST PUSH2 0x1EB PUSH2 0x309 CALLDATASIZE PUSH1 0x4 PUSH2 0xEC4 JUMP JUMPDEST PUSH2 0x81E JUMP JUMPDEST CALLVALUE DUP1 ISZERO PUSH2 0x31A JUMPI PUSH1 0x0 DUP1 REVERT JUMPDEST POP PUSH2 0x1C0 PUSH2 0x329 CALLDATASIZE PUSH1 0x4 PUSH2 0xDBC JUMP JUMPDEST PUSH1 0x0 SWAP1 DUP2 MSTORE PUSH1 0x8 PUSH1 0x20 MSTORE PUSH1 0x40 SWAP1 KECCAK256 SLOAD TIMESTAMP PUSH1 0xA0 SHL DUP2 GT MUL SWAP1 JUMP JUMPDEST CALLVALUE DUP1 ISZERO PUSH2 0x34E JUMPI PUSH1 0x0 DUP1 REVERT JUMPDEST POP PUSH2 0x193 PUSH2 0x35D CALLDATASIZE PUSH1 0x4 PUSH2 0xDBC JUMP JUMPDEST PUSH2 0x868 JUMP JUMPDEST CALLVALUE DUP1 ISZERO PUSH2 0x36E JUMPI PUSH1 0x0 DUP1 REVERT JUMPDEST POP PUSH2 0x1EB PUSH2 0x37D CALLDATASIZE PUSH1 0x4 PUSH2 0xFA0 JUMP JUMPDEST PUSH2 0x8FA JUMP JUMPDEST CALLVALUE DUP1 ISZERO PUSH2 0x38E JUMPI PUSH1 0x0 DUP1 REVERT JUMPDEST POP PUSH2 0x169 PUSH2 0x39D CALLDATASIZE PUSH1 0x4 PUSH2 0xFED JUMP JUMPDEST PUSH1 0x1 PUSH1 0x1 PUSH1 0xA0 SHL SUB SWAP2 DUP3 AND PUSH1 0x0 SWAP1 DUP2 MSTORE PUSH1 0x7 PUSH1 0x20 SWAP1 DUP2 MSTORE PUSH1 0x40 DUP1 DUP4 KECCAK256 SWAP4 SWAP1 SWAP5 AND DUP3 MSTORE SWAP2 SWAP1 SWAP2 MSTORE KECCAK256 SLOAD PUSH1 0xFF AND SWAP1 JUMP JUMPDEST CALLVALUE DUP1 ISZERO PUSH2 0x3D7 JUMPI PUSH1 0x0 DUP1 REVERT JUMPDEST POP PUSH2 0x1C0 PUSH2 0x3E6 CALLDATASIZE PUSH1 0x4 PUSH2 0xDBC JUMP JUMPDEST PUSH2 0x9DC JUMP JUMPDEST PUSH1 0x0 PUSH2 0x3F6 DUP3 PUSH2 0x9F0 JUMP JUMPDEST SWAP3 SWAP2 POP POP JUMP JUMPDEST PUSH1 0x60 PUSH1 0x2 DUP1 SLOAD PUSH2 0x40B SWAP1 PUSH2 0x1020 JUMP JUMPDEST DUP1 PUSH1 0x1F ADD PUSH1 0x20 DUP1 SWAP2 DIV MUL PUSH1 0x20 ADD PUSH1 0x40 MLOAD SWAP1 DUP2 ADD PUSH1 0x40 MSTORE DUP1 SWAP3 SWAP2 SWAP1 DUP2 DUP2 MSTORE PUSH1 0x20 ADD DUP3 DUP1 SLOAD PUSH2 0x437 SWAP1 PUSH2 0x1020 JUMP JUMPDEST DUP1 ISZERO PUSH2 0x484 JUMPI DUP1 PUSH1 0x1F LT PUSH2 0x459 JUMPI PUSH2 0x100 DUP1 DUP4 SLOAD DIV MUL DUP4 MSTORE SWAP2 PUSH1 0x20 ADD SWAP2 PUSH2 0x484 JUMP JUMPDEST DUP3 ADD SWAP2 SWAP1 PUSH1 0x0 MSTORE PUSH1 0x20 PUSH1 0x0 KECCAK256 SWAP1 JUMPDEST DUP2 SLOAD DUP2 MSTORE SWAP1 PUSH1 0x1 ADD SWAP1 PUSH1 0x20 ADD DUP1 DUP4 GT PUSH2 0x467 JUMPI DUP3 SWAP1 SUB PUSH1 0x1F AND DUP3 ADD SWAP2 JUMPDEST POP POP POP POP POP SWAP1 POP SWAP1 JUMP JUMPDEST PUSH1 0x0 PUSH2 0x499 DUP3 PUSH2 0xA18 JUMP JUMPDEST PUSH2 0x4B6 JUMPI PUSH1 0x40 MLOAD PUSH4 0x33D1C039 PUSH1 0xE2 SHL DUP2 MSTORE PUSH1 0x4 ADD PUSH1 0x40 MLOAD DUP1 SWAP2 SUB SWAP1 REVERT JUMPDEST POP PUSH1 0x0 SWAP1 DUP2 MSTORE PUSH1 0x6 PUSH1 0x20 MSTORE PUSH1 0x40 SWAP1 KECCAK256 SLOAD PUSH1 0x1 PUSH1 0x1 PUSH1 0xA0 SHL SUB AND SWAP1 JUMP JUMPDEST PUSH1 0x0 PUSH2 0x4DD DUP3 PUSH2 0x749 JUMP JUMPDEST SWAP1 POP CALLER PUSH1 0x1 PUSH1 0x1 PUSH1 0xA0 SHL SUB DUP3 AND EQ PUSH2 0x516 JUMPI PUSH2 0x4F9 DUP2 CALLER PUSH2 0x39D JUMP JUMPDEST PUSH2 0x516 JUMPI PUSH1 0x40 MLOAD PUSH4 0x67D9DCA1 PUSH1 0xE1 SHL DUP2 MSTORE PUSH1 0x4 ADD PUSH1 0x40 MLOAD DUP1 SWAP2 SUB SWAP1 REVERT JUMPDEST PUSH1 0x0 DUP3 DUP2 MSTORE PUSH1 0x6 PUSH1 0x20 MSTORE PUSH1 0x40 DUP1 DUP3 KECCAK256 DUP1 SLOAD PUSH32 0xFFFFFFFFFFFFFFFFFFFFFFFF0000000000000000000000000000000000000000 AND PUSH1 0x1 PUSH1 0x1 PUSH1 0xA0 SHL SUB DUP8 DUP2 AND SWAP2 DUP3 OR SWAP1 SWAP3 SSTORE SWAP2 MLOAD DUP6 SWAP4 SWAP2 DUP6 AND SWAP2 PUSH32 0x8C5BE1E5EBEC7D5BD14F71427D1E84F3DD0314C0F7B2291E5B200AC8C7C3B925 SWAP2 LOG4 POP POP POP JUMP JUMPDEST PUSH1 0x0 PUSH2 0x595 DUP3 PUSH2 0xA3F JUMP JUMPDEST SWAP1 POP DUP4 PUSH1 0x1 PUSH1 0x1 PUSH1 0xA0 SHL SUB AND DUP2 PUSH1 0x1 PUSH1 0x1 PUSH1 0xA0 SHL SUB AND EQ PUSH2 0x5C8 JUMPI PUSH1 0x40 MLOAD PUSH3 0xA11481 PUSH1 0xE8 SHL DUP2 MSTORE PUSH1 0x4 ADD PUSH1 0x40 MLOAD DUP1 SWAP2 SUB SWAP1 REVERT JUMPDEST PUSH1 0x0 DUP3 DUP2 MSTORE PUSH1 0x6 PUSH1 0x20 MSTORE PUSH1 0x40 SWAP1 KECCAK256 DUP1 SLOAD CALLER DUP1 DUP3 EQ PUSH1 0x1 PUSH1 0x1 PUSH1 0xA0 SHL SUB DUP9 AND SWAP1 SWAP2 EQ OR PUSH2 0x615 JUMPI PUSH2 0x5F8 DUP7 CALLER PUSH2 0x39D JUMP JUMPDEST PUSH2 0x615 JUMPI PUSH1 0x40 MLOAD PUSH4 0x2CE44B5F PUSH1 0xE1 SHL DUP2 MSTORE PUSH1 0x4 ADD PUSH1 0x40 MLOAD DUP1 SWAP2 SUB SWAP1 REVERT JUMPDEST PUSH1 0x1 PUSH1 0x1 PUSH1 0xA0 SHL SUB DUP6 AND PUSH2 0x63C JUMPI PUSH1 0x40 MLOAD PUSH4 0x3A954ECD PUSH1 0xE2 SHL DUP2 MSTORE PUSH1 0x4 ADD PUSH1 0x40 MLOAD DUP1 SWAP2 SUB SWAP1 REVERT JUMPDEST DUP1 ISZERO PUSH2 0x647 JUMPI PUSH1 0x0 DUP3 SSTORE JUMPDEST PUSH1 0x1 PUSH1 0x1 PUSH1 0xA0 SHL SUB DUP7 DUP2 AND PUSH1 0x0 SWAP1 DUP2 MSTORE PUSH1 0x5 PUSH1 0x20 MSTORE PUSH1 0x40 DUP1 DUP3 KECCAK256 DUP1 SLOAD PUSH1 0x0 NOT ADD SWAP1 SSTORE SWAP2 DUP8 AND DUP1 DUP3 MSTORE SWAP2 SWAP1 KECCAK256 DUP1 SLOAD PUSH1 0x1 ADD SWAP1 SSTORE TIMESTAMP PUSH1 0xA0 SHL OR PUSH1 0x1 PUSH1 0xE1 SHL OR PUSH1 0x0 DUP6 DUP2 MSTORE PUSH1 0x4 PUSH1 0x20 MSTORE PUSH1 0x40 SWAP1 KECCAK256 SSTORE PUSH1 0x1 PUSH1 0xE1 SHL DUP4 AND PUSH2 0x6D2 JUMPI PUSH1 0x1 DUP5 ADD PUSH1 0x0 DUP2 DUP2 MSTORE PUSH1 0x4 PUSH1 0x20 MSTORE PUSH1 0x40 SWAP1 KECCAK256 SLOAD PUSH2 0x6D0 JUMPI PUSH1 0x0 SLOAD DUP2 EQ PUSH2 0x6D0 JUMPI PUSH1 0x0 DUP2 DUP2 MSTORE PUSH1 0x4 PUSH1 0x20 MSTORE PUSH1 0x40 SWAP1 KECCAK256 DUP5 SWAP1 SSTORE JUMPDEST POP JUMPDEST DUP4 DUP6 PUSH1 0x1 PUSH1 0x1 PUSH1 0xA0 SHL SUB AND DUP8 PUSH1 0x1 PUSH1 0x1 PUSH1 0xA0 SHL SUB AND PUSH32 0xDDF252AD1BE2C89B69C2B068FC378DAA952BA7F163C4A11628F55A4DF523B3EF PUSH1 0x40 MLOAD PUSH1 0x40 MLOAD DUP1 SWAP2 SUB SWAP1 LOG4 POP POP POP POP POP POP JUMP JUMPDEST PUSH2 0x725 DUP3 DUP3 PUSH2 0xAA0 JUMP JUMPDEST POP POP JUMP JUMPDEST PUSH2 0x744 DUP4 DUP4 DUP4 PUSH1 0x40 MLOAD DUP1 PUSH1 0x20 ADD PUSH1 0x40 MSTORE DUP1 PUSH1 0x0 DUP2 MSTORE POP PUSH2 0x81E JUMP JUMPDEST POP POP POP JUMP JUMPDEST PUSH1 0x0 PUSH2 0x3F6 DUP3 PUSH2 0xA3F JUMP JUMPDEST PUSH1 0x0 PUSH1 0x1 PUSH1 0x1 PUSH1 0xA0 SHL SUB DUP3 AND PUSH2 0x77D JUMPI PUSH1 0x40 MLOAD PUSH4 0x23D3AD81 PUSH1 0xE2 SHL DUP2 MSTORE PUSH1 0x4 ADD PUSH1 0x40 MLOAD DUP1 SWAP2 SUB SWAP1 REVERT JUMPDEST POP PUSH1 0x1 PUSH1 0x1 PUSH1 0xA0 SHL SUB AND PUSH1 0x0 SWAP1 DUP2 MSTORE PUSH1 0x5 PUSH1 0x20 MSTORE PUSH1 0x40 SWAP1 KECCAK256 SLOAD PUSH8 0xFFFFFFFFFFFFFFFF AND SWAP1 JUMP JUMPDEST PUSH1 0x60 PUSH1 0x3 DUP1 SLOAD PUSH2 0x40B SWAP1 PUSH2 0x1020 JUMP JUMPDEST CALLER PUSH1 0x0 DUP2 DUP2 MSTORE PUSH1 0x7 PUSH1 0x20 SWAP1 DUP2 MSTORE PUSH1 0x40 DUP1 DUP4 KECCAK256 PUSH1 0x1 PUSH1 0x1 PUSH1 0xA0 SHL SUB DUP8 AND DUP1 DUP6 MSTORE SWAP1 DUP4 MSTORE SWAP3 DUP2 SWAP1 KECCAK256 DUP1 SLOAD PUSH1 0xFF NOT AND DUP7 ISZERO ISZERO SWAP1 DUP2 OR SWAP1 SWAP2 SSTORE SWAP1 MLOAD SWAP1 DUP2 MSTORE SWAP2 SWAP3 SWAP2 PUSH32 0x17307EAB39AB6107E8899845AD3D59BD9653F200F220920489CA2B5937696C31 SWAP2 ADD PUSH1 0x40 MLOAD DUP1 SWAP2 SUB SWAP1 LOG3 POP POP JUMP JUMPDEST PUSH2 0x829 DUP5 DUP5 DUP5 PUSH2 0x58A JUMP JUMPDEST PUSH1 0x1 PUSH1 0x1 PUSH1 0xA0 SHL SUB DUP4 AND EXTCODESIZE ISZERO PUSH2 0x862 JUMPI PUSH2 0x845 DUP5 DUP5 DUP5 DUP5 PUSH2 0xB97 JUMP JUMPDEST PUSH2 0x862 JUMPI PUSH1 0x40 MLOAD PUSH4 0x68D2BF6B PUSH1 0xE1 SHL DUP2 MSTORE PUSH1 0x4 ADD PUSH1 0x40 MLOAD DUP1 SWAP2 SUB SWAP1 REVERT JUMPDEST POP POP POP POP JUMP JUMPDEST PUSH1 0x60 PUSH2 0x873 DUP3 PUSH2 0xA18 JUMP JUMPDEST PUSH2 0x890 JUMPI PUSH1 0x40 MLOAD PUSH4 0xA14C4B5 PUSH1 0xE4 SHL DUP2 MSTORE PUSH1 0x4 ADD PUSH1 0x40 MLOAD DUP1 SWAP2 SUB SWAP1 REVERT JUMPDEST PUSH1 0x0 PUSH2 0x8A7 PUSH1 0x40 DUP1 MLOAD PUSH1 0x20 DUP2 ADD SWAP1 SWAP2 MSTORE PUSH1 0x0 DUP2 MSTORE SWAP1 JUMP JUMPDEST SWAP1 POP DUP1 MLOAD PUSH1 0x0 EQ ISZERO PUSH2 0x8C8 JUMPI PUSH1 0x40 MLOAD DUP1 PUSH1 0x20 ADD PUSH1 0x40 MSTORE DUP1 PUSH1 0x0 DUP2 MSTORE POP PUSH2 0x8F3 JUMP JUMPDEST DUP1 PUSH2 0x8D2 DUP5 PUSH2 0xC7F JUMP JUMPDEST PUSH1 0x40 MLOAD PUSH1 0x20 ADD PUSH2 0x8E3 SWAP3 SWAP2 SWAP1 PUSH2 0x105B JUMP JUMPDEST PUSH1 0x40 MLOAD PUSH1 0x20 DUP2 DUP4 SUB SUB DUP2 MSTORE SWAP1 PUSH1 0x40 MSTORE JUMPDEST SWAP4 SWAP3 POP POP POP JUMP JUMPDEST PUSH1 0x0 PUSH2 0x905 DUP5 PUSH2 0x749 JUMP JUMPDEST SWAP1 POP CALLER PUSH1 0x1 PUSH1 0x1 PUSH1 0xA0 SHL SUB DUP3 AND EQ PUSH2 0x956 JUMPI PUSH2 0x921 DUP2 CALLER PUSH2 0x39D JUMP JUMPDEST PUSH2 0x956 JUMPI CALLER PUSH2 0x92F DUP6 PUSH2 0x48E JUMP JUMPDEST PUSH1 0x1 PUSH1 0x1 PUSH1 0xA0 SHL SUB AND EQ PUSH2 0x956 JUMPI PUSH1 0x40 MLOAD PUSH4 0x9E3BB1D PUSH1 0xE3 SHL DUP2 MSTORE PUSH1 0x4 ADD PUSH1 0x40 MLOAD DUP1 SWAP2 SUB SWAP1 REVERT JUMPDEST PUSH1 0x0 DUP5 DUP2 MSTORE PUSH1 0x8 PUSH1 0x20 SWAP1 DUP2 MSTORE PUSH1 0x40 SWAP2 DUP3 SWAP1 KECCAK256 PUSH1 0x1 PUSH1 0x1 PUSH1 0xA0 SHL SUB DUP7 AND PUSH1 0xA0 DUP7 SWAP1 SHL PUSH28 0xFFFFFFFFFFFFFFFF0000000000000000000000000000000000000000 AND DUP2 OR SWAP1 SWAP2 SSTORE SWAP2 MLOAD PUSH8 0xFFFFFFFFFFFFFFFF DUP6 AND DUP2 MSTORE DUP7 SWAP2 PUSH32 0x4E06B4E7000E659094299B3533B47B6AA8AD048E95E872D23D1F4EE55AF89CFE SWAP2 ADD PUSH1 0x40 MLOAD DUP1 SWAP2 SUB SWAP1 LOG3 POP POP POP POP JUMP JUMPDEST PUSH1 0x0 DUP2 DUP2 MSTORE PUSH1 0x8 PUSH1 0x20 MSTORE PUSH1 0x40 DUP2 KECCAK256 SLOAD PUSH2 0x3F6 JUMP JUMPDEST PUSH1 0x0 PUSH2 0x9FB DUP3 PUSH2 0xCCD JUMP JUMPDEST DUP1 PUSH2 0x3F6 JUMPI POP POP PUSH1 0x1 PUSH1 0x1 PUSH1 0xE0 SHL SUB NOT AND PUSH4 0x2B424AD7 PUSH1 0xE2 SHL EQ SWAP1 JUMP JUMPDEST PUSH1 0x0 DUP1 SLOAD DUP3 LT DUP1 ISZERO PUSH2 0x3F6 JUMPI POP POP PUSH1 0x0 SWAP1 DUP2 MSTORE PUSH1 0x4 PUSH1 0x20 MSTORE PUSH1 0x40 SWAP1 KECCAK256 SLOAD PUSH1 0x1 PUSH1 0xE0 SHL AND ISZERO SWAP1 JUMP JUMPDEST PUSH1 0x0 DUP2 PUSH1 0x0 SLOAD DUP2 LT ISZERO PUSH2 0xA87 JUMPI PUSH1 0x0 DUP2 DUP2 MSTORE PUSH1 0x4 PUSH1 0x20 MSTORE PUSH1 0x40 SWAP1 KECCAK256 SLOAD PUSH1 0x1 PUSH1 0xE0 SHL DUP2 AND PUSH2 0xA85 JUMPI JUMPDEST DUP1 PUSH2 0x8F3 JUMPI POP PUSH1 0x0 NOT ADD PUSH1 0x0 DUP2 DUP2 MSTORE PUSH1 0x4 PUSH1 0x20 MSTORE PUSH1 0x40 SWAP1 KECCAK256 SLOAD PUSH2 0xA67 JUMP JUMPDEST POP JUMPDEST PUSH1 0x40 MLOAD PUSH4 0x6F96CDA1 PUSH1 0xE1 SHL DUP2 MSTORE PUSH1 0x4 ADD PUSH1 0x40 MLOAD DUP1 SWAP2 SUB SWAP1 REVERT JUMPDEST PUSH1 0x0 SLOAD DUP2 PUSH2 0xAC1 JUMPI PUSH1 0x40 MLOAD PUSH4 0xB562E8DD PUSH1 0xE0 SHL DUP2 MSTORE PUSH1 0x4 ADD PUSH1 0x40 MLOAD DUP1 SWAP2 SUB SWAP1 REVERT JUMPDEST PUSH1 0x1 PUSH1 0x1 PUSH1 0xA0 SHL SUB DUP4 AND PUSH1 0x0 DUP2 DUP2 MSTORE PUSH1 0x5 PUSH1 0x20 SWAP1 DUP2 MSTORE PUSH1 0x40 DUP1 DUP4 KECCAK256 DUP1 SLOAD PUSH9 0x10000000000000001 DUP9 MUL ADD SWAP1 SSTORE DUP5 DUP4 MSTORE PUSH1 0x4 SWAP1 SWAP2 MSTORE DUP2 KECCAK256 PUSH1 0x1 DUP6 EQ PUSH1 0xE1 SHL TIMESTAMP PUSH1 0xA0 SHL OR DUP4 OR SWAP1 SSTORE DUP3 DUP5 ADD SWAP1 DUP4 SWAP1 DUP4 SWAP1 PUSH32 0xDDF252AD1BE2C89B69C2B068FC378DAA952BA7F163C4A11628F55A4DF523B3EF DUP2 DUP1 LOG4 PUSH1 0x1 DUP4 ADD JUMPDEST DUP2 DUP2 EQ PUSH2 0xB70 JUMPI DUP1 DUP4 PUSH1 0x0 PUSH32 0xDDF252AD1BE2C89B69C2B068FC378DAA952BA7F163C4A11628F55A4DF523B3EF PUSH1 0x0 DUP1 LOG4 PUSH1 0x1 ADD PUSH2 0xB38 JUMP JUMPDEST POP DUP2 PUSH2 0xB8E JUMPI PUSH1 0x40 MLOAD PUSH3 0x2E0763 PUSH1 0xE8 SHL DUP2 MSTORE PUSH1 0x4 ADD PUSH1 0x40 MLOAD DUP1 SWAP2 SUB SWAP1 REVERT JUMPDEST PUSH1 0x0 SSTORE POP POP POP POP JUMP JUMPDEST PUSH1 0x40 MLOAD PUSH4 0xA85BD01 PUSH1 0xE1 SHL DUP2 MSTORE PUSH1 0x0 SWAP1 PUSH1 0x1 PUSH1 0x1 PUSH1 0xA0 SHL SUB DUP6 AND SWAP1 PUSH4 0x150B7A02 SWAP1 PUSH2 0xBCC SWAP1 CALLER SWAP1 DUP10 SWAP1 DUP9 SWAP1 DUP9 SWAP1 PUSH1 0x4 ADD PUSH2 0x108A JUMP JUMPDEST PUSH1 0x20 PUSH1 0x40 MLOAD DUP1 DUP4 SUB DUP2 PUSH1 0x0 DUP8 GAS CALL SWAP3 POP POP POP DUP1 ISZERO PUSH2 0xC07 JUMPI POP PUSH1 0x40 DUP1 MLOAD PUSH1 0x1F RETURNDATASIZE SWAP1 DUP2 ADD PUSH1 0x1F NOT AND DUP3 ADD SWAP1 SWAP3 MSTORE PUSH2 0xC04 SWAP2 DUP2 ADD SWAP1 PUSH2 0x10C6 JUMP JUMPDEST PUSH1 0x1 JUMPDEST PUSH2 0xC62 JUMPI RETURNDATASIZE DUP1 DUP1 ISZERO PUSH2 0xC35 JUMPI PUSH1 0x40 MLOAD SWAP2 POP PUSH1 0x1F NOT PUSH1 0x3F RETURNDATASIZE ADD AND DUP3 ADD PUSH1 0x40 MSTORE RETURNDATASIZE DUP3 MSTORE RETURNDATASIZE PUSH1 0x0 PUSH1 0x20 DUP5 ADD RETURNDATACOPY PUSH2 0xC3A JUMP JUMPDEST PUSH1 0x60 SWAP2 POP JUMPDEST POP DUP1 MLOAD PUSH2 0xC5A JUMPI PUSH1 0x40 MLOAD PUSH4 0x68D2BF6B PUSH1 0xE1 SHL DUP2 MSTORE PUSH1 0x4 ADD PUSH1 0x40 MLOAD DUP1 SWAP2 SUB SWAP1 REVERT JUMPDEST DUP1 MLOAD DUP2 PUSH1 0x20 ADD REVERT JUMPDEST PUSH1 0x1 PUSH1 0x1 PUSH1 0xE0 SHL SUB NOT AND PUSH4 0xA85BD01 PUSH1 0xE1 SHL EQ SWAP1 POP SWAP5 SWAP4 POP POP POP POP JUMP JUMPDEST PUSH1 0x60 PUSH1 0xA0 PUSH1 0x40 MLOAD ADD DUP1 PUSH1 0x40 MSTORE PUSH1 0x20 DUP2 SUB SWAP2 POP POP PUSH1 0x0 DUP2 MSTORE DUP1 DUP3 JUMPDEST PUSH1 0x1 DUP4 SUB SWAP3 POP PUSH1 0xA DUP2 MOD PUSH1 0x30 ADD DUP4 MSTORE8 PUSH1 0xA SWAP1 DIV DUP1 PUSH2 0xCB6 JUMPI PUSH2 0xCBB JUMP JUMPDEST PUSH2 0xC99 JUMP JUMPDEST POP DUP2 SWAP1 SUB PUSH1 0x1F NOT SWAP1 SWAP2 ADD SWAP1 DUP2 MSTORE SWAP2 SWAP1 POP JUMP JUMPDEST PUSH1 0x0 PUSH4 0x1FFC9A7 PUSH1 0xE0 SHL PUSH1 0x1 PUSH1 0x1 PUSH1 0xE0 SHL SUB NOT DUP4 AND EQ DUP1 PUSH2 0xCFE JUMPI POP PUSH4 0x80AC58CD PUSH1 0xE0 SHL PUSH1 0x1 PUSH1 0x1 PUSH1 0xE0 SHL SUB NOT DUP4 AND EQ JUMPDEST DUP1 PUSH2 0x3F6 JUMPI POP POP PUSH1 0x1 PUSH1 0x1 PUSH1 0xE0 SHL SUB NOT AND PUSH4 0x5B5E139F PUSH1 0xE0 SHL EQ SWAP1 JUMP JUMPDEST PUSH1 0x1 PUSH1 0x1 PUSH1 0xE0 SHL SUB NOT DUP2 AND DUP2 EQ PUSH2 0xD31 JUMPI PUSH1 0x0 DUP1 REVERT JUMPDEST POP JUMP JUMPDEST PUSH1 0x0 PUSH1 0x20 DUP3 DUP5 SUB SLT ISZERO PUSH2 0xD46 JUMPI PUSH1 0x0 DUP1 REVERT JUMPDEST DUP2 CALLDATALOAD PUSH2 0x8F3 DUP2 PUSH2 0xD1B JUMP JUMPDEST PUSH1 0x0 JUMPDEST DUP4 DUP2 LT ISZERO PUSH2 0xD6C JUMPI DUP2 DUP2 ADD MLOAD DUP4 DUP3 ADD MSTORE PUSH1 0x20 ADD PUSH2 0xD54 JUMP JUMPDEST DUP4 DUP2 GT ISZERO PUSH2 0x862 JUMPI POP POP PUSH1 0x0 SWAP2 ADD MSTORE JUMP JUMPDEST PUSH1 0x0 DUP2 MLOAD DUP1 DUP5 MSTORE PUSH2 0xD95 DUP2 PUSH1 0x20 DUP7 ADD PUSH1 0x20 DUP7 ADD PUSH2 0xD51 JUMP JUMPDEST PUSH1 0x1F ADD PUSH1 0x1F NOT AND SWAP3 SWAP1 SWAP3 ADD PUSH1 0x20 ADD SWAP3 SWAP2 POP POP JUMP JUMPDEST PUSH1 0x20 DUP2 MSTORE PUSH1 0x0 PUSH2 0x8F3 PUSH1 0x20 DUP4 ADD DUP5 PUSH2 0xD7D JUMP JUMPDEST PUSH1 0x0 PUSH1 0x20 DUP3 DUP5 SUB SLT ISZERO PUSH2 0xDCE JUMPI PUSH1 0x0 DUP1 REVERT JUMPDEST POP CALLDATALOAD SWAP2 SWAP1 POP JUMP JUMPDEST DUP1 CALLDATALOAD PUSH1 0x1 PUSH1 0x1 PUSH1 0xA0 SHL SUB DUP2 AND DUP2 EQ PUSH2 0xDEC JUMPI PUSH1 0x0 DUP1 REVERT JUMPDEST SWAP2 SWAP1 POP JUMP JUMPDEST PUSH1 0x0 DUP1 PUSH1 0x40 DUP4 DUP6 SUB SLT ISZERO PUSH2 0xE04 JUMPI PUSH1 0x0 DUP1 REVERT JUMPDEST PUSH2 0xE0D DUP4 PUSH2 0xDD5 JUMP JUMPDEST SWAP5 PUSH1 0x20 SWAP4 SWAP1 SWAP4 ADD CALLDATALOAD SWAP4 POP POP POP JUMP JUMPDEST PUSH1 0x0 DUP1 PUSH1 0x0 PUSH1 0x60 DUP5 DUP7 SUB SLT ISZERO PUSH2 0xE30 JUMPI PUSH1 0x0 DUP1 REVERT JUMPDEST PUSH2 0xE39 DUP5 PUSH2 0xDD5 JUMP JUMPDEST SWAP3 POP PUSH2 0xE47 PUSH1 0x20 DUP6 ADD PUSH2 0xDD5 JUMP JUMPDEST SWAP2 POP PUSH1 0x40 DUP5 ADD CALLDATALOAD SWAP1 POP SWAP3 POP SWAP3 POP SWAP3 JUMP JUMPDEST PUSH1 0x0 PUSH1 0x20 DUP3 DUP5 SUB SLT ISZERO PUSH2 0xE69 JUMPI PUSH1 0x0 DUP1 REVERT JUMPDEST PUSH2 0x8F3 DUP3 PUSH2 0xDD5 JUMP JUMPDEST PUSH1 0x0 DUP1 PUSH1 0x40 DUP4 DUP6 SUB SLT ISZERO PUSH2 0xE85 JUMPI PUSH1 0x0 DUP1 REVERT JUMPDEST PUSH2 0xE8E DUP4 PUSH2 0xDD5 JUMP JUMPDEST SWAP2 POP PUSH1 0x20 DUP4 ADD CALLDATALOAD DUP1 ISZERO ISZERO DUP2 EQ PUSH2 0xEA3 JUMPI PUSH1 0x0 DUP1 REVERT JUMPDEST DUP1 SWAP2 POP POP SWAP3 POP SWAP3 SWAP1 POP JUMP JUMPDEST PUSH4 0x4E487B71 PUSH1 0xE0 SHL PUSH1 0x0 MSTORE PUSH1 0x41 PUSH1 0x4 MSTORE PUSH1 0x24 PUSH1 0x0 REVERT JUMPDEST PUSH1 0x0 DUP1 PUSH1 0x0 DUP1 PUSH1 0x80 DUP6 DUP8 SUB SLT ISZERO PUSH2 0xEDA JUMPI PUSH1 0x0 DUP1 REVERT JUMPDEST PUSH2 0xEE3 DUP6 PUSH2 0xDD5 JUMP JUMPDEST SWAP4 POP PUSH2 0xEF1 PUSH1 0x20 DUP7 ADD PUSH2 0xDD5 JUMP JUMPDEST SWAP3 POP PUSH1 0x40 DUP6 ADD CALLDATALOAD SWAP2 POP PUSH1 0x60 DUP6 ADD CALLDATALOAD PUSH8 0xFFFFFFFFFFFFFFFF DUP1 DUP3 GT ISZERO PUSH2 0xF15 JUMPI PUSH1 0x0 DUP1 REVERT JUMPDEST DUP2 DUP8 ADD SWAP2 POP DUP8 PUSH1 0x1F DUP4 ADD SLT PUSH2 0xF29 JUMPI PUSH1 0x0 DUP1 REVERT JUMPDEST DUP2 CALLDATALOAD DUP2 DUP2 GT ISZERO PUSH2 0xF3B JUMPI PUSH2 0xF3B PUSH2 0xEAE JUMP JUMPDEST PUSH1 0x40 MLOAD PUSH1 0x1F DUP3 ADD PUSH1 0x1F NOT SWAP1 DUP2 AND PUSH1 0x3F ADD AND DUP2 ADD SWAP1 DUP4 DUP3 GT DUP2 DUP4 LT OR ISZERO PUSH2 0xF63 JUMPI PUSH2 0xF63 PUSH2 0xEAE JUMP JUMPDEST DUP2 PUSH1 0x40 MSTORE DUP3 DUP2 MSTORE DUP11 PUSH1 0x20 DUP5 DUP8 ADD ADD GT ISZERO PUSH2 0xF7C JUMPI PUSH1 0x0 DUP1 REVERT JUMPDEST DUP3 PUSH1 0x20 DUP7 ADD PUSH1 0x20 DUP4 ADD CALLDATACOPY PUSH1 0x0 PUSH1 0x20 DUP5 DUP4 ADD ADD MSTORE DUP1 SWAP6 POP POP POP POP POP POP SWAP3 SWAP6 SWAP2 SWAP5 POP SWAP3 POP JUMP JUMPDEST PUSH1 0x0 DUP1 PUSH1 0x0 PUSH1 0x60 DUP5 DUP7 SUB SLT ISZERO PUSH2 0xFB5 JUMPI PUSH1 0x0 DUP1 REVERT JUMPDEST DUP4 CALLDATALOAD SWAP3 POP PUSH2 0xFC5 PUSH1 0x20 DUP6 ADD PUSH2 0xDD5 JUMP JUMPDEST SWAP2 POP PUSH1 0x40 DUP5 ADD CALLDATALOAD PUSH8 0xFFFFFFFFFFFFFFFF DUP2 AND DUP2 EQ PUSH2 0xFE2 JUMPI PUSH1 0x0 DUP1 REVERT JUMPDEST DUP1 SWAP2 POP POP SWAP3 POP SWAP3 POP SWAP3 JUMP JUMPDEST PUSH1 0x0 DUP1 PUSH1 0x40 DUP4 DUP6 SUB SLT ISZERO PUSH2 0x1000 JUMPI PUSH1 0x0 DUP1 REVERT JUMPDEST PUSH2 0x1009 DUP4 PUSH2 0xDD5 JUMP JUMPDEST SWAP2 POP PUSH2 0x1017 PUSH1 0x20 DUP5 ADD PUSH2 0xDD5 JUMP JUMPDEST SWAP1 POP SWAP3 POP SWAP3 SWAP1 POP JUMP JUMPDEST PUSH1 0x1 DUP2 DUP2 SHR SWAP1 DUP3 AND DUP1 PUSH2 0x1034 JUMPI PUSH1 0x7F DUP3 AND SWAP2 POP JUMPDEST PUSH1 0x20 DUP3 LT DUP2 EQ ISZERO PUSH2 0x1055 JUMPI PUSH4 0x4E487B71 PUSH1 0xE0 SHL PUSH1 0x0 MSTORE PUSH1 0x22 PUSH1 0x4 MSTORE PUSH1 0x24 PUSH1 0x0 REVERT JUMPDEST POP SWAP2 SWAP1 POP JUMP JUMPDEST PUSH1 0x0 DUP4 MLOAD PUSH2 0x106D DUP2 DUP5 PUSH1 0x20 DUP9 ADD PUSH2 0xD51 JUMP JUMPDEST DUP4 MLOAD SWAP1 DUP4 ADD SWAP1 PUSH2 0x1081 DUP2 DUP4 PUSH1 0x20 DUP9 ADD PUSH2 0xD51 JUMP JUMPDEST ADD SWAP5 SWAP4 POP POP POP POP JUMP JUMPDEST PUSH1 0x0 PUSH1 0x1 PUSH1 0x1 PUSH1 0xA0 SHL SUB DUP1 DUP8 AND DUP4 MSTORE DUP1 DUP7 AND PUSH1 0x20 DUP5 ADD MSTORE POP DUP4 PUSH1 0x40 DUP4 ADD MSTORE PUSH1 0x80 PUSH1 0x60 DUP4 ADD MSTORE PUSH2 0x10BC PUSH1 0x80 DUP4 ADD DUP5 PUSH2 0xD7D JUMP JUMPDEST SWAP7 SWAP6 POP POP POP POP POP POP JUMP JUMPDEST PUSH1 0x0 PUSH1 0x20 DUP3 DUP5 SUB SLT ISZERO PUSH2 0x10D8 JUMPI PUSH1 0x0 DUP1 REVERT JUMPDEST DUP2 MLOAD PUSH2 0x8F3 DUP2 PUSH2 0xD1B JUMP INVALID LOG2 PUSH5 0x6970667358 0x22 SLT KECCAK256 0x1E PUSH31 0x72D28E0CED0CC8A2FA99FE3CD085BB644C0976064DF45F30D0543B84670E64 PUSH20 0x6F6C634300080B00330000000000000000000000 "},"methodIdentifiers":{"approve(address,uint256)":"095ea7b3","balanceOf(address)":"70a08231","explicitUserOf(uint256)":"ed195968","getApproved(uint256)":"081812fc","isApprovedForAll(address,address)":"e985e9c5","mint(address,uint256)":"40c10f19","name()":"06fdde03","ownerOf(uint256)":"6352211e","safeTransferFrom(address,address,uint256)":"42842e0e","safeTransferFrom(address,address,uint256,bytes)":"b88d4fde","setApprovalForAll(address,bool)":"a22cb465","setUser(uint256,address,uint64)":"e030565e","supportsInterface(bytes4)":"01ffc9a7","symbol()":"95d89b41","tokenURI(uint256)":"c87b56dd","totalSupply()":"18160ddd","transferFrom(address,address,uint256)":"23b872dd","userExpires(uint256)":"8fc88c48","userOf(uint256)":"c2f1f14a"}}}}}