{"contracts/mocks/ERC721AQueryableStartTokenIdMock.sol":{"ERC721AQueryableStartTokenIdMock":{"abi":[{"inputs":[{"internalType":"string","name":"name_","type":"string"},{"internalType":"string","name":"symbol_","type":"string"},{"internalType":"uint256","name":"startTokenId_","type":"uint256"}],"stateMutability":"nonpayable","type":"constructor"},{"inputs":[],"name":"ApprovalCallerNotOwnerNorApproved","type":"error"},{"inputs":[],"name":"ApprovalQueryForNonexistentToken","type":"error"},{"inputs":[],"name":"BalanceQueryForZeroAddress","type":"error"},{"inputs":[],"name":"InvalidQueryRange","type":"error"},{"inputs":[],"name":"MintERC2309QuantityExceedsLimit","type":"error"},{"inputs":[],"name":"MintToZeroAddress","type":"error"},{"inputs":[],"name":"MintZeroQuantity","type":"error"},{"inputs":[],"name":"OwnerQueryForNonexistentToken","type":"error"},{"inputs":[],"name":"OwnershipNotInitializedForExtraData","type":"error"},{"inputs":[],"name":"TransferCallerNotOwnerNorApproved","type":"error"},{"inputs":[],"name":"TransferFromIncorrectOwner","type":"error"},{"inputs":[],"name":"TransferToNonERC721ReceiverImplementer","type":"error"},{"inputs":[],"name":"TransferToZeroAddress","type":"error"},{"inputs":[],"name":"URIQueryForNonexistentToken","type":"error"},{"anonymous":false,"inputs":[{"indexed":true,"internalType":"address","name":"owner","type":"address"},{"indexed":true,"internalType":"address","name":"approved","type":"address"},{"indexed":true,"internalType":"uint256","name":"tokenId","type":"uint256"}],"name":"Approval","type":"event"},{"anonymous":false,"inputs":[{"indexed":true,"internalType":"address","name":"owner","type":"address"},{"indexed":true,"internalType":"address","name":"operator","type":"address"},{"indexed":false,"internalType":"bool","name":"approved","type":"bool"}],"name":"ApprovalForAll","type":"event"},{"anonymous":false,"inputs":[{"indexed":true,"internalType":"uint256","name":"fromTokenId","type":"uint256"},{"indexed":false,"internalType":"uint256","name":"toTokenId","type":"uint256"},{"indexed":true,"internalType":"address","name":"from","type":"address"},{"indexed":true,"internalType":"address","name":"to","type":"address"}],"name":"ConsecutiveTransfer","type":"event"},{"anonymous":false,"inputs":[{"indexed":true,"internalType":"address","name":"from","type":"address"},{"indexed":true,"internalType":"address","name":"to","type":"address"},{"indexed":true,"internalType":"uint256","name":"tokenId","type":"uint256"}],"name":"Transfer","type":"event"},{"inputs":[{"internalType":"address","name":"to","type":"address"},{"internalType":"uint256","name":"tokenId","type":"uint256"}],"name":"approve","outputs":[],"stateMutability":"payable","type":"function"},{"inputs":[{"internalType":"address","name":"owner","type":"address"}],"name":"balanceOf","outputs":[{"internalType":"uint256","name":"","type":"uint256"}],"stateMutability":"view","type":"function"},{"inputs":[{"internalType":"uint256","name":"tokenId","type":"uint256"}],"name":"burn","outputs":[],"stateMutability":"nonpayable","type":"function"},{"inputs":[{"internalType":"uint256","name":"tokenId","type":"uint256"}],"name":"explicitOwnershipOf","outputs":[{"components":[{"internalType":"address","name":"addr","type":"address"},{"internalType":"uint64","name":"startTimestamp","type":"uint64"},{"internalType":"bool","name":"burned","type":"bool"},{"internalType":"uint24","name":"extraData","type":"uint24"}],"internalType":"struct IERC721A.TokenOwnership","name":"","type":"tuple"}],"stateMutability":"view","type":"function"},{"inputs":[{"internalType":"uint256[]","name":"tokenIds","type":"uint256[]"}],"name":"explicitOwnershipsOf","outputs":[{"components":[{"internalType":"address","name":"addr","type":"address"},{"internalType":"uint64","name":"startTimestamp","type":"uint64"},{"internalType":"bool","name":"burned","type":"bool"},{"internalType":"uint24","name":"extraData","type":"uint24"}],"internalType":"struct IERC721A.TokenOwnership[]","name":"","type":"tuple[]"}],"stateMutability":"view","type":"function"},{"inputs":[{"internalType":"uint256","name":"tokenId","type":"uint256"}],"name":"getApproved","outputs":[{"internalType":"address","name":"","type":"address"}],"stateMutability":"view","type":"function"},{"inputs":[{"internalType":"address","name":"owner","type":"address"},{"internalType":"address","name":"operator","type":"address"}],"name":"isApprovedForAll","outputs":[{"internalType":"bool","name":"","type":"bool"}],"stateMutability":"view","type":"function"},{"inputs":[],"name":"name","outputs":[{"internalType":"string","name":"","type":"string"}],"stateMutability":"view","type":"function"},{"inputs":[{"internalType":"uint256","name":"tokenId","type":"uint256"}],"name":"ownerOf","outputs":[{"internalType":"address","name":"","type":"address"}],"stateMutability":"view","type":"function"},{"inputs":[{"internalType":"address","name":"to","type":"address"},{"internalType":"uint256","name":"quantity","type":"uint256"}],"name":"safeMint","outputs":[],"stateMutability":"nonpayable","type":"function"},{"inputs":[{"internalType":"address","name":"from","type":"address"},{"internalType":"address","name":"to","type":"address"},{"internalType":"uint256","name":"tokenId","type":"uint256"}],"name":"safeTransferFrom","outputs":[],"stateMutability":"payable","type":"function"},{"inputs":[{"internalType":"address","name":"from","type":"address"},{"internalType":"address","name":"to","type":"address"},{"internalType":"uint256","name":"tokenId","type":"uint256"},{"internalType":"bytes","name":"_data","type":"bytes"}],"name":"safeTransferFrom","outputs":[],"stateMutability":"payable","type":"function"},{"inputs":[{"internalType":"address","name":"operator","type":"address"},{"internalType":"bool","name":"approved","type":"bool"}],"name":"setApprovalForAll","outputs":[],"stateMutability":"nonpayable","type":"function"},{"inputs":[],"name":"startTokenId","outputs":[{"internalType":"uint256","name":"","type":"uint256"}],"stateMutability":"view","type":"function"},{"inputs":[{"internalType":"bytes4","name":"interfaceId","type":"bytes4"}],"name":"supportsInterface","outputs":[{"internalType":"bool","name":"","type":"bool"}],"stateMutability":"view","type":"function"},{"inputs":[],"name":"symbol","outputs":[{"internalType":"string","name":"","type":"string"}],"stateMutability":"view","type":"function"},{"inputs":[{"internalType":"uint256","name":"tokenId","type":"uint256"}],"name":"tokenURI","outputs":[{"internalType":"string","name":"","type":"string"}],"stateMutability":"view","type":"function"},{"inputs":[{"internalType":"address","name":"owner","type":"address"}],"name":"tokensOfOwner","outputs":[{"internalType":"uint256[]","name":"","type":"uint256[]"}],"stateMutability":"view","type":"function"},{"inputs":[{"internalType":"address","name":"owner","type":"address"},{"internalType":"uint256","name":"start","type":"uint256"},{"internalType":"uint256","name":"stop","type":"uint256"}],"name":"tokensOfOwnerIn","outputs":[{"internalType":"uint256[]","name":"","type":"uint256[]"}],"stateMutability":"view","type":"function"},{"inputs":[],"name":"totalSupply","outputs":[{"internalType":"uint256","name":"","type":"uint256"}],"stateMutability":"view","type":"function"},{"inputs":[{"internalType":"address","name":"from","type":"address"},{"internalType":"address","name":"to","type":"address"},{"internalType":"uint256","name":"tokenId","type":"uint256"}],"name":"transferFrom","outputs":[],"stateMutability":"payable","type":"function"}],"evm":{"bytecode":{"linkReferences":{},"object":"60806040523480156200001157600080fd5b5060405162001b5e38038062001b5e8339810160408190526200003491620001f4565b6000819055825183908390829082906200005690600390602085019062000081565b5080516200006c90600490602084019062000081565b5060005460015550620002a495505050505050565b8280546200008f9062000267565b90600052602060002090601f016020900481019282620000b35760008555620000fe565b82601f10620000ce57805160ff1916838001178555620000fe565b82800160010185558215620000fe579182015b82811115620000fe578251825591602001919060010190620000e1565b506200010c92915062000110565b5090565b5b808211156200010c576000815560010162000111565b634e487b7160e01b600052604160045260246000fd5b600082601f8301126200014f57600080fd5b81516001600160401b03808211156200016c576200016c62000127565b604051601f8301601f19908116603f0116810190828211818310171562000197576200019762000127565b81604052838152602092508683858801011115620001b457600080fd5b600091505b83821015620001d85785820183015181830184015290820190620001b9565b83821115620001ea5760008385830101525b9695505050505050565b6000806000606084860312156200020a57600080fd5b83516001600160401b03808211156200022257600080fd5b62000230878388016200013d565b945060208601519150808211156200024757600080fd5b5062000256868287016200013d565b925050604084015190509250925092565b600181811c908216806200027c57607f821691505b602082108114156200029e57634e487b7160e01b600052602260045260246000fd5b50919050565b6118aa80620002b46000396000f3fe60806040526004361061016a5760003560e01c806370a08231116100cb578063a22cb4651161007f578063c87b56dd11610059578063c87b56dd146103cf578063e6798baa146103ef578063e985e9c51461040557600080fd5b8063a22cb4651461036f578063b88d4fde1461038f578063c23dc68f146103a257600080fd5b806395d89b41116100b057806395d89b411461031a57806399a2557a1461032f578063a14481941461034f57600080fd5b806370a08231146102cd5780638462151c146102ed57600080fd5b806323b872dd1161012257806342966c681161010757806342966c68146102605780635bbb2177146102805780636352211e146102ad57600080fd5b806323b872dd1461023a57806342842e0e1461024d57600080fd5b8063081812fc11610153578063081812fc146101c6578063095ea7b3146101fe57806318160ddd1461021357600080fd5b806301ffc9a71461016f57806306fdde03146101a4575b600080fd5b34801561017b57600080fd5b5061018f61018a36600461135a565b61044e565b60405190151581526020015b60405180910390f35b3480156101b057600080fd5b506101b96104a0565b60405161019b91906113cf565b3480156101d257600080fd5b506101e66101e13660046113e2565b610532565b6040516001600160a01b03909116815260200161019b565b61021161020c366004611417565b610576565b005b34801561021f57600080fd5b5060005460025460015403035b60405190815260200161019b565b610211610248366004611441565b61062e565b61021161025b366004611441565b6107c9565b34801561026c57600080fd5b5061021161027b3660046113e2565b6107e9565b34801561028c57600080fd5b506102a061029b36600461147d565b6107f7565b60405161019b91906114f2565b3480156102b957600080fd5b506101e66102c83660046113e2565b6108c3565b3480156102d957600080fd5b5061022c6102e836600461156f565b6108ce565b3480156102f957600080fd5b5061030d61030836600461156f565b61091d565b60405161019b919061158a565b34801561032657600080fd5b506101b9610a28565b34801561033b57600080fd5b5061030d61034a3660046115c2565b610a37565b34801561035b57600080fd5b5061021161036a366004611417565b610bcb565b34801561037b57600080fd5b5061021161038a3660046115f5565b610bd9565b61021161039d366004611647565b610c45565b3480156103ae57600080fd5b506103c26103bd3660046113e2565b610c8f565b60405161019b9190611723565b3480156103db57600080fd5b506101b96103ea3660046113e2565b610d18565b3480156103fb57600080fd5b5061022c60005481565b34801561041157600080fd5b5061018f610420366004611768565b6001600160a01b03918216600090815260086020908152604080832093909416825291909152205460ff1690565b60006301ffc9a760e01b6001600160e01b03198316148061047f57506380ac58cd60e01b6001600160e01b03198316145b8061049a5750635b5e139f60e01b6001600160e01b03198316145b92915050565b6060600380546104af9061179b565b80601f01602080910402602001604051908101604052809291908181526020018280546104db9061179b565b80156105285780601f106104fd57610100808354040283529160200191610528565b820191906000526020600020905b81548152906001019060200180831161050b57829003601f168201915b5050505050905090565b600061053d82610da9565b61055a576040516333d1c03960e21b815260040160405180910390fd5b506000908152600760205260409020546001600160a01b031690565b6000610581826108c3565b9050336001600160a01b038216146105ba5761059d8133610420565b6105ba576040516367d9dca160e11b815260040160405180910390fd5b60008281526007602052604080822080547fffffffffffffffffffffffff0000000000000000000000000000000000000000166001600160a01b0387811691821790925591518593918516917f8c5be1e5ebec7d5bd14f71427d1e84f3dd0314c0f7b2291e5b200ac8c7c3b92591a4505050565b600061063982610de5565b9050836001600160a01b0316816001600160a01b03161461066c5760405162a1148160e81b815260040160405180910390fd5b600082815260076020526040902080546106988187335b6001600160a01b039081169116811491141790565b6106c3576106a68633610420565b6106c357604051632ce44b5f60e11b815260040160405180910390fd5b6001600160a01b0385166106ea57604051633a954ecd60e21b815260040160405180910390fd5b80156106f557600082555b6001600160a01b038681166000908152600660205260408082208054600019019055918716808252919020805460010190554260a01b17600160e11b17600085815260056020526040902055600160e11b8316610780576001840160008181526005602052604090205461077e57600154811461077e5760008181526005602052604090208490555b505b83856001600160a01b0316876001600160a01b03167fddf252ad1be2c89b69c2b068fc378daa952ba7f163c4a11628f55a4df523b3ef60405160405180910390a4505050505050565b6107e483838360405180602001604052806000815250610c45565b505050565b6107f4816001610e55565b50565b60608160008167ffffffffffffffff81111561081557610815611631565b60405190808252806020026020018201604052801561086757816020015b6040805160808101825260008082526020808301829052928201819052606082015282526000199092019101816108335790505b50905060005b8281146108ba57610895868683818110610889576108896117d6565b90506020020135610c8f565b8282815181106108a7576108a76117d6565b602090810291909101015260010161086d565b50949350505050565b600061049a82610de5565b60006001600160a01b0382166108f7576040516323d3ad8160e21b815260040160405180910390fd5b506001600160a01b031660009081526006602052604090205467ffffffffffffffff1690565b6060600080600061092d856108ce565b905060008167ffffffffffffffff81111561094a5761094a611631565b604051908082528060200260200182016040528015610973578160200160208202803683370190505b5060408051608081018252600080825260208201819052918101829052606081018290529054919250905b838614610a1c576109ae81610f99565b91508160400151156109bf57610a14565b81516001600160a01b0316156109d457815194505b876001600160a01b0316856001600160a01b03161415610a145780838780600101985081518110610a0757610a076117d6565b6020026020010181815250505b60010161099e565b50909695505050505050565b6060600480546104af9061179b565b6060818310610a5957604051631960ccad60e11b815260040160405180910390fd5b600080610a6560015490565b9050610a7060005490565b851015610a7d5760005494505b80841115610a89578093505b6000610a94876108ce565b905084861015610ab35785850381811015610aad578091505b50610ab7565b5060005b60008167ffffffffffffffff811115610ad257610ad2611631565b604051908082528060200260200182016040528015610afb578160200160208202803683370190505b50905081610b0e579350610bc492505050565b6000610b1988610c8f565b905060008160400151610b2a575080515b885b888114158015610b3c5750848714155b15610bb857610b4a81610f99565b9250826040015115610b5b57610bb0565b82516001600160a01b031615610b7057825191505b8a6001600160a01b0316826001600160a01b03161415610bb05780848880600101995081518110610ba357610ba36117d6565b6020026020010181815250505b600101610b2c565b50505092835250909150505b9392505050565b610bd58282611018565b5050565b3360008181526008602090815260408083206001600160a01b03871680855290835292819020805460ff191686151590811790915590519081529192917f17307eab39ab6107e8899845ad3d59bd9653f200f220920489ca2b5937696c31910160405180910390a35050565b610c5084848461062e565b6001600160a01b0383163b15610c8957610c6c84848484611032565b610c89576040516368d2bf6b60e11b815260040160405180910390fd5b50505050565b604080516080810182526000808252602082018190529181018290526060810191909152604080516080810182526000808252602082018190529181018290526060810191909152600054831080610ce957506001548310155b15610cf45792915050565b610cfd83610f99565b9050806040015115610d0f5792915050565b610bc48361111a565b6060610d2382610da9565b610d4057604051630a14c4b560e41b815260040160405180910390fd5b6000610d5760408051602081019091526000815290565b9050805160001415610d785760405180602001604052806000815250610bc4565b80610d8284611192565b604051602001610d939291906117ec565b6040516020818303038152906040529392505050565b600081610db560005490565b11158015610dc4575060015482105b801561049a575050600090815260056020526040902054600160e01b161590565b60008180610df260005490565b11610e3c57600154811015610e3c57600081815260056020526040902054600160e01b8116610e3a575b80610bc4575060001901600081815260056020526040902054610e1c565b505b604051636f96cda160e11b815260040160405180910390fd5b6000610e6083610de5565b905080600080610e7e86600090815260076020526040902080549091565b915091508415610ebe57610e93818433610683565b610ebe57610ea18333610420565b610ebe57604051632ce44b5f60e11b815260040160405180910390fd5b8015610ec957600082555b6001600160a01b038316600081815260066020526040902080546fffffffffffffffffffffffffffffffff0190554260a01b17600360e01b17600087815260056020526040902055600160e11b8416610f505760018601600081815260056020526040902054610f4e576001548114610f4e5760008181526005602052604090208590555b505b60405186906000906001600160a01b038616907fddf252ad1be2c89b69c2b068fc378daa952ba7f163c4a11628f55a4df523b3ef908390a4505060028054600101905550505050565b60408051608081018252600080825260208201819052918101829052606081019190915260008281526005602052604090205461049a90604080516080810182526001600160a01b038316815260a083901c67ffffffffffffffff166020820152600160e01b831615159181019190915260e89190911c606082015290565b610bd58282604051806020016040528060008152506111e0565b604051630a85bd0160e11b81526000906001600160a01b0385169063150b7a029061106790339089908890889060040161181b565b6020604051808303816000875af19250505080156110a2575060408051601f3d908101601f1916820190925261109f91810190611857565b60015b6110fd573d8080156110d0576040519150601f19603f3d011682016040523d82523d6000602084013e6110d5565b606091505b5080516110f5576040516368d2bf6b60e11b815260040160405180910390fd5b805181602001fd5b6001600160e01b031916630a85bd0160e11b149050949350505050565b60408051608081018252600080825260208201819052918101829052606081019190915261049a61114a83610de5565b604080516080810182526001600160a01b038316815260a083901c67ffffffffffffffff166020820152600160e01b831615159181019190915260e89190911c606082015290565b606060a06040510180604052602081039150506000815280825b600183039250600a81066030018353600a9004806111c9576111ce565b6111ac565b50819003601f19909101908152919050565b6111ea838361124d565b6001600160a01b0383163b156107e4576001548281035b6112146000868380600101945086611032565b611231576040516368d2bf6b60e11b815260040160405180910390fd5b81811061120157816001541461124657600080fd5b5050505050565b6001548161126e5760405163b562e8dd60e01b815260040160405180910390fd5b6001600160a01b03831660008181526006602090815260408083208054680100000000000000018802019055848352600590915281206001851460e11b4260a01b178317905582840190839083907fddf252ad1be2c89b69c2b068fc378daa952ba7f163c4a11628f55a4df523b3ef8180a4600183015b81811461131d57808360007fddf252ad1be2c89b69c2b068fc378daa952ba7f163c4a11628f55a4df523b3ef600080a46001016112e5565b508161133b57604051622e076360e81b815260040160405180910390fd5b60015550505050565b6001600160e01b0319811681146107f457600080fd5b60006020828403121561136c57600080fd5b8135610bc481611344565b60005b8381101561139257818101518382015260200161137a565b83811115610c895750506000910152565b600081518084526113bb816020860160208601611377565b601f01601f19169290920160200192915050565b602081526000610bc460208301846113a3565b6000602082840312156113f457600080fd5b5035919050565b80356001600160a01b038116811461141257600080fd5b919050565b6000806040838503121561142a57600080fd5b611433836113fb565b946020939093013593505050565b60008060006060848603121561145657600080fd5b61145f846113fb565b925061146d602085016113fb565b9150604084013590509250925092565b6000806020838503121561149057600080fd5b823567ffffffffffffffff808211156114a857600080fd5b818501915085601f8301126114bc57600080fd5b8135818111156114cb57600080fd5b8660208260051b85010111156114e057600080fd5b60209290920196919550909350505050565b6020808252825182820181905260009190848201906040850190845b81811015610a1c5761155c8385516001600160a01b03815116825267ffffffffffffffff602082015116602083015260408101511515604083015262ffffff60608201511660608301525050565b928401926080929092019160010161150e565b60006020828403121561158157600080fd5b610bc4826113fb565b6020808252825182820181905260009190848201906040850190845b81811015610a1c578351835292840192918401916001016115a6565b6000806000606084860312156115d757600080fd5b6115e0846113fb565b95602085013595506040909401359392505050565b6000806040838503121561160857600080fd5b611611836113fb565b91506020830135801515811461162657600080fd5b809150509250929050565b634e487b7160e01b600052604160045260246000fd5b6000806000806080858703121561165d57600080fd5b611666856113fb565b9350611674602086016113fb565b925060408501359150606085013567ffffffffffffffff8082111561169857600080fd5b818701915087601f8301126116ac57600080fd5b8135818111156116be576116be611631565b604051601f8201601f19908116603f011681019083821181831017156116e6576116e6611631565b816040528281528a60208487010111156116ff57600080fd5b82602086016020830137600060208483010152809550505050505092959194509250565b81516001600160a01b0316815260208083015167ffffffffffffffff169082015260408083015115159082015260608083015162ffffff16908201526080810161049a565b6000806040838503121561177b57600080fd5b611784836113fb565b9150611792602084016113fb565b90509250929050565b600181811c908216806117af57607f821691505b602082108114156117d057634e487b7160e01b600052602260045260246000fd5b50919050565b634e487b7160e01b600052603260045260246000fd5b600083516117fe818460208801611377565b835190830190611812818360208801611377565b01949350505050565b60006001600160a01b0380871683528086166020840152508360408301526080606083015261184d60808301846113a3565b9695505050505050565b60006020828403121561186957600080fd5b8151610bc48161134456fea26469706673582212209d50bcf9ecd7e7b1b93c1b3f824179e19f40c4a14faa800336a9b062616ac2e964736f6c634300080b0033","opcodes":"PUSH1 0x80 PUSH1 0x40 MSTORE CALLVALUE DUP1 ISZERO PUSH3 0x11 JUMPI PUSH1 0x0 DUP1 REVERT JUMPDEST POP PUSH1 0x40 MLOAD PUSH3 0x1B5E CODESIZE SUB DUP1 PUSH3 0x1B5E DUP4 CODECOPY DUP2 ADD PUSH1 0x40 DUP2 SWAP1 MSTORE PUSH3 0x34 SWAP2 PUSH3 0x1F4 JUMP JUMPDEST PUSH1 0x0 DUP2 SWAP1 SSTORE DUP3 MLOAD DUP4 SWAP1 DUP4 SWAP1 DUP3 SWAP1 DUP3 SWAP1 PUSH3 0x56 SWAP1 PUSH1 0x3 SWAP1 PUSH1 0x20 DUP6 ADD SWAP1 PUSH3 0x81 JUMP JUMPDEST POP DUP1 MLOAD PUSH3 0x6C SWAP1 PUSH1 0x4 SWAP1 PUSH1 0x20 DUP5 ADD SWAP1 PUSH3 0x81 JUMP JUMPDEST POP PUSH1 0x0 SLOAD PUSH1 0x1 SSTORE POP PUSH3 0x2A4 SWAP6 POP POP POP POP POP POP JUMP JUMPDEST DUP3 DUP1 SLOAD PUSH3 0x8F SWAP1 PUSH3 0x267 JUMP JUMPDEST SWAP1 PUSH1 0x0 MSTORE PUSH1 0x20 PUSH1 0x0 KECCAK256 SWAP1 PUSH1 0x1F ADD PUSH1 0x20 SWAP1 DIV DUP2 ADD SWAP3 DUP3 PUSH3 0xB3 JUMPI PUSH1 0x0 DUP6 SSTORE PUSH3 0xFE JUMP JUMPDEST DUP3 PUSH1 0x1F LT PUSH3 0xCE JUMPI DUP1 MLOAD PUSH1 0xFF NOT AND DUP4 DUP1 ADD OR DUP6 SSTORE PUSH3 0xFE JUMP JUMPDEST DUP3 DUP1 ADD PUSH1 0x1 ADD DUP6 SSTORE DUP3 ISZERO PUSH3 0xFE JUMPI SWAP2 DUP3 ADD JUMPDEST DUP3 DUP2 GT ISZERO PUSH3 0xFE JUMPI DUP3 MLOAD DUP3 SSTORE SWAP2 PUSH1 0x20 ADD SWAP2 SWAP1 PUSH1 0x1 ADD SWAP1 PUSH3 0xE1 JUMP JUMPDEST POP PUSH3 0x10C SWAP3 SWAP2 POP PUSH3 0x110 JUMP JUMPDEST POP SWAP1 JUMP JUMPDEST JUMPDEST DUP1 DUP3 GT ISZERO PUSH3 0x10C JUMPI PUSH1 0x0 DUP2 SSTORE PUSH1 0x1 ADD PUSH3 0x111 JUMP JUMPDEST PUSH4 0x4E487B71 PUSH1 0xE0 SHL PUSH1 0x0 MSTORE PUSH1 0x41 PUSH1 0x4 MSTORE PUSH1 0x24 PUSH1 0x0 REVERT JUMPDEST PUSH1 0x0 DUP3 PUSH1 0x1F DUP4 ADD SLT PUSH3 0x14F JUMPI PUSH1 0x0 DUP1 REVERT JUMPDEST DUP2 MLOAD PUSH1 0x1 PUSH1 0x1 PUSH1 0x40 SHL SUB DUP1 DUP3 GT ISZERO PUSH3 0x16C JUMPI PUSH3 0x16C PUSH3 0x127 JUMP JUMPDEST PUSH1 0x40 MLOAD PUSH1 0x1F DUP4 ADD PUSH1 0x1F NOT SWAP1 DUP2 AND PUSH1 0x3F ADD AND DUP2 ADD SWAP1 DUP3 DUP3 GT DUP2 DUP4 LT OR ISZERO PUSH3 0x197 JUMPI PUSH3 0x197 PUSH3 0x127 JUMP JUMPDEST DUP2 PUSH1 0x40 MSTORE DUP4 DUP2 MSTORE PUSH1 0x20 SWAP3 POP DUP7 DUP4 DUP6 DUP9 ADD ADD GT ISZERO PUSH3 0x1B4 JUMPI PUSH1 0x0 DUP1 REVERT JUMPDEST PUSH1 0x0 SWAP2 POP JUMPDEST DUP4 DUP3 LT ISZERO PUSH3 0x1D8 JUMPI DUP6 DUP3 ADD DUP4 ADD MLOAD DUP2 DUP4 ADD DUP5 ADD MSTORE SWAP1 DUP3 ADD SWAP1 PUSH3 0x1B9 JUMP JUMPDEST DUP4 DUP3 GT ISZERO PUSH3 0x1EA JUMPI PUSH1 0x0 DUP4 DUP6 DUP4 ADD ADD MSTORE JUMPDEST SWAP7 SWAP6 POP POP POP POP POP POP JUMP JUMPDEST PUSH1 0x0 DUP1 PUSH1 0x0 PUSH1 0x60 DUP5 DUP7 SUB SLT ISZERO PUSH3 0x20A JUMPI PUSH1 0x0 DUP1 REVERT JUMPDEST DUP4 MLOAD PUSH1 0x1 PUSH1 0x1 PUSH1 0x40 SHL SUB DUP1 DUP3 GT ISZERO PUSH3 0x222 JUMPI PUSH1 0x0 DUP1 REVERT JUMPDEST PUSH3 0x230 DUP8 DUP4 DUP9 ADD PUSH3 0x13D JUMP JUMPDEST SWAP5 POP PUSH1 0x20 DUP7 ADD MLOAD SWAP2 POP DUP1 DUP3 GT ISZERO PUSH3 0x247 JUMPI PUSH1 0x0 DUP1 REVERT JUMPDEST POP PUSH3 0x256 DUP7 DUP3 DUP8 ADD PUSH3 0x13D JUMP JUMPDEST SWAP3 POP POP PUSH1 0x40 DUP5 ADD MLOAD SWAP1 POP SWAP3 POP SWAP3 POP SWAP3 JUMP JUMPDEST PUSH1 0x1 DUP2 DUP2 SHR SWAP1 DUP3 AND DUP1 PUSH3 0x27C JUMPI PUSH1 0x7F DUP3 AND SWAP2 POP JUMPDEST PUSH1 0x20 DUP3 LT DUP2 EQ ISZERO PUSH3 0x29E JUMPI PUSH4 0x4E487B71 PUSH1 0xE0 SHL PUSH1 0x0 MSTORE PUSH1 0x22 PUSH1 0x4 MSTORE PUSH1 0x24 PUSH1 0x0 REVERT JUMPDEST POP SWAP2 SWAP1 POP JUMP JUMPDEST PUSH2 0x18AA DUP1 PUSH3 0x2B4 PUSH1 0x0 CODECOPY PUSH1 0x0 RETURN INVALID PUSH1 0x80 PUSH1 0x40 MSTORE PUSH1 0x4 CALLDATASIZE LT PUSH2 0x16A JUMPI PUSH1 0x0 CALLDATALOAD PUSH1 0xE0 SHR DUP1 PUSH4 0x70A08231 GT PUSH2 0xCB JUMPI DUP1 PUSH4 0xA22CB465 GT PUSH2 0x7F JUMPI DUP1 PUSH4 0xC87B56DD GT PUSH2 0x59 JUMPI DUP1 PUSH4 0xC87B56DD EQ PUSH2 0x3CF JUMPI DUP1 PUSH4 0xE6798BAA EQ PUSH2 0x3EF JUMPI DUP1 PUSH4 0xE985E9C5 EQ PUSH2 0x405 JUMPI PUSH1 0x0 DUP1 REVERT JUMPDEST DUP1 PUSH4 0xA22CB465 EQ PUSH2 0x36F JUMPI DUP1 PUSH4 0xB88D4FDE EQ PUSH2 0x38F JUMPI DUP1 PUSH4 0xC23DC68F EQ PUSH2 0x3A2 JUMPI PUSH1 0x0 DUP1 REVERT JUMPDEST DUP1 PUSH4 0x95D89B41 GT PUSH2 0xB0 JUMPI DUP1 PUSH4 0x95D89B41 EQ PUSH2 0x31A JUMPI DUP1 PUSH4 0x99A2557A EQ PUSH2 0x32F JUMPI DUP1 PUSH4 0xA1448194 EQ PUSH2 0x34F JUMPI PUSH1 0x0 DUP1 REVERT JUMPDEST DUP1 PUSH4 0x70A08231 EQ PUSH2 0x2CD JUMPI DUP1 PUSH4 0x8462151C EQ PUSH2 0x2ED JUMPI PUSH1 0x0 DUP1 REVERT JUMPDEST DUP1 PUSH4 0x23B872DD GT PUSH2 0x122 JUMPI DUP1 PUSH4 0x42966C68 GT PUSH2 0x107 JUMPI DUP1 PUSH4 0x42966C68 EQ PUSH2 0x260 JUMPI DUP1 PUSH4 0x5BBB2177 EQ PUSH2 0x280 JUMPI DUP1 PUSH4 0x6352211E EQ PUSH2 0x2AD JUMPI PUSH1 0x0 DUP1 REVERT JUMPDEST DUP1 PUSH4 0x23B872DD EQ PUSH2 0x23A JUMPI DUP1 PUSH4 0x42842E0E EQ PUSH2 0x24D JUMPI PUSH1 0x0 DUP1 REVERT JUMPDEST DUP1 PUSH4 0x81812FC GT PUSH2 0x153 JUMPI DUP1 PUSH4 0x81812FC EQ PUSH2 0x1C6 JUMPI DUP1 PUSH4 0x95EA7B3 EQ PUSH2 0x1FE JUMPI DUP1 PUSH4 0x18160DDD EQ PUSH2 0x213 JUMPI PUSH1 0x0 DUP1 REVERT JUMPDEST DUP1 PUSH4 0x1FFC9A7 EQ PUSH2 0x16F JUMPI DUP1 PUSH4 0x6FDDE03 EQ PUSH2 0x1A4 JUMPI JUMPDEST PUSH1 0x0 DUP1 REVERT JUMPDEST CALLVALUE DUP1 ISZERO PUSH2 0x17B JUMPI PUSH1 0x0 DUP1 REVERT JUMPDEST POP PUSH2 0x18F PUSH2 0x18A CALLDATASIZE PUSH1 0x4 PUSH2 0x135A JUMP JUMPDEST PUSH2 0x44E JUMP JUMPDEST PUSH1 0x40 MLOAD SWAP1 ISZERO ISZERO DUP2 MSTORE PUSH1 0x20 ADD JUMPDEST PUSH1 0x40 MLOAD DUP1 SWAP2 SUB SWAP1 RETURN JUMPDEST CALLVALUE DUP1 ISZERO PUSH2 0x1B0 JUMPI PUSH1 0x0 DUP1 REVERT JUMPDEST POP PUSH2 0x1B9 PUSH2 0x4A0 JUMP JUMPDEST PUSH1 0x40 MLOAD PUSH2 0x19B SWAP2 SWAP1 PUSH2 0x13CF JUMP JUMPDEST CALLVALUE DUP1 ISZERO PUSH2 0x1D2 JUMPI PUSH1 0x0 DUP1 REVERT JUMPDEST POP PUSH2 0x1E6 PUSH2 0x1E1 CALLDATASIZE PUSH1 0x4 PUSH2 0x13E2 JUMP JUMPDEST PUSH2 0x532 JUMP JUMPDEST PUSH1 0x40 MLOAD PUSH1 0x1 PUSH1 0x1 PUSH1 0xA0 SHL SUB SWAP1 SWAP2 AND DUP2 MSTORE PUSH1 0x20 ADD PUSH2 0x19B JUMP JUMPDEST PUSH2 0x211 PUSH2 0x20C CALLDATASIZE PUSH1 0x4 PUSH2 0x1417 JUMP JUMPDEST PUSH2 0x576 JUMP JUMPDEST STOP JUMPDEST CALLVALUE DUP1 ISZERO PUSH2 0x21F JUMPI PUSH1 0x0 DUP1 REVERT JUMPDEST POP PUSH1 0x0 SLOAD PUSH1 0x2 SLOAD PUSH1 0x1 SLOAD SUB SUB JUMPDEST PUSH1 0x40 MLOAD SWAP1 DUP2 MSTORE PUSH1 0x20 ADD PUSH2 0x19B JUMP JUMPDEST PUSH2 0x211 PUSH2 0x248 CALLDATASIZE PUSH1 0x4 PUSH2 0x1441 JUMP JUMPDEST PUSH2 0x62E JUMP JUMPDEST PUSH2 0x211 PUSH2 0x25B CALLDATASIZE PUSH1 0x4 PUSH2 0x1441 JUMP JUMPDEST PUSH2 0x7C9 JUMP JUMPDEST CALLVALUE DUP1 ISZERO PUSH2 0x26C JUMPI PUSH1 0x0 DUP1 REVERT JUMPDEST POP PUSH2 0x211 PUSH2 0x27B CALLDATASIZE PUSH1 0x4 PUSH2 0x13E2 JUMP JUMPDEST PUSH2 0x7E9 JUMP JUMPDEST CALLVALUE DUP1 ISZERO PUSH2 0x28C JUMPI PUSH1 0x0 DUP1 REVERT JUMPDEST POP PUSH2 0x2A0 PUSH2 0x29B CALLDATASIZE PUSH1 0x4 PUSH2 0x147D JUMP JUMPDEST PUSH2 0x7F7 JUMP JUMPDEST PUSH1 0x40 MLOAD PUSH2 0x19B SWAP2 SWAP1 PUSH2 0x14F2 JUMP JUMPDEST CALLVALUE DUP1 ISZERO PUSH2 0x2B9 JUMPI PUSH1 0x0 DUP1 REVERT JUMPDEST POP PUSH2 0x1E6 PUSH2 0x2C8 CALLDATASIZE PUSH1 0x4 PUSH2 0x13E2 JUMP JUMPDEST PUSH2 0x8C3 JUMP JUMPDEST CALLVALUE DUP1 ISZERO PUSH2 0x2D9 JUMPI PUSH1 0x0 DUP1 REVERT JUMPDEST POP PUSH2 0x22C PUSH2 0x2E8 CALLDATASIZE PUSH1 0x4 PUSH2 0x156F JUMP JUMPDEST PUSH2 0x8CE JUMP JUMPDEST CALLVALUE DUP1 ISZERO PUSH2 0x2F9 JUMPI PUSH1 0x0 DUP1 REVERT JUMPDEST POP PUSH2 0x30D PUSH2 0x308 CALLDATASIZE PUSH1 0x4 PUSH2 0x156F JUMP JUMPDEST PUSH2 0x91D JUMP JUMPDEST PUSH1 0x40 MLOAD PUSH2 0x19B SWAP2 SWAP1 PUSH2 0x158A JUMP JUMPDEST CALLVALUE DUP1 ISZERO PUSH2 0x326 JUMPI PUSH1 0x0 DUP1 REVERT JUMPDEST POP PUSH2 0x1B9 PUSH2 0xA28 JUMP JUMPDEST CALLVALUE DUP1 ISZERO PUSH2 0x33B JUMPI PUSH1 0x0 DUP1 REVERT JUMPDEST POP PUSH2 0x30D PUSH2 0x34A CALLDATASIZE PUSH1 0x4 PUSH2 0x15C2 JUMP JUMPDEST PUSH2 0xA37 JUMP JUMPDEST CALLVALUE DUP1 ISZERO PUSH2 0x35B JUMPI PUSH1 0x0 DUP1 REVERT JUMPDEST POP PUSH2 0x211 PUSH2 0x36A CALLDATASIZE PUSH1 0x4 PUSH2 0x1417 JUMP JUMPDEST PUSH2 0xBCB JUMP JUMPDEST CALLVALUE DUP1 ISZERO PUSH2 0x37B JUMPI PUSH1 0x0 DUP1 REVERT JUMPDEST POP PUSH2 0x211 PUSH2 0x38A CALLDATASIZE PUSH1 0x4 PUSH2 0x15F5 JUMP JUMPDEST PUSH2 0xBD9 JUMP JUMPDEST PUSH2 0x211 PUSH2 0x39D CALLDATASIZE PUSH1 0x4 PUSH2 0x1647 JUMP JUMPDEST PUSH2 0xC45 JUMP JUMPDEST CALLVALUE DUP1 ISZERO PUSH2 0x3AE JUMPI PUSH1 0x0 DUP1 REVERT JUMPDEST POP PUSH2 0x3C2 PUSH2 0x3BD CALLDATASIZE PUSH1 0x4 PUSH2 0x13E2 JUMP JUMPDEST PUSH2 0xC8F JUMP JUMPDEST PUSH1 0x40 MLOAD PUSH2 0x19B SWAP2 SWAP1 PUSH2 0x1723 JUMP JUMPDEST CALLVALUE DUP1 ISZERO PUSH2 0x3DB JUMPI PUSH1 0x0 DUP1 REVERT JUMPDEST POP PUSH2 0x1B9 PUSH2 0x3EA CALLDATASIZE PUSH1 0x4 PUSH2 0x13E2 JUMP JUMPDEST PUSH2 0xD18 JUMP JUMPDEST CALLVALUE DUP1 ISZERO PUSH2 0x3FB JUMPI PUSH1 0x0 DUP1 REVERT JUMPDEST POP PUSH2 0x22C PUSH1 0x0 SLOAD DUP2 JUMP JUMPDEST CALLVALUE DUP1 ISZERO PUSH2 0x411 JUMPI PUSH1 0x0 DUP1 REVERT JUMPDEST POP PUSH2 0x18F PUSH2 0x420 CALLDATASIZE PUSH1 0x4 PUSH2 0x1768 JUMP JUMPDEST PUSH1 0x1 PUSH1 0x1 PUSH1 0xA0 SHL SUB SWAP2 DUP3 AND PUSH1 0x0 SWAP1 DUP2 MSTORE PUSH1 0x8 PUSH1 0x20 SWAP1 DUP2 MSTORE PUSH1 0x40 DUP1 DUP4 KECCAK256 SWAP4 SWAP1 SWAP5 AND DUP3 MSTORE SWAP2 SWAP1 SWAP2 MSTORE KECCAK256 SLOAD PUSH1 0xFF AND SWAP1 JUMP JUMPDEST PUSH1 0x0 PUSH4 0x1FFC9A7 PUSH1 0xE0 SHL PUSH1 0x1 PUSH1 0x1 PUSH1 0xE0 SHL SUB NOT DUP4 AND EQ DUP1 PUSH2 0x47F JUMPI POP PUSH4 0x80AC58CD PUSH1 0xE0 SHL PUSH1 0x1 PUSH1 0x1 PUSH1 0xE0 SHL SUB NOT DUP4 AND EQ JUMPDEST DUP1 PUSH2 0x49A JUMPI POP PUSH4 0x5B5E139F PUSH1 0xE0 SHL PUSH1 0x1 PUSH1 0x1 PUSH1 0xE0 SHL SUB NOT DUP4 AND EQ JUMPDEST SWAP3 SWAP2 POP POP JUMP JUMPDEST PUSH1 0x60 PUSH1 0x3 DUP1 SLOAD PUSH2 0x4AF SWAP1 PUSH2 0x179B JUMP JUMPDEST DUP1 PUSH1 0x1F ADD PUSH1 0x20 DUP1 SWAP2 DIV MUL PUSH1 0x20 ADD PUSH1 0x40 MLOAD SWAP1 DUP2 ADD PUSH1 0x40 MSTORE DUP1 SWAP3 SWAP2 SWAP1 DUP2 DUP2 MSTORE PUSH1 0x20 ADD DUP3 DUP1 SLOAD PUSH2 0x4DB SWAP1 PUSH2 0x179B JUMP JUMPDEST DUP1 ISZERO PUSH2 0x528 JUMPI DUP1 PUSH1 0x1F LT PUSH2 0x4FD JUMPI PUSH2 0x100 DUP1 DUP4 SLOAD DIV MUL DUP4 MSTORE SWAP2 PUSH1 0x20 ADD SWAP2 PUSH2 0x528 JUMP JUMPDEST DUP3 ADD SWAP2 SWAP1 PUSH1 0x0 MSTORE PUSH1 0x20 PUSH1 0x0 KECCAK256 SWAP1 JUMPDEST DUP2 SLOAD DUP2 MSTORE SWAP1 PUSH1 0x1 ADD SWAP1 PUSH1 0x20 ADD DUP1 DUP4 GT PUSH2 0x50B JUMPI DUP3 SWAP1 SUB PUSH1 0x1F AND DUP3 ADD SWAP2 JUMPDEST POP POP POP POP POP SWAP1 POP SWAP1 JUMP JUMPDEST PUSH1 0x0 PUSH2 0x53D DUP3 PUSH2 0xDA9 JUMP JUMPDEST PUSH2 0x55A JUMPI PUSH1 0x40 MLOAD PUSH4 0x33D1C039 PUSH1 0xE2 SHL DUP2 MSTORE PUSH1 0x4 ADD PUSH1 0x40 MLOAD DUP1 SWAP2 SUB SWAP1 REVERT JUMPDEST POP PUSH1 0x0 SWAP1 DUP2 MSTORE PUSH1 0x7 PUSH1 0x20 MSTORE PUSH1 0x40 SWAP1 KECCAK256 SLOAD PUSH1 0x1 PUSH1 0x1 PUSH1 0xA0 SHL SUB AND SWAP1 JUMP JUMPDEST PUSH1 0x0 PUSH2 0x581 DUP3 PUSH2 0x8C3 JUMP JUMPDEST SWAP1 POP CALLER PUSH1 0x1 PUSH1 0x1 PUSH1 0xA0 SHL SUB DUP3 AND EQ PUSH2 0x5BA JUMPI PUSH2 0x59D DUP2 CALLER PUSH2 0x420 JUMP JUMPDEST PUSH2 0x5BA JUMPI PUSH1 0x40 MLOAD PUSH4 0x67D9DCA1 PUSH1 0xE1 SHL DUP2 MSTORE PUSH1 0x4 ADD PUSH1 0x40 MLOAD DUP1 SWAP2 SUB SWAP1 REVERT JUMPDEST PUSH1 0x0 DUP3 DUP2 MSTORE PUSH1 0x7 PUSH1 0x20 MSTORE PUSH1 0x40 DUP1 DUP3 KECCAK256 DUP1 SLOAD PUSH32 0xFFFFFFFFFFFFFFFFFFFFFFFF0000000000000000000000000000000000000000 AND PUSH1 0x1 PUSH1 0x1 PUSH1 0xA0 SHL SUB DUP8 DUP2 AND SWAP2 DUP3 OR SWAP1 SWAP3 SSTORE SWAP2 MLOAD DUP6 SWAP4 SWAP2 DUP6 AND SWAP2 PUSH32 0x8C5BE1E5EBEC7D5BD14F71427D1E84F3DD0314C0F7B2291E5B200AC8C7C3B925 SWAP2 LOG4 POP POP POP JUMP JUMPDEST PUSH1 0x0 PUSH2 0x639 DUP3 PUSH2 0xDE5 JUMP JUMPDEST SWAP1 POP DUP4 PUSH1 0x1 PUSH1 0x1 PUSH1 0xA0 SHL SUB AND DUP2 PUSH1 0x1 PUSH1 0x1 PUSH1 0xA0 SHL SUB AND EQ PUSH2 0x66C JUMPI PUSH1 0x40 MLOAD PUSH3 0xA11481 PUSH1 0xE8 SHL DUP2 MSTORE PUSH1 0x4 ADD PUSH1 0x40 MLOAD DUP1 SWAP2 SUB SWAP1 REVERT JUMPDEST PUSH1 0x0 DUP3 DUP2 MSTORE PUSH1 0x7 PUSH1 0x20 MSTORE PUSH1 0x40 SWAP1 KECCAK256 DUP1 SLOAD PUSH2 0x698 DUP2 DUP8 CALLER JUMPDEST PUSH1 0x1 PUSH1 0x1 PUSH1 0xA0 SHL SUB SWAP1 DUP2 AND SWAP2 AND DUP2 EQ SWAP2 EQ OR SWAP1 JUMP JUMPDEST PUSH2 0x6C3 JUMPI PUSH2 0x6A6 DUP7 CALLER PUSH2 0x420 JUMP JUMPDEST PUSH2 0x6C3 JUMPI PUSH1 0x40 MLOAD PUSH4 0x2CE44B5F PUSH1 0xE1 SHL DUP2 MSTORE PUSH1 0x4 ADD PUSH1 0x40 MLOAD DUP1 SWAP2 SUB SWAP1 REVERT JUMPDEST PUSH1 0x1 PUSH1 0x1 PUSH1 0xA0 SHL SUB DUP6 AND PUSH2 0x6EA JUMPI PUSH1 0x40 MLOAD PUSH4 0x3A954ECD PUSH1 0xE2 SHL DUP2 MSTORE PUSH1 0x4 ADD PUSH1 0x40 MLOAD DUP1 SWAP2 SUB SWAP1 REVERT JUMPDEST DUP1 ISZERO PUSH2 0x6F5 JUMPI PUSH1 0x0 DUP3 SSTORE JUMPDEST PUSH1 0x1 PUSH1 0x1 PUSH1 0xA0 SHL SUB DUP7 DUP2 AND PUSH1 0x0 SWAP1 DUP2 MSTORE PUSH1 0x6 PUSH1 0x20 MSTORE PUSH1 0x40 DUP1 DUP3 KECCAK256 DUP1 SLOAD PUSH1 0x0 NOT ADD SWAP1 SSTORE SWAP2 DUP8 AND DUP1 DUP3 MSTORE SWAP2 SWAP1 KECCAK256 DUP1 SLOAD PUSH1 0x1 ADD SWAP1 SSTORE TIMESTAMP PUSH1 0xA0 SHL OR PUSH1 0x1 PUSH1 0xE1 SHL OR PUSH1 0x0 DUP6 DUP2 MSTORE PUSH1 0x5 PUSH1 0x20 MSTORE PUSH1 0x40 SWAP1 KECCAK256 SSTORE PUSH1 0x1 PUSH1 0xE1 SHL DUP4 AND PUSH2 0x780 JUMPI PUSH1 0x1 DUP5 ADD PUSH1 0x0 DUP2 DUP2 MSTORE PUSH1 0x5 PUSH1 0x20 MSTORE PUSH1 0x40 SWAP1 KECCAK256 SLOAD PUSH2 0x77E JUMPI PUSH1 0x1 SLOAD DUP2 EQ PUSH2 0x77E JUMPI PUSH1 0x0 DUP2 DUP2 MSTORE PUSH1 0x5 PUSH1 0x20 MSTORE PUSH1 0x40 SWAP1 KECCAK256 DUP5 SWAP1 SSTORE JUMPDEST POP JUMPDEST DUP4 DUP6 PUSH1 0x1 PUSH1 0x1 PUSH1 0xA0 SHL SUB AND DUP8 PUSH1 0x1 PUSH1 0x1 PUSH1 0xA0 SHL SUB AND PUSH32 0xDDF252AD1BE2C89B69C2B068FC378DAA952BA7F163C4A11628F55A4DF523B3EF PUSH1 0x40 MLOAD PUSH1 0x40 MLOAD DUP1 SWAP2 SUB SWAP1 LOG4 POP POP POP POP POP POP JUMP JUMPDEST PUSH2 0x7E4 DUP4 DUP4 DUP4 PUSH1 0x40 MLOAD DUP1 PUSH1 0x20 ADD PUSH1 0x40 MSTORE DUP1 PUSH1 0x0 DUP2 MSTORE POP PUSH2 0xC45 JUMP JUMPDEST POP POP POP JUMP JUMPDEST PUSH2 0x7F4 DUP2 PUSH1 0x1 PUSH2 0xE55 JUMP JUMPDEST POP JUMP JUMPDEST PUSH1 0x60 DUP2 PUSH1 0x0 DUP2 PUSH8 0xFFFFFFFFFFFFFFFF DUP2 GT ISZERO PUSH2 0x815 JUMPI PUSH2 0x815 PUSH2 0x1631 JUMP JUMPDEST PUSH1 0x40 MLOAD SWAP1 DUP1 DUP3 MSTORE DUP1 PUSH1 0x20 MUL PUSH1 0x20 ADD DUP3 ADD PUSH1 0x40 MSTORE DUP1 ISZERO PUSH2 0x867 JUMPI DUP2 PUSH1 0x20 ADD JUMPDEST PUSH1 0x40 DUP1 MLOAD PUSH1 0x80 DUP2 ADD DUP3 MSTORE PUSH1 0x0 DUP1 DUP3 MSTORE PUSH1 0x20 DUP1 DUP4 ADD DUP3 SWAP1 MSTORE SWAP3 DUP3 ADD DUP2 SWAP1 MSTORE PUSH1 0x60 DUP3 ADD MSTORE DUP3 MSTORE PUSH1 0x0 NOT SWAP1 SWAP3 ADD SWAP2 ADD DUP2 PUSH2 0x833 JUMPI SWAP1 POP JUMPDEST POP SWAP1 POP PUSH1 0x0 JUMPDEST DUP3 DUP2 EQ PUSH2 0x8BA JUMPI PUSH2 0x895 DUP7 DUP7 DUP4 DUP2 DUP2 LT PUSH2 0x889 JUMPI PUSH2 0x889 PUSH2 0x17D6 JUMP JUMPDEST SWAP1 POP PUSH1 0x20 MUL ADD CALLDATALOAD PUSH2 0xC8F JUMP JUMPDEST DUP3 DUP3 DUP2 MLOAD DUP2 LT PUSH2 0x8A7 JUMPI PUSH2 0x8A7 PUSH2 0x17D6 JUMP JUMPDEST PUSH1 0x20 SWAP1 DUP2 MUL SWAP2 SWAP1 SWAP2 ADD ADD MSTORE PUSH1 0x1 ADD PUSH2 0x86D JUMP JUMPDEST POP SWAP5 SWAP4 POP POP POP POP JUMP JUMPDEST PUSH1 0x0 PUSH2 0x49A DUP3 PUSH2 0xDE5 JUMP JUMPDEST PUSH1 0x0 PUSH1 0x1 PUSH1 0x1 PUSH1 0xA0 SHL SUB DUP3 AND PUSH2 0x8F7 JUMPI PUSH1 0x40 MLOAD PUSH4 0x23D3AD81 PUSH1 0xE2 SHL DUP2 MSTORE PUSH1 0x4 ADD PUSH1 0x40 MLOAD DUP1 SWAP2 SUB SWAP1 REVERT JUMPDEST POP PUSH1 0x1 PUSH1 0x1 PUSH1 0xA0 SHL SUB AND PUSH1 0x0 SWAP1 DUP2 MSTORE PUSH1 0x6 PUSH1 0x20 MSTORE PUSH1 0x40 SWAP1 KECCAK256 SLOAD PUSH8 0xFFFFFFFFFFFFFFFF AND SWAP1 JUMP JUMPDEST PUSH1 0x60 PUSH1 0x0 DUP1 PUSH1 0x0 PUSH2 0x92D DUP6 PUSH2 0x8CE JUMP JUMPDEST SWAP1 POP PUSH1 0x0 DUP2 PUSH8 0xFFFFFFFFFFFFFFFF DUP2 GT ISZERO PUSH2 0x94A JUMPI PUSH2 0x94A PUSH2 0x1631 JUMP JUMPDEST PUSH1 0x40 MLOAD SWAP1 DUP1 DUP3 MSTORE DUP1 PUSH1 0x20 MUL PUSH1 0x20 ADD DUP3 ADD PUSH1 0x40 MSTORE DUP1 ISZERO PUSH2 0x973 JUMPI DUP2 PUSH1 0x20 ADD PUSH1 0x20 DUP3 MUL DUP1 CALLDATASIZE DUP4 CALLDATACOPY ADD SWAP1 POP JUMPDEST POP PUSH1 0x40 DUP1 MLOAD PUSH1 0x80 DUP2 ADD DUP3 MSTORE PUSH1 0x0 DUP1 DUP3 MSTORE PUSH1 0x20 DUP3 ADD DUP2 SWAP1 MSTORE SWAP2 DUP2 ADD DUP3 SWAP1 MSTORE PUSH1 0x60 DUP2 ADD DUP3 SWAP1 MSTORE SWAP1 SLOAD SWAP2 SWAP3 POP SWAP1 JUMPDEST DUP4 DUP7 EQ PUSH2 0xA1C JUMPI PUSH2 0x9AE DUP2 PUSH2 0xF99 JUMP JUMPDEST SWAP2 POP DUP2 PUSH1 0x40 ADD MLOAD ISZERO PUSH2 0x9BF JUMPI PUSH2 0xA14 JUMP JUMPDEST DUP2 MLOAD PUSH1 0x1 PUSH1 0x1 PUSH1 0xA0 SHL SUB AND ISZERO PUSH2 0x9D4 JUMPI DUP2 MLOAD SWAP5 POP JUMPDEST DUP8 PUSH1 0x1 PUSH1 0x1 PUSH1 0xA0 SHL SUB AND DUP6 PUSH1 0x1 PUSH1 0x1 PUSH1 0xA0 SHL SUB AND EQ ISZERO PUSH2 0xA14 JUMPI DUP1 DUP4 DUP8 DUP1 PUSH1 0x1 ADD SWAP9 POP DUP2 MLOAD DUP2 LT PUSH2 0xA07 JUMPI PUSH2 0xA07 PUSH2 0x17D6 JUMP JUMPDEST PUSH1 0x20 MUL PUSH1 0x20 ADD ADD DUP2 DUP2 MSTORE POP POP JUMPDEST PUSH1 0x1 ADD PUSH2 0x99E JUMP JUMPDEST POP SWAP1 SWAP7 SWAP6 POP POP POP POP POP POP JUMP JUMPDEST PUSH1 0x60 PUSH1 0x4 DUP1 SLOAD PUSH2 0x4AF SWAP1 PUSH2 0x179B JUMP JUMPDEST PUSH1 0x60 DUP2 DUP4 LT PUSH2 0xA59 JUMPI PUSH1 0x40 MLOAD PUSH4 0x1960CCAD PUSH1 0xE1 SHL DUP2 MSTORE PUSH1 0x4 ADD PUSH1 0x40 MLOAD DUP1 SWAP2 SUB SWAP1 REVERT JUMPDEST PUSH1 0x0 DUP1 PUSH2 0xA65 PUSH1 0x1 SLOAD SWAP1 JUMP JUMPDEST SWAP1 POP PUSH2 0xA70 PUSH1 0x0 SLOAD SWAP1 JUMP JUMPDEST DUP6 LT ISZERO PUSH2 0xA7D JUMPI PUSH1 0x0 SLOAD SWAP5 POP JUMPDEST DUP1 DUP5 GT ISZERO PUSH2 0xA89 JUMPI DUP1 SWAP4 POP JUMPDEST PUSH1 0x0 PUSH2 0xA94 DUP8 PUSH2 0x8CE JUMP JUMPDEST SWAP1 POP DUP5 DUP7 LT ISZERO PUSH2 0xAB3 JUMPI DUP6 DUP6 SUB DUP2 DUP2 LT ISZERO PUSH2 0xAAD JUMPI DUP1 SWAP2 POP JUMPDEST POP PUSH2 0xAB7 JUMP JUMPDEST POP PUSH1 0x0 JUMPDEST PUSH1 0x0 DUP2 PUSH8 0xFFFFFFFFFFFFFFFF DUP2 GT ISZERO PUSH2 0xAD2 JUMPI PUSH2 0xAD2 PUSH2 0x1631 JUMP JUMPDEST PUSH1 0x40 MLOAD SWAP1 DUP1 DUP3 MSTORE DUP1 PUSH1 0x20 MUL PUSH1 0x20 ADD DUP3 ADD PUSH1 0x40 MSTORE DUP1 ISZERO PUSH2 0xAFB JUMPI DUP2 PUSH1 0x20 ADD PUSH1 0x20 DUP3 MUL DUP1 CALLDATASIZE DUP4 CALLDATACOPY ADD SWAP1 POP JUMPDEST POP SWAP1 POP DUP2 PUSH2 0xB0E JUMPI SWAP4 POP PUSH2 0xBC4 SWAP3 POP POP POP JUMP JUMPDEST PUSH1 0x0 PUSH2 0xB19 DUP9 PUSH2 0xC8F JUMP JUMPDEST SWAP1 POP PUSH1 0x0 DUP2 PUSH1 0x40 ADD MLOAD PUSH2 0xB2A JUMPI POP DUP1 MLOAD JUMPDEST DUP9 JUMPDEST DUP9 DUP2 EQ ISZERO DUP1 ISZERO PUSH2 0xB3C JUMPI POP DUP5 DUP8 EQ ISZERO JUMPDEST ISZERO PUSH2 0xBB8 JUMPI PUSH2 0xB4A DUP2 PUSH2 0xF99 JUMP JUMPDEST SWAP3 POP DUP3 PUSH1 0x40 ADD MLOAD ISZERO PUSH2 0xB5B JUMPI PUSH2 0xBB0 JUMP JUMPDEST DUP3 MLOAD PUSH1 0x1 PUSH1 0x1 PUSH1 0xA0 SHL SUB AND ISZERO PUSH2 0xB70 JUMPI DUP3 MLOAD SWAP2 POP JUMPDEST DUP11 PUSH1 0x1 PUSH1 0x1 PUSH1 0xA0 SHL SUB AND DUP3 PUSH1 0x1 PUSH1 0x1 PUSH1 0xA0 SHL SUB AND EQ ISZERO PUSH2 0xBB0 JUMPI DUP1 DUP5 DUP9 DUP1 PUSH1 0x1 ADD SWAP10 POP DUP2 MLOAD DUP2 LT PUSH2 0xBA3 JUMPI PUSH2 0xBA3 PUSH2 0x17D6 JUMP JUMPDEST PUSH1 0x20 MUL PUSH1 0x20 ADD ADD DUP2 DUP2 MSTORE POP POP JUMPDEST PUSH1 0x1 ADD PUSH2 0xB2C JUMP JUMPDEST POP POP POP SWAP3 DUP4 MSTORE POP SWAP1 SWAP2 POP POP JUMPDEST SWAP4 SWAP3 POP POP POP JUMP JUMPDEST PUSH2 0xBD5 DUP3 DUP3 PUSH2 0x1018 JUMP JUMPDEST POP POP JUMP JUMPDEST CALLER PUSH1 0x0 DUP2 DUP2 MSTORE PUSH1 0x8 PUSH1 0x20 SWAP1 DUP2 MSTORE PUSH1 0x40 DUP1 DUP4 KECCAK256 PUSH1 0x1 PUSH1 0x1 PUSH1 0xA0 SHL SUB DUP8 AND DUP1 DUP6 MSTORE SWAP1 DUP4 MSTORE SWAP3 DUP2 SWAP1 KECCAK256 DUP1 SLOAD PUSH1 0xFF NOT AND DUP7 ISZERO ISZERO SWAP1 DUP2 OR SWAP1 SWAP2 SSTORE SWAP1 MLOAD SWAP1 DUP2 MSTORE SWAP2 SWAP3 SWAP2 PUSH32 0x17307EAB39AB6107E8899845AD3D59BD9653F200F220920489CA2B5937696C31 SWAP2 ADD PUSH1 0x40 MLOAD DUP1 SWAP2 SUB SWAP1 LOG3 POP POP JUMP JUMPDEST PUSH2 0xC50 DUP5 DUP5 DUP5 PUSH2 0x62E JUMP JUMPDEST PUSH1 0x1 PUSH1 0x1 PUSH1 0xA0 SHL SUB DUP4 AND EXTCODESIZE ISZERO PUSH2 0xC89 JUMPI PUSH2 0xC6C DUP5 DUP5 DUP5 DUP5 PUSH2 0x1032 JUMP JUMPDEST PUSH2 0xC89 JUMPI PUSH1 0x40 MLOAD PUSH4 0x68D2BF6B PUSH1 0xE1 SHL DUP2 MSTORE PUSH1 0x4 ADD PUSH1 0x40 MLOAD DUP1 SWAP2 SUB SWAP1 REVERT JUMPDEST POP POP POP POP JUMP JUMPDEST PUSH1 0x40 DUP1 MLOAD PUSH1 0x80 DUP2 ADD DUP3 MSTORE PUSH1 0x0 DUP1 DUP3 MSTORE PUSH1 0x20 DUP3 ADD DUP2 SWAP1 MSTORE SWAP2 DUP2 ADD DUP3 SWAP1 MSTORE PUSH1 0x60 DUP2 ADD SWAP2 SWAP1 SWAP2 MSTORE PUSH1 0x40 DUP1 MLOAD PUSH1 0x80 DUP2 ADD DUP3 MSTORE PUSH1 0x0 DUP1 DUP3 MSTORE PUSH1 0x20 DUP3 ADD DUP2 SWAP1 MSTORE SWAP2 DUP2 ADD DUP3 SWAP1 MSTORE PUSH1 0x60 DUP2 ADD SWAP2 SWAP1 SWAP2 MSTORE PUSH1 0x0 SLOAD DUP4 LT DUP1 PUSH2 0xCE9 JUMPI POP PUSH1 0x1 SLOAD DUP4 LT ISZERO JUMPDEST ISZERO PUSH2 0xCF4 JUMPI SWAP3 SWAP2 POP POP JUMP JUMPDEST PUSH2 0xCFD DUP4 PUSH2 0xF99 JUMP JUMPDEST SWAP1 POP DUP1 PUSH1 0x40 ADD MLOAD ISZERO PUSH2 0xD0F JUMPI SWAP3 SWAP2 POP POP JUMP JUMPDEST PUSH2 0xBC4 DUP4 PUSH2 0x111A JUMP JUMPDEST PUSH1 0x60 PUSH2 0xD23 DUP3 PUSH2 0xDA9 JUMP JUMPDEST PUSH2 0xD40 JUMPI PUSH1 0x40 MLOAD PUSH4 0xA14C4B5 PUSH1 0xE4 SHL DUP2 MSTORE PUSH1 0x4 ADD PUSH1 0x40 MLOAD DUP1 SWAP2 SUB SWAP1 REVERT JUMPDEST PUSH1 0x0 PUSH2 0xD57 PUSH1 0x40 DUP1 MLOAD PUSH1 0x20 DUP2 ADD SWAP1 SWAP2 MSTORE PUSH1 0x0 DUP2 MSTORE SWAP1 JUMP JUMPDEST SWAP1 POP DUP1 MLOAD PUSH1 0x0 EQ ISZERO PUSH2 0xD78 JUMPI PUSH1 0x40 MLOAD DUP1 PUSH1 0x20 ADD PUSH1 0x40 MSTORE DUP1 PUSH1 0x0 DUP2 MSTORE POP PUSH2 0xBC4 JUMP JUMPDEST DUP1 PUSH2 0xD82 DUP5 PUSH2 0x1192 JUMP JUMPDEST PUSH1 0x40 MLOAD PUSH1 0x20 ADD PUSH2 0xD93 SWAP3 SWAP2 SWAP1 PUSH2 0x17EC JUMP JUMPDEST PUSH1 0x40 MLOAD PUSH1 0x20 DUP2 DUP4 SUB SUB DUP2 MSTORE SWAP1 PUSH1 0x40 MSTORE SWAP4 SWAP3 POP POP POP JUMP JUMPDEST PUSH1 0x0 DUP2 PUSH2 0xDB5 PUSH1 0x0 SLOAD SWAP1 JUMP JUMPDEST GT ISZERO DUP1 ISZERO PUSH2 0xDC4 JUMPI POP PUSH1 0x1 SLOAD DUP3 LT JUMPDEST DUP1 ISZERO PUSH2 0x49A JUMPI POP POP PUSH1 0x0 SWAP1 DUP2 MSTORE PUSH1 0x5 PUSH1 0x20 MSTORE PUSH1 0x40 SWAP1 KECCAK256 SLOAD PUSH1 0x1 PUSH1 0xE0 SHL AND ISZERO SWAP1 JUMP JUMPDEST PUSH1 0x0 DUP2 DUP1 PUSH2 0xDF2 PUSH1 0x0 SLOAD SWAP1 JUMP JUMPDEST GT PUSH2 0xE3C JUMPI PUSH1 0x1 SLOAD DUP2 LT ISZERO PUSH2 0xE3C JUMPI PUSH1 0x0 DUP2 DUP2 MSTORE PUSH1 0x5 PUSH1 0x20 MSTORE PUSH1 0x40 SWAP1 KECCAK256 SLOAD PUSH1 0x1 PUSH1 0xE0 SHL DUP2 AND PUSH2 0xE3A JUMPI JUMPDEST DUP1 PUSH2 0xBC4 JUMPI POP PUSH1 0x0 NOT ADD PUSH1 0x0 DUP2 DUP2 MSTORE PUSH1 0x5 PUSH1 0x20 MSTORE PUSH1 0x40 SWAP1 KECCAK256 SLOAD PUSH2 0xE1C JUMP JUMPDEST POP JUMPDEST PUSH1 0x40 MLOAD PUSH4 0x6F96CDA1 PUSH1 0xE1 SHL DUP2 MSTORE PUSH1 0x4 ADD PUSH1 0x40 MLOAD DUP1 SWAP2 SUB SWAP1 REVERT JUMPDEST PUSH1 0x0 PUSH2 0xE60 DUP4 PUSH2 0xDE5 JUMP JUMPDEST SWAP1 POP DUP1 PUSH1 0x0 DUP1 PUSH2 0xE7E DUP7 PUSH1 0x0 SWAP1 DUP2 MSTORE PUSH1 0x7 PUSH1 0x20 MSTORE PUSH1 0x40 SWAP1 KECCAK256 DUP1 SLOAD SWAP1 SWAP2 JUMP JUMPDEST SWAP2 POP SWAP2 POP DUP5 ISZERO PUSH2 0xEBE JUMPI PUSH2 0xE93 DUP2 DUP5 CALLER PUSH2 0x683 JUMP JUMPDEST PUSH2 0xEBE JUMPI PUSH2 0xEA1 DUP4 CALLER PUSH2 0x420 JUMP JUMPDEST PUSH2 0xEBE JUMPI PUSH1 0x40 MLOAD PUSH4 0x2CE44B5F PUSH1 0xE1 SHL DUP2 MSTORE PUSH1 0x4 ADD PUSH1 0x40 MLOAD DUP1 SWAP2 SUB SWAP1 REVERT JUMPDEST DUP1 ISZERO PUSH2 0xEC9 JUMPI PUSH1 0x0 DUP3 SSTORE JUMPDEST PUSH1 0x1 PUSH1 0x1 PUSH1 0xA0 SHL SUB DUP4 AND PUSH1 0x0 DUP2 DUP2 MSTORE PUSH1 0x6 PUSH1 0x20 MSTORE PUSH1 0x40 SWAP1 KECCAK256 DUP1 SLOAD PUSH16 0xFFFFFFFFFFFFFFFFFFFFFFFFFFFFFFFF ADD SWAP1 SSTORE TIMESTAMP PUSH1 0xA0 SHL OR PUSH1 0x3 PUSH1 0xE0 SHL OR PUSH1 0x0 DUP8 DUP2 MSTORE PUSH1 0x5 PUSH1 0x20 MSTORE PUSH1 0x40 SWAP1 KECCAK256 SSTORE PUSH1 0x1 PUSH1 0xE1 SHL DUP5 AND PUSH2 0xF50 JUMPI PUSH1 0x1 DUP7 ADD PUSH1 0x0 DUP2 DUP2 MSTORE PUSH1 0x5 PUSH1 0x20 MSTORE PUSH1 0x40 SWAP1 KECCAK256 SLOAD PUSH2 0xF4E JUMPI PUSH1 0x1 SLOAD DUP2 EQ PUSH2 0xF4E JUMPI PUSH1 0x0 DUP2 DUP2 MSTORE PUSH1 0x5 PUSH1 0x20 MSTORE PUSH1 0x40 SWAP1 KECCAK256 DUP6 SWAP1 SSTORE JUMPDEST POP JUMPDEST PUSH1 0x40 MLOAD DUP7 SWAP1 PUSH1 0x0 SWAP1 PUSH1 0x1 PUSH1 0x1 PUSH1 0xA0 SHL SUB DUP7 AND SWAP1 PUSH32 0xDDF252AD1BE2C89B69C2B068FC378DAA952BA7F163C4A11628F55A4DF523B3EF SWAP1 DUP4 SWAP1 LOG4 POP POP PUSH1 0x2 DUP1 SLOAD PUSH1 0x1 ADD SWAP1 SSTORE POP POP POP POP JUMP JUMPDEST PUSH1 0x40 DUP1 MLOAD PUSH1 0x80 DUP2 ADD DUP3 MSTORE PUSH1 0x0 DUP1 DUP3 MSTORE PUSH1 0x20 DUP3 ADD DUP2 SWAP1 MSTORE SWAP2 DUP2 ADD DUP3 SWAP1 MSTORE PUSH1 0x60 DUP2 ADD SWAP2 SWAP1 SWAP2 MSTORE PUSH1 0x0 DUP3 DUP2 MSTORE PUSH1 0x5 PUSH1 0x20 MSTORE PUSH1 0x40 SWAP1 KECCAK256 SLOAD PUSH2 0x49A SWAP1 PUSH1 0x40 DUP1 MLOAD PUSH1 0x80 DUP2 ADD DUP3 MSTORE PUSH1 0x1 PUSH1 0x1 PUSH1 0xA0 SHL SUB DUP4 AND DUP2 MSTORE PUSH1 0xA0 DUP4 SWAP1 SHR PUSH8 0xFFFFFFFFFFFFFFFF AND PUSH1 0x20 DUP3 ADD MSTORE PUSH1 0x1 PUSH1 0xE0 SHL DUP4 AND ISZERO ISZERO SWAP2 DUP2 ADD SWAP2 SWAP1 SWAP2 MSTORE PUSH1 0xE8 SWAP2 SWAP1 SWAP2 SHR PUSH1 0x60 DUP3 ADD MSTORE SWAP1 JUMP JUMPDEST PUSH2 0xBD5 DUP3 DUP3 PUSH1 0x40 MLOAD DUP1 PUSH1 0x20 ADD PUSH1 0x40 MSTORE DUP1 PUSH1 0x0 DUP2 MSTORE POP PUSH2 0x11E0 JUMP JUMPDEST PUSH1 0x40 MLOAD PUSH4 0xA85BD01 PUSH1 0xE1 SHL DUP2 MSTORE PUSH1 0x0 SWAP1 PUSH1 0x1 PUSH1 0x1 PUSH1 0xA0 SHL SUB DUP6 AND SWAP1 PUSH4 0x150B7A02 SWAP1 PUSH2 0x1067 SWAP1 CALLER SWAP1 DUP10 SWAP1 DUP9 SWAP1 DUP9 SWAP1 PUSH1 0x4 ADD PUSH2 0x181B JUMP JUMPDEST PUSH1 0x20 PUSH1 0x40 MLOAD DUP1 DUP4 SUB DUP2 PUSH1 0x0 DUP8 GAS CALL SWAP3 POP POP POP DUP1 ISZERO PUSH2 0x10A2 JUMPI POP PUSH1 0x40 DUP1 MLOAD PUSH1 0x1F RETURNDATASIZE SWAP1 DUP2 ADD PUSH1 0x1F NOT AND DUP3 ADD SWAP1 SWAP3 MSTORE PUSH2 0x109F SWAP2 DUP2 ADD SWAP1 PUSH2 0x1857 JUMP JUMPDEST PUSH1 0x1 JUMPDEST PUSH2 0x10FD JUMPI RETURNDATASIZE DUP1 DUP1 ISZERO PUSH2 0x10D0 JUMPI PUSH1 0x40 MLOAD SWAP2 POP PUSH1 0x1F NOT PUSH1 0x3F RETURNDATASIZE ADD AND DUP3 ADD PUSH1 0x40 MSTORE RETURNDATASIZE DUP3 MSTORE RETURNDATASIZE PUSH1 0x0 PUSH1 0x20 DUP5 ADD RETURNDATACOPY PUSH2 0x10D5 JUMP JUMPDEST PUSH1 0x60 SWAP2 POP JUMPDEST POP DUP1 MLOAD PUSH2 0x10F5 JUMPI PUSH1 0x40 MLOAD PUSH4 0x68D2BF6B PUSH1 0xE1 SHL DUP2 MSTORE PUSH1 0x4 ADD PUSH1 0x40 MLOAD DUP1 SWAP2 SUB SWAP1 REVERT JUMPDEST DUP1 MLOAD DUP2 PUSH1 0x20 ADD REVERT JUMPDEST PUSH1 0x1 PUSH1 0x1 PUSH1 0xE0 SHL SUB NOT AND PUSH4 0xA85BD01 PUSH1 0xE1 SHL EQ SWAP1 POP SWAP5 SWAP4 POP POP POP POP JUMP JUMPDEST PUSH1 0x40 DUP1 MLOAD PUSH1 0x80 DUP2 ADD DUP3 MSTORE PUSH1 0x0 DUP1 DUP3 MSTORE PUSH1 0x20 DUP3 ADD DUP2 SWAP1 MSTORE SWAP2 DUP2 ADD DUP3 SWAP1 MSTORE PUSH1 0x60 DUP2 ADD SWAP2 SWAP1 SWAP2 MSTORE PUSH2 0x49A PUSH2 0x114A DUP4 PUSH2 0xDE5 JUMP JUMPDEST PUSH1 0x40 DUP1 MLOAD PUSH1 0x80 DUP2 ADD DUP3 MSTORE PUSH1 0x1 PUSH1 0x1 PUSH1 0xA0 SHL SUB DUP4 AND DUP2 MSTORE PUSH1 0xA0 DUP4 SWAP1 SHR PUSH8 0xFFFFFFFFFFFFFFFF AND PUSH1 0x20 DUP3 ADD MSTORE PUSH1 0x1 PUSH1 0xE0 SHL DUP4 AND ISZERO ISZERO SWAP2 DUP2 ADD SWAP2 SWAP1 SWAP2 MSTORE PUSH1 0xE8 SWAP2 SWAP1 SWAP2 SHR PUSH1 0x60 DUP3 ADD MSTORE SWAP1 JUMP JUMPDEST PUSH1 0x60 PUSH1 0xA0 PUSH1 0x40 MLOAD ADD DUP1 PUSH1 0x40 MSTORE PUSH1 0x20 DUP2 SUB SWAP2 POP POP PUSH1 0x0 DUP2 MSTORE DUP1 DUP3 JUMPDEST PUSH1 0x1 DUP4 SUB SWAP3 POP PUSH1 0xA DUP2 MOD PUSH1 0x30 ADD DUP4 MSTORE8 PUSH1 0xA SWAP1 DIV DUP1 PUSH2 0x11C9 JUMPI PUSH2 0x11CE JUMP JUMPDEST PUSH2 0x11AC JUMP JUMPDEST POP DUP2 SWAP1 SUB PUSH1 0x1F NOT SWAP1 SWAP2 ADD SWAP1 DUP2 MSTORE SWAP2 SWAP1 POP JUMP JUMPDEST PUSH2 0x11EA DUP4 DUP4 PUSH2 0x124D JUMP JUMPDEST PUSH1 0x1 PUSH1 0x1 PUSH1 0xA0 SHL SUB DUP4 AND EXTCODESIZE ISZERO PUSH2 0x7E4 JUMPI PUSH1 0x1 SLOAD DUP3 DUP2 SUB JUMPDEST PUSH2 0x1214 PUSH1 0x0 DUP7 DUP4 DUP1 PUSH1 0x1 ADD SWAP5 POP DUP7 PUSH2 0x1032 JUMP JUMPDEST PUSH2 0x1231 JUMPI PUSH1 0x40 MLOAD PUSH4 0x68D2BF6B PUSH1 0xE1 SHL DUP2 MSTORE PUSH1 0x4 ADD PUSH1 0x40 MLOAD DUP1 SWAP2 SUB SWAP1 REVERT JUMPDEST DUP2 DUP2 LT PUSH2 0x1201 JUMPI DUP2 PUSH1 0x1 SLOAD EQ PUSH2 0x1246 JUMPI PUSH1 0x0 DUP1 REVERT JUMPDEST POP POP POP POP POP JUMP JUMPDEST PUSH1 0x1 SLOAD DUP2 PUSH2 0x126E JUMPI PUSH1 0x40 MLOAD PUSH4 0xB562E8DD PUSH1 0xE0 SHL DUP2 MSTORE PUSH1 0x4 ADD PUSH1 0x40 MLOAD DUP1 SWAP2 SUB SWAP1 REVERT JUMPDEST PUSH1 0x1 PUSH1 0x1 PUSH1 0xA0 SHL SUB DUP4 AND PUSH1 0x0 DUP2 DUP2 MSTORE PUSH1 0x6 PUSH1 0x20 SWAP1 DUP2 MSTORE PUSH1 0x40 DUP1 DUP4 KECCAK256 DUP1 SLOAD PUSH9 0x10000000000000001 DUP9 MUL ADD SWAP1 SSTORE DUP5 DUP4 MSTORE PUSH1 0x5 SWAP1 SWAP2 MSTORE DUP2 KECCAK256 PUSH1 0x1 DUP6 EQ PUSH1 0xE1 SHL TIMESTAMP PUSH1 0xA0 SHL OR DUP4 OR SWAP1 SSTORE DUP3 DUP5 ADD SWAP1 DUP4 SWAP1 DUP4 SWAP1 PUSH32 0xDDF252AD1BE2C89B69C2B068FC378DAA952BA7F163C4A11628F55A4DF523B3EF DUP2 DUP1 LOG4 PUSH1 0x1 DUP4 ADD JUMPDEST DUP2 DUP2 EQ PUSH2 0x131D JUMPI DUP1 DUP4 PUSH1 0x0 PUSH32 0xDDF252AD1BE2C89B69C2B068FC378DAA952BA7F163C4A11628F55A4DF523B3EF PUSH1 0x0 DUP1 LOG4 PUSH1 0x1 ADD PUSH2 0x12E5 JUMP JUMPDEST POP DUP2 PUSH2 0x133B JUMPI PUSH1 0x40 MLOAD PUSH3 0x2E0763 PUSH1 0xE8 SHL DUP2 MSTORE PUSH1 0x4 ADD PUSH1 0x40 MLOAD DUP1 SWAP2 SUB SWAP1 REVERT JUMPDEST PUSH1 0x1 SSTORE POP POP POP POP JUMP JUMPDEST PUSH1 0x1 PUSH1 0x1 PUSH1 0xE0 SHL SUB NOT DUP2 AND DUP2 EQ PUSH2 0x7F4 JUMPI PUSH1 0x0 DUP1 REVERT JUMPDEST PUSH1 0x0 PUSH1 0x20 DUP3 DUP5 SUB SLT ISZERO PUSH2 0x136C JUMPI PUSH1 0x0 DUP1 REVERT JUMPDEST DUP2 CALLDATALOAD PUSH2 0xBC4 DUP2 PUSH2 0x1344 JUMP JUMPDEST PUSH1 0x0 JUMPDEST DUP4 DUP2 LT ISZERO PUSH2 0x1392 JUMPI DUP2 DUP2 ADD MLOAD DUP4 DUP3 ADD MSTORE PUSH1 0x20 ADD PUSH2 0x137A JUMP JUMPDEST DUP4 DUP2 GT ISZERO PUSH2 0xC89 JUMPI POP POP PUSH1 0x0 SWAP2 ADD MSTORE JUMP JUMPDEST PUSH1 0x0 DUP2 MLOAD DUP1 DUP5 MSTORE PUSH2 0x13BB DUP2 PUSH1 0x20 DUP7 ADD PUSH1 0x20 DUP7 ADD PUSH2 0x1377 JUMP JUMPDEST PUSH1 0x1F ADD PUSH1 0x1F NOT AND SWAP3 SWAP1 SWAP3 ADD PUSH1 0x20 ADD SWAP3 SWAP2 POP POP JUMP JUMPDEST PUSH1 0x20 DUP2 MSTORE PUSH1 0x0 PUSH2 0xBC4 PUSH1 0x20 DUP4 ADD DUP5 PUSH2 0x13A3 JUMP JUMPDEST PUSH1 0x0 PUSH1 0x20 DUP3 DUP5 SUB SLT ISZERO PUSH2 0x13F4 JUMPI PUSH1 0x0 DUP1 REVERT JUMPDEST POP CALLDATALOAD SWAP2 SWAP1 POP JUMP JUMPDEST DUP1 CALLDATALOAD PUSH1 0x1 PUSH1 0x1 PUSH1 0xA0 SHL SUB DUP2 AND DUP2 EQ PUSH2 0x1412 JUMPI PUSH1 0x0 DUP1 REVERT JUMPDEST SWAP2 SWAP1 POP JUMP JUMPDEST PUSH1 0x0 DUP1 PUSH1 0x40 DUP4 DUP6 SUB SLT ISZERO PUSH2 0x142A JUMPI PUSH1 0x0 DUP1 REVERT JUMPDEST PUSH2 0x1433 DUP4 PUSH2 0x13FB JUMP JUMPDEST SWAP5 PUSH1 0x20 SWAP4 SWAP1 SWAP4 ADD CALLDATALOAD SWAP4 POP POP POP JUMP JUMPDEST PUSH1 0x0 DUP1 PUSH1 0x0 PUSH1 0x60 DUP5 DUP7 SUB SLT ISZERO PUSH2 0x1456 JUMPI PUSH1 0x0 DUP1 REVERT JUMPDEST PUSH2 0x145F DUP5 PUSH2 0x13FB JUMP JUMPDEST SWAP3 POP PUSH2 0x146D PUSH1 0x20 DUP6 ADD PUSH2 0x13FB JUMP JUMPDEST SWAP2 POP PUSH1 0x40 DUP5 ADD CALLDATALOAD SWAP1 POP SWAP3 POP SWAP3 POP SWAP3 JUMP JUMPDEST PUSH1 0x0 DUP1 PUSH1 0x20 DUP4 DUP6 SUB SLT ISZERO PUSH2 0x1490 JUMPI PUSH1 0x0 DUP1 REVERT JUMPDEST DUP3 CALLDATALOAD PUSH8 0xFFFFFFFFFFFFFFFF DUP1 DUP3 GT ISZERO PUSH2 0x14A8 JUMPI PUSH1 0x0 DUP1 REVERT JUMPDEST DUP2 DUP6 ADD SWAP2 POP DUP6 PUSH1 0x1F DUP4 ADD SLT PUSH2 0x14BC JUMPI PUSH1 0x0 DUP1 REVERT JUMPDEST DUP2 CALLDATALOAD DUP2 DUP2 GT ISZERO PUSH2 0x14CB JUMPI PUSH1 0x0 DUP1 REVERT JUMPDEST DUP7 PUSH1 0x20 DUP3 PUSH1 0x5 SHL DUP6 ADD ADD GT ISZERO PUSH2 0x14E0 JUMPI PUSH1 0x0 DUP1 REVERT JUMPDEST PUSH1 0x20 SWAP3 SWAP1 SWAP3 ADD SWAP7 SWAP2 SWAP6 POP SWAP1 SWAP4 POP POP POP POP JUMP JUMPDEST PUSH1 0x20 DUP1 DUP3 MSTORE DUP3 MLOAD DUP3 DUP3 ADD DUP2 SWAP1 MSTORE PUSH1 0x0 SWAP2 SWAP1 DUP5 DUP3 ADD SWAP1 PUSH1 0x40 DUP6 ADD SWAP1 DUP5 JUMPDEST DUP2 DUP2 LT ISZERO PUSH2 0xA1C JUMPI PUSH2 0x155C DUP4 DUP6 MLOAD PUSH1 0x1 PUSH1 0x1 PUSH1 0xA0 SHL SUB DUP2 MLOAD AND DUP3 MSTORE PUSH8 0xFFFFFFFFFFFFFFFF PUSH1 0x20 DUP3 ADD MLOAD AND PUSH1 0x20 DUP4 ADD MSTORE PUSH1 0x40 DUP2 ADD MLOAD ISZERO ISZERO PUSH1 0x40 DUP4 ADD MSTORE PUSH3 0xFFFFFF PUSH1 0x60 DUP3 ADD MLOAD AND PUSH1 0x60 DUP4 ADD MSTORE POP POP JUMP JUMPDEST SWAP3 DUP5 ADD SWAP3 PUSH1 0x80 SWAP3 SWAP1 SWAP3 ADD SWAP2 PUSH1 0x1 ADD PUSH2 0x150E JUMP JUMPDEST PUSH1 0x0 PUSH1 0x20 DUP3 DUP5 SUB SLT ISZERO PUSH2 0x1581 JUMPI PUSH1 0x0 DUP1 REVERT JUMPDEST PUSH2 0xBC4 DUP3 PUSH2 0x13FB JUMP JUMPDEST PUSH1 0x20 DUP1 DUP3 MSTORE DUP3 MLOAD DUP3 DUP3 ADD DUP2 SWAP1 MSTORE PUSH1 0x0 SWAP2 SWAP1 DUP5 DUP3 ADD SWAP1 PUSH1 0x40 DUP6 ADD SWAP1 DUP5 JUMPDEST DUP2 DUP2 LT ISZERO PUSH2 0xA1C JUMPI DUP4 MLOAD DUP4 MSTORE SWAP3 DUP5 ADD SWAP3 SWAP2 DUP5 ADD SWAP2 PUSH1 0x1 ADD PUSH2 0x15A6 JUMP JUMPDEST PUSH1 0x0 DUP1 PUSH1 0x0 PUSH1 0x60 DUP5 DUP7 SUB SLT ISZERO PUSH2 0x15D7 JUMPI PUSH1 0x0 DUP1 REVERT JUMPDEST PUSH2 0x15E0 DUP5 PUSH2 0x13FB JUMP JUMPDEST SWAP6 PUSH1 0x20 DUP6 ADD CALLDATALOAD SWAP6 POP PUSH1 0x40 SWAP1 SWAP5 ADD CALLDATALOAD SWAP4 SWAP3 POP POP POP JUMP JUMPDEST PUSH1 0x0 DUP1 PUSH1 0x40 DUP4 DUP6 SUB SLT ISZERO PUSH2 0x1608 JUMPI PUSH1 0x0 DUP1 REVERT JUMPDEST PUSH2 0x1611 DUP4 PUSH2 0x13FB JUMP JUMPDEST SWAP2 POP PUSH1 0x20 DUP4 ADD CALLDATALOAD DUP1 ISZERO ISZERO DUP2 EQ PUSH2 0x1626 JUMPI PUSH1 0x0 DUP1 REVERT JUMPDEST DUP1 SWAP2 POP POP SWAP3 POP SWAP3 SWAP1 POP JUMP JUMPDEST PUSH4 0x4E487B71 PUSH1 0xE0 SHL PUSH1 0x0 MSTORE PUSH1 0x41 PUSH1 0x4 MSTORE PUSH1 0x24 PUSH1 0x0 REVERT JUMPDEST PUSH1 0x0 DUP1 PUSH1 0x0 DUP1 PUSH1 0x80 DUP6 DUP8 SUB SLT ISZERO PUSH2 0x165D JUMPI PUSH1 0x0 DUP1 REVERT JUMPDEST PUSH2 0x1666 DUP6 PUSH2 0x13FB JUMP JUMPDEST SWAP4 POP PUSH2 0x1674 PUSH1 0x20 DUP7 ADD PUSH2 0x13FB JUMP JUMPDEST SWAP3 POP PUSH1 0x40 DUP6 ADD CALLDATALOAD SWAP2 POP PUSH1 0x60 DUP6 ADD CALLDATALOAD PUSH8 0xFFFFFFFFFFFFFFFF DUP1 DUP3 GT ISZERO PUSH2 0x1698 JUMPI PUSH1 0x0 DUP1 REVERT JUMPDEST DUP2 DUP8 ADD SWAP2 POP DUP8 PUSH1 0x1F DUP4 ADD SLT PUSH2 0x16AC JUMPI PUSH1 0x0 DUP1 REVERT JUMPDEST DUP2 CALLDATALOAD DUP2 DUP2 GT ISZERO PUSH2 0x16BE JUMPI PUSH2 0x16BE PUSH2 0x1631 JUMP JUMPDEST PUSH1 0x40 MLOAD PUSH1 0x1F DUP3 ADD PUSH1 0x1F NOT SWAP1 DUP2 AND PUSH1 0x3F ADD AND DUP2 ADD SWAP1 DUP4 DUP3 GT DUP2 DUP4 LT OR ISZERO PUSH2 0x16E6 JUMPI PUSH2 0x16E6 PUSH2 0x1631 JUMP JUMPDEST DUP2 PUSH1 0x40 MSTORE DUP3 DUP2 MSTORE DUP11 PUSH1 0x20 DUP5 DUP8 ADD ADD GT ISZERO PUSH2 0x16FF JUMPI PUSH1 0x0 DUP1 REVERT JUMPDEST DUP3 PUSH1 0x20 DUP7 ADD PUSH1 0x20 DUP4 ADD CALLDATACOPY PUSH1 0x0 PUSH1 0x20 DUP5 DUP4 ADD ADD MSTORE DUP1 SWAP6 POP POP POP POP POP POP SWAP3 SWAP6 SWAP2 SWAP5 POP SWAP3 POP JUMP JUMPDEST DUP2 MLOAD PUSH1 0x1 PUSH1 0x1 PUSH1 0xA0 SHL SUB AND DUP2 MSTORE PUSH1 0x20 DUP1 DUP4 ADD MLOAD PUSH8 0xFFFFFFFFFFFFFFFF AND SWAP1 DUP3 ADD MSTORE PUSH1 0x40 DUP1 DUP4 ADD MLOAD ISZERO ISZERO SWAP1 DUP3 ADD MSTORE PUSH1 0x60 DUP1 DUP4 ADD MLOAD PUSH3 0xFFFFFF AND SWAP1 DUP3 ADD MSTORE PUSH1 0x80 DUP2 ADD PUSH2 0x49A JUMP JUMPDEST PUSH1 0x0 DUP1 PUSH1 0x40 DUP4 DUP6 SUB SLT ISZERO PUSH2 0x177B JUMPI PUSH1 0x0 DUP1 REVERT JUMPDEST PUSH2 0x1784 DUP4 PUSH2 0x13FB JUMP JUMPDEST SWAP2 POP PUSH2 0x1792 PUSH1 0x20 DUP5 ADD PUSH2 0x13FB JUMP JUMPDEST SWAP1 POP SWAP3 POP SWAP3 SWAP1 POP JUMP JUMPDEST PUSH1 0x1 DUP2 DUP2 SHR SWAP1 DUP3 AND DUP1 PUSH2 0x17AF JUMPI PUSH1 0x7F DUP3 AND SWAP2 POP JUMPDEST PUSH1 0x20 DUP3 LT DUP2 EQ ISZERO PUSH2 0x17D0 JUMPI PUSH4 0x4E487B71 PUSH1 0xE0 SHL PUSH1 0x0 MSTORE PUSH1 0x22 PUSH1 0x4 MSTORE PUSH1 0x24 PUSH1 0x0 REVERT JUMPDEST POP SWAP2 SWAP1 POP JUMP JUMPDEST PUSH4 0x4E487B71 PUSH1 0xE0 SHL PUSH1 0x0 MSTORE PUSH1 0x32 PUSH1 0x4 MSTORE PUSH1 0x24 PUSH1 0x0 REVERT JUMPDEST PUSH1 0x0 DUP4 MLOAD PUSH2 0x17FE DUP2 DUP5 PUSH1 0x20 DUP9 ADD PUSH2 0x1377 JUMP JUMPDEST DUP4 MLOAD SWAP1 DUP4 ADD SWAP1 PUSH2 0x1812 DUP2 DUP4 PUSH1 0x20 DUP9 ADD PUSH2 0x1377 JUMP JUMPDEST ADD SWAP5 SWAP4 POP POP POP POP JUMP JUMPDEST PUSH1 0x0 PUSH1 0x1 PUSH1 0x1 PUSH1 0xA0 SHL SUB DUP1 DUP8 AND DUP4 MSTORE DUP1 DUP7 AND PUSH1 0x20 DUP5 ADD MSTORE POP DUP4 PUSH1 0x40 DUP4 ADD MSTORE PUSH1 0x80 PUSH1 0x60 DUP4 ADD MSTORE PUSH2 0x184D PUSH1 0x80 DUP4 ADD DUP5 PUSH2 0x13A3 JUMP JUMPDEST SWAP7 SWAP6 POP POP POP POP POP POP JUMP JUMPDEST PUSH1 0x0 PUSH1 0x20 DUP3 DUP5 SUB SLT ISZERO PUSH2 0x1869 JUMPI PUSH1 0x0 DUP1 REVERT JUMPDEST DUP2 MLOAD PUSH2 0xBC4 DUP2 PUSH2 0x1344 JUMP INVALID LOG2 PUSH5 0x6970667358 0x22 SLT KECCAK256 SWAP14 POP 0xBC 0xF9 0xEC 0xD7 0xE7 0xB1 0xB9 EXTCODECOPY SHL EXTCODEHASH DUP3 COINBASE PUSH26 0xE19F40C4A14FAA800336A9B062616AC2E964736F6C634300080B STOP CALLER "},"methodIdentifiers":{"approve(address,uint256)":"095ea7b3","balanceOf(address)":"70a08231","burn(uint256)":"42966c68","explicitOwnershipOf(uint256)":"c23dc68f","explicitOwnershipsOf(uint256[])":"5bbb2177","getApproved(uint256)":"081812fc","isApprovedForAll(address,address)":"e985e9c5","name()":"06fdde03","ownerOf(uint256)":"6352211e","safeMint(address,uint256)":"a1448194","safeTransferFrom(address,address,uint256)":"42842e0e","safeTransferFrom(address,address,uint256,bytes)":"b88d4fde","setApprovalForAll(address,bool)":"a22cb465","startTokenId()":"e6798baa","supportsInterface(bytes4)":"01ffc9a7","symbol()":"95d89b41","tokenURI(uint256)":"c87b56dd","tokensOfOwner(address)":"8462151c","tokensOfOwnerIn(address,uint256,uint256)":"99a2557a","totalSupply()":"18160ddd","transferFrom(address,address,uint256)":"23b872dd"}}}}}