{"contracts/mocks/StartTokenIdHelper.sol":{"StartTokenIdHelper":{"abi":[{"inputs":[{"internalType":"uint256","name":"startTokenId_","type":"uint256"}],"stateMutability":"nonpayable","type":"constructor"},{"inputs":[],"name":"startTokenId","outputs":[{"internalType":"uint256","name":"","type":"uint256"}],"stateMutability":"view","type":"function"}],"evm":{"bytecode":{"linkReferences":{},"object":"608060405234801561001057600080fd5b506040516100db3803806100db83398101604081905261002f91610037565b600055610050565b60006020828403121561004957600080fd5b5051919050565b607d8061005e6000396000f3fe6080604052348015600f57600080fd5b506004361060285760003560e01c8063e6798baa14602d575b600080fd5b603560005481565b60405190815260200160405180910390f3fea2646970667358221220d7faf397eac08695dff22c073b310d7d9be9ea7338e9f2e7a6eb8c215142ef2464736f6c634300080b0033","opcodes":"PUSH1 0x80 PUSH1 0x40 MSTORE CALLVALUE DUP1 ISZERO PUSH2 0x10 JUMPI PUSH1 0x0 DUP1 REVERT JUMPDEST POP PUSH1 0x40 MLOAD PUSH2 0xDB CODESIZE SUB DUP1 PUSH2 0xDB DUP4 CODECOPY DUP2 ADD PUSH1 0x40 DUP2 SWAP1 MSTORE PUSH2 0x2F SWAP2 PUSH2 0x37 JUMP JUMPDEST PUSH1 0x0 SSTORE PUSH2 0x50 JUMP JUMPDEST PUSH1 0x0 PUSH1 0x20 DUP3 DUP5 SUB SLT ISZERO PUSH2 0x49 JUMPI PUSH1 0x0 DUP1 REVERT JUMPDEST POP MLOAD SWAP2 SWAP1 POP JUMP JUMPDEST PUSH1 0x7D DUP1 PUSH2 0x5E PUSH1 0x0 CODECOPY PUSH1 0x0 RETURN INVALID PUSH1 0x80 PUSH1 0x40 MSTORE CALLVALUE DUP1 ISZERO PUSH1 0xF JUMPI PUSH1 0x0 DUP1 REVERT JUMPDEST POP PUSH1 0x4 CALLDATASIZE LT PUSH1 0x28 JUMPI PUSH1 0x0 CALLDATALOAD PUSH1 0xE0 SHR DUP1 PUSH4 0xE6798BAA EQ PUSH1 0x2D JUMPI JUMPDEST PUSH1 0x0 DUP1 REVERT JUMPDEST PUSH1 0x35 PUSH1 0x0 SLOAD DUP2 JUMP JUMPDEST PUSH1 0x40 MLOAD SWAP1 DUP2 MSTORE PUSH1 0x20 ADD PUSH1 0x40 MLOAD DUP1 SWAP2 SUB SWAP1 RETURN INVALID LOG2 PUSH5 0x6970667358 0x22 SLT KECCAK256 0xD7 STATICCALL RETURN SWAP8 0xEA 0xC0 DUP7 SWAP6 0xDF CALLCODE 0x2C SMOD EXTCODESIZE BALANCE 0xD PUSH30 0x9BE9EA7338E9F2E7A6EB8C215142EF2464736F6C634300080B0033000000 "},"methodIdentifiers":{"startTokenId()":"e6798baa"}}}}}