{"contracts/mocks/ERC721ATransferCounterMock.sol":{"ERC721ATransferCounterMock":{"abi":[{"inputs":[{"internalType":"string","name":"name_","type":"string"},{"internalType":"string","name":"symbol_","type":"string"}],"stateMutability":"nonpayable","type":"constructor"},{"inputs":[],"name":"ApprovalCallerNotOwnerNorApproved","type":"error"},{"inputs":[],"name":"ApprovalQueryForNonexistentToken","type":"error"},{"inputs":[],"name":"BalanceQueryForZeroAddress","type":"error"},{"inputs":[],"name":"MintERC2309QuantityExceedsLimit","type":"error"},{"inputs":[],"name":"MintToZeroAddress","type":"error"},{"inputs":[],"name":"MintZeroQuantity","type":"error"},{"inputs":[],"name":"OwnerQueryForNonexistentToken","type":"error"},{"inputs":[],"name":"OwnershipNotInitializedForExtraData","type":"error"},{"inputs":[],"name":"TransferCallerNotOwnerNorApproved","type":"error"},{"inputs":[],"name":"TransferFromIncorrectOwner","type":"error"},{"inputs":[],"name":"TransferToNonERC721ReceiverImplementer","type":"error"},{"inputs":[],"name":"TransferToZeroAddress","type":"error"},{"inputs":[],"name":"URIQueryForNonexistentToken","type":"error"},{"anonymous":false,"inputs":[{"indexed":true,"internalType":"address","name":"owner","type":"address"},{"indexed":true,"internalType":"address","name":"approved","type":"address"},{"indexed":true,"internalType":"uint256","name":"tokenId","type":"uint256"}],"name":"Approval","type":"event"},{"anonymous":false,"inputs":[{"indexed":true,"internalType":"address","name":"owner","type":"address"},{"indexed":true,"internalType":"address","name":"operator","type":"address"},{"indexed":false,"internalType":"bool","name":"approved","type":"bool"}],"name":"ApprovalForAll","type":"event"},{"anonymous":false,"inputs":[{"indexed":true,"internalType":"uint256","name":"fromTokenId","type":"uint256"},{"indexed":false,"internalType":"uint256","name":"toTokenId","type":"uint256"},{"indexed":true,"internalType":"address","name":"from","type":"address"},{"indexed":true,"internalType":"address","name":"to","type":"address"}],"name":"ConsecutiveTransfer","type":"event"},{"anonymous":false,"inputs":[{"indexed":true,"internalType":"address","name":"from","type":"address"},{"indexed":true,"internalType":"address","name":"to","type":"address"},{"indexed":true,"internalType":"uint256","name":"tokenId","type":"uint256"}],"name":"Transfer","type":"event"},{"inputs":[{"internalType":"address","name":"to","type":"address"},{"internalType":"uint256","name":"tokenId","type":"uint256"}],"name":"approve","outputs":[],"stateMutability":"payable","type":"function"},{"inputs":[{"internalType":"address","name":"owner","type":"address"}],"name":"balanceOf","outputs":[{"internalType":"uint256","name":"","type":"uint256"}],"stateMutability":"view","type":"function"},{"inputs":[],"name":"baseURI","outputs":[{"internalType":"string","name":"","type":"string"}],"stateMutability":"view","type":"function"},{"inputs":[{"internalType":"uint256","name":"tokenId","type":"uint256"}],"name":"burn","outputs":[],"stateMutability":"nonpayable","type":"function"},{"inputs":[{"internalType":"uint256","name":"tokenId","type":"uint256"},{"internalType":"bool","name":"approvalCheck","type":"bool"}],"name":"burn","outputs":[],"stateMutability":"nonpayable","type":"function"},{"inputs":[{"internalType":"uint256","name":"tokenId","type":"uint256"}],"name":"exists","outputs":[{"internalType":"bool","name":"","type":"bool"}],"stateMutability":"view","type":"function"},{"inputs":[{"internalType":"uint256","name":"tokenId","type":"uint256"}],"name":"getApproved","outputs":[{"internalType":"address","name":"","type":"address"}],"stateMutability":"view","type":"function"},{"inputs":[{"internalType":"address","name":"owner","type":"address"}],"name":"getAux","outputs":[{"internalType":"uint64","name":"","type":"uint64"}],"stateMutability":"view","type":"function"},{"inputs":[{"internalType":"uint256","name":"index","type":"uint256"}],"name":"getOwnershipAt","outputs":[{"components":[{"internalType":"address","name":"addr","type":"address"},{"internalType":"uint64","name":"startTimestamp","type":"uint64"},{"internalType":"bool","name":"burned","type":"bool"},{"internalType":"uint24","name":"extraData","type":"uint24"}],"internalType":"struct IERC721A.TokenOwnership","name":"","type":"tuple"}],"stateMutability":"view","type":"function"},{"inputs":[{"internalType":"uint256","name":"index","type":"uint256"}],"name":"getOwnershipOf","outputs":[{"components":[{"internalType":"address","name":"addr","type":"address"},{"internalType":"uint64","name":"startTimestamp","type":"uint64"},{"internalType":"bool","name":"burned","type":"bool"},{"internalType":"uint24","name":"extraData","type":"uint24"}],"internalType":"struct IERC721A.TokenOwnership","name":"","type":"tuple"}],"stateMutability":"view","type":"function"},{"inputs":[{"internalType":"uint256","name":"index","type":"uint256"}],"name":"initializeOwnershipAt","outputs":[],"stateMutability":"nonpayable","type":"function"},{"inputs":[{"internalType":"address","name":"owner","type":"address"},{"internalType":"address","name":"operator","type":"address"}],"name":"isApprovedForAll","outputs":[{"internalType":"bool","name":"","type":"bool"}],"stateMutability":"view","type":"function"},{"inputs":[{"internalType":"address","name":"to","type":"address"},{"internalType":"uint256","name":"quantity","type":"uint256"}],"name":"mint","outputs":[],"stateMutability":"nonpayable","type":"function"},{"inputs":[],"name":"name","outputs":[{"internalType":"string","name":"","type":"string"}],"stateMutability":"view","type":"function"},{"inputs":[],"name":"nextTokenId","outputs":[{"internalType":"uint256","name":"","type":"uint256"}],"stateMutability":"view","type":"function"},{"inputs":[{"internalType":"address","name":"owner","type":"address"}],"name":"numberMinted","outputs":[{"internalType":"uint256","name":"","type":"uint256"}],"stateMutability":"view","type":"function"},{"inputs":[{"internalType":"uint256","name":"tokenId","type":"uint256"}],"name":"ownerOf","outputs":[{"internalType":"address","name":"","type":"address"}],"stateMutability":"view","type":"function"},{"inputs":[{"internalType":"address","name":"to","type":"address"},{"internalType":"uint256","name":"quantity","type":"uint256"},{"internalType":"bytes","name":"_data","type":"bytes"}],"name":"safeMint","outputs":[],"stateMutability":"nonpayable","type":"function"},{"inputs":[{"internalType":"address","name":"to","type":"address"},{"internalType":"uint256","name":"quantity","type":"uint256"}],"name":"safeMint","outputs":[],"stateMutability":"nonpayable","type":"function"},{"inputs":[{"internalType":"address","name":"from","type":"address"},{"internalType":"address","name":"to","type":"address"},{"internalType":"uint256","name":"tokenId","type":"uint256"}],"name":"safeTransferFrom","outputs":[],"stateMutability":"payable","type":"function"},{"inputs":[{"internalType":"address","name":"from","type":"address"},{"internalType":"address","name":"to","type":"address"},{"internalType":"uint256","name":"tokenId","type":"uint256"},{"internalType":"bytes","name":"_data","type":"bytes"}],"name":"safeTransferFrom","outputs":[],"stateMutability":"payable","type":"function"},{"inputs":[{"internalType":"address","name":"operator","type":"address"},{"internalType":"bool","name":"approved","type":"bool"}],"name":"setApprovalForAll","outputs":[],"stateMutability":"nonpayable","type":"function"},{"inputs":[{"internalType":"address","name":"owner","type":"address"},{"internalType":"uint64","name":"aux","type":"uint64"}],"name":"setAux","outputs":[],"stateMutability":"nonpayable","type":"function"},{"inputs":[{"internalType":"uint256","name":"index","type":"uint256"},{"internalType":"uint24","name":"extraData","type":"uint24"}],"name":"setExtraDataAt","outputs":[],"stateMutability":"nonpayable","type":"function"},{"inputs":[{"internalType":"bytes4","name":"interfaceId","type":"bytes4"}],"name":"supportsInterface","outputs":[{"internalType":"bool","name":"","type":"bool"}],"stateMutability":"view","type":"function"},{"inputs":[],"name":"symbol","outputs":[{"internalType":"string","name":"","type":"string"}],"stateMutability":"view","type":"function"},{"inputs":[{"internalType":"uint256","name":"x","type":"uint256"}],"name":"toString","outputs":[{"internalType":"string","name":"","type":"string"}],"stateMutability":"pure","type":"function"},{"inputs":[{"internalType":"uint256","name":"tokenId","type":"uint256"}],"name":"tokenURI","outputs":[{"internalType":"string","name":"","type":"string"}],"stateMutability":"view","type":"function"},{"inputs":[],"name":"totalBurned","outputs":[{"internalType":"uint256","name":"","type":"uint256"}],"stateMutability":"view","type":"function"},{"inputs":[],"name":"totalMinted","outputs":[{"internalType":"uint256","name":"","type":"uint256"}],"stateMutability":"view","type":"function"},{"inputs":[],"name":"totalSupply","outputs":[{"internalType":"uint256","name":"","type":"uint256"}],"stateMutability":"view","type":"function"},{"inputs":[{"internalType":"address","name":"from","type":"address"},{"internalType":"address","name":"to","type":"address"},{"internalType":"uint256","name":"tokenId","type":"uint256"}],"name":"transferFrom","outputs":[],"stateMutability":"payable","type":"function"}],"evm":{"bytecode":{"linkReferences":{},"object":"60806040523480156200001157600080fd5b5060405162001b4938038062001b498339810160408190526200003491620001eb565b8181818181600290805190602001906200005092919062000078565b5080516200006690600390602084019062000078565b50600080555062000292945050505050565b828054620000869062000255565b90600052602060002090601f016020900481019282620000aa5760008555620000f5565b82601f10620000c557805160ff1916838001178555620000f5565b82800160010185558215620000f5579182015b82811115620000f5578251825591602001919060010190620000d8565b506200010392915062000107565b5090565b5b8082111562000103576000815560010162000108565b634e487b7160e01b600052604160045260246000fd5b600082601f8301126200014657600080fd5b81516001600160401b03808211156200016357620001636200011e565b604051601f8301601f19908116603f011681019082821181831017156200018e576200018e6200011e565b81604052838152602092508683858801011115620001ab57600080fd5b600091505b83821015620001cf5785820183015181830184015290820190620001b0565b83821115620001e15760008385830101525b9695505050505050565b60008060408385031215620001ff57600080fd5b82516001600160401b03808211156200021757600080fd5b620002258683870162000134565b935060208501519150808211156200023c57600080fd5b506200024b8582860162000134565b9150509250929050565b600181811c908216806200026a57607f821691505b602082108114156200028c57634e487b7160e01b600052602260045260246000fd5b50919050565b6118a780620002a26000396000f3fe6080604052600436106101e35760003560e01c80636c0360eb11610102578063a2309ff811610095578063d89135cd11610064578063d89135cd146105ca578063dc33e681146105df578063e985e9c5146105ff578063f25236331461064857600080fd5b8063a2309ff8146104b4578063b88d4fde1461055e578063bf0b175e14610571578063c87b56dd146105aa57600080fd5b806395d89b41116100d157806395d89b41146104e95780639fac68cb146104fe578063a14481941461051e578063a22cb4651461053e57600080fd5b80636c0360eb1461047f57806370a082311461049457806375794a3c146104b45780638832e6e3146104c957600080fd5b806342842e0e1161017a57806352d8a4d11161014957806352d8a4d1146103b257806353b1233d1461041f5780636352211e1461043f5780636900a3ae1461045f57600080fd5b806342842e0e1461030257806342966c6814610315578063453ab141146103355780634f558e791461039257600080fd5b80630a70b566116101b65780630a70b5661461028c57806318160ddd146102ac57806323b872dd146102cf57806340c10f19146102e257600080fd5b806301ffc9a7146101e857806306fdde031461021d578063081812fc1461023f578063095ea7b314610277575b600080fd5b3480156101f457600080fd5b506102086102033660046113e1565b610668565b60405190151581526020015b60405180910390f35b34801561022957600080fd5b506102326106ba565b6040516102149190611456565b34801561024b57600080fd5b5061025f61025a366004611469565b61074c565b6040516001600160a01b039091168152602001610214565b61028a61028536600461149e565b610790565b005b34801561029857600080fd5b5061028a6102a73660046114c8565b610848565b3480156102b857600080fd5b50600154600054035b604051908152602001610214565b61028a6102dd366004611500565b610856565b3480156102ee57600080fd5b5061028a6102fd36600461149e565b610a0d565b61028a610310366004611500565b610a17565b34801561032157600080fd5b5061028a610330366004611469565b610a37565b34801561034157600080fd5b5061028a61035036600461153c565b6001600160a01b0382166000908152600560205260409020805460c083901b77ffffffffffffffffffffffffffffffffffffffffffffffff9091161790555050565b34801561039e57600080fd5b506102086103ad366004611469565b610a43565b3480156103be57600080fd5b506103d26103cd366004611469565b610a4e565b604051610214919081516001600160a01b0316815260208083015167ffffffffffffffff169082015260408083015115159082015260609182015162ffffff169181019190915260800190565b34801561042b57600080fd5b5061028a61043a366004611469565b610a7b565b34801561044b57600080fd5b5061025f61045a366004611469565b610a84565b34801561046b57600080fd5b5061023261047a366004611469565b610a8f565b34801561048b57600080fd5b50610232610a9a565b3480156104a057600080fd5b506102c16104af366004611575565b610ab6565b3480156104c057600080fd5b506000546102c1565b3480156104d557600080fd5b5061028a6104e4366004611633565b610b05565b3480156104f557600080fd5b50610232610b10565b34801561050a57600080fd5b5061028a61051936600461169a565b610b1f565b34801561052a57600080fd5b5061028a61053936600461149e565b610b29565b34801561054a57600080fd5b5061028a6105593660046116c6565b610b33565b61028a61056c3660046116f0565b610b9f565b34801561057d57600080fd5b5061059161058c366004611575565b610be9565b60405167ffffffffffffffff9091168152602001610214565b3480156105b657600080fd5b506102326105c5366004611469565b610c0a565b3480156105d657600080fd5b506102c1610c9c565b3480156105eb57600080fd5b506102c16105fa366004611575565b610ca7565b34801561060b57600080fd5b5061020861061a366004611758565b6001600160a01b03918216600090815260076020908152604080832093909416825291909152205460ff1690565b34801561065457600080fd5b506103d2610663366004611469565b610cd2565b60006301ffc9a760e01b6001600160e01b03198316148061069957506380ac58cd60e01b6001600160e01b03198316145b806106b45750635b5e139f60e01b6001600160e01b03198316145b92915050565b6060600280546106c990611782565b80601f01602080910402602001604051908101604052809291908181526020018280546106f590611782565b80156107425780601f1061071757610100808354040283529160200191610742565b820191906000526020600020905b81548152906001019060200180831161072557829003601f168201915b5050505050905090565b600061075782610cff565b610774576040516333d1c03960e21b815260040160405180910390fd5b506000908152600660205260409020546001600160a01b031690565b600061079b82610a84565b9050336001600160a01b038216146107d4576107b7813361061a565b6107d4576040516367d9dca160e11b815260040160405180910390fd5b60008281526006602052604080822080547fffffffffffffffffffffffff0000000000000000000000000000000000000000166001600160a01b0387811691821790925591518593918516917f8c5be1e5ebec7d5bd14f71427d1e84f3dd0314c0f7b2291e5b200ac8c7c3b92591a4505050565b6108528282610d26565b5050565b600061086182610d8e565b9050836001600160a01b0316816001600160a01b0316146108945760405162a1148160e81b815260040160405180910390fd5b600082815260066020526040902080546108c08187335b6001600160a01b039081169116811491141790565b6108eb576108ce863361061a565b6108eb57604051632ce44b5f60e11b815260040160405180910390fd5b6001600160a01b03851661091257604051633a954ecd60e21b815260040160405180910390fd5b801561091d57600082555b6001600160a01b038087166000908152600560205260408082208054600019019055918716815220805460010190556109768561095b888287610def565b600160e11b174260a01b176001600160a01b03919091161790565b600085815260046020526040902055600160e11b83166109c457600184016000818152600460205260409020546109c25760005481146109c25760008181526004602052604090208490555b505b83856001600160a01b0316876001600160a01b03167fddf252ad1be2c89b69c2b068fc378daa952ba7f163c4a11628f55a4df523b3ef60405160405180910390a4505050505050565b6108528282610e12565b610a3283838360405180602001604052806000815250610b9f565b505050565b610a4081610f37565b50565b60006106b482610cff565b6040805160808101825260008082526020820181905291810182905260608101919091526106b482610f42565b610a4081610fba565b60006106b482610d8e565b60606106b482610fe8565b6060610ab160408051602081019091526000815290565b905090565b60006001600160a01b038216610adf576040516323d3ad8160e21b815260040160405180910390fd5b506001600160a01b031660009081526005602052604090205467ffffffffffffffff1690565b610a32838383611036565b6060600380546106c990611782565b61085282826110a3565b6108528282611208565b3360008181526007602090815260408083206001600160a01b03871680855290835292819020805460ff191686151590811790915590519081529192917f17307eab39ab6107e8899845ad3d59bd9653f200f220920489ca2b5937696c31910160405180910390a35050565b610baa848484610856565b6001600160a01b0383163b15610be357610bc684848484611222565b610be3576040516368d2bf6b60e11b815260040160405180910390fd5b50505050565b6001600160a01b03811660009081526005602052604081205460c01c6106b4565b6060610c1582610cff565b610c3257604051630a14c4b560e41b815260040160405180910390fd5b6000610c4960408051602081019091526000815290565b9050805160001415610c6a5760405180602001604052806000815250610c95565b80610c7484610fe8565b604051602001610c859291906117bd565b6040516020818303038152906040525b9392505050565b6000610ab160015490565b6001600160a01b0381166000908152600560205260408082205467ffffffffffffffff911c166106b4565b6040805160808101825260008082526020820181905291810182905260608101919091526106b48261130a565b60008054821080156106b4575050600090815260046020526040902054600160e01b161590565b60008281526004602052604090205480610d525760405162d5815360e01b815260040160405180910390fd5b6000928352600460205260409092207cffffffffffffffffffffffffffffffffffffffffffffffffffffffffff9290921660e89190911b179055565b600081600054811015610dd657600081815260046020526040902054600160e01b8116610dd4575b80610c95575060001901600081815260046020526040902054610db6565b505b604051636f96cda160e11b815260040160405180910390fd5b600060e882811c90610e02868684611389565b62ffffff16901b95945050505050565b60005481610e335760405163b562e8dd60e01b815260040160405180910390fd5b6001600160a01b03831660009081526005602052604081208054680100000000000000018502019055610e8a908490610e6d908281610def565b6001851460e11b174260a01b176001600160a01b03919091161790565b6000828152600460205260408120919091556001600160a01b0384169083830190839083907fddf252ad1be2c89b69c2b068fc378daa952ba7f163c4a11628f55a4df523b3ef8180a4600183015b818114610f1057808360007fddf252ad1be2c89b69c2b068fc378daa952ba7f163c4a11628f55a4df523b3ef600080a4600101610ed8565b5081610f2e57604051622e076360e81b815260040160405180910390fd5b60005550505050565b610a408160006110a3565b6040805160808101825260008082526020820181905291810182905260608101919091526106b4610f7283610d8e565b604080516080810182526001600160a01b038316815260a083901c67ffffffffffffffff166020820152600160e01b831615159181019190915260e89190911c606082015290565b600081815260046020526040902054610a4057610fd681610d8e565b60008281526004602052604090205550565b606060a06040510180604052602081039150506000815280825b600183039250600a81066030018353600a90048061101f57611024565b611002565b50819003601f19909101908152919050565b6110408383610e12565b6001600160a01b0383163b15610a32576000548281035b61106a6000868380600101945086611222565b611087576040516368d2bf6b60e11b815260040160405180910390fd5b81811061105757816000541461109c57600080fd5b5050505050565b60006110ae83610d8e565b9050806000806110cc86600090815260066020526040902080549091565b91509150841561110c576110e18184336108ab565b61110c576110ef833361061a565b61110c57604051632ce44b5f60e11b815260040160405180910390fd5b801561111757600082555b6001600160a01b038316600090815260056020526040812080546fffffffffffffffffffffffffffffffff01905561117290849061115790829088610def565b600360e01b174260a01b176001600160a01b03919091161790565b600087815260046020526040902055600160e11b84166111c057600186016000818152600460205260409020546111be5760005481146111be5760008181526004602052604090208590555b505b60405186906000906001600160a01b038616907fddf252ad1be2c89b69c2b068fc378daa952ba7f163c4a11628f55a4df523b3ef908390a45050600180548101905550505050565b610852828260405180602001604052806000815250611036565b604051630a85bd0160e11b81526000906001600160a01b0385169063150b7a02906112579033908990889088906004016117ec565b6020604051808303816000875af1925050508015611292575060408051601f3d908101601f1916820190925261128f91810190611828565b60015b6112ed573d8080156112c0576040519150601f19603f3d011682016040523d82523d6000602084013e6112c5565b606091505b5080516112e5576040516368d2bf6b60e11b815260040160405180910390fd5b805181602001fd5b6001600160e01b031916630a85bd0160e11b149050949350505050565b6040805160808101825260008082526020820181905291810182905260608101919091526000828152600460205260409020546106b490604080516080810182526001600160a01b038316815260a083901c67ffffffffffffffff166020820152600160e01b831615159181019190915260e89190911c606082015290565b60006001600160a01b0384166113a15750602a610c95565b6001600160a01b0383166113b85750610539610c95565b6113c3826001611845565b949350505050565b6001600160e01b031981168114610a4057600080fd5b6000602082840312156113f357600080fd5b8135610c95816113cb565b60005b83811015611419578181015183820152602001611401565b83811115610be35750506000910152565b600081518084526114428160208601602086016113fe565b601f01601f19169290920160200192915050565b602081526000610c95602083018461142a565b60006020828403121561147b57600080fd5b5035919050565b80356001600160a01b038116811461149957600080fd5b919050565b600080604083850312156114b157600080fd5b6114ba83611482565b946020939093013593505050565b600080604083850312156114db57600080fd5b82359150602083013562ffffff811681146114f557600080fd5b809150509250929050565b60008060006060848603121561151557600080fd5b61151e84611482565b925061152c60208501611482565b9150604084013590509250925092565b6000806040838503121561154f57600080fd5b61155883611482565b9150602083013567ffffffffffffffff811681146114f557600080fd5b60006020828403121561158757600080fd5b610c9582611482565b634e487b7160e01b600052604160045260246000fd5b600082601f8301126115b757600080fd5b813567ffffffffffffffff808211156115d2576115d2611590565b604051601f8301601f19908116603f011681019082821181831017156115fa576115fa611590565b8160405283815286602085880101111561161357600080fd5b836020870160208301376000602085830101528094505050505092915050565b60008060006060848603121561164857600080fd5b61165184611482565b925060208401359150604084013567ffffffffffffffff81111561167457600080fd5b611680868287016115a6565b9150509250925092565b8035801515811461149957600080fd5b600080604083850312156116ad57600080fd5b823591506116bd6020840161168a565b90509250929050565b600080604083850312156116d957600080fd5b6116e283611482565b91506116bd6020840161168a565b6000806000806080858703121561170657600080fd5b61170f85611482565b935061171d60208601611482565b925060408501359150606085013567ffffffffffffffff81111561174057600080fd5b61174c878288016115a6565b91505092959194509250565b6000806040838503121561176b57600080fd5b61177483611482565b91506116bd60208401611482565b600181811c9082168061179657607f821691505b602082108114156117b757634e487b7160e01b600052602260045260246000fd5b50919050565b600083516117cf8184602088016113fe565b8351908301906117e38183602088016113fe565b01949350505050565b60006001600160a01b0380871683528086166020840152508360408301526080606083015261181e608083018461142a565b9695505050505050565b60006020828403121561183a57600080fd5b8151610c95816113cb565b600062ffffff8083168185168083038211156117e357634e487b7160e01b600052601160045260246000fdfea2646970667358221220099fbe1897b6b01985a14ec1c581c8f32c581b7dfa29526346358554820cbf2c64736f6c634300080b0033","opcodes":"PUSH1 0x80 PUSH1 0x40 MSTORE CALLVALUE DUP1 ISZERO PUSH3 0x11 JUMPI PUSH1 0x0 DUP1 REVERT JUMPDEST POP PUSH1 0x40 MLOAD PUSH3 0x1B49 CODESIZE SUB DUP1 PUSH3 0x1B49 DUP4 CODECOPY DUP2 ADD PUSH1 0x40 DUP2 SWAP1 MSTORE PUSH3 0x34 SWAP2 PUSH3 0x1EB JUMP JUMPDEST DUP2 DUP2 DUP2 DUP2 DUP2 PUSH1 0x2 SWAP1 DUP1 MLOAD SWAP1 PUSH1 0x20 ADD SWAP1 PUSH3 0x50 SWAP3 SWAP2 SWAP1 PUSH3 0x78 JUMP JUMPDEST POP DUP1 MLOAD PUSH3 0x66 SWAP1 PUSH1 0x3 SWAP1 PUSH1 0x20 DUP5 ADD SWAP1 PUSH3 0x78 JUMP JUMPDEST POP PUSH1 0x0 DUP1 SSTORE POP PUSH3 0x292 SWAP5 POP POP POP POP POP JUMP JUMPDEST DUP3 DUP1 SLOAD PUSH3 0x86 SWAP1 PUSH3 0x255 JUMP JUMPDEST SWAP1 PUSH1 0x0 MSTORE PUSH1 0x20 PUSH1 0x0 KECCAK256 SWAP1 PUSH1 0x1F ADD PUSH1 0x20 SWAP1 DIV DUP2 ADD SWAP3 DUP3 PUSH3 0xAA JUMPI PUSH1 0x0 DUP6 SSTORE PUSH3 0xF5 JUMP JUMPDEST DUP3 PUSH1 0x1F LT PUSH3 0xC5 JUMPI DUP1 MLOAD PUSH1 0xFF NOT AND DUP4 DUP1 ADD OR DUP6 SSTORE PUSH3 0xF5 JUMP JUMPDEST DUP3 DUP1 ADD PUSH1 0x1 ADD DUP6 SSTORE DUP3 ISZERO PUSH3 0xF5 JUMPI SWAP2 DUP3 ADD JUMPDEST DUP3 DUP2 GT ISZERO PUSH3 0xF5 JUMPI DUP3 MLOAD DUP3 SSTORE SWAP2 PUSH1 0x20 ADD SWAP2 SWAP1 PUSH1 0x1 ADD SWAP1 PUSH3 0xD8 JUMP JUMPDEST POP PUSH3 0x103 SWAP3 SWAP2 POP PUSH3 0x107 JUMP JUMPDEST POP SWAP1 JUMP JUMPDEST JUMPDEST DUP1 DUP3 GT ISZERO PUSH3 0x103 JUMPI PUSH1 0x0 DUP2 SSTORE PUSH1 0x1 ADD PUSH3 0x108 JUMP JUMPDEST PUSH4 0x4E487B71 PUSH1 0xE0 SHL PUSH1 0x0 MSTORE PUSH1 0x41 PUSH1 0x4 MSTORE PUSH1 0x24 PUSH1 0x0 REVERT JUMPDEST PUSH1 0x0 DUP3 PUSH1 0x1F DUP4 ADD SLT PUSH3 0x146 JUMPI PUSH1 0x0 DUP1 REVERT JUMPDEST DUP2 MLOAD PUSH1 0x1 PUSH1 0x1 PUSH1 0x40 SHL SUB DUP1 DUP3 GT ISZERO PUSH3 0x163 JUMPI PUSH3 0x163 PUSH3 0x11E JUMP JUMPDEST PUSH1 0x40 MLOAD PUSH1 0x1F DUP4 ADD PUSH1 0x1F NOT SWAP1 DUP2 AND PUSH1 0x3F ADD AND DUP2 ADD SWAP1 DUP3 DUP3 GT DUP2 DUP4 LT OR ISZERO PUSH3 0x18E JUMPI PUSH3 0x18E PUSH3 0x11E JUMP JUMPDEST DUP2 PUSH1 0x40 MSTORE DUP4 DUP2 MSTORE PUSH1 0x20 SWAP3 POP DUP7 DUP4 DUP6 DUP9 ADD ADD GT ISZERO PUSH3 0x1AB JUMPI PUSH1 0x0 DUP1 REVERT JUMPDEST PUSH1 0x0 SWAP2 POP JUMPDEST DUP4 DUP3 LT ISZERO PUSH3 0x1CF JUMPI DUP6 DUP3 ADD DUP4 ADD MLOAD DUP2 DUP4 ADD DUP5 ADD MSTORE SWAP1 DUP3 ADD SWAP1 PUSH3 0x1B0 JUMP JUMPDEST DUP4 DUP3 GT ISZERO PUSH3 0x1E1 JUMPI PUSH1 0x0 DUP4 DUP6 DUP4 ADD ADD MSTORE JUMPDEST SWAP7 SWAP6 POP POP POP POP POP POP JUMP JUMPDEST PUSH1 0x0 DUP1 PUSH1 0x40 DUP4 DUP6 SUB SLT ISZERO PUSH3 0x1FF JUMPI PUSH1 0x0 DUP1 REVERT JUMPDEST DUP3 MLOAD PUSH1 0x1 PUSH1 0x1 PUSH1 0x40 SHL SUB DUP1 DUP3 GT ISZERO PUSH3 0x217 JUMPI PUSH1 0x0 DUP1 REVERT JUMPDEST PUSH3 0x225 DUP7 DUP4 DUP8 ADD PUSH3 0x134 JUMP JUMPDEST SWAP4 POP PUSH1 0x20 DUP6 ADD MLOAD SWAP2 POP DUP1 DUP3 GT ISZERO PUSH3 0x23C JUMPI PUSH1 0x0 DUP1 REVERT JUMPDEST POP PUSH3 0x24B DUP6 DUP3 DUP7 ADD PUSH3 0x134 JUMP JUMPDEST SWAP2 POP POP SWAP3 POP SWAP3 SWAP1 POP JUMP JUMPDEST PUSH1 0x1 DUP2 DUP2 SHR SWAP1 DUP3 AND DUP1 PUSH3 0x26A JUMPI PUSH1 0x7F DUP3 AND SWAP2 POP JUMPDEST PUSH1 0x20 DUP3 LT DUP2 EQ ISZERO PUSH3 0x28C JUMPI PUSH4 0x4E487B71 PUSH1 0xE0 SHL PUSH1 0x0 MSTORE PUSH1 0x22 PUSH1 0x4 MSTORE PUSH1 0x24 PUSH1 0x0 REVERT JUMPDEST POP SWAP2 SWAP1 POP JUMP JUMPDEST PUSH2 0x18A7 DUP1 PUSH3 0x2A2 PUSH1 0x0 CODECOPY PUSH1 0x0 RETURN INVALID PUSH1 0x80 PUSH1 0x40 MSTORE PUSH1 0x4 CALLDATASIZE LT PUSH2 0x1E3 JUMPI PUSH1 0x0 CALLDATALOAD PUSH1 0xE0 SHR DUP1 PUSH4 0x6C0360EB GT PUSH2 0x102 JUMPI DUP1 PUSH4 0xA2309FF8 GT PUSH2 0x95 JUMPI DUP1 PUSH4 0xD89135CD GT PUSH2 0x64 JUMPI DUP1 PUSH4 0xD89135CD EQ PUSH2 0x5CA JUMPI DUP1 PUSH4 0xDC33E681 EQ PUSH2 0x5DF JUMPI DUP1 PUSH4 0xE985E9C5 EQ PUSH2 0x5FF JUMPI DUP1 PUSH4 0xF2523633 EQ PUSH2 0x648 JUMPI PUSH1 0x0 DUP1 REVERT JUMPDEST DUP1 PUSH4 0xA2309FF8 EQ PUSH2 0x4B4 JUMPI DUP1 PUSH4 0xB88D4FDE EQ PUSH2 0x55E JUMPI DUP1 PUSH4 0xBF0B175E EQ PUSH2 0x571 JUMPI DUP1 PUSH4 0xC87B56DD EQ PUSH2 0x5AA JUMPI PUSH1 0x0 DUP1 REVERT JUMPDEST DUP1 PUSH4 0x95D89B41 GT PUSH2 0xD1 JUMPI DUP1 PUSH4 0x95D89B41 EQ PUSH2 0x4E9 JUMPI DUP1 PUSH4 0x9FAC68CB EQ PUSH2 0x4FE JUMPI DUP1 PUSH4 0xA1448194 EQ PUSH2 0x51E JUMPI DUP1 PUSH4 0xA22CB465 EQ PUSH2 0x53E JUMPI PUSH1 0x0 DUP1 REVERT JUMPDEST DUP1 PUSH4 0x6C0360EB EQ PUSH2 0x47F JUMPI DUP1 PUSH4 0x70A08231 EQ PUSH2 0x494 JUMPI DUP1 PUSH4 0x75794A3C EQ PUSH2 0x4B4 JUMPI DUP1 PUSH4 0x8832E6E3 EQ PUSH2 0x4C9 JUMPI PUSH1 0x0 DUP1 REVERT JUMPDEST DUP1 PUSH4 0x42842E0E GT PUSH2 0x17A JUMPI DUP1 PUSH4 0x52D8A4D1 GT PUSH2 0x149 JUMPI DUP1 PUSH4 0x52D8A4D1 EQ PUSH2 0x3B2 JUMPI DUP1 PUSH4 0x53B1233D EQ PUSH2 0x41F JUMPI DUP1 PUSH4 0x6352211E EQ PUSH2 0x43F JUMPI DUP1 PUSH4 0x6900A3AE EQ PUSH2 0x45F JUMPI PUSH1 0x0 DUP1 REVERT JUMPDEST DUP1 PUSH4 0x42842E0E EQ PUSH2 0x302 JUMPI DUP1 PUSH4 0x42966C68 EQ PUSH2 0x315 JUMPI DUP1 PUSH4 0x453AB141 EQ PUSH2 0x335 JUMPI DUP1 PUSH4 0x4F558E79 EQ PUSH2 0x392 JUMPI PUSH1 0x0 DUP1 REVERT JUMPDEST DUP1 PUSH4 0xA70B566 GT PUSH2 0x1B6 JUMPI DUP1 PUSH4 0xA70B566 EQ PUSH2 0x28C JUMPI DUP1 PUSH4 0x18160DDD EQ PUSH2 0x2AC JUMPI DUP1 PUSH4 0x23B872DD EQ PUSH2 0x2CF JUMPI DUP1 PUSH4 0x40C10F19 EQ PUSH2 0x2E2 JUMPI PUSH1 0x0 DUP1 REVERT JUMPDEST DUP1 PUSH4 0x1FFC9A7 EQ PUSH2 0x1E8 JUMPI DUP1 PUSH4 0x6FDDE03 EQ PUSH2 0x21D JUMPI DUP1 PUSH4 0x81812FC EQ PUSH2 0x23F JUMPI DUP1 PUSH4 0x95EA7B3 EQ PUSH2 0x277 JUMPI JUMPDEST PUSH1 0x0 DUP1 REVERT JUMPDEST CALLVALUE DUP1 ISZERO PUSH2 0x1F4 JUMPI PUSH1 0x0 DUP1 REVERT JUMPDEST POP PUSH2 0x208 PUSH2 0x203 CALLDATASIZE PUSH1 0x4 PUSH2 0x13E1 JUMP JUMPDEST PUSH2 0x668 JUMP JUMPDEST PUSH1 0x40 MLOAD SWAP1 ISZERO ISZERO DUP2 MSTORE PUSH1 0x20 ADD JUMPDEST PUSH1 0x40 MLOAD DUP1 SWAP2 SUB SWAP1 RETURN JUMPDEST CALLVALUE DUP1 ISZERO PUSH2 0x229 JUMPI PUSH1 0x0 DUP1 REVERT JUMPDEST POP PUSH2 0x232 PUSH2 0x6BA JUMP JUMPDEST PUSH1 0x40 MLOAD PUSH2 0x214 SWAP2 SWAP1 PUSH2 0x1456 JUMP JUMPDEST CALLVALUE DUP1 ISZERO PUSH2 0x24B JUMPI PUSH1 0x0 DUP1 REVERT JUMPDEST POP PUSH2 0x25F PUSH2 0x25A CALLDATASIZE PUSH1 0x4 PUSH2 0x1469 JUMP JUMPDEST PUSH2 0x74C JUMP JUMPDEST PUSH1 0x40 MLOAD PUSH1 0x1 PUSH1 0x1 PUSH1 0xA0 SHL SUB SWAP1 SWAP2 AND DUP2 MSTORE PUSH1 0x20 ADD PUSH2 0x214 JUMP JUMPDEST PUSH2 0x28A PUSH2 0x285 CALLDATASIZE PUSH1 0x4 PUSH2 0x149E JUMP JUMPDEST PUSH2 0x790 JUMP JUMPDEST STOP JUMPDEST CALLVALUE DUP1 ISZERO PUSH2 0x298 JUMPI PUSH1 0x0 DUP1 REVERT JUMPDEST POP PUSH2 0x28A PUSH2 0x2A7 CALLDATASIZE PUSH1 0x4 PUSH2 0x14C8 JUMP JUMPDEST PUSH2 0x848 JUMP JUMPDEST CALLVALUE DUP1 ISZERO PUSH2 0x2B8 JUMPI PUSH1 0x0 DUP1 REVERT JUMPDEST POP PUSH1 0x1 SLOAD PUSH1 0x0 SLOAD SUB JUMPDEST PUSH1 0x40 MLOAD SWAP1 DUP2 MSTORE PUSH1 0x20 ADD PUSH2 0x214 JUMP JUMPDEST PUSH2 0x28A PUSH2 0x2DD CALLDATASIZE PUSH1 0x4 PUSH2 0x1500 JUMP JUMPDEST PUSH2 0x856 JUMP JUMPDEST CALLVALUE DUP1 ISZERO PUSH2 0x2EE JUMPI PUSH1 0x0 DUP1 REVERT JUMPDEST POP PUSH2 0x28A PUSH2 0x2FD CALLDATASIZE PUSH1 0x4 PUSH2 0x149E JUMP JUMPDEST PUSH2 0xA0D JUMP JUMPDEST PUSH2 0x28A PUSH2 0x310 CALLDATASIZE PUSH1 0x4 PUSH2 0x1500 JUMP JUMPDEST PUSH2 0xA17 JUMP JUMPDEST CALLVALUE DUP1 ISZERO PUSH2 0x321 JUMPI PUSH1 0x0 DUP1 REVERT JUMPDEST POP PUSH2 0x28A PUSH2 0x330 CALLDATASIZE PUSH1 0x4 PUSH2 0x1469 JUMP JUMPDEST PUSH2 0xA37 JUMP JUMPDEST CALLVALUE DUP1 ISZERO PUSH2 0x341 JUMPI PUSH1 0x0 DUP1 REVERT JUMPDEST POP PUSH2 0x28A PUSH2 0x350 CALLDATASIZE PUSH1 0x4 PUSH2 0x153C JUMP JUMPDEST PUSH1 0x1 PUSH1 0x1 PUSH1 0xA0 SHL SUB DUP3 AND PUSH1 0x0 SWAP1 DUP2 MSTORE PUSH1 0x5 PUSH1 0x20 MSTORE PUSH1 0x40 SWAP1 KECCAK256 DUP1 SLOAD PUSH1 0xC0 DUP4 SWAP1 SHL PUSH24 0xFFFFFFFFFFFFFFFFFFFFFFFFFFFFFFFFFFFFFFFFFFFFFFFF SWAP1 SWAP2 AND OR SWAP1 SSTORE POP POP JUMP JUMPDEST CALLVALUE DUP1 ISZERO PUSH2 0x39E JUMPI PUSH1 0x0 DUP1 REVERT JUMPDEST POP PUSH2 0x208 PUSH2 0x3AD CALLDATASIZE PUSH1 0x4 PUSH2 0x1469 JUMP JUMPDEST PUSH2 0xA43 JUMP JUMPDEST CALLVALUE DUP1 ISZERO PUSH2 0x3BE JUMPI PUSH1 0x0 DUP1 REVERT JUMPDEST POP PUSH2 0x3D2 PUSH2 0x3CD CALLDATASIZE PUSH1 0x4 PUSH2 0x1469 JUMP JUMPDEST PUSH2 0xA4E JUMP JUMPDEST PUSH1 0x40 MLOAD PUSH2 0x214 SWAP2 SWAP1 DUP2 MLOAD PUSH1 0x1 PUSH1 0x1 PUSH1 0xA0 SHL SUB AND DUP2 MSTORE PUSH1 0x20 DUP1 DUP4 ADD MLOAD PUSH8 0xFFFFFFFFFFFFFFFF AND SWAP1 DUP3 ADD MSTORE PUSH1 0x40 DUP1 DUP4 ADD MLOAD ISZERO ISZERO SWAP1 DUP3 ADD MSTORE PUSH1 0x60 SWAP2 DUP3 ADD MLOAD PUSH3 0xFFFFFF AND SWAP2 DUP2 ADD SWAP2 SWAP1 SWAP2 MSTORE PUSH1 0x80 ADD SWAP1 JUMP JUMPDEST CALLVALUE DUP1 ISZERO PUSH2 0x42B JUMPI PUSH1 0x0 DUP1 REVERT JUMPDEST POP PUSH2 0x28A PUSH2 0x43A CALLDATASIZE PUSH1 0x4 PUSH2 0x1469 JUMP JUMPDEST PUSH2 0xA7B JUMP JUMPDEST CALLVALUE DUP1 ISZERO PUSH2 0x44B JUMPI PUSH1 0x0 DUP1 REVERT JUMPDEST POP PUSH2 0x25F PUSH2 0x45A CALLDATASIZE PUSH1 0x4 PUSH2 0x1469 JUMP JUMPDEST PUSH2 0xA84 JUMP JUMPDEST CALLVALUE DUP1 ISZERO PUSH2 0x46B JUMPI PUSH1 0x0 DUP1 REVERT JUMPDEST POP PUSH2 0x232 PUSH2 0x47A CALLDATASIZE PUSH1 0x4 PUSH2 0x1469 JUMP JUMPDEST PUSH2 0xA8F JUMP JUMPDEST CALLVALUE DUP1 ISZERO PUSH2 0x48B JUMPI PUSH1 0x0 DUP1 REVERT JUMPDEST POP PUSH2 0x232 PUSH2 0xA9A JUMP JUMPDEST CALLVALUE DUP1 ISZERO PUSH2 0x4A0 JUMPI PUSH1 0x0 DUP1 REVERT JUMPDEST POP PUSH2 0x2C1 PUSH2 0x4AF CALLDATASIZE PUSH1 0x4 PUSH2 0x1575 JUMP JUMPDEST PUSH2 0xAB6 JUMP JUMPDEST CALLVALUE DUP1 ISZERO PUSH2 0x4C0 JUMPI PUSH1 0x0 DUP1 REVERT JUMPDEST POP PUSH1 0x0 SLOAD PUSH2 0x2C1 JUMP JUMPDEST CALLVALUE DUP1 ISZERO PUSH2 0x4D5 JUMPI PUSH1 0x0 DUP1 REVERT JUMPDEST POP PUSH2 0x28A PUSH2 0x4E4 CALLDATASIZE PUSH1 0x4 PUSH2 0x1633 JUMP JUMPDEST PUSH2 0xB05 JUMP JUMPDEST CALLVALUE DUP1 ISZERO PUSH2 0x4F5 JUMPI PUSH1 0x0 DUP1 REVERT JUMPDEST POP PUSH2 0x232 PUSH2 0xB10 JUMP JUMPDEST CALLVALUE DUP1 ISZERO PUSH2 0x50A JUMPI PUSH1 0x0 DUP1 REVERT JUMPDEST POP PUSH2 0x28A PUSH2 0x519 CALLDATASIZE PUSH1 0x4 PUSH2 0x169A JUMP JUMPDEST PUSH2 0xB1F JUMP JUMPDEST CALLVALUE DUP1 ISZERO PUSH2 0x52A JUMPI PUSH1 0x0 DUP1 REVERT JUMPDEST POP PUSH2 0x28A PUSH2 0x539 CALLDATASIZE PUSH1 0x4 PUSH2 0x149E JUMP JUMPDEST PUSH2 0xB29 JUMP JUMPDEST CALLVALUE DUP1 ISZERO PUSH2 0x54A JUMPI PUSH1 0x0 DUP1 REVERT JUMPDEST POP PUSH2 0x28A PUSH2 0x559 CALLDATASIZE PUSH1 0x4 PUSH2 0x16C6 JUMP JUMPDEST PUSH2 0xB33 JUMP JUMPDEST PUSH2 0x28A PUSH2 0x56C CALLDATASIZE PUSH1 0x4 PUSH2 0x16F0 JUMP JUMPDEST PUSH2 0xB9F JUMP JUMPDEST CALLVALUE DUP1 ISZERO PUSH2 0x57D JUMPI PUSH1 0x0 DUP1 REVERT JUMPDEST POP PUSH2 0x591 PUSH2 0x58C CALLDATASIZE PUSH1 0x4 PUSH2 0x1575 JUMP JUMPDEST PUSH2 0xBE9 JUMP JUMPDEST PUSH1 0x40 MLOAD PUSH8 0xFFFFFFFFFFFFFFFF SWAP1 SWAP2 AND DUP2 MSTORE PUSH1 0x20 ADD PUSH2 0x214 JUMP JUMPDEST CALLVALUE DUP1 ISZERO PUSH2 0x5B6 JUMPI PUSH1 0x0 DUP1 REVERT JUMPDEST POP PUSH2 0x232 PUSH2 0x5C5 CALLDATASIZE PUSH1 0x4 PUSH2 0x1469 JUMP JUMPDEST PUSH2 0xC0A JUMP JUMPDEST CALLVALUE DUP1 ISZERO PUSH2 0x5D6 JUMPI PUSH1 0x0 DUP1 REVERT JUMPDEST POP PUSH2 0x2C1 PUSH2 0xC9C JUMP JUMPDEST CALLVALUE DUP1 ISZERO PUSH2 0x5EB JUMPI PUSH1 0x0 DUP1 REVERT JUMPDEST POP PUSH2 0x2C1 PUSH2 0x5FA CALLDATASIZE PUSH1 0x4 PUSH2 0x1575 JUMP JUMPDEST PUSH2 0xCA7 JUMP JUMPDEST CALLVALUE DUP1 ISZERO PUSH2 0x60B JUMPI PUSH1 0x0 DUP1 REVERT JUMPDEST POP PUSH2 0x208 PUSH2 0x61A CALLDATASIZE PUSH1 0x4 PUSH2 0x1758 JUMP JUMPDEST PUSH1 0x1 PUSH1 0x1 PUSH1 0xA0 SHL SUB SWAP2 DUP3 AND PUSH1 0x0 SWAP1 DUP2 MSTORE PUSH1 0x7 PUSH1 0x20 SWAP1 DUP2 MSTORE PUSH1 0x40 DUP1 DUP4 KECCAK256 SWAP4 SWAP1 SWAP5 AND DUP3 MSTORE SWAP2 SWAP1 SWAP2 MSTORE KECCAK256 SLOAD PUSH1 0xFF AND SWAP1 JUMP JUMPDEST CALLVALUE DUP1 ISZERO PUSH2 0x654 JUMPI PUSH1 0x0 DUP1 REVERT JUMPDEST POP PUSH2 0x3D2 PUSH2 0x663 CALLDATASIZE PUSH1 0x4 PUSH2 0x1469 JUMP JUMPDEST PUSH2 0xCD2 JUMP JUMPDEST PUSH1 0x0 PUSH4 0x1FFC9A7 PUSH1 0xE0 SHL PUSH1 0x1 PUSH1 0x1 PUSH1 0xE0 SHL SUB NOT DUP4 AND EQ DUP1 PUSH2 0x699 JUMPI POP PUSH4 0x80AC58CD PUSH1 0xE0 SHL PUSH1 0x1 PUSH1 0x1 PUSH1 0xE0 SHL SUB NOT DUP4 AND EQ JUMPDEST DUP1 PUSH2 0x6B4 JUMPI POP PUSH4 0x5B5E139F PUSH1 0xE0 SHL PUSH1 0x1 PUSH1 0x1 PUSH1 0xE0 SHL SUB NOT DUP4 AND EQ JUMPDEST SWAP3 SWAP2 POP POP JUMP JUMPDEST PUSH1 0x60 PUSH1 0x2 DUP1 SLOAD PUSH2 0x6C9 SWAP1 PUSH2 0x1782 JUMP JUMPDEST DUP1 PUSH1 0x1F ADD PUSH1 0x20 DUP1 SWAP2 DIV MUL PUSH1 0x20 ADD PUSH1 0x40 MLOAD SWAP1 DUP2 ADD PUSH1 0x40 MSTORE DUP1 SWAP3 SWAP2 SWAP1 DUP2 DUP2 MSTORE PUSH1 0x20 ADD DUP3 DUP1 SLOAD PUSH2 0x6F5 SWAP1 PUSH2 0x1782 JUMP JUMPDEST DUP1 ISZERO PUSH2 0x742 JUMPI DUP1 PUSH1 0x1F LT PUSH2 0x717 JUMPI PUSH2 0x100 DUP1 DUP4 SLOAD DIV MUL DUP4 MSTORE SWAP2 PUSH1 0x20 ADD SWAP2 PUSH2 0x742 JUMP JUMPDEST DUP3 ADD SWAP2 SWAP1 PUSH1 0x0 MSTORE PUSH1 0x20 PUSH1 0x0 KECCAK256 SWAP1 JUMPDEST DUP2 SLOAD DUP2 MSTORE SWAP1 PUSH1 0x1 ADD SWAP1 PUSH1 0x20 ADD DUP1 DUP4 GT PUSH2 0x725 JUMPI DUP3 SWAP1 SUB PUSH1 0x1F AND DUP3 ADD SWAP2 JUMPDEST POP POP POP POP POP SWAP1 POP SWAP1 JUMP JUMPDEST PUSH1 0x0 PUSH2 0x757 DUP3 PUSH2 0xCFF JUMP JUMPDEST PUSH2 0x774 JUMPI PUSH1 0x40 MLOAD PUSH4 0x33D1C039 PUSH1 0xE2 SHL DUP2 MSTORE PUSH1 0x4 ADD PUSH1 0x40 MLOAD DUP1 SWAP2 SUB SWAP1 REVERT JUMPDEST POP PUSH1 0x0 SWAP1 DUP2 MSTORE PUSH1 0x6 PUSH1 0x20 MSTORE PUSH1 0x40 SWAP1 KECCAK256 SLOAD PUSH1 0x1 PUSH1 0x1 PUSH1 0xA0 SHL SUB AND SWAP1 JUMP JUMPDEST PUSH1 0x0 PUSH2 0x79B DUP3 PUSH2 0xA84 JUMP JUMPDEST SWAP1 POP CALLER PUSH1 0x1 PUSH1 0x1 PUSH1 0xA0 SHL SUB DUP3 AND EQ PUSH2 0x7D4 JUMPI PUSH2 0x7B7 DUP2 CALLER PUSH2 0x61A JUMP JUMPDEST PUSH2 0x7D4 JUMPI PUSH1 0x40 MLOAD PUSH4 0x67D9DCA1 PUSH1 0xE1 SHL DUP2 MSTORE PUSH1 0x4 ADD PUSH1 0x40 MLOAD DUP1 SWAP2 SUB SWAP1 REVERT JUMPDEST PUSH1 0x0 DUP3 DUP2 MSTORE PUSH1 0x6 PUSH1 0x20 MSTORE PUSH1 0x40 DUP1 DUP3 KECCAK256 DUP1 SLOAD PUSH32 0xFFFFFFFFFFFFFFFFFFFFFFFF0000000000000000000000000000000000000000 AND PUSH1 0x1 PUSH1 0x1 PUSH1 0xA0 SHL SUB DUP8 DUP2 AND SWAP2 DUP3 OR SWAP1 SWAP3 SSTORE SWAP2 MLOAD DUP6 SWAP4 SWAP2 DUP6 AND SWAP2 PUSH32 0x8C5BE1E5EBEC7D5BD14F71427D1E84F3DD0314C0F7B2291E5B200AC8C7C3B925 SWAP2 LOG4 POP POP POP JUMP JUMPDEST PUSH2 0x852 DUP3 DUP3 PUSH2 0xD26 JUMP JUMPDEST POP POP JUMP JUMPDEST PUSH1 0x0 PUSH2 0x861 DUP3 PUSH2 0xD8E JUMP JUMPDEST SWAP1 POP DUP4 PUSH1 0x1 PUSH1 0x1 PUSH1 0xA0 SHL SUB AND DUP2 PUSH1 0x1 PUSH1 0x1 PUSH1 0xA0 SHL SUB AND EQ PUSH2 0x894 JUMPI PUSH1 0x40 MLOAD PUSH3 0xA11481 PUSH1 0xE8 SHL DUP2 MSTORE PUSH1 0x4 ADD PUSH1 0x40 MLOAD DUP1 SWAP2 SUB SWAP1 REVERT JUMPDEST PUSH1 0x0 DUP3 DUP2 MSTORE PUSH1 0x6 PUSH1 0x20 MSTORE PUSH1 0x40 SWAP1 KECCAK256 DUP1 SLOAD PUSH2 0x8C0 DUP2 DUP8 CALLER JUMPDEST PUSH1 0x1 PUSH1 0x1 PUSH1 0xA0 SHL SUB SWAP1 DUP2 AND SWAP2 AND DUP2 EQ SWAP2 EQ OR SWAP1 JUMP JUMPDEST PUSH2 0x8EB JUMPI PUSH2 0x8CE DUP7 CALLER PUSH2 0x61A JUMP JUMPDEST PUSH2 0x8EB JUMPI PUSH1 0x40 MLOAD PUSH4 0x2CE44B5F PUSH1 0xE1 SHL DUP2 MSTORE PUSH1 0x4 ADD PUSH1 0x40 MLOAD DUP1 SWAP2 SUB SWAP1 REVERT JUMPDEST PUSH1 0x1 PUSH1 0x1 PUSH1 0xA0 SHL SUB DUP6 AND PUSH2 0x912 JUMPI PUSH1 0x40 MLOAD PUSH4 0x3A954ECD PUSH1 0xE2 SHL DUP2 MSTORE PUSH1 0x4 ADD PUSH1 0x40 MLOAD DUP1 SWAP2 SUB SWAP1 REVERT JUMPDEST DUP1 ISZERO PUSH2 0x91D JUMPI PUSH1 0x0 DUP3 SSTORE JUMPDEST PUSH1 0x1 PUSH1 0x1 PUSH1 0xA0 SHL SUB DUP1 DUP8 AND PUSH1 0x0 SWAP1 DUP2 MSTORE PUSH1 0x5 PUSH1 0x20 MSTORE PUSH1 0x40 DUP1 DUP3 KECCAK256 DUP1 SLOAD PUSH1 0x0 NOT ADD SWAP1 SSTORE SWAP2 DUP8 AND DUP2 MSTORE KECCAK256 DUP1 SLOAD PUSH1 0x1 ADD SWAP1 SSTORE PUSH2 0x976 DUP6 PUSH2 0x95B DUP9 DUP3 DUP8 PUSH2 0xDEF JUMP JUMPDEST PUSH1 0x1 PUSH1 0xE1 SHL OR TIMESTAMP PUSH1 0xA0 SHL OR PUSH1 0x1 PUSH1 0x1 PUSH1 0xA0 SHL SUB SWAP2 SWAP1 SWAP2 AND OR SWAP1 JUMP JUMPDEST PUSH1 0x0 DUP6 DUP2 MSTORE PUSH1 0x4 PUSH1 0x20 MSTORE PUSH1 0x40 SWAP1 KECCAK256 SSTORE PUSH1 0x1 PUSH1 0xE1 SHL DUP4 AND PUSH2 0x9C4 JUMPI PUSH1 0x1 DUP5 ADD PUSH1 0x0 DUP2 DUP2 MSTORE PUSH1 0x4 PUSH1 0x20 MSTORE PUSH1 0x40 SWAP1 KECCAK256 SLOAD PUSH2 0x9C2 JUMPI PUSH1 0x0 SLOAD DUP2 EQ PUSH2 0x9C2 JUMPI PUSH1 0x0 DUP2 DUP2 MSTORE PUSH1 0x4 PUSH1 0x20 MSTORE PUSH1 0x40 SWAP1 KECCAK256 DUP5 SWAP1 SSTORE JUMPDEST POP JUMPDEST DUP4 DUP6 PUSH1 0x1 PUSH1 0x1 PUSH1 0xA0 SHL SUB AND DUP8 PUSH1 0x1 PUSH1 0x1 PUSH1 0xA0 SHL SUB AND PUSH32 0xDDF252AD1BE2C89B69C2B068FC378DAA952BA7F163C4A11628F55A4DF523B3EF PUSH1 0x40 MLOAD PUSH1 0x40 MLOAD DUP1 SWAP2 SUB SWAP1 LOG4 POP POP POP POP POP POP JUMP JUMPDEST PUSH2 0x852 DUP3 DUP3 PUSH2 0xE12 JUMP JUMPDEST PUSH2 0xA32 DUP4 DUP4 DUP4 PUSH1 0x40 MLOAD DUP1 PUSH1 0x20 ADD PUSH1 0x40 MSTORE DUP1 PUSH1 0x0 DUP2 MSTORE POP PUSH2 0xB9F JUMP JUMPDEST POP POP POP JUMP JUMPDEST PUSH2 0xA40 DUP2 PUSH2 0xF37 JUMP JUMPDEST POP JUMP JUMPDEST PUSH1 0x0 PUSH2 0x6B4 DUP3 PUSH2 0xCFF JUMP JUMPDEST PUSH1 0x40 DUP1 MLOAD PUSH1 0x80 DUP2 ADD DUP3 MSTORE PUSH1 0x0 DUP1 DUP3 MSTORE PUSH1 0x20 DUP3 ADD DUP2 SWAP1 MSTORE SWAP2 DUP2 ADD DUP3 SWAP1 MSTORE PUSH1 0x60 DUP2 ADD SWAP2 SWAP1 SWAP2 MSTORE PUSH2 0x6B4 DUP3 PUSH2 0xF42 JUMP JUMPDEST PUSH2 0xA40 DUP2 PUSH2 0xFBA JUMP JUMPDEST PUSH1 0x0 PUSH2 0x6B4 DUP3 PUSH2 0xD8E JUMP JUMPDEST PUSH1 0x60 PUSH2 0x6B4 DUP3 PUSH2 0xFE8 JUMP JUMPDEST PUSH1 0x60 PUSH2 0xAB1 PUSH1 0x40 DUP1 MLOAD PUSH1 0x20 DUP2 ADD SWAP1 SWAP2 MSTORE PUSH1 0x0 DUP2 MSTORE SWAP1 JUMP JUMPDEST SWAP1 POP SWAP1 JUMP JUMPDEST PUSH1 0x0 PUSH1 0x1 PUSH1 0x1 PUSH1 0xA0 SHL SUB DUP3 AND PUSH2 0xADF JUMPI PUSH1 0x40 MLOAD PUSH4 0x23D3AD81 PUSH1 0xE2 SHL DUP2 MSTORE PUSH1 0x4 ADD PUSH1 0x40 MLOAD DUP1 SWAP2 SUB SWAP1 REVERT JUMPDEST POP PUSH1 0x1 PUSH1 0x1 PUSH1 0xA0 SHL SUB AND PUSH1 0x0 SWAP1 DUP2 MSTORE PUSH1 0x5 PUSH1 0x20 MSTORE PUSH1 0x40 SWAP1 KECCAK256 SLOAD PUSH8 0xFFFFFFFFFFFFFFFF AND SWAP1 JUMP JUMPDEST PUSH2 0xA32 DUP4 DUP4 DUP4 PUSH2 0x1036 JUMP JUMPDEST PUSH1 0x60 PUSH1 0x3 DUP1 SLOAD PUSH2 0x6C9 SWAP1 PUSH2 0x1782 JUMP JUMPDEST PUSH2 0x852 DUP3 DUP3 PUSH2 0x10A3 JUMP JUMPDEST PUSH2 0x852 DUP3 DUP3 PUSH2 0x1208 JUMP JUMPDEST CALLER PUSH1 0x0 DUP2 DUP2 MSTORE PUSH1 0x7 PUSH1 0x20 SWAP1 DUP2 MSTORE PUSH1 0x40 DUP1 DUP4 KECCAK256 PUSH1 0x1 PUSH1 0x1 PUSH1 0xA0 SHL SUB DUP8 AND DUP1 DUP6 MSTORE SWAP1 DUP4 MSTORE SWAP3 DUP2 SWAP1 KECCAK256 DUP1 SLOAD PUSH1 0xFF NOT AND DUP7 ISZERO ISZERO SWAP1 DUP2 OR SWAP1 SWAP2 SSTORE SWAP1 MLOAD SWAP1 DUP2 MSTORE SWAP2 SWAP3 SWAP2 PUSH32 0x17307EAB39AB6107E8899845AD3D59BD9653F200F220920489CA2B5937696C31 SWAP2 ADD PUSH1 0x40 MLOAD DUP1 SWAP2 SUB SWAP1 LOG3 POP POP JUMP JUMPDEST PUSH2 0xBAA DUP5 DUP5 DUP5 PUSH2 0x856 JUMP JUMPDEST PUSH1 0x1 PUSH1 0x1 PUSH1 0xA0 SHL SUB DUP4 AND EXTCODESIZE ISZERO PUSH2 0xBE3 JUMPI PUSH2 0xBC6 DUP5 DUP5 DUP5 DUP5 PUSH2 0x1222 JUMP JUMPDEST PUSH2 0xBE3 JUMPI PUSH1 0x40 MLOAD PUSH4 0x68D2BF6B PUSH1 0xE1 SHL DUP2 MSTORE PUSH1 0x4 ADD PUSH1 0x40 MLOAD DUP1 SWAP2 SUB SWAP1 REVERT JUMPDEST POP POP POP POP JUMP JUMPDEST PUSH1 0x1 PUSH1 0x1 PUSH1 0xA0 SHL SUB DUP2 AND PUSH1 0x0 SWAP1 DUP2 MSTORE PUSH1 0x5 PUSH1 0x20 MSTORE PUSH1 0x40 DUP2 KECCAK256 SLOAD PUSH1 0xC0 SHR PUSH2 0x6B4 JUMP JUMPDEST PUSH1 0x60 PUSH2 0xC15 DUP3 PUSH2 0xCFF JUMP JUMPDEST PUSH2 0xC32 JUMPI PUSH1 0x40 MLOAD PUSH4 0xA14C4B5 PUSH1 0xE4 SHL DUP2 MSTORE PUSH1 0x4 ADD PUSH1 0x40 MLOAD DUP1 SWAP2 SUB SWAP1 REVERT JUMPDEST PUSH1 0x0 PUSH2 0xC49 PUSH1 0x40 DUP1 MLOAD PUSH1 0x20 DUP2 ADD SWAP1 SWAP2 MSTORE PUSH1 0x0 DUP2 MSTORE SWAP1 JUMP JUMPDEST SWAP1 POP DUP1 MLOAD PUSH1 0x0 EQ ISZERO PUSH2 0xC6A JUMPI PUSH1 0x40 MLOAD DUP1 PUSH1 0x20 ADD PUSH1 0x40 MSTORE DUP1 PUSH1 0x0 DUP2 MSTORE POP PUSH2 0xC95 JUMP JUMPDEST DUP1 PUSH2 0xC74 DUP5 PUSH2 0xFE8 JUMP JUMPDEST PUSH1 0x40 MLOAD PUSH1 0x20 ADD PUSH2 0xC85 SWAP3 SWAP2 SWAP1 PUSH2 0x17BD JUMP JUMPDEST PUSH1 0x40 MLOAD PUSH1 0x20 DUP2 DUP4 SUB SUB DUP2 MSTORE SWAP1 PUSH1 0x40 MSTORE JUMPDEST SWAP4 SWAP3 POP POP POP JUMP JUMPDEST PUSH1 0x0 PUSH2 0xAB1 PUSH1 0x1 SLOAD SWAP1 JUMP JUMPDEST PUSH1 0x1 PUSH1 0x1 PUSH1 0xA0 SHL SUB DUP2 AND PUSH1 0x0 SWAP1 DUP2 MSTORE PUSH1 0x5 PUSH1 0x20 MSTORE PUSH1 0x40 DUP1 DUP3 KECCAK256 SLOAD PUSH8 0xFFFFFFFFFFFFFFFF SWAP2 SHR AND PUSH2 0x6B4 JUMP JUMPDEST PUSH1 0x40 DUP1 MLOAD PUSH1 0x80 DUP2 ADD DUP3 MSTORE PUSH1 0x0 DUP1 DUP3 MSTORE PUSH1 0x20 DUP3 ADD DUP2 SWAP1 MSTORE SWAP2 DUP2 ADD DUP3 SWAP1 MSTORE PUSH1 0x60 DUP2 ADD SWAP2 SWAP1 SWAP2 MSTORE PUSH2 0x6B4 DUP3 PUSH2 0x130A JUMP JUMPDEST PUSH1 0x0 DUP1 SLOAD DUP3 LT DUP1 ISZERO PUSH2 0x6B4 JUMPI POP POP PUSH1 0x0 SWAP1 DUP2 MSTORE PUSH1 0x4 PUSH1 0x20 MSTORE PUSH1 0x40 SWAP1 KECCAK256 SLOAD PUSH1 0x1 PUSH1 0xE0 SHL AND ISZERO SWAP1 JUMP JUMPDEST PUSH1 0x0 DUP3 DUP2 MSTORE PUSH1 0x4 PUSH1 0x20 MSTORE PUSH1 0x40 SWAP1 KECCAK256 SLOAD DUP1 PUSH2 0xD52 JUMPI PUSH1 0x40 MLOAD PUSH3 0xD58153 PUSH1 0xE0 SHL DUP2 MSTORE PUSH1 0x4 ADD PUSH1 0x40 MLOAD DUP1 SWAP2 SUB SWAP1 REVERT JUMPDEST PUSH1 0x0 SWAP3 DUP4 MSTORE PUSH1 0x4 PUSH1 0x20 MSTORE PUSH1 0x40 SWAP1 SWAP3 KECCAK256 PUSH29 0xFFFFFFFFFFFFFFFFFFFFFFFFFFFFFFFFFFFFFFFFFFFFFFFFFFFFFFFFFF SWAP3 SWAP1 SWAP3 AND PUSH1 0xE8 SWAP2 SWAP1 SWAP2 SHL OR SWAP1 SSTORE JUMP JUMPDEST PUSH1 0x0 DUP2 PUSH1 0x0 SLOAD DUP2 LT ISZERO PUSH2 0xDD6 JUMPI PUSH1 0x0 DUP2 DUP2 MSTORE PUSH1 0x4 PUSH1 0x20 MSTORE PUSH1 0x40 SWAP1 KECCAK256 SLOAD PUSH1 0x1 PUSH1 0xE0 SHL DUP2 AND PUSH2 0xDD4 JUMPI JUMPDEST DUP1 PUSH2 0xC95 JUMPI POP PUSH1 0x0 NOT ADD PUSH1 0x0 DUP2 DUP2 MSTORE PUSH1 0x4 PUSH1 0x20 MSTORE PUSH1 0x40 SWAP1 KECCAK256 SLOAD PUSH2 0xDB6 JUMP JUMPDEST POP JUMPDEST PUSH1 0x40 MLOAD PUSH4 0x6F96CDA1 PUSH1 0xE1 SHL DUP2 MSTORE PUSH1 0x4 ADD PUSH1 0x40 MLOAD DUP1 SWAP2 SUB SWAP1 REVERT JUMPDEST PUSH1 0x0 PUSH1 0xE8 DUP3 DUP2 SHR SWAP1 PUSH2 0xE02 DUP7 DUP7 DUP5 PUSH2 0x1389 JUMP JUMPDEST PUSH3 0xFFFFFF AND SWAP1 SHL SWAP6 SWAP5 POP POP POP POP POP JUMP JUMPDEST PUSH1 0x0 SLOAD DUP2 PUSH2 0xE33 JUMPI PUSH1 0x40 MLOAD PUSH4 0xB562E8DD PUSH1 0xE0 SHL DUP2 MSTORE PUSH1 0x4 ADD PUSH1 0x40 MLOAD DUP1 SWAP2 SUB SWAP1 REVERT JUMPDEST PUSH1 0x1 PUSH1 0x1 PUSH1 0xA0 SHL SUB DUP4 AND PUSH1 0x0 SWAP1 DUP2 MSTORE PUSH1 0x5 PUSH1 0x20 MSTORE PUSH1 0x40 DUP2 KECCAK256 DUP1 SLOAD PUSH9 0x10000000000000001 DUP6 MUL ADD SWAP1 SSTORE PUSH2 0xE8A SWAP1 DUP5 SWAP1 PUSH2 0xE6D SWAP1 DUP3 DUP2 PUSH2 0xDEF JUMP JUMPDEST PUSH1 0x1 DUP6 EQ PUSH1 0xE1 SHL OR TIMESTAMP PUSH1 0xA0 SHL OR PUSH1 0x1 PUSH1 0x1 PUSH1 0xA0 SHL SUB SWAP2 SWAP1 SWAP2 AND OR SWAP1 JUMP JUMPDEST PUSH1 0x0 DUP3 DUP2 MSTORE PUSH1 0x4 PUSH1 0x20 MSTORE PUSH1 0x40 DUP2 KECCAK256 SWAP2 SWAP1 SWAP2 SSTORE PUSH1 0x1 PUSH1 0x1 PUSH1 0xA0 SHL SUB DUP5 AND SWAP1 DUP4 DUP4 ADD SWAP1 DUP4 SWAP1 DUP4 SWAP1 PUSH32 0xDDF252AD1BE2C89B69C2B068FC378DAA952BA7F163C4A11628F55A4DF523B3EF DUP2 DUP1 LOG4 PUSH1 0x1 DUP4 ADD JUMPDEST DUP2 DUP2 EQ PUSH2 0xF10 JUMPI DUP1 DUP4 PUSH1 0x0 PUSH32 0xDDF252AD1BE2C89B69C2B068FC378DAA952BA7F163C4A11628F55A4DF523B3EF PUSH1 0x0 DUP1 LOG4 PUSH1 0x1 ADD PUSH2 0xED8 JUMP JUMPDEST POP DUP2 PUSH2 0xF2E JUMPI PUSH1 0x40 MLOAD PUSH3 0x2E0763 PUSH1 0xE8 SHL DUP2 MSTORE PUSH1 0x4 ADD PUSH1 0x40 MLOAD DUP1 SWAP2 SUB SWAP1 REVERT JUMPDEST PUSH1 0x0 SSTORE POP POP POP POP JUMP JUMPDEST PUSH2 0xA40 DUP2 PUSH1 0x0 PUSH2 0x10A3 JUMP JUMPDEST PUSH1 0x40 DUP1 MLOAD PUSH1 0x80 DUP2 ADD DUP3 MSTORE PUSH1 0x0 DUP1 DUP3 MSTORE PUSH1 0x20 DUP3 ADD DUP2 SWAP1 MSTORE SWAP2 DUP2 ADD DUP3 SWAP1 MSTORE PUSH1 0x60 DUP2 ADD SWAP2 SWAP1 SWAP2 MSTORE PUSH2 0x6B4 PUSH2 0xF72 DUP4 PUSH2 0xD8E JUMP JUMPDEST PUSH1 0x40 DUP1 MLOAD PUSH1 0x80 DUP2 ADD DUP3 MSTORE PUSH1 0x1 PUSH1 0x1 PUSH1 0xA0 SHL SUB DUP4 AND DUP2 MSTORE PUSH1 0xA0 DUP4 SWAP1 SHR PUSH8 0xFFFFFFFFFFFFFFFF AND PUSH1 0x20 DUP3 ADD MSTORE PUSH1 0x1 PUSH1 0xE0 SHL DUP4 AND ISZERO ISZERO SWAP2 DUP2 ADD SWAP2 SWAP1 SWAP2 MSTORE PUSH1 0xE8 SWAP2 SWAP1 SWAP2 SHR PUSH1 0x60 DUP3 ADD MSTORE SWAP1 JUMP JUMPDEST PUSH1 0x0 DUP2 DUP2 MSTORE PUSH1 0x4 PUSH1 0x20 MSTORE PUSH1 0x40 SWAP1 KECCAK256 SLOAD PUSH2 0xA40 JUMPI PUSH2 0xFD6 DUP2 PUSH2 0xD8E JUMP JUMPDEST PUSH1 0x0 DUP3 DUP2 MSTORE PUSH1 0x4 PUSH1 0x20 MSTORE PUSH1 0x40 SWAP1 KECCAK256 SSTORE POP JUMP JUMPDEST PUSH1 0x60 PUSH1 0xA0 PUSH1 0x40 MLOAD ADD DUP1 PUSH1 0x40 MSTORE PUSH1 0x20 DUP2 SUB SWAP2 POP POP PUSH1 0x0 DUP2 MSTORE DUP1 DUP3 JUMPDEST PUSH1 0x1 DUP4 SUB SWAP3 POP PUSH1 0xA DUP2 MOD PUSH1 0x30 ADD DUP4 MSTORE8 PUSH1 0xA SWAP1 DIV DUP1 PUSH2 0x101F JUMPI PUSH2 0x1024 JUMP JUMPDEST PUSH2 0x1002 JUMP JUMPDEST POP DUP2 SWAP1 SUB PUSH1 0x1F NOT SWAP1 SWAP2 ADD SWAP1 DUP2 MSTORE SWAP2 SWAP1 POP JUMP JUMPDEST PUSH2 0x1040 DUP4 DUP4 PUSH2 0xE12 JUMP JUMPDEST PUSH1 0x1 PUSH1 0x1 PUSH1 0xA0 SHL SUB DUP4 AND EXTCODESIZE ISZERO PUSH2 0xA32 JUMPI PUSH1 0x0 SLOAD DUP3 DUP2 SUB JUMPDEST PUSH2 0x106A PUSH1 0x0 DUP7 DUP4 DUP1 PUSH1 0x1 ADD SWAP5 POP DUP7 PUSH2 0x1222 JUMP JUMPDEST PUSH2 0x1087 JUMPI PUSH1 0x40 MLOAD PUSH4 0x68D2BF6B PUSH1 0xE1 SHL DUP2 MSTORE PUSH1 0x4 ADD PUSH1 0x40 MLOAD DUP1 SWAP2 SUB SWAP1 REVERT JUMPDEST DUP2 DUP2 LT PUSH2 0x1057 JUMPI DUP2 PUSH1 0x0 SLOAD EQ PUSH2 0x109C JUMPI PUSH1 0x0 DUP1 REVERT JUMPDEST POP POP POP POP POP JUMP JUMPDEST PUSH1 0x0 PUSH2 0x10AE DUP4 PUSH2 0xD8E JUMP JUMPDEST SWAP1 POP DUP1 PUSH1 0x0 DUP1 PUSH2 0x10CC DUP7 PUSH1 0x0 SWAP1 DUP2 MSTORE PUSH1 0x6 PUSH1 0x20 MSTORE PUSH1 0x40 SWAP1 KECCAK256 DUP1 SLOAD SWAP1 SWAP2 JUMP JUMPDEST SWAP2 POP SWAP2 POP DUP5 ISZERO PUSH2 0x110C JUMPI PUSH2 0x10E1 DUP2 DUP5 CALLER PUSH2 0x8AB JUMP JUMPDEST PUSH2 0x110C JUMPI PUSH2 0x10EF DUP4 CALLER PUSH2 0x61A JUMP JUMPDEST PUSH2 0x110C JUMPI PUSH1 0x40 MLOAD PUSH4 0x2CE44B5F PUSH1 0xE1 SHL DUP2 MSTORE PUSH1 0x4 ADD PUSH1 0x40 MLOAD DUP1 SWAP2 SUB SWAP1 REVERT JUMPDEST DUP1 ISZERO PUSH2 0x1117 JUMPI PUSH1 0x0 DUP3 SSTORE JUMPDEST PUSH1 0x1 PUSH1 0x1 PUSH1 0xA0 SHL SUB DUP4 AND PUSH1 0x0 SWAP1 DUP2 MSTORE PUSH1 0x5 PUSH1 0x20 MSTORE PUSH1 0x40 DUP2 KECCAK256 DUP1 SLOAD PUSH16 0xFFFFFFFFFFFFFFFFFFFFFFFFFFFFFFFF ADD SWAP1 SSTORE PUSH2 0x1172 SWAP1 DUP5 SWAP1 PUSH2 0x1157 SWAP1 DUP3 SWAP1 DUP9 PUSH2 0xDEF JUMP JUMPDEST PUSH1 0x3 PUSH1 0xE0 SHL OR TIMESTAMP PUSH1 0xA0 SHL OR PUSH1 0x1 PUSH1 0x1 PUSH1 0xA0 SHL SUB SWAP2 SWAP1 SWAP2 AND OR SWAP1 JUMP JUMPDEST PUSH1 0x0 DUP8 DUP2 MSTORE PUSH1 0x4 PUSH1 0x20 MSTORE PUSH1 0x40 SWAP1 KECCAK256 SSTORE PUSH1 0x1 PUSH1 0xE1 SHL DUP5 AND PUSH2 0x11C0 JUMPI PUSH1 0x1 DUP7 ADD PUSH1 0x0 DUP2 DUP2 MSTORE PUSH1 0x4 PUSH1 0x20 MSTORE PUSH1 0x40 SWAP1 KECCAK256 SLOAD PUSH2 0x11BE JUMPI PUSH1 0x0 SLOAD DUP2 EQ PUSH2 0x11BE JUMPI PUSH1 0x0 DUP2 DUP2 MSTORE PUSH1 0x4 PUSH1 0x20 MSTORE PUSH1 0x40 SWAP1 KECCAK256 DUP6 SWAP1 SSTORE JUMPDEST POP JUMPDEST PUSH1 0x40 MLOAD DUP7 SWAP1 PUSH1 0x0 SWAP1 PUSH1 0x1 PUSH1 0x1 PUSH1 0xA0 SHL SUB DUP7 AND SWAP1 PUSH32 0xDDF252AD1BE2C89B69C2B068FC378DAA952BA7F163C4A11628F55A4DF523B3EF SWAP1 DUP4 SWAP1 LOG4 POP POP PUSH1 0x1 DUP1 SLOAD DUP2 ADD SWAP1 SSTORE POP POP POP POP JUMP JUMPDEST PUSH2 0x852 DUP3 DUP3 PUSH1 0x40 MLOAD DUP1 PUSH1 0x20 ADD PUSH1 0x40 MSTORE DUP1 PUSH1 0x0 DUP2 MSTORE POP PUSH2 0x1036 JUMP JUMPDEST PUSH1 0x40 MLOAD PUSH4 0xA85BD01 PUSH1 0xE1 SHL DUP2 MSTORE PUSH1 0x0 SWAP1 PUSH1 0x1 PUSH1 0x1 PUSH1 0xA0 SHL SUB DUP6 AND SWAP1 PUSH4 0x150B7A02 SWAP1 PUSH2 0x1257 SWAP1 CALLER SWAP1 DUP10 SWAP1 DUP9 SWAP1 DUP9 SWAP1 PUSH1 0x4 ADD PUSH2 0x17EC JUMP JUMPDEST PUSH1 0x20 PUSH1 0x40 MLOAD DUP1 DUP4 SUB DUP2 PUSH1 0x0 DUP8 GAS CALL SWAP3 POP POP POP DUP1 ISZERO PUSH2 0x1292 JUMPI POP PUSH1 0x40 DUP1 MLOAD PUSH1 0x1F RETURNDATASIZE SWAP1 DUP2 ADD PUSH1 0x1F NOT AND DUP3 ADD SWAP1 SWAP3 MSTORE PUSH2 0x128F SWAP2 DUP2 ADD SWAP1 PUSH2 0x1828 JUMP JUMPDEST PUSH1 0x1 JUMPDEST PUSH2 0x12ED JUMPI RETURNDATASIZE DUP1 DUP1 ISZERO PUSH2 0x12C0 JUMPI PUSH1 0x40 MLOAD SWAP2 POP PUSH1 0x1F NOT PUSH1 0x3F RETURNDATASIZE ADD AND DUP3 ADD PUSH1 0x40 MSTORE RETURNDATASIZE DUP3 MSTORE RETURNDATASIZE PUSH1 0x0 PUSH1 0x20 DUP5 ADD RETURNDATACOPY PUSH2 0x12C5 JUMP JUMPDEST PUSH1 0x60 SWAP2 POP JUMPDEST POP DUP1 MLOAD PUSH2 0x12E5 JUMPI PUSH1 0x40 MLOAD PUSH4 0x68D2BF6B PUSH1 0xE1 SHL DUP2 MSTORE PUSH1 0x4 ADD PUSH1 0x40 MLOAD DUP1 SWAP2 SUB SWAP1 REVERT JUMPDEST DUP1 MLOAD DUP2 PUSH1 0x20 ADD REVERT JUMPDEST PUSH1 0x1 PUSH1 0x1 PUSH1 0xE0 SHL SUB NOT AND PUSH4 0xA85BD01 PUSH1 0xE1 SHL EQ SWAP1 POP SWAP5 SWAP4 POP POP POP POP JUMP JUMPDEST PUSH1 0x40 DUP1 MLOAD PUSH1 0x80 DUP2 ADD DUP3 MSTORE PUSH1 0x0 DUP1 DUP3 MSTORE PUSH1 0x20 DUP3 ADD DUP2 SWAP1 MSTORE SWAP2 DUP2 ADD DUP3 SWAP1 MSTORE PUSH1 0x60 DUP2 ADD SWAP2 SWAP1 SWAP2 MSTORE PUSH1 0x0 DUP3 DUP2 MSTORE PUSH1 0x4 PUSH1 0x20 MSTORE PUSH1 0x40 SWAP1 KECCAK256 SLOAD PUSH2 0x6B4 SWAP1 PUSH1 0x40 DUP1 MLOAD PUSH1 0x80 DUP2 ADD DUP3 MSTORE PUSH1 0x1 PUSH1 0x1 PUSH1 0xA0 SHL SUB DUP4 AND DUP2 MSTORE PUSH1 0xA0 DUP4 SWAP1 SHR PUSH8 0xFFFFFFFFFFFFFFFF AND PUSH1 0x20 DUP3 ADD MSTORE PUSH1 0x1 PUSH1 0xE0 SHL DUP4 AND ISZERO ISZERO SWAP2 DUP2 ADD SWAP2 SWAP1 SWAP2 MSTORE PUSH1 0xE8 SWAP2 SWAP1 SWAP2 SHR PUSH1 0x60 DUP3 ADD MSTORE SWAP1 JUMP JUMPDEST PUSH1 0x0 PUSH1 0x1 PUSH1 0x1 PUSH1 0xA0 SHL SUB DUP5 AND PUSH2 0x13A1 JUMPI POP PUSH1 0x2A PUSH2 0xC95 JUMP JUMPDEST PUSH1 0x1 PUSH1 0x1 PUSH1 0xA0 SHL SUB DUP4 AND PUSH2 0x13B8 JUMPI POP PUSH2 0x539 PUSH2 0xC95 JUMP JUMPDEST PUSH2 0x13C3 DUP3 PUSH1 0x1 PUSH2 0x1845 JUMP JUMPDEST SWAP5 SWAP4 POP POP POP POP JUMP JUMPDEST PUSH1 0x1 PUSH1 0x1 PUSH1 0xE0 SHL SUB NOT DUP2 AND DUP2 EQ PUSH2 0xA40 JUMPI PUSH1 0x0 DUP1 REVERT JUMPDEST PUSH1 0x0 PUSH1 0x20 DUP3 DUP5 SUB SLT ISZERO PUSH2 0x13F3 JUMPI PUSH1 0x0 DUP1 REVERT JUMPDEST DUP2 CALLDATALOAD PUSH2 0xC95 DUP2 PUSH2 0x13CB JUMP JUMPDEST PUSH1 0x0 JUMPDEST DUP4 DUP2 LT ISZERO PUSH2 0x1419 JUMPI DUP2 DUP2 ADD MLOAD DUP4 DUP3 ADD MSTORE PUSH1 0x20 ADD PUSH2 0x1401 JUMP JUMPDEST DUP4 DUP2 GT ISZERO PUSH2 0xBE3 JUMPI POP POP PUSH1 0x0 SWAP2 ADD MSTORE JUMP JUMPDEST PUSH1 0x0 DUP2 MLOAD DUP1 DUP5 MSTORE PUSH2 0x1442 DUP2 PUSH1 0x20 DUP7 ADD PUSH1 0x20 DUP7 ADD PUSH2 0x13FE JUMP JUMPDEST PUSH1 0x1F ADD PUSH1 0x1F NOT AND SWAP3 SWAP1 SWAP3 ADD PUSH1 0x20 ADD SWAP3 SWAP2 POP POP JUMP JUMPDEST PUSH1 0x20 DUP2 MSTORE PUSH1 0x0 PUSH2 0xC95 PUSH1 0x20 DUP4 ADD DUP5 PUSH2 0x142A JUMP JUMPDEST PUSH1 0x0 PUSH1 0x20 DUP3 DUP5 SUB SLT ISZERO PUSH2 0x147B JUMPI PUSH1 0x0 DUP1 REVERT JUMPDEST POP CALLDATALOAD SWAP2 SWAP1 POP JUMP JUMPDEST DUP1 CALLDATALOAD PUSH1 0x1 PUSH1 0x1 PUSH1 0xA0 SHL SUB DUP2 AND DUP2 EQ PUSH2 0x1499 JUMPI PUSH1 0x0 DUP1 REVERT JUMPDEST SWAP2 SWAP1 POP JUMP JUMPDEST PUSH1 0x0 DUP1 PUSH1 0x40 DUP4 DUP6 SUB SLT ISZERO PUSH2 0x14B1 JUMPI PUSH1 0x0 DUP1 REVERT JUMPDEST PUSH2 0x14BA DUP4 PUSH2 0x1482 JUMP JUMPDEST SWAP5 PUSH1 0x20 SWAP4 SWAP1 SWAP4 ADD CALLDATALOAD SWAP4 POP POP POP JUMP JUMPDEST PUSH1 0x0 DUP1 PUSH1 0x40 DUP4 DUP6 SUB SLT ISZERO PUSH2 0x14DB JUMPI PUSH1 0x0 DUP1 REVERT JUMPDEST DUP3 CALLDATALOAD SWAP2 POP PUSH1 0x20 DUP4 ADD CALLDATALOAD PUSH3 0xFFFFFF DUP2 AND DUP2 EQ PUSH2 0x14F5 JUMPI PUSH1 0x0 DUP1 REVERT JUMPDEST DUP1 SWAP2 POP POP SWAP3 POP SWAP3 SWAP1 POP JUMP JUMPDEST PUSH1 0x0 DUP1 PUSH1 0x0 PUSH1 0x60 DUP5 DUP7 SUB SLT ISZERO PUSH2 0x1515 JUMPI PUSH1 0x0 DUP1 REVERT JUMPDEST PUSH2 0x151E DUP5 PUSH2 0x1482 JUMP JUMPDEST SWAP3 POP PUSH2 0x152C PUSH1 0x20 DUP6 ADD PUSH2 0x1482 JUMP JUMPDEST SWAP2 POP PUSH1 0x40 DUP5 ADD CALLDATALOAD SWAP1 POP SWAP3 POP SWAP3 POP SWAP3 JUMP JUMPDEST PUSH1 0x0 DUP1 PUSH1 0x40 DUP4 DUP6 SUB SLT ISZERO PUSH2 0x154F JUMPI PUSH1 0x0 DUP1 REVERT JUMPDEST PUSH2 0x1558 DUP4 PUSH2 0x1482 JUMP JUMPDEST SWAP2 POP PUSH1 0x20 DUP4 ADD CALLDATALOAD PUSH8 0xFFFFFFFFFFFFFFFF DUP2 AND DUP2 EQ PUSH2 0x14F5 JUMPI PUSH1 0x0 DUP1 REVERT JUMPDEST PUSH1 0x0 PUSH1 0x20 DUP3 DUP5 SUB SLT ISZERO PUSH2 0x1587 JUMPI PUSH1 0x0 DUP1 REVERT JUMPDEST PUSH2 0xC95 DUP3 PUSH2 0x1482 JUMP JUMPDEST PUSH4 0x4E487B71 PUSH1 0xE0 SHL PUSH1 0x0 MSTORE PUSH1 0x41 PUSH1 0x4 MSTORE PUSH1 0x24 PUSH1 0x0 REVERT JUMPDEST PUSH1 0x0 DUP3 PUSH1 0x1F DUP4 ADD SLT PUSH2 0x15B7 JUMPI PUSH1 0x0 DUP1 REVERT JUMPDEST DUP2 CALLDATALOAD PUSH8 0xFFFFFFFFFFFFFFFF DUP1 DUP3 GT ISZERO PUSH2 0x15D2 JUMPI PUSH2 0x15D2 PUSH2 0x1590 JUMP JUMPDEST PUSH1 0x40 MLOAD PUSH1 0x1F DUP4 ADD PUSH1 0x1F NOT SWAP1 DUP2 AND PUSH1 0x3F ADD AND DUP2 ADD SWAP1 DUP3 DUP3 GT DUP2 DUP4 LT OR ISZERO PUSH2 0x15FA JUMPI PUSH2 0x15FA PUSH2 0x1590 JUMP JUMPDEST DUP2 PUSH1 0x40 MSTORE DUP4 DUP2 MSTORE DUP7 PUSH1 0x20 DUP6 DUP9 ADD ADD GT ISZERO PUSH2 0x1613 JUMPI PUSH1 0x0 DUP1 REVERT JUMPDEST DUP4 PUSH1 0x20 DUP8 ADD PUSH1 0x20 DUP4 ADD CALLDATACOPY PUSH1 0x0 PUSH1 0x20 DUP6 DUP4 ADD ADD MSTORE DUP1 SWAP5 POP POP POP POP POP SWAP3 SWAP2 POP POP JUMP JUMPDEST PUSH1 0x0 DUP1 PUSH1 0x0 PUSH1 0x60 DUP5 DUP7 SUB SLT ISZERO PUSH2 0x1648 JUMPI PUSH1 0x0 DUP1 REVERT JUMPDEST PUSH2 0x1651 DUP5 PUSH2 0x1482 JUMP JUMPDEST SWAP3 POP PUSH1 0x20 DUP5 ADD CALLDATALOAD SWAP2 POP PUSH1 0x40 DUP5 ADD CALLDATALOAD PUSH8 0xFFFFFFFFFFFFFFFF DUP2 GT ISZERO PUSH2 0x1674 JUMPI PUSH1 0x0 DUP1 REVERT JUMPDEST PUSH2 0x1680 DUP7 DUP3 DUP8 ADD PUSH2 0x15A6 JUMP JUMPDEST SWAP2 POP POP SWAP3 POP SWAP3 POP SWAP3 JUMP JUMPDEST DUP1 CALLDATALOAD DUP1 ISZERO ISZERO DUP2 EQ PUSH2 0x1499 JUMPI PUSH1 0x0 DUP1 REVERT JUMPDEST PUSH1 0x0 DUP1 PUSH1 0x40 DUP4 DUP6 SUB SLT ISZERO PUSH2 0x16AD JUMPI PUSH1 0x0 DUP1 REVERT JUMPDEST DUP3 CALLDATALOAD SWAP2 POP PUSH2 0x16BD PUSH1 0x20 DUP5 ADD PUSH2 0x168A JUMP JUMPDEST SWAP1 POP SWAP3 POP SWAP3 SWAP1 POP JUMP JUMPDEST PUSH1 0x0 DUP1 PUSH1 0x40 DUP4 DUP6 SUB SLT ISZERO PUSH2 0x16D9 JUMPI PUSH1 0x0 DUP1 REVERT JUMPDEST PUSH2 0x16E2 DUP4 PUSH2 0x1482 JUMP JUMPDEST SWAP2 POP PUSH2 0x16BD PUSH1 0x20 DUP5 ADD PUSH2 0x168A JUMP JUMPDEST PUSH1 0x0 DUP1 PUSH1 0x0 DUP1 PUSH1 0x80 DUP6 DUP8 SUB SLT ISZERO PUSH2 0x1706 JUMPI PUSH1 0x0 DUP1 REVERT JUMPDEST PUSH2 0x170F DUP6 PUSH2 0x1482 JUMP JUMPDEST SWAP4 POP PUSH2 0x171D PUSH1 0x20 DUP7 ADD PUSH2 0x1482 JUMP JUMPDEST SWAP3 POP PUSH1 0x40 DUP6 ADD CALLDATALOAD SWAP2 POP PUSH1 0x60 DUP6 ADD CALLDATALOAD PUSH8 0xFFFFFFFFFFFFFFFF DUP2 GT ISZERO PUSH2 0x1740 JUMPI PUSH1 0x0 DUP1 REVERT JUMPDEST PUSH2 0x174C DUP8 DUP3 DUP9 ADD PUSH2 0x15A6 JUMP JUMPDEST SWAP2 POP POP SWAP3 SWAP6 SWAP2 SWAP5 POP SWAP3 POP JUMP JUMPDEST PUSH1 0x0 DUP1 PUSH1 0x40 DUP4 DUP6 SUB SLT ISZERO PUSH2 0x176B JUMPI PUSH1 0x0 DUP1 REVERT JUMPDEST PUSH2 0x1774 DUP4 PUSH2 0x1482 JUMP JUMPDEST SWAP2 POP PUSH2 0x16BD PUSH1 0x20 DUP5 ADD PUSH2 0x1482 JUMP JUMPDEST PUSH1 0x1 DUP2 DUP2 SHR SWAP1 DUP3 AND DUP1 PUSH2 0x1796 JUMPI PUSH1 0x7F DUP3 AND SWAP2 POP JUMPDEST PUSH1 0x20 DUP3 LT DUP2 EQ ISZERO PUSH2 0x17B7 JUMPI PUSH4 0x4E487B71 PUSH1 0xE0 SHL PUSH1 0x0 MSTORE PUSH1 0x22 PUSH1 0x4 MSTORE PUSH1 0x24 PUSH1 0x0 REVERT JUMPDEST POP SWAP2 SWAP1 POP JUMP JUMPDEST PUSH1 0x0 DUP4 MLOAD PUSH2 0x17CF DUP2 DUP5 PUSH1 0x20 DUP9 ADD PUSH2 0x13FE JUMP JUMPDEST DUP4 MLOAD SWAP1 DUP4 ADD SWAP1 PUSH2 0x17E3 DUP2 DUP4 PUSH1 0x20 DUP9 ADD PUSH2 0x13FE JUMP JUMPDEST ADD SWAP5 SWAP4 POP POP POP POP JUMP JUMPDEST PUSH1 0x0 PUSH1 0x1 PUSH1 0x1 PUSH1 0xA0 SHL SUB DUP1 DUP8 AND DUP4 MSTORE DUP1 DUP7 AND PUSH1 0x20 DUP5 ADD MSTORE POP DUP4 PUSH1 0x40 DUP4 ADD MSTORE PUSH1 0x80 PUSH1 0x60 DUP4 ADD MSTORE PUSH2 0x181E PUSH1 0x80 DUP4 ADD DUP5 PUSH2 0x142A JUMP JUMPDEST SWAP7 SWAP6 POP POP POP POP POP POP JUMP JUMPDEST PUSH1 0x0 PUSH1 0x20 DUP3 DUP5 SUB SLT ISZERO PUSH2 0x183A JUMPI PUSH1 0x0 DUP1 REVERT JUMPDEST DUP2 MLOAD PUSH2 0xC95 DUP2 PUSH2 0x13CB JUMP JUMPDEST PUSH1 0x0 PUSH3 0xFFFFFF DUP1 DUP4 AND DUP2 DUP6 AND DUP1 DUP4 SUB DUP3 GT ISZERO PUSH2 0x17E3 JUMPI PUSH4 0x4E487B71 PUSH1 0xE0 SHL PUSH1 0x0 MSTORE PUSH1 0x11 PUSH1 0x4 MSTORE PUSH1 0x24 PUSH1 0x0 REVERT INVALID LOG2 PUSH5 0x6970667358 0x22 SLT KECCAK256 MULMOD SWAP16 0xBE XOR SWAP8 0xB6 0xB0 NOT DUP6 LOG1 0x4E 0xC1 0xC5 DUP2 0xC8 RETURN 0x2C PC SHL PUSH30 0xFA29526346358554820CBF2C64736F6C634300080B003300000000000000 "},"methodIdentifiers":{"approve(address,uint256)":"095ea7b3","balanceOf(address)":"70a08231","baseURI()":"6c0360eb","burn(uint256)":"42966c68","burn(uint256,bool)":"9fac68cb","exists(uint256)":"4f558e79","getApproved(uint256)":"081812fc","getAux(address)":"bf0b175e","getOwnershipAt(uint256)":"f2523633","getOwnershipOf(uint256)":"52d8a4d1","initializeOwnershipAt(uint256)":"53b1233d","isApprovedForAll(address,address)":"e985e9c5","mint(address,uint256)":"40c10f19","name()":"06fdde03","nextTokenId()":"75794a3c","numberMinted(address)":"dc33e681","ownerOf(uint256)":"6352211e","safeMint(address,uint256)":"a1448194","safeMint(address,uint256,bytes)":"8832e6e3","safeTransferFrom(address,address,uint256)":"42842e0e","safeTransferFrom(address,address,uint256,bytes)":"b88d4fde","setApprovalForAll(address,bool)":"a22cb465","setAux(address,uint64)":"453ab141","setExtraDataAt(uint256,uint24)":"0a70b566","supportsInterface(bytes4)":"01ffc9a7","symbol()":"95d89b41","toString(uint256)":"6900a3ae","tokenURI(uint256)":"c87b56dd","totalBurned()":"d89135cd","totalMinted()":"a2309ff8","totalSupply()":"18160ddd","transferFrom(address,address,uint256)":"23b872dd"}}}}}