{
  "_format": "hh-sol-artifact-1",
  "contractName": "ERC721AQueryableMock",
  "sourceName": "contracts/mocks/ERC721AQueryableMock.sol",
  "abi": [
    {
      "inputs": [
        {
          "internalType": "string",
          "name": "name_",
          "type": "string"
        },
        {
          "internalType": "string",
          "name": "symbol_",
          "type": "string"
        }
      ],
      "stateMutability": "nonpayable",
      "type": "constructor"
    },
    {
      "inputs": [],
      "name": "ApprovalCallerNotOwnerNorApproved",
      "type": "error"
    },
    {
      "inputs": [],
      "name": "ApprovalQueryForNonexistentToken",
      "type": "error"
    },
    {
      "inputs": [],
      "name": "BalanceQueryForZeroAddress",
      "type": "error"
    },
    {
      "inputs": [],
      "name": "InvalidQueryRange",
      "type": "error"
    },
    {
      "inputs": [],
      "name": "MintERC2309QuantityExceedsLimit",
      "type": "error"
    },
    {
      "inputs": [],
      "name": "MintToZeroAddress",
      "type": "error"
    },
    {
      "inputs": [],
      "name": "MintZeroQuantity",
      "type": "error"
    },
    {
      "inputs": [],
      "name": "OwnerQueryForNonexistentToken",
      "type": "error"
    },
    {
      "inputs": [],
      "name": "OwnershipNotInitializedForExtraData",
      "type": "error"
    },
    {
      "inputs": [],
      "name": "TransferCallerNotOwnerNorApproved",
      "type": "error"
    },
    {
      "inputs": [],
      "name": "TransferFromIncorrectOwner",
      "type": "error"
    },
    {
      "inputs": [],
      "name": "TransferToNonERC721ReceiverImplementer",
      "type": "error"
    },
    {
      "inputs": [],
      "name": "TransferToZeroAddress",
      "type": "error"
    },
    {
      "inputs": [],
      "name": "URIQueryForNonexistentToken",
      "type": "error"
    },
    {
      "anonymous": false,
      "inputs": [
        {
          "indexed": true,
          "internalType": "address",
          "name": "owner",
          "type": "address"
        },
        {
          "indexed": true,
          "internalType": "address",
          "name": "approved",
          "type": "address"
        },
        {
          "indexed": true,
          "internalType": "uint256",
          "name": "tokenId",
          "type": "uint256"
        }
      ],
      "name": "Approval",
      "type": "event"
    },
    {
      "anonymous": false,
      "inputs": [
        {
          "indexed": true,
          "internalType": "address",
          "name": "owner",
          "type": "address"
        },
        {
          "indexed": true,
          "internalType": "address",
          "name": "operator",
          "type": "address"
        },
        {
          "indexed": false,
          "internalType": "bool",
          "name": "approved",
          "type": "bool"
        }
      ],
      "name": "ApprovalForAll",
      "type": "event"
    },
    {
      "anonymous": false,
      "inputs": [
        {
          "indexed": true,
          "internalType": "uint256",
          "name": "fromTokenId",
          "type": "uint256"
        },
        {
          "indexed": false,
          "internalType": "uint256",
          "name": "toTokenId",
          "type": "uint256"
        },
        {
          "indexed": true,
          "internalType": "address",
          "name": "from",
          "type": "address"
        },
        {
          "indexed": true,
          "internalType": "address",
          "name": "to",
          "type": "address"
        }
      ],
      "name": "ConsecutiveTransfer",
      "type": "event"
    },
    {
      "anonymous": false,
      "inputs": [
        {
          "indexed": true,
          "internalType": "address",
          "name": "from",
          "type": "address"
        },
        {
          "indexed": true,
          "internalType": "address",
          "name": "to",
          "type": "address"
        },
        {
          "indexed": true,
          "internalType": "uint256",
          "name": "tokenId",
          "type": "uint256"
        }
      ],
      "name": "Transfer",
      "type": "event"
    },
    {
      "inputs": [
        {
          "internalType": "address",
          "name": "to",
          "type": "address"
        },
        {
          "internalType": "uint256",
          "name": "tokenId",
          "type": "uint256"
        }
      ],
      "name": "approve",
      "outputs": [],
      "stateMutability": "payable",
      "type": "function"
    },
    {
      "inputs": [
        {
          "internalType": "address",
          "name": "owner",
          "type": "address"
        }
      ],
      "name": "balanceOf",
      "outputs": [
        {
          "internalType": "uint256",
          "name": "",
          "type": "uint256"
        }
      ],
      "stateMutability": "view",
      "type": "function"
    },
    {
      "inputs": [
        {
          "internalType": "uint256",
          "name": "tokenId",
          "type": "uint256"
        }
      ],
      "name": "burn",
      "outputs": [],
      "stateMutability": "nonpayable",
      "type": "function"
    },
    {
      "inputs": [
        {
          "internalType": "uint256",
          "name": "tokenId",
          "type": "uint256"
        }
      ],
      "name": "explicitOwnershipOf",
      "outputs": [
        {
          "components": [
            {
              "internalType": "address",
              "name": "addr",
              "type": "address"
            },
            {
              "internalType": "uint64",
              "name": "startTimestamp",
              "type": "uint64"
            },
            {
              "internalType": "bool",
              "name": "burned",
              "type": "bool"
            },
            {
              "internalType": "uint24",
              "name": "extraData",
              "type": "uint24"
            }
          ],
          "internalType": "struct IERC721A.TokenOwnership",
          "name": "",
          "type": "tuple"
        }
      ],
      "stateMutability": "view",
      "type": "function"
    },
    {
      "inputs": [
        {
          "internalType": "uint256[]",
          "name": "tokenIds",
          "type": "uint256[]"
        }
      ],
      "name": "explicitOwnershipsOf",
      "outputs": [
        {
          "components": [
            {
              "internalType": "address",
              "name": "addr",
              "type": "address"
            },
            {
              "internalType": "uint64",
              "name": "startTimestamp",
              "type": "uint64"
            },
            {
              "internalType": "bool",
              "name": "burned",
              "type": "bool"
            },
            {
              "internalType": "uint24",
              "name": "extraData",
              "type": "uint24"
            }
          ],
          "internalType": "struct IERC721A.TokenOwnership[]",
          "name": "",
          "type": "tuple[]"
        }
      ],
      "stateMutability": "view",
      "type": "function"
    },
    {
      "inputs": [
        {
          "internalType": "uint256",
          "name": "tokenId",
          "type": "uint256"
        }
      ],
      "name": "getApproved",
      "outputs": [
        {
          "internalType": "address",
          "name": "",
          "type": "address"
        }
      ],
      "stateMutability": "view",
      "type": "function"
    },
    {
      "inputs": [
        {
          "internalType": "address",
          "name": "owner",
          "type": "address"
        },
        {
          "internalType": "address",
          "name": "operator",
          "type": "address"
        }
      ],
      "name": "isApprovedForAll",
      "outputs": [
        {
          "internalType": "bool",
          "name": "",
          "type": "bool"
        }
      ],
      "stateMutability": "view",
      "type": "function"
    },
    {
      "inputs": [],
      "name": "name",
      "outputs": [
        {
          "internalType": "string",
          "name": "",
          "type": "string"
        }
      ],
      "stateMutability": "view",
      "type": "function"
    },
    {
      "inputs": [
        {
          "internalType": "uint256",
          "name": "tokenId",
          "type": "uint256"
        }
      ],
      "name": "ownerOf",
      "outputs": [
        {
          "internalType": "address",
          "name": "",
          "type": "address"
        }
      ],
      "stateMutability": "view",
      "type": "function"
    },
    {
      "inputs": [
        {
          "internalType": "address",
          "name": "to",
          "type": "address"
        },
        {
          "internalType": "uint256",
          "name": "quantity",
          "type": "uint256"
        }
      ],
      "name": "safeMint",
      "outputs": [],
      "stateMutability": "nonpayable",
      "type": "function"
    },
    {
      "inputs": [
        {
          "internalType": "address",
          "name": "from",
          "type": "address"
        },
        {
          "internalType": "address",
          "name": "to",
          "type": "address"
        },
        {
          "internalType": "uint256",
          "name": "tokenId",
          "type": "uint256"
        }
      ],
      "name": "safeTransferFrom",
      "outputs": [],
      "stateMutability": "payable",
      "type": "function"
    },
    {
      "inputs": [
        {
          "internalType": "address",
          "name": "from",
          "type": "address"
        },
        {
          "internalType": "address",
          "name": "to",
          "type": "address"
        },
        {
          "internalType": "uint256",
          "name": "tokenId",
          "type": "uint256"
        },
        {
          "internalType": "bytes",
          "name": "_data",
          "type": "bytes"
        }
      ],
      "name": "safeTransferFrom",
      "outputs": [],
      "stateMutability": "payable",
      "type": "function"
    },
    {
      "inputs": [
        {
          "internalType": "address",
          "name": "operator",
          "type": "address"
        },
        {
          "internalType": "bool",
          "name": "approved",
          "type": "bool"
        }
      ],
      "name": "setApprovalForAll",
      "outputs": [],
      "stateMutability": "nonpayable",
      "type": "function"
    },
    {
      "inputs": [
        {
          "internalType": "bytes4",
          "name": "interfaceId",
          "type": "bytes4"
        }
      ],
      "name": "supportsInterface",
      "outputs": [
        {
          "internalType": "bool",
          "name": "",
          "type": "bool"
        }
      ],
      "stateMutability": "view",
      "type": "function"
    },
    {
      "inputs": [],
      "name": "symbol",
      "outputs": [
        {
          "internalType": "string",
          "name": "",
          "type": "string"
        }
      ],
      "stateMutability": "view",
      "type": "function"
    },
    {
      "inputs": [
        {
          "internalType": "uint256",
          "name": "tokenId",
          "type": "uint256"
        }
      ],
      "name": "tokenURI",
      "outputs": [
        {
          "internalType": "string",
          "name": "",
          "type": "string"
        }
      ],
      "stateMutability": "view",
      "type": "function"
    },
    {
      "inputs": [
        {
          "internalType": "address",
          "name": "owner",
          "type": "address"
        }
      ],
      "name": "tokensOfOwner",
      "outputs": [
        {
          "internalType": "uint256[]",
          "name": "",
          "type": "uint256[]"
        }
      ],
      "stateMutability": "view",
      "type": "function"
    },
    {
      "inputs": [
        {
          "internalType": "address",
          "name": "owner",
          "type": "address"
        },
        {
          "internalType": "uint256",
          "name": "start",
          "type": "uint256"
        },
        {
          "internalType": "uint256",
          "name": "stop",
          "type": "uint256"
        }
      ],
      "name": "tokensOfOwnerIn",
      "outputs": [
        {
          "internalType": "uint256[]",
          "name": "",
          "type": "uint256[]"
        }
      ],
      "stateMutability": "view",
      "type": "function"
    },
    {
      "inputs": [],
      "name": "totalSupply",
      "outputs": [
        {
          "internalType": "uint256",
          "name": "",
          "type": "uint256"
        }
      ],
      "stateMutability": "view",
      "type": "function"
    },
    {
      "inputs": [
        {
          "internalType": "address",
          "name": "from",
          "type": "address"
        },
        {
          "internalType": "address",
          "name": "to",
          "type": "address"
        },
        {
          "internalType": "uint256",
          "name": "tokenId",
          "type": "uint256"
        }
      ],
      "name": "transferFrom",
      "outputs": [],
      "stateMutability": "payable",
      "type": "function"
    }
  ],
  "bytecode": "0x60806040523480156200001157600080fd5b5060405162001ad338038062001ad38339810160408190526200003491620001e6565b8151829082906200004d90600290602085019062000073565b5080516200006390600390602084019062000073565b5060008055506200028d92505050565b828054620000819062000250565b90600052602060002090601f016020900481019282620000a55760008555620000f0565b82601f10620000c057805160ff1916838001178555620000f0565b82800160010185558215620000f0579182015b82811115620000f0578251825591602001919060010190620000d3565b50620000fe92915062000102565b5090565b5b80821115620000fe576000815560010162000103565b634e487b7160e01b600052604160045260246000fd5b600082601f8301126200014157600080fd5b81516001600160401b03808211156200015e576200015e62000119565b604051601f8301601f19908116603f0116810190828211818310171562000189576200018962000119565b81604052838152602092508683858801011115620001a657600080fd5b600091505b83821015620001ca5785820183015181830184015290820190620001ab565b83821115620001dc5760008385830101525b9695505050505050565b60008060408385031215620001fa57600080fd5b82516001600160401b03808211156200021257600080fd5b62000220868387016200012f565b935060208501519150808211156200023757600080fd5b5062000246858286016200012f565b9150509250929050565b600181811c908216806200026557607f821691505b602082108114156200028757634e487b7160e01b600052602260045260246000fd5b50919050565b611836806200029d6000396000f3fe60806040526004361061015f5760003560e01c806370a08231116100c0578063a22cb46511610074578063c23dc68f11610059578063c23dc68f14610393578063c87b56dd146103c0578063e985e9c5146103e057600080fd5b8063a22cb46514610360578063b88d4fde1461038057600080fd5b806395d89b41116100a557806395d89b411461030b57806399a2557a14610320578063a14481941461034057600080fd5b806370a08231146102be5780638462151c146102de57600080fd5b806323b872dd1161011757806342966c68116100fc57806342966c68146102515780635bbb2177146102715780636352211e1461029e57600080fd5b806323b872dd1461022b57806342842e0e1461023e57600080fd5b8063081812fc11610148578063081812fc146101bb578063095ea7b3146101f357806318160ddd1461020857600080fd5b806301ffc9a71461016457806306fdde0314610199575b600080fd5b34801561017057600080fd5b5061018461017f3660046112e6565b610429565b60405190151581526020015b60405180910390f35b3480156101a557600080fd5b506101ae61047b565b604051610190919061135b565b3480156101c757600080fd5b506101db6101d636600461136e565b61050d565b6040516001600160a01b039091168152602001610190565b6102066102013660046113a3565b610551565b005b34801561021457600080fd5b50600154600054035b604051908152602001610190565b6102066102393660046113cd565b610609565b61020661024c3660046113cd565b6107a4565b34801561025d57600080fd5b5061020661026c36600461136e565b6107c4565b34801561027d57600080fd5b5061029161028c366004611409565b6107d2565b604051610190919061147e565b3480156102aa57600080fd5b506101db6102b936600461136e565b61089e565b3480156102ca57600080fd5b5061021d6102d93660046114fb565b6108a9565b3480156102ea57600080fd5b506102fe6102f93660046114fb565b6108f8565b6040516101909190611516565b34801561031757600080fd5b506101ae610a00565b34801561032c57600080fd5b506102fe61033b36600461154e565b610a0f565b34801561034c57600080fd5b5061020661035b3660046113a3565b610b8d565b34801561036c57600080fd5b5061020661037b366004611581565b610b9b565b61020661038e3660046115d3565b610c07565b34801561039f57600080fd5b506103b36103ae36600461136e565b610c51565b60405161019091906116af565b3480156103cc57600080fd5b506101ae6103db36600461136e565b610cc9565b3480156103ec57600080fd5b506101846103fb3660046116f4565b6001600160a01b03918216600090815260076020908152604080832093909416825291909152205460ff1690565b60006301ffc9a760e01b6001600160e01b03198316148061045a57506380ac58cd60e01b6001600160e01b03198316145b806104755750635b5e139f60e01b6001600160e01b03198316145b92915050565b60606002805461048a90611727565b80601f01602080910402602001604051908101604052809291908181526020018280546104b690611727565b80156105035780601f106104d857610100808354040283529160200191610503565b820191906000526020600020905b8154815290600101906020018083116104e657829003601f168201915b5050505050905090565b600061051882610d5a565b610535576040516333d1c03960e21b815260040160405180910390fd5b506000908152600660205260409020546001600160a01b031690565b600061055c8261089e565b9050336001600160a01b038216146105955761057881336103fb565b610595576040516367d9dca160e11b815260040160405180910390fd5b60008281526006602052604080822080547fffffffffffffffffffffffff0000000000000000000000000000000000000000166001600160a01b0387811691821790925591518593918516917f8c5be1e5ebec7d5bd14f71427d1e84f3dd0314c0f7b2291e5b200ac8c7c3b92591a4505050565b600061061482610d81565b9050836001600160a01b0316816001600160a01b0316146106475760405162a1148160e81b815260040160405180910390fd5b600082815260066020526040902080546106738187335b6001600160a01b039081169116811491141790565b61069e5761068186336103fb565b61069e57604051632ce44b5f60e11b815260040160405180910390fd5b6001600160a01b0385166106c557604051633a954ecd60e21b815260040160405180910390fd5b80156106d057600082555b6001600160a01b038681166000908152600560205260408082208054600019019055918716808252919020805460010190554260a01b17600160e11b17600085815260046020526040902055600160e11b831661075b57600184016000818152600460205260409020546107595760005481146107595760008181526004602052604090208490555b505b83856001600160a01b0316876001600160a01b03167fddf252ad1be2c89b69c2b068fc378daa952ba7f163c4a11628f55a4df523b3ef60405160405180910390a4505050505050565b6107bf83838360405180602001604052806000815250610c07565b505050565b6107cf816001610de2565b50565b60608160008167ffffffffffffffff8111156107f0576107f06115bd565b60405190808252806020026020018201604052801561084257816020015b60408051608081018252600080825260208083018290529282018190526060820152825260001990920191018161080e5790505b50905060005b8281146108955761087086868381811061086457610864611762565b90506020020135610c51565b82828151811061088257610882611762565b6020908102919091010152600101610848565b50949350505050565b600061047582610d81565b60006001600160a01b0382166108d2576040516323d3ad8160e21b815260040160405180910390fd5b506001600160a01b031660009081526005602052604090205467ffffffffffffffff1690565b60606000806000610908856108a9565b905060008167ffffffffffffffff811115610925576109256115bd565b60405190808252806020026020018201604052801561094e578160200160208202803683370190505b5060408051608081018252600080825260208201819052918101829052606081018290529192505b8386146109f45761098681610f25565b9150816040015115610997576109ec565b81516001600160a01b0316156109ac57815194505b876001600160a01b0316856001600160a01b031614156109ec57808387806001019850815181106109df576109df611762565b6020026020010181815250505b600101610976565b50909695505050505050565b60606003805461048a90611727565b6060818310610a3157604051631960ccad60e11b815260040160405180910390fd5b600080610a3d60005490565b905080841115610a4b578093505b6000610a56876108a9565b905084861015610a755785850381811015610a6f578091505b50610a79565b5060005b60008167ffffffffffffffff811115610a9457610a946115bd565b604051908082528060200260200182016040528015610abd578160200160208202803683370190505b50905081610ad0579350610b8692505050565b6000610adb88610c51565b905060008160400151610aec575080515b885b888114158015610afe5750848714155b15610b7a57610b0c81610f25565b9250826040015115610b1d57610b72565b82516001600160a01b031615610b3257825191505b8a6001600160a01b0316826001600160a01b03161415610b725780848880600101995081518110610b6557610b65611762565b6020026020010181815250505b600101610aee565b50505092835250909150505b9392505050565b610b978282610fa4565b5050565b3360008181526007602090815260408083206001600160a01b03871680855290835292819020805460ff191686151590811790915590519081529192917f17307eab39ab6107e8899845ad3d59bd9653f200f220920489ca2b5937696c31910160405180910390a35050565b610c12848484610609565b6001600160a01b0383163b15610c4b57610c2e84848484610fbe565b610c4b576040516368d2bf6b60e11b815260040160405180910390fd5b50505050565b6040805160808082018352600080835260208084018290528385018290526060808501839052855193840186528284529083018290529382018190529281018390529091506000548310610ca55792915050565b610cae83610f25565b9050806040015115610cc05792915050565b610b86836110a6565b6060610cd482610d5a565b610cf157604051630a14c4b560e41b815260040160405180910390fd5b6000610d0860408051602081019091526000815290565b9050805160001415610d295760405180602001604052806000815250610b86565b80610d338461111e565b604051602001610d44929190611778565b6040516020818303038152906040529392505050565b6000805482108015610475575050600090815260046020526040902054600160e01b161590565b600081600054811015610dc957600081815260046020526040902054600160e01b8116610dc7575b80610b86575060001901600081815260046020526040902054610da9565b505b604051636f96cda160e11b815260040160405180910390fd5b6000610ded83610d81565b905080600080610e0b86600090815260066020526040902080549091565b915091508415610e4b57610e2081843361065e565b610e4b57610e2e83336103fb565b610e4b57604051632ce44b5f60e11b815260040160405180910390fd5b8015610e5657600082555b6001600160a01b038316600081815260056020526040902080546fffffffffffffffffffffffffffffffff0190554260a01b17600360e01b17600087815260046020526040902055600160e11b8416610edd5760018601600081815260046020526040902054610edb576000548114610edb5760008181526004602052604090208590555b505b60405186906000906001600160a01b038616907fddf252ad1be2c89b69c2b068fc378daa952ba7f163c4a11628f55a4df523b3ef908390a45050600180548101905550505050565b60408051608081018252600080825260208201819052918101829052606081019190915260008281526004602052604090205461047590604080516080810182526001600160a01b038316815260a083901c67ffffffffffffffff166020820152600160e01b831615159181019190915260e89190911c606082015290565b610b9782826040518060200160405280600081525061116c565b604051630a85bd0160e11b81526000906001600160a01b0385169063150b7a0290610ff39033908990889088906004016117a7565b6020604051808303816000875af192505050801561102e575060408051601f3d908101601f1916820190925261102b918101906117e3565b60015b611089573d80801561105c576040519150601f19603f3d011682016040523d82523d6000602084013e611061565b606091505b508051611081576040516368d2bf6b60e11b815260040160405180910390fd5b805181602001fd5b6001600160e01b031916630a85bd0160e11b149050949350505050565b6040805160808101825260008082526020820181905291810182905260608101919091526104756110d683610d81565b604080516080810182526001600160a01b038316815260a083901c67ffffffffffffffff166020820152600160e01b831615159181019190915260e89190911c606082015290565b606060a06040510180604052602081039150506000815280825b600183039250600a81066030018353600a9004806111555761115a565b611138565b50819003601f19909101908152919050565b61117683836111d9565b6001600160a01b0383163b156107bf576000548281035b6111a06000868380600101945086610fbe565b6111bd576040516368d2bf6b60e11b815260040160405180910390fd5b81811061118d5781600054146111d257600080fd5b5050505050565b600054816111fa5760405163b562e8dd60e01b815260040160405180910390fd5b6001600160a01b03831660008181526005602090815260408083208054680100000000000000018802019055848352600490915281206001851460e11b4260a01b178317905582840190839083907fddf252ad1be2c89b69c2b068fc378daa952ba7f163c4a11628f55a4df523b3ef8180a4600183015b8181146112a957808360007fddf252ad1be2c89b69c2b068fc378daa952ba7f163c4a11628f55a4df523b3ef600080a4600101611271565b50816112c757604051622e076360e81b815260040160405180910390fd5b60005550505050565b6001600160e01b0319811681146107cf57600080fd5b6000602082840312156112f857600080fd5b8135610b86816112d0565b60005b8381101561131e578181015183820152602001611306565b83811115610c4b5750506000910152565b60008151808452611347816020860160208601611303565b601f01601f19169290920160200192915050565b602081526000610b86602083018461132f565b60006020828403121561138057600080fd5b5035919050565b80356001600160a01b038116811461139e57600080fd5b919050565b600080604083850312156113b657600080fd5b6113bf83611387565b946020939093013593505050565b6000806000606084860312156113e257600080fd5b6113eb84611387565b92506113f960208501611387565b9150604084013590509250925092565b6000806020838503121561141c57600080fd5b823567ffffffffffffffff8082111561143457600080fd5b818501915085601f83011261144857600080fd5b81358181111561145757600080fd5b8660208260051b850101111561146c57600080fd5b60209290920196919550909350505050565b6020808252825182820181905260009190848201906040850190845b818110156109f4576114e88385516001600160a01b03815116825267ffffffffffffffff602082015116602083015260408101511515604083015262ffffff60608201511660608301525050565b928401926080929092019160010161149a565b60006020828403121561150d57600080fd5b610b8682611387565b6020808252825182820181905260009190848201906040850190845b818110156109f457835183529284019291840191600101611532565b60008060006060848603121561156357600080fd5b61156c84611387565b95602085013595506040909401359392505050565b6000806040838503121561159457600080fd5b61159d83611387565b9150602083013580151581146115b257600080fd5b809150509250929050565b634e487b7160e01b600052604160045260246000fd5b600080600080608085870312156115e957600080fd5b6115f285611387565b935061160060208601611387565b925060408501359150606085013567ffffffffffffffff8082111561162457600080fd5b818701915087601f83011261163857600080fd5b81358181111561164a5761164a6115bd565b604051601f8201601f19908116603f01168101908382118183101715611672576116726115bd565b816040528281528a602084870101111561168b57600080fd5b82602086016020830137600060208483010152809550505050505092959194509250565b81516001600160a01b0316815260208083015167ffffffffffffffff169082015260408083015115159082015260608083015162ffffff169082015260808101610475565b6000806040838503121561170757600080fd5b61171083611387565b915061171e60208401611387565b90509250929050565b600181811c9082168061173b57607f821691505b6020821081141561175c57634e487b7160e01b600052602260045260246000fd5b50919050565b634e487b7160e01b600052603260045260246000fd5b6000835161178a818460208801611303565b83519083019061179e818360208801611303565b01949350505050565b60006001600160a01b038087168352808616602084015250836040830152608060608301526117d9608083018461132f565b9695505050505050565b6000602082840312156117f557600080fd5b8151610b86816112d056fea264697066735822122022703793a9dfb9d7424bd1d438db40d6ea019139e14d6da8ef46a8632e0b92ad64736f6c634300080b0033",
  "linkReferences": {},
  "deployedLinkReferences": {}
}