{
  "_format": "hh-sol-artifact-1",
  "contractName": "ERC721ATransferCounterMock",
  "sourceName": "contracts/mocks/ERC721ATransferCounterMock.sol",
  "abi": [
    {
      "inputs": [
        {
          "internalType": "string",
          "name": "name_",
          "type": "string"
        },
        {
          "internalType": "string",
          "name": "symbol_",
          "type": "string"
        }
      ],
      "stateMutability": "nonpayable",
      "type": "constructor"
    },
    {
      "inputs": [],
      "name": "ApprovalCallerNotOwnerNorApproved",
      "type": "error"
    },
    {
      "inputs": [],
      "name": "ApprovalQueryForNonexistentToken",
      "type": "error"
    },
    {
      "inputs": [],
      "name": "BalanceQueryForZeroAddress",
      "type": "error"
    },
    {
      "inputs": [],
      "name": "MintERC2309QuantityExceedsLimit",
      "type": "error"
    },
    {
      "inputs": [],
      "name": "MintToZeroAddress",
      "type": "error"
    },
    {
      "inputs": [],
      "name": "MintZeroQuantity",
      "type": "error"
    },
    {
      "inputs": [],
      "name": "OwnerQueryForNonexistentToken",
      "type": "error"
    },
    {
      "inputs": [],
      "name": "OwnershipNotInitializedForExtraData",
      "type": "error"
    },
    {
      "inputs": [],
      "name": "TransferCallerNotOwnerNorApproved",
      "type": "error"
    },
    {
      "inputs": [],
      "name": "TransferFromIncorrectOwner",
      "type": "error"
    },
    {
      "inputs": [],
      "name": "TransferToNonERC721ReceiverImplementer",
      "type": "error"
    },
    {
      "inputs": [],
      "name": "TransferToZeroAddress",
      "type": "error"
    },
    {
      "inputs": [],
      "name": "URIQueryForNonexistentToken",
      "type": "error"
    },
    {
      "anonymous": false,
      "inputs": [
        {
          "indexed": true,
          "internalType": "address",
          "name": "owner",
          "type": "address"
        },
        {
          "indexed": true,
          "internalType": "address",
          "name": "approved",
          "type": "address"
        },
        {
          "indexed": true,
          "internalType": "uint256",
          "name": "tokenId",
          "type": "uint256"
        }
      ],
      "name": "Approval",
      "type": "event"
    },
    {
      "anonymous": false,
      "inputs": [
        {
          "indexed": true,
          "internalType": "address",
          "name": "owner",
          "type": "address"
        },
        {
          "indexed": true,
          "internalType": "address",
          "name": "operator",
          "type": "address"
        },
        {
          "indexed": false,
          "internalType": "bool",
          "name": "approved",
          "type": "bool"
        }
      ],
      "name": "ApprovalForAll",
      "type": "event"
    },
    {
      "anonymous": false,
      "inputs": [
        {
          "indexed": true,
          "internalType": "uint256",
          "name": "fromTokenId",
          "type": "uint256"
        },
        {
          "indexed": false,
          "internalType": "uint256",
          "name": "toTokenId",
          "type": "uint256"
        },
        {
          "indexed": true,
          "internalType": "address",
          "name": "from",
          "type": "address"
        },
        {
          "indexed": true,
          "internalType": "address",
          "name": "to",
          "type": "address"
        }
      ],
      "name": "ConsecutiveTransfer",
      "type": "event"
    },
    {
      "anonymous": false,
      "inputs": [
        {
          "indexed": true,
          "internalType": "address",
          "name": "from",
          "type": "address"
        },
        {
          "indexed": true,
          "internalType": "address",
          "name": "to",
          "type": "address"
        },
        {
          "indexed": true,
          "internalType": "uint256",
          "name": "tokenId",
          "type": "uint256"
        }
      ],
      "name": "Transfer",
      "type": "event"
    },
    {
      "inputs": [
        {
          "internalType": "address",
          "name": "to",
          "type": "address"
        },
        {
          "internalType": "uint256",
          "name": "tokenId",
          "type": "uint256"
        }
      ],
      "name": "approve",
      "outputs": [],
      "stateMutability": "payable",
      "type": "function"
    },
    {
      "inputs": [
        {
          "internalType": "address",
          "name": "owner",
          "type": "address"
        }
      ],
      "name": "balanceOf",
      "outputs": [
        {
          "internalType": "uint256",
          "name": "",
          "type": "uint256"
        }
      ],
      "stateMutability": "view",
      "type": "function"
    },
    {
      "inputs": [],
      "name": "baseURI",
      "outputs": [
        {
          "internalType": "string",
          "name": "",
          "type": "string"
        }
      ],
      "stateMutability": "view",
      "type": "function"
    },
    {
      "inputs": [
        {
          "internalType": "uint256",
          "name": "tokenId",
          "type": "uint256"
        }
      ],
      "name": "burn",
      "outputs": [],
      "stateMutability": "nonpayable",
      "type": "function"
    },
    {
      "inputs": [
        {
          "internalType": "uint256",
          "name": "tokenId",
          "type": "uint256"
        },
        {
          "internalType": "bool",
          "name": "approvalCheck",
          "type": "bool"
        }
      ],
      "name": "burn",
      "outputs": [],
      "stateMutability": "nonpayable",
      "type": "function"
    },
    {
      "inputs": [
        {
          "internalType": "uint256",
          "name": "tokenId",
          "type": "uint256"
        }
      ],
      "name": "exists",
      "outputs": [
        {
          "internalType": "bool",
          "name": "",
          "type": "bool"
        }
      ],
      "stateMutability": "view",
      "type": "function"
    },
    {
      "inputs": [
        {
          "internalType": "uint256",
          "name": "tokenId",
          "type": "uint256"
        }
      ],
      "name": "getApproved",
      "outputs": [
        {
          "internalType": "address",
          "name": "",
          "type": "address"
        }
      ],
      "stateMutability": "view",
      "type": "function"
    },
    {
      "inputs": [
        {
          "internalType": "address",
          "name": "owner",
          "type": "address"
        }
      ],
      "name": "getAux",
      "outputs": [
        {
          "internalType": "uint64",
          "name": "",
          "type": "uint64"
        }
      ],
      "stateMutability": "view",
      "type": "function"
    },
    {
      "inputs": [
        {
          "internalType": "uint256",
          "name": "index",
          "type": "uint256"
        }
      ],
      "name": "getOwnershipAt",
      "outputs": [
        {
          "components": [
            {
              "internalType": "address",
              "name": "addr",
              "type": "address"
            },
            {
              "internalType": "uint64",
              "name": "startTimestamp",
              "type": "uint64"
            },
            {
              "internalType": "bool",
              "name": "burned",
              "type": "bool"
            },
            {
              "internalType": "uint24",
              "name": "extraData",
              "type": "uint24"
            }
          ],
          "internalType": "struct IERC721A.TokenOwnership",
          "name": "",
          "type": "tuple"
        }
      ],
      "stateMutability": "view",
      "type": "function"
    },
    {
      "inputs": [
        {
          "internalType": "uint256",
          "name": "index",
          "type": "uint256"
        }
      ],
      "name": "getOwnershipOf",
      "outputs": [
        {
          "components": [
            {
              "internalType": "address",
              "name": "addr",
              "type": "address"
            },
            {
              "internalType": "uint64",
              "name": "startTimestamp",
              "type": "uint64"
            },
            {
              "internalType": "bool",
              "name": "burned",
              "type": "bool"
            },
            {
              "internalType": "uint24",
              "name": "extraData",
              "type": "uint24"
            }
          ],
          "internalType": "struct IERC721A.TokenOwnership",
          "name": "",
          "type": "tuple"
        }
      ],
      "stateMutability": "view",
      "type": "function"
    },
    {
      "inputs": [
        {
          "internalType": "uint256",
          "name": "index",
          "type": "uint256"
        }
      ],
      "name": "initializeOwnershipAt",
      "outputs": [],
      "stateMutability": "nonpayable",
      "type": "function"
    },
    {
      "inputs": [
        {
          "internalType": "address",
          "name": "owner",
          "type": "address"
        },
        {
          "internalType": "address",
          "name": "operator",
          "type": "address"
        }
      ],
      "name": "isApprovedForAll",
      "outputs": [
        {
          "internalType": "bool",
          "name": "",
          "type": "bool"
        }
      ],
      "stateMutability": "view",
      "type": "function"
    },
    {
      "inputs": [
        {
          "internalType": "address",
          "name": "to",
          "type": "address"
        },
        {
          "internalType": "uint256",
          "name": "quantity",
          "type": "uint256"
        }
      ],
      "name": "mint",
      "outputs": [],
      "stateMutability": "nonpayable",
      "type": "function"
    },
    {
      "inputs": [],
      "name": "name",
      "outputs": [
        {
          "internalType": "string",
          "name": "",
          "type": "string"
        }
      ],
      "stateMutability": "view",
      "type": "function"
    },
    {
      "inputs": [],
      "name": "nextTokenId",
      "outputs": [
        {
          "internalType": "uint256",
          "name": "",
          "type": "uint256"
        }
      ],
      "stateMutability": "view",
      "type": "function"
    },
    {
      "inputs": [
        {
          "internalType": "address",
          "name": "owner",
          "type": "address"
        }
      ],
      "name": "numberMinted",
      "outputs": [
        {
          "internalType": "uint256",
          "name": "",
          "type": "uint256"
        }
      ],
      "stateMutability": "view",
      "type": "function"
    },
    {
      "inputs": [
        {
          "internalType": "uint256",
          "name": "tokenId",
          "type": "uint256"
        }
      ],
      "name": "ownerOf",
      "outputs": [
        {
          "internalType": "address",
          "name": "",
          "type": "address"
        }
      ],
      "stateMutability": "view",
      "type": "function"
    },
    {
      "inputs": [
        {
          "internalType": "address",
          "name": "to",
          "type": "address"
        },
        {
          "internalType": "uint256",
          "name": "quantity",
          "type": "uint256"
        },
        {
          "internalType": "bytes",
          "name": "_data",
          "type": "bytes"
        }
      ],
      "name": "safeMint",
      "outputs": [],
      "stateMutability": "nonpayable",
      "type": "function"
    },
    {
      "inputs": [
        {
          "internalType": "address",
          "name": "to",
          "type": "address"
        },
        {
          "internalType": "uint256",
          "name": "quantity",
          "type": "uint256"
        }
      ],
      "name": "safeMint",
      "outputs": [],
      "stateMutability": "nonpayable",
      "type": "function"
    },
    {
      "inputs": [
        {
          "internalType": "address",
          "name": "from",
          "type": "address"
        },
        {
          "internalType": "address",
          "name": "to",
          "type": "address"
        },
        {
          "internalType": "uint256",
          "name": "tokenId",
          "type": "uint256"
        }
      ],
      "name": "safeTransferFrom",
      "outputs": [],
      "stateMutability": "payable",
      "type": "function"
    },
    {
      "inputs": [
        {
          "internalType": "address",
          "name": "from",
          "type": "address"
        },
        {
          "internalType": "address",
          "name": "to",
          "type": "address"
        },
        {
          "internalType": "uint256",
          "name": "tokenId",
          "type": "uint256"
        },
        {
          "internalType": "bytes",
          "name": "_data",
          "type": "bytes"
        }
      ],
      "name": "safeTransferFrom",
      "outputs": [],
      "stateMutability": "payable",
      "type": "function"
    },
    {
      "inputs": [
        {
          "internalType": "address",
          "name": "operator",
          "type": "address"
        },
        {
          "internalType": "bool",
          "name": "approved",
          "type": "bool"
        }
      ],
      "name": "setApprovalForAll",
      "outputs": [],
      "stateMutability": "nonpayable",
      "type": "function"
    },
    {
      "inputs": [
        {
          "internalType": "address",
          "name": "owner",
          "type": "address"
        },
        {
          "internalType": "uint64",
          "name": "aux",
          "type": "uint64"
        }
      ],
      "name": "setAux",
      "outputs": [],
      "stateMutability": "nonpayable",
      "type": "function"
    },
    {
      "inputs": [
        {
          "internalType": "uint256",
          "name": "index",
          "type": "uint256"
        },
        {
          "internalType": "uint24",
          "name": "extraData",
          "type": "uint24"
        }
      ],
      "name": "setExtraDataAt",
      "outputs": [],
      "stateMutability": "nonpayable",
      "type": "function"
    },
    {
      "inputs": [
        {
          "internalType": "bytes4",
          "name": "interfaceId",
          "type": "bytes4"
        }
      ],
      "name": "supportsInterface",
      "outputs": [
        {
          "internalType": "bool",
          "name": "",
          "type": "bool"
        }
      ],
      "stateMutability": "view",
      "type": "function"
    },
    {
      "inputs": [],
      "name": "symbol",
      "outputs": [
        {
          "internalType": "string",
          "name": "",
          "type": "string"
        }
      ],
      "stateMutability": "view",
      "type": "function"
    },
    {
      "inputs": [
        {
          "internalType": "uint256",
          "name": "x",
          "type": "uint256"
        }
      ],
      "name": "toString",
      "outputs": [
        {
          "internalType": "string",
          "name": "",
          "type": "string"
        }
      ],
      "stateMutability": "pure",
      "type": "function"
    },
    {
      "inputs": [
        {
          "internalType": "uint256",
          "name": "tokenId",
          "type": "uint256"
        }
      ],
      "name": "tokenURI",
      "outputs": [
        {
          "internalType": "string",
          "name": "",
          "type": "string"
        }
      ],
      "stateMutability": "view",
      "type": "function"
    },
    {
      "inputs": [],
      "name": "totalBurned",
      "outputs": [
        {
          "internalType": "uint256",
          "name": "",
          "type": "uint256"
        }
      ],
      "stateMutability": "view",
      "type": "function"
    },
    {
      "inputs": [],
      "name": "totalMinted",
      "outputs": [
        {
          "internalType": "uint256",
          "name": "",
          "type": "uint256"
        }
      ],
      "stateMutability": "view",
      "type": "function"
    },
    {
      "inputs": [],
      "name": "totalSupply",
      "outputs": [
        {
          "internalType": "uint256",
          "name": "",
          "type": "uint256"
        }
      ],
      "stateMutability": "view",
      "type": "function"
    },
    {
      "inputs": [
        {
          "internalType": "address",
          "name": "from",
          "type": "address"
        },
        {
          "internalType": "address",
          "name": "to",
          "type": "address"
        },
        {
          "internalType": "uint256",
          "name": "tokenId",
          "type": "uint256"
        }
      ],
      "name": "transferFrom",
      "outputs": [],
      "stateMutability": "payable",
      "type": "function"
    }
  ],
  "bytecode": "0x60806040523480156200001157600080fd5b5060405162001b4938038062001b498339810160408190526200003491620001eb565b8181818181600290805190602001906200005092919062000078565b5080516200006690600390602084019062000078565b50600080555062000292945050505050565b828054620000869062000255565b90600052602060002090601f016020900481019282620000aa5760008555620000f5565b82601f10620000c557805160ff1916838001178555620000f5565b82800160010185558215620000f5579182015b82811115620000f5578251825591602001919060010190620000d8565b506200010392915062000107565b5090565b5b8082111562000103576000815560010162000108565b634e487b7160e01b600052604160045260246000fd5b600082601f8301126200014657600080fd5b81516001600160401b03808211156200016357620001636200011e565b604051601f8301601f19908116603f011681019082821181831017156200018e576200018e6200011e565b81604052838152602092508683858801011115620001ab57600080fd5b600091505b83821015620001cf5785820183015181830184015290820190620001b0565b83821115620001e15760008385830101525b9695505050505050565b60008060408385031215620001ff57600080fd5b82516001600160401b03808211156200021757600080fd5b620002258683870162000134565b935060208501519150808211156200023c57600080fd5b506200024b8582860162000134565b9150509250929050565b600181811c908216806200026a57607f821691505b602082108114156200028c57634e487b7160e01b600052602260045260246000fd5b50919050565b6118a780620002a26000396000f3fe6080604052600436106101e35760003560e01c80636c0360eb11610102578063a2309ff811610095578063d89135cd11610064578063d89135cd146105ca578063dc33e681146105df578063e985e9c5146105ff578063f25236331461064857600080fd5b8063a2309ff8146104b4578063b88d4fde1461055e578063bf0b175e14610571578063c87b56dd146105aa57600080fd5b806395d89b41116100d157806395d89b41146104e95780639fac68cb146104fe578063a14481941461051e578063a22cb4651461053e57600080fd5b80636c0360eb1461047f57806370a082311461049457806375794a3c146104b45780638832e6e3146104c957600080fd5b806342842e0e1161017a57806352d8a4d11161014957806352d8a4d1146103b257806353b1233d1461041f5780636352211e1461043f5780636900a3ae1461045f57600080fd5b806342842e0e1461030257806342966c6814610315578063453ab141146103355780634f558e791461039257600080fd5b80630a70b566116101b65780630a70b5661461028c57806318160ddd146102ac57806323b872dd146102cf57806340c10f19146102e257600080fd5b806301ffc9a7146101e857806306fdde031461021d578063081812fc1461023f578063095ea7b314610277575b600080fd5b3480156101f457600080fd5b506102086102033660046113e1565b610668565b60405190151581526020015b60405180910390f35b34801561022957600080fd5b506102326106ba565b6040516102149190611456565b34801561024b57600080fd5b5061025f61025a366004611469565b61074c565b6040516001600160a01b039091168152602001610214565b61028a61028536600461149e565b610790565b005b34801561029857600080fd5b5061028a6102a73660046114c8565b610848565b3480156102b857600080fd5b50600154600054035b604051908152602001610214565b61028a6102dd366004611500565b610856565b3480156102ee57600080fd5b5061028a6102fd36600461149e565b610a0d565b61028a610310366004611500565b610a17565b34801561032157600080fd5b5061028a610330366004611469565b610a37565b34801561034157600080fd5b5061028a61035036600461153c565b6001600160a01b0382166000908152600560205260409020805460c083901b77ffffffffffffffffffffffffffffffffffffffffffffffff9091161790555050565b34801561039e57600080fd5b506102086103ad366004611469565b610a43565b3480156103be57600080fd5b506103d26103cd366004611469565b610a4e565b604051610214919081516001600160a01b0316815260208083015167ffffffffffffffff169082015260408083015115159082015260609182015162ffffff169181019190915260800190565b34801561042b57600080fd5b5061028a61043a366004611469565b610a7b565b34801561044b57600080fd5b5061025f61045a366004611469565b610a84565b34801561046b57600080fd5b5061023261047a366004611469565b610a8f565b34801561048b57600080fd5b50610232610a9a565b3480156104a057600080fd5b506102c16104af366004611575565b610ab6565b3480156104c057600080fd5b506000546102c1565b3480156104d557600080fd5b5061028a6104e4366004611633565b610b05565b3480156104f557600080fd5b50610232610b10565b34801561050a57600080fd5b5061028a61051936600461169a565b610b1f565b34801561052a57600080fd5b5061028a61053936600461149e565b610b29565b34801561054a57600080fd5b5061028a6105593660046116c6565b610b33565b61028a61056c3660046116f0565b610b9f565b34801561057d57600080fd5b5061059161058c366004611575565b610be9565b60405167ffffffffffffffff9091168152602001610214565b3480156105b657600080fd5b506102326105c5366004611469565b610c0a565b3480156105d657600080fd5b506102c1610c9c565b3480156105eb57600080fd5b506102c16105fa366004611575565b610ca7565b34801561060b57600080fd5b5061020861061a366004611758565b6001600160a01b03918216600090815260076020908152604080832093909416825291909152205460ff1690565b34801561065457600080fd5b506103d2610663366004611469565b610cd2565b60006301ffc9a760e01b6001600160e01b03198316148061069957506380ac58cd60e01b6001600160e01b03198316145b806106b45750635b5e139f60e01b6001600160e01b03198316145b92915050565b6060600280546106c990611782565b80601f01602080910402602001604051908101604052809291908181526020018280546106f590611782565b80156107425780601f1061071757610100808354040283529160200191610742565b820191906000526020600020905b81548152906001019060200180831161072557829003601f168201915b5050505050905090565b600061075782610cff565b610774576040516333d1c03960e21b815260040160405180910390fd5b506000908152600660205260409020546001600160a01b031690565b600061079b82610a84565b9050336001600160a01b038216146107d4576107b7813361061a565b6107d4576040516367d9dca160e11b815260040160405180910390fd5b60008281526006602052604080822080547fffffffffffffffffffffffff0000000000000000000000000000000000000000166001600160a01b0387811691821790925591518593918516917f8c5be1e5ebec7d5bd14f71427d1e84f3dd0314c0f7b2291e5b200ac8c7c3b92591a4505050565b6108528282610d26565b5050565b600061086182610d8e565b9050836001600160a01b0316816001600160a01b0316146108945760405162a1148160e81b815260040160405180910390fd5b600082815260066020526040902080546108c08187335b6001600160a01b039081169116811491141790565b6108eb576108ce863361061a565b6108eb57604051632ce44b5f60e11b815260040160405180910390fd5b6001600160a01b03851661091257604051633a954ecd60e21b815260040160405180910390fd5b801561091d57600082555b6001600160a01b038087166000908152600560205260408082208054600019019055918716815220805460010190556109768561095b888287610def565b600160e11b174260a01b176001600160a01b03919091161790565b600085815260046020526040902055600160e11b83166109c457600184016000818152600460205260409020546109c25760005481146109c25760008181526004602052604090208490555b505b83856001600160a01b0316876001600160a01b03167fddf252ad1be2c89b69c2b068fc378daa952ba7f163c4a11628f55a4df523b3ef60405160405180910390a4505050505050565b6108528282610e12565b610a3283838360405180602001604052806000815250610b9f565b505050565b610a4081610f37565b50565b60006106b482610cff565b6040805160808101825260008082526020820181905291810182905260608101919091526106b482610f42565b610a4081610fba565b60006106b482610d8e565b60606106b482610fe8565b6060610ab160408051602081019091526000815290565b905090565b60006001600160a01b038216610adf576040516323d3ad8160e21b815260040160405180910390fd5b506001600160a01b031660009081526005602052604090205467ffffffffffffffff1690565b610a32838383611036565b6060600380546106c990611782565b61085282826110a3565b6108528282611208565b3360008181526007602090815260408083206001600160a01b03871680855290835292819020805460ff191686151590811790915590519081529192917f17307eab39ab6107e8899845ad3d59bd9653f200f220920489ca2b5937696c31910160405180910390a35050565b610baa848484610856565b6001600160a01b0383163b15610be357610bc684848484611222565b610be3576040516368d2bf6b60e11b815260040160405180910390fd5b50505050565b6001600160a01b03811660009081526005602052604081205460c01c6106b4565b6060610c1582610cff565b610c3257604051630a14c4b560e41b815260040160405180910390fd5b6000610c4960408051602081019091526000815290565b9050805160001415610c6a5760405180602001604052806000815250610c95565b80610c7484610fe8565b604051602001610c859291906117bd565b6040516020818303038152906040525b9392505050565b6000610ab160015490565b6001600160a01b0381166000908152600560205260408082205467ffffffffffffffff911c166106b4565b6040805160808101825260008082526020820181905291810182905260608101919091526106b48261130a565b60008054821080156106b4575050600090815260046020526040902054600160e01b161590565b60008281526004602052604090205480610d525760405162d5815360e01b815260040160405180910390fd5b6000928352600460205260409092207cffffffffffffffffffffffffffffffffffffffffffffffffffffffffff9290921660e89190911b179055565b600081600054811015610dd657600081815260046020526040902054600160e01b8116610dd4575b80610c95575060001901600081815260046020526040902054610db6565b505b604051636f96cda160e11b815260040160405180910390fd5b600060e882811c90610e02868684611389565b62ffffff16901b95945050505050565b60005481610e335760405163b562e8dd60e01b815260040160405180910390fd5b6001600160a01b03831660009081526005602052604081208054680100000000000000018502019055610e8a908490610e6d908281610def565b6001851460e11b174260a01b176001600160a01b03919091161790565b6000828152600460205260408120919091556001600160a01b0384169083830190839083907fddf252ad1be2c89b69c2b068fc378daa952ba7f163c4a11628f55a4df523b3ef8180a4600183015b818114610f1057808360007fddf252ad1be2c89b69c2b068fc378daa952ba7f163c4a11628f55a4df523b3ef600080a4600101610ed8565b5081610f2e57604051622e076360e81b815260040160405180910390fd5b60005550505050565b610a408160006110a3565b6040805160808101825260008082526020820181905291810182905260608101919091526106b4610f7283610d8e565b604080516080810182526001600160a01b038316815260a083901c67ffffffffffffffff166020820152600160e01b831615159181019190915260e89190911c606082015290565b600081815260046020526040902054610a4057610fd681610d8e565b60008281526004602052604090205550565b606060a06040510180604052602081039150506000815280825b600183039250600a81066030018353600a90048061101f57611024565b611002565b50819003601f19909101908152919050565b6110408383610e12565b6001600160a01b0383163b15610a32576000548281035b61106a6000868380600101945086611222565b611087576040516368d2bf6b60e11b815260040160405180910390fd5b81811061105757816000541461109c57600080fd5b5050505050565b60006110ae83610d8e565b9050806000806110cc86600090815260066020526040902080549091565b91509150841561110c576110e18184336108ab565b61110c576110ef833361061a565b61110c57604051632ce44b5f60e11b815260040160405180910390fd5b801561111757600082555b6001600160a01b038316600090815260056020526040812080546fffffffffffffffffffffffffffffffff01905561117290849061115790829088610def565b600360e01b174260a01b176001600160a01b03919091161790565b600087815260046020526040902055600160e11b84166111c057600186016000818152600460205260409020546111be5760005481146111be5760008181526004602052604090208590555b505b60405186906000906001600160a01b038616907fddf252ad1be2c89b69c2b068fc378daa952ba7f163c4a11628f55a4df523b3ef908390a45050600180548101905550505050565b610852828260405180602001604052806000815250611036565b604051630a85bd0160e11b81526000906001600160a01b0385169063150b7a02906112579033908990889088906004016117ec565b6020604051808303816000875af1925050508015611292575060408051601f3d908101601f1916820190925261128f91810190611828565b60015b6112ed573d8080156112c0576040519150601f19603f3d011682016040523d82523d6000602084013e6112c5565b606091505b5080516112e5576040516368d2bf6b60e11b815260040160405180910390fd5b805181602001fd5b6001600160e01b031916630a85bd0160e11b149050949350505050565b6040805160808101825260008082526020820181905291810182905260608101919091526000828152600460205260409020546106b490604080516080810182526001600160a01b038316815260a083901c67ffffffffffffffff166020820152600160e01b831615159181019190915260e89190911c606082015290565b60006001600160a01b0384166113a15750602a610c95565b6001600160a01b0383166113b85750610539610c95565b6113c3826001611845565b949350505050565b6001600160e01b031981168114610a4057600080fd5b6000602082840312156113f357600080fd5b8135610c95816113cb565b60005b83811015611419578181015183820152602001611401565b83811115610be35750506000910152565b600081518084526114428160208601602086016113fe565b601f01601f19169290920160200192915050565b602081526000610c95602083018461142a565b60006020828403121561147b57600080fd5b5035919050565b80356001600160a01b038116811461149957600080fd5b919050565b600080604083850312156114b157600080fd5b6114ba83611482565b946020939093013593505050565b600080604083850312156114db57600080fd5b82359150602083013562ffffff811681146114f557600080fd5b809150509250929050565b60008060006060848603121561151557600080fd5b61151e84611482565b925061152c60208501611482565b9150604084013590509250925092565b6000806040838503121561154f57600080fd5b61155883611482565b9150602083013567ffffffffffffffff811681146114f557600080fd5b60006020828403121561158757600080fd5b610c9582611482565b634e487b7160e01b600052604160045260246000fd5b600082601f8301126115b757600080fd5b813567ffffffffffffffff808211156115d2576115d2611590565b604051601f8301601f19908116603f011681019082821181831017156115fa576115fa611590565b8160405283815286602085880101111561161357600080fd5b836020870160208301376000602085830101528094505050505092915050565b60008060006060848603121561164857600080fd5b61165184611482565b925060208401359150604084013567ffffffffffffffff81111561167457600080fd5b611680868287016115a6565b9150509250925092565b8035801515811461149957600080fd5b600080604083850312156116ad57600080fd5b823591506116bd6020840161168a565b90509250929050565b600080604083850312156116d957600080fd5b6116e283611482565b91506116bd6020840161168a565b6000806000806080858703121561170657600080fd5b61170f85611482565b935061171d60208601611482565b925060408501359150606085013567ffffffffffffffff81111561174057600080fd5b61174c878288016115a6565b91505092959194509250565b6000806040838503121561176b57600080fd5b61177483611482565b91506116bd60208401611482565b600181811c9082168061179657607f821691505b602082108114156117b757634e487b7160e01b600052602260045260246000fd5b50919050565b600083516117cf8184602088016113fe565b8351908301906117e38183602088016113fe565b01949350505050565b60006001600160a01b0380871683528086166020840152508360408301526080606083015261181e608083018461142a565b9695505050505050565b60006020828403121561183a57600080fd5b8151610c95816113cb565b600062ffffff8083168185168083038211156117e357634e487b7160e01b600052601160045260246000fdfea2646970667358221220099fbe1897b6b01985a14ec1c581c8f32c581b7dfa29526346358554820cbf2c64736f6c634300080b0033",
  "linkReferences": {},
  "deployedLinkReferences": {}
}