{
  "_format": "hh-sol-artifact-1",
  "contractName": "ERC721ABurnableMock",
  "sourceName": "contracts/mocks/ERC721ABurnableMock.sol",
  "abi": [
    {
      "inputs": [
        {
          "internalType": "string",
          "name": "name_",
          "type": "string"
        },
        {
          "internalType": "string",
          "name": "symbol_",
          "type": "string"
        }
      ],
      "stateMutability": "nonpayable",
      "type": "constructor"
    },
    {
      "inputs": [],
      "name": "ApprovalCallerNotOwnerNorApproved",
      "type": "error"
    },
    {
      "inputs": [],
      "name": "ApprovalQueryForNonexistentToken",
      "type": "error"
    },
    {
      "inputs": [],
      "name": "BalanceQueryForZeroAddress",
      "type": "error"
    },
    {
      "inputs": [],
      "name": "MintERC2309QuantityExceedsLimit",
      "type": "error"
    },
    {
      "inputs": [],
      "name": "MintToZeroAddress",
      "type": "error"
    },
    {
      "inputs": [],
      "name": "MintZeroQuantity",
      "type": "error"
    },
    {
      "inputs": [],
      "name": "OwnerQueryForNonexistentToken",
      "type": "error"
    },
    {
      "inputs": [],
      "name": "OwnershipNotInitializedForExtraData",
      "type": "error"
    },
    {
      "inputs": [],
      "name": "TransferCallerNotOwnerNorApproved",
      "type": "error"
    },
    {
      "inputs": [],
      "name": "TransferFromIncorrectOwner",
      "type": "error"
    },
    {
      "inputs": [],
      "name": "TransferToNonERC721ReceiverImplementer",
      "type": "error"
    },
    {
      "inputs": [],
      "name": "TransferToZeroAddress",
      "type": "error"
    },
    {
      "inputs": [],
      "name": "URIQueryForNonexistentToken",
      "type": "error"
    },
    {
      "anonymous": false,
      "inputs": [
        {
          "indexed": true,
          "internalType": "address",
          "name": "owner",
          "type": "address"
        },
        {
          "indexed": true,
          "internalType": "address",
          "name": "approved",
          "type": "address"
        },
        {
          "indexed": true,
          "internalType": "uint256",
          "name": "tokenId",
          "type": "uint256"
        }
      ],
      "name": "Approval",
      "type": "event"
    },
    {
      "anonymous": false,
      "inputs": [
        {
          "indexed": true,
          "internalType": "address",
          "name": "owner",
          "type": "address"
        },
        {
          "indexed": true,
          "internalType": "address",
          "name": "operator",
          "type": "address"
        },
        {
          "indexed": false,
          "internalType": "bool",
          "name": "approved",
          "type": "bool"
        }
      ],
      "name": "ApprovalForAll",
      "type": "event"
    },
    {
      "anonymous": false,
      "inputs": [
        {
          "indexed": true,
          "internalType": "uint256",
          "name": "fromTokenId",
          "type": "uint256"
        },
        {
          "indexed": false,
          "internalType": "uint256",
          "name": "toTokenId",
          "type": "uint256"
        },
        {
          "indexed": true,
          "internalType": "address",
          "name": "from",
          "type": "address"
        },
        {
          "indexed": true,
          "internalType": "address",
          "name": "to",
          "type": "address"
        }
      ],
      "name": "ConsecutiveTransfer",
      "type": "event"
    },
    {
      "anonymous": false,
      "inputs": [
        {
          "indexed": true,
          "internalType": "address",
          "name": "from",
          "type": "address"
        },
        {
          "indexed": true,
          "internalType": "address",
          "name": "to",
          "type": "address"
        },
        {
          "indexed": true,
          "internalType": "uint256",
          "name": "tokenId",
          "type": "uint256"
        }
      ],
      "name": "Transfer",
      "type": "event"
    },
    {
      "inputs": [
        {
          "internalType": "address",
          "name": "to",
          "type": "address"
        },
        {
          "internalType": "uint256",
          "name": "tokenId",
          "type": "uint256"
        }
      ],
      "name": "approve",
      "outputs": [],
      "stateMutability": "payable",
      "type": "function"
    },
    {
      "inputs": [
        {
          "internalType": "address",
          "name": "owner",
          "type": "address"
        }
      ],
      "name": "balanceOf",
      "outputs": [
        {
          "internalType": "uint256",
          "name": "",
          "type": "uint256"
        }
      ],
      "stateMutability": "view",
      "type": "function"
    },
    {
      "inputs": [
        {
          "internalType": "uint256",
          "name": "tokenId",
          "type": "uint256"
        }
      ],
      "name": "burn",
      "outputs": [],
      "stateMutability": "nonpayable",
      "type": "function"
    },
    {
      "inputs": [
        {
          "internalType": "uint256",
          "name": "tokenId",
          "type": "uint256"
        }
      ],
      "name": "exists",
      "outputs": [
        {
          "internalType": "bool",
          "name": "",
          "type": "bool"
        }
      ],
      "stateMutability": "view",
      "type": "function"
    },
    {
      "inputs": [
        {
          "internalType": "uint256",
          "name": "tokenId",
          "type": "uint256"
        }
      ],
      "name": "getApproved",
      "outputs": [
        {
          "internalType": "address",
          "name": "",
          "type": "address"
        }
      ],
      "stateMutability": "view",
      "type": "function"
    },
    {
      "inputs": [
        {
          "internalType": "uint256",
          "name": "index",
          "type": "uint256"
        }
      ],
      "name": "getOwnershipAt",
      "outputs": [
        {
          "components": [
            {
              "internalType": "address",
              "name": "addr",
              "type": "address"
            },
            {
              "internalType": "uint64",
              "name": "startTimestamp",
              "type": "uint64"
            },
            {
              "internalType": "bool",
              "name": "burned",
              "type": "bool"
            },
            {
              "internalType": "uint24",
              "name": "extraData",
              "type": "uint24"
            }
          ],
          "internalType": "struct IERC721A.TokenOwnership",
          "name": "",
          "type": "tuple"
        }
      ],
      "stateMutability": "view",
      "type": "function"
    },
    {
      "inputs": [
        {
          "internalType": "address",
          "name": "owner",
          "type": "address"
        },
        {
          "internalType": "address",
          "name": "operator",
          "type": "address"
        }
      ],
      "name": "isApprovedForAll",
      "outputs": [
        {
          "internalType": "bool",
          "name": "",
          "type": "bool"
        }
      ],
      "stateMutability": "view",
      "type": "function"
    },
    {
      "inputs": [],
      "name": "name",
      "outputs": [
        {
          "internalType": "string",
          "name": "",
          "type": "string"
        }
      ],
      "stateMutability": "view",
      "type": "function"
    },
    {
      "inputs": [
        {
          "internalType": "address",
          "name": "owner",
          "type": "address"
        }
      ],
      "name": "numberBurned",
      "outputs": [
        {
          "internalType": "uint256",
          "name": "",
          "type": "uint256"
        }
      ],
      "stateMutability": "view",
      "type": "function"
    },
    {
      "inputs": [
        {
          "internalType": "uint256",
          "name": "tokenId",
          "type": "uint256"
        }
      ],
      "name": "ownerOf",
      "outputs": [
        {
          "internalType": "address",
          "name": "",
          "type": "address"
        }
      ],
      "stateMutability": "view",
      "type": "function"
    },
    {
      "inputs": [
        {
          "internalType": "address",
          "name": "to",
          "type": "address"
        },
        {
          "internalType": "uint256",
          "name": "quantity",
          "type": "uint256"
        }
      ],
      "name": "safeMint",
      "outputs": [],
      "stateMutability": "nonpayable",
      "type": "function"
    },
    {
      "inputs": [
        {
          "internalType": "address",
          "name": "from",
          "type": "address"
        },
        {
          "internalType": "address",
          "name": "to",
          "type": "address"
        },
        {
          "internalType": "uint256",
          "name": "tokenId",
          "type": "uint256"
        }
      ],
      "name": "safeTransferFrom",
      "outputs": [],
      "stateMutability": "payable",
      "type": "function"
    },
    {
      "inputs": [
        {
          "internalType": "address",
          "name": "from",
          "type": "address"
        },
        {
          "internalType": "address",
          "name": "to",
          "type": "address"
        },
        {
          "internalType": "uint256",
          "name": "tokenId",
          "type": "uint256"
        },
        {
          "internalType": "bytes",
          "name": "_data",
          "type": "bytes"
        }
      ],
      "name": "safeTransferFrom",
      "outputs": [],
      "stateMutability": "payable",
      "type": "function"
    },
    {
      "inputs": [
        {
          "internalType": "address",
          "name": "operator",
          "type": "address"
        },
        {
          "internalType": "bool",
          "name": "approved",
          "type": "bool"
        }
      ],
      "name": "setApprovalForAll",
      "outputs": [],
      "stateMutability": "nonpayable",
      "type": "function"
    },
    {
      "inputs": [
        {
          "internalType": "bytes4",
          "name": "interfaceId",
          "type": "bytes4"
        }
      ],
      "name": "supportsInterface",
      "outputs": [
        {
          "internalType": "bool",
          "name": "",
          "type": "bool"
        }
      ],
      "stateMutability": "view",
      "type": "function"
    },
    {
      "inputs": [],
      "name": "symbol",
      "outputs": [
        {
          "internalType": "string",
          "name": "",
          "type": "string"
        }
      ],
      "stateMutability": "view",
      "type": "function"
    },
    {
      "inputs": [
        {
          "internalType": "uint256",
          "name": "tokenId",
          "type": "uint256"
        }
      ],
      "name": "tokenURI",
      "outputs": [
        {
          "internalType": "string",
          "name": "",
          "type": "string"
        }
      ],
      "stateMutability": "view",
      "type": "function"
    },
    {
      "inputs": [],
      "name": "totalBurned",
      "outputs": [
        {
          "internalType": "uint256",
          "name": "",
          "type": "uint256"
        }
      ],
      "stateMutability": "view",
      "type": "function"
    },
    {
      "inputs": [],
      "name": "totalMinted",
      "outputs": [
        {
          "internalType": "uint256",
          "name": "",
          "type": "uint256"
        }
      ],
      "stateMutability": "view",
      "type": "function"
    },
    {
      "inputs": [],
      "name": "totalSupply",
      "outputs": [
        {
          "internalType": "uint256",
          "name": "",
          "type": "uint256"
        }
      ],
      "stateMutability": "view",
      "type": "function"
    },
    {
      "inputs": [
        {
          "internalType": "address",
          "name": "from",
          "type": "address"
        },
        {
          "internalType": "address",
          "name": "to",
          "type": "address"
        },
        {
          "internalType": "uint256",
          "name": "tokenId",
          "type": "uint256"
        }
      ],
      "name": "transferFrom",
      "outputs": [],
      "stateMutability": "payable",
      "type": "function"
    }
  ],
  "bytecode": "0x60806040523480156200001157600080fd5b506040516200158b3803806200158b8339810160408190526200003491620001e6565b8151829082906200004d90600290602085019062000073565b5080516200006390600390602084019062000073565b5060008055506200028d92505050565b828054620000819062000250565b90600052602060002090601f016020900481019282620000a55760008555620000f0565b82601f10620000c057805160ff1916838001178555620000f0565b82800160010185558215620000f0579182015b82811115620000f0578251825591602001919060010190620000d3565b50620000fe92915062000102565b5090565b5b80821115620000fe576000815560010162000103565b634e487b7160e01b600052604160045260246000fd5b600082601f8301126200014157600080fd5b81516001600160401b03808211156200015e576200015e62000119565b604051601f8301601f19908116603f0116810190828211818310171562000189576200018962000119565b81604052838152602092508683858801011115620001a657600080fd5b600091505b83821015620001ca5785820183015181830184015290820190620001ab565b83821115620001dc5760008385830101525b9695505050505050565b60008060408385031215620001fa57600080fd5b82516001600160401b03808211156200021257600080fd5b62000220868387016200012f565b935060208501519150808211156200023757600080fd5b5062000246858286016200012f565b9150509250929050565b600181811c908216806200026557607f821691505b602082108114156200028757634e487b7160e01b600052602260045260246000fd5b50919050565b6112ee806200029d6000396000f3fe60806040526004361061016a5760003560e01c80636352211e116100cb578063a2309ff81161007f578063d89135cd11610059578063d89135cd14610399578063e985e9c5146103ae578063f2523633146103f757600080fd5b8063a2309ff814610351578063b88d4fde14610366578063c87b56dd1461037957600080fd5b806395d89b41116100b057806395d89b41146102fc578063a144819414610311578063a22cb4651461033157600080fd5b80636352211e146102bc57806370a08231146102dc57600080fd5b806323b872dd1161012257806342842e0e1161010757806342842e0e1461026957806342966c681461027c5780634f558e791461029c57600080fd5b806323b872dd146102365780632478d6391461024957600080fd5b8063081812fc11610153578063081812fc146101c6578063095ea7b3146101fe57806318160ddd1461021357600080fd5b806301ffc9a71461016f57806306fdde03146101a4575b600080fd5b34801561017b57600080fd5b5061018f61018a366004610f56565b610464565b60405190151581526020015b60405180910390f35b3480156101b057600080fd5b506101b96104b6565b60405161019b9190610fcb565b3480156101d257600080fd5b506101e66101e1366004610fde565b610548565b6040516001600160a01b03909116815260200161019b565b61021161020c366004611013565b61058c565b005b34801561021f57600080fd5b50600154600054035b60405190815260200161019b565b61021161024436600461103d565b610644565b34801561025557600080fd5b50610228610264366004611079565b6107df565b61021161027736600461103d565b61080d565b34801561028857600080fd5b50610211610297366004610fde565b61082d565b3480156102a857600080fd5b5061018f6102b7366004610fde565b61083b565b3480156102c857600080fd5b506101e66102d7366004610fde565b610846565b3480156102e857600080fd5b506102286102f7366004611079565b610851565b34801561030857600080fd5b506101b96108a0565b34801561031d57600080fd5b5061021161032c366004611013565b6108af565b34801561033d57600080fd5b5061021161034c366004611094565b6108bd565b34801561035d57600080fd5b50600054610228565b6102116103743660046110e6565b61092e565b34801561038557600080fd5b506101b9610394366004610fde565b610978565b3480156103a557600080fd5b50610228610a0a565b3480156103ba57600080fd5b5061018f6103c93660046111c2565b6001600160a01b03918216600090815260076020908152604080832093909416825291909152205460ff1690565b34801561040357600080fd5b50610417610412366004610fde565b610a15565b60405161019b919081516001600160a01b0316815260208083015167ffffffffffffffff169082015260408083015115159082015260609182015162ffffff169181019190915260800190565b60006301ffc9a760e01b6001600160e01b03198316148061049557506380ac58cd60e01b6001600160e01b03198316145b806104b05750635b5e139f60e01b6001600160e01b03198316145b92915050565b6060600280546104c5906111f5565b80601f01602080910402602001604051908101604052809291908181526020018280546104f1906111f5565b801561053e5780601f106105135761010080835404028352916020019161053e565b820191906000526020600020905b81548152906001019060200180831161052157829003601f168201915b5050505050905090565b600061055382610a42565b610570576040516333d1c03960e21b815260040160405180910390fd5b506000908152600660205260409020546001600160a01b031690565b600061059782610846565b9050336001600160a01b038216146105d0576105b381336103c9565b6105d0576040516367d9dca160e11b815260040160405180910390fd5b60008281526006602052604080822080547fffffffffffffffffffffffff0000000000000000000000000000000000000000166001600160a01b0387811691821790925591518593918516917f8c5be1e5ebec7d5bd14f71427d1e84f3dd0314c0f7b2291e5b200ac8c7c3b92591a4505050565b600061064f82610a69565b9050836001600160a01b0316816001600160a01b0316146106825760405162a1148160e81b815260040160405180910390fd5b600082815260066020526040902080546106ae8187335b6001600160a01b039081169116811491141790565b6106d9576106bc86336103c9565b6106d957604051632ce44b5f60e11b815260040160405180910390fd5b6001600160a01b03851661070057604051633a954ecd60e21b815260040160405180910390fd5b801561070b57600082555b6001600160a01b038681166000908152600560205260408082208054600019019055918716808252919020805460010190554260a01b17600160e11b17600085815260046020526040902055600160e11b831661079657600184016000818152600460205260409020546107945760005481146107945760008181526004602052604090208490555b505b83856001600160a01b0316876001600160a01b03167fddf252ad1be2c89b69c2b068fc378daa952ba7f163c4a11628f55a4df523b3ef60405160405180910390a4505050505050565b60006104b0826001600160a01b031660009081526005602052604090205460801c67ffffffffffffffff1690565b6108288383836040518060200160405280600081525061092e565b505050565b610838816001610aca565b50565b60006104b082610a42565b60006104b082610a69565b60006001600160a01b03821661087a576040516323d3ad8160e21b815260040160405180910390fd5b506001600160a01b031660009081526005602052604090205467ffffffffffffffff1690565b6060600380546104c5906111f5565b6108b98282610c0d565b5050565b3360008181526007602090815260408083206001600160a01b03871680855290835292819020805460ff191686151590811790915590519081529192917f17307eab39ab6107e8899845ad3d59bd9653f200f220920489ca2b5937696c31910160405180910390a35050565b905090565b610939848484610644565b6001600160a01b0383163b156109725761095584848484610c27565b610972576040516368d2bf6b60e11b815260040160405180910390fd5b50505050565b606061098382610a42565b6109a057604051630a14c4b560e41b815260040160405180910390fd5b60006109b760408051602081019091526000815290565b90508051600014156109d85760405180602001604052806000815250610a03565b806109e284610d0f565b6040516020016109f3929190611230565b6040516020818303038152906040525b9392505050565b600061092960015490565b6040805160808101825260008082526020820181905291810182905260608101919091526104b082610d5d565b60008054821080156104b0575050600090815260046020526040902054600160e01b161590565b600081600054811015610ab157600081815260046020526040902054600160e01b8116610aaf575b80610a03575060001901600081815260046020526040902054610a91565b505b604051636f96cda160e11b815260040160405180910390fd5b6000610ad583610a69565b905080600080610af386600090815260066020526040902080549091565b915091508415610b3357610b08818433610699565b610b3357610b1683336103c9565b610b3357604051632ce44b5f60e11b815260040160405180910390fd5b8015610b3e57600082555b6001600160a01b038316600081815260056020526040902080546fffffffffffffffffffffffffffffffff0190554260a01b17600360e01b17600087815260046020526040902055600160e11b8416610bc55760018601600081815260046020526040902054610bc3576000548114610bc35760008181526004602052604090208590555b505b60405186906000906001600160a01b038616907fddf252ad1be2c89b69c2b068fc378daa952ba7f163c4a11628f55a4df523b3ef908390a45050600180548101905550505050565b6108b9828260405180602001604052806000815250610ddc565b604051630a85bd0160e11b81526000906001600160a01b0385169063150b7a0290610c5c90339089908890889060040161125f565b6020604051808303816000875af1925050508015610c97575060408051601f3d908101601f19168201909252610c949181019061129b565b60015b610cf2573d808015610cc5576040519150601f19603f3d011682016040523d82523d6000602084013e610cca565b606091505b508051610cea576040516368d2bf6b60e11b815260040160405180910390fd5b805181602001fd5b6001600160e01b031916630a85bd0160e11b149050949350505050565b606060a06040510180604052602081039150506000815280825b600183039250600a81066030018353600a900480610d4657610d4b565b610d29565b50819003601f19909101908152919050565b6040805160808101825260008082526020820181905291810182905260608101919091526000828152600460205260409020546104b090604080516080810182526001600160a01b038316815260a083901c67ffffffffffffffff166020820152600160e01b831615159181019190915260e89190911c606082015290565b610de68383610e49565b6001600160a01b0383163b15610828576000548281035b610e106000868380600101945086610c27565b610e2d576040516368d2bf6b60e11b815260040160405180910390fd5b818110610dfd578160005414610e4257600080fd5b5050505050565b60005481610e6a5760405163b562e8dd60e01b815260040160405180910390fd5b6001600160a01b03831660008181526005602090815260408083208054680100000000000000018802019055848352600490915281206001851460e11b4260a01b178317905582840190839083907fddf252ad1be2c89b69c2b068fc378daa952ba7f163c4a11628f55a4df523b3ef8180a4600183015b818114610f1957808360007fddf252ad1be2c89b69c2b068fc378daa952ba7f163c4a11628f55a4df523b3ef600080a4600101610ee1565b5081610f3757604051622e076360e81b815260040160405180910390fd5b60005550505050565b6001600160e01b03198116811461083857600080fd5b600060208284031215610f6857600080fd5b8135610a0381610f40565b60005b83811015610f8e578181015183820152602001610f76565b838111156109725750506000910152565b60008151808452610fb7816020860160208601610f73565b601f01601f19169290920160200192915050565b602081526000610a036020830184610f9f565b600060208284031215610ff057600080fd5b5035919050565b80356001600160a01b038116811461100e57600080fd5b919050565b6000806040838503121561102657600080fd5b61102f83610ff7565b946020939093013593505050565b60008060006060848603121561105257600080fd5b61105b84610ff7565b925061106960208501610ff7565b9150604084013590509250925092565b60006020828403121561108b57600080fd5b610a0382610ff7565b600080604083850312156110a757600080fd5b6110b083610ff7565b9150602083013580151581146110c557600080fd5b809150509250929050565b634e487b7160e01b600052604160045260246000fd5b600080600080608085870312156110fc57600080fd5b61110585610ff7565b935061111360208601610ff7565b925060408501359150606085013567ffffffffffffffff8082111561113757600080fd5b818701915087601f83011261114b57600080fd5b81358181111561115d5761115d6110d0565b604051601f8201601f19908116603f01168101908382118183101715611185576111856110d0565b816040528281528a602084870101111561119e57600080fd5b82602086016020830137600060208483010152809550505050505092959194509250565b600080604083850312156111d557600080fd5b6111de83610ff7565b91506111ec60208401610ff7565b90509250929050565b600181811c9082168061120957607f821691505b6020821081141561122a57634e487b7160e01b600052602260045260246000fd5b50919050565b60008351611242818460208801610f73565b835190830190611256818360208801610f73565b01949350505050565b60006001600160a01b038087168352808616602084015250836040830152608060608301526112916080830184610f9f565b9695505050505050565b6000602082840312156112ad57600080fd5b8151610a0381610f4056fea2646970667358221220e8cf987771a1ad510eb4b2810771e9723a289be8345f5d1dfaf43817db93e7e064736f6c634300080b0033",
  "linkReferences": {},
  "deployedLinkReferences": {}
}