{
  "_format": "hh-sol-artifact-1",
  "contractName": "ERC4907AMock",
  "sourceName": "contracts/mocks/ERC4907AMock.sol",
  "abi": [
    {
      "inputs": [
        {
          "internalType": "string",
          "name": "name_",
          "type": "string"
        },
        {
          "internalType": "string",
          "name": "symbol_",
          "type": "string"
        }
      ],
      "stateMutability": "nonpayable",
      "type": "constructor"
    },
    {
      "inputs": [],
      "name": "ApprovalCallerNotOwnerNorApproved",
      "type": "error"
    },
    {
      "inputs": [],
      "name": "ApprovalQueryForNonexistentToken",
      "type": "error"
    },
    {
      "inputs": [],
      "name": "BalanceQueryForZeroAddress",
      "type": "error"
    },
    {
      "inputs": [],
      "name": "MintERC2309QuantityExceedsLimit",
      "type": "error"
    },
    {
      "inputs": [],
      "name": "MintToZeroAddress",
      "type": "error"
    },
    {
      "inputs": [],
      "name": "MintZeroQuantity",
      "type": "error"
    },
    {
      "inputs": [],
      "name": "OwnerQueryForNonexistentToken",
      "type": "error"
    },
    {
      "inputs": [],
      "name": "OwnershipNotInitializedForExtraData",
      "type": "error"
    },
    {
      "inputs": [],
      "name": "SetUserCallerNotOwnerNorApproved",
      "type": "error"
    },
    {
      "inputs": [],
      "name": "TransferCallerNotOwnerNorApproved",
      "type": "error"
    },
    {
      "inputs": [],
      "name": "TransferFromIncorrectOwner",
      "type": "error"
    },
    {
      "inputs": [],
      "name": "TransferToNonERC721ReceiverImplementer",
      "type": "error"
    },
    {
      "inputs": [],
      "name": "TransferToZeroAddress",
      "type": "error"
    },
    {
      "inputs": [],
      "name": "URIQueryForNonexistentToken",
      "type": "error"
    },
    {
      "anonymous": false,
      "inputs": [
        {
          "indexed": true,
          "internalType": "address",
          "name": "owner",
          "type": "address"
        },
        {
          "indexed": true,
          "internalType": "address",
          "name": "approved",
          "type": "address"
        },
        {
          "indexed": true,
          "internalType": "uint256",
          "name": "tokenId",
          "type": "uint256"
        }
      ],
      "name": "Approval",
      "type": "event"
    },
    {
      "anonymous": false,
      "inputs": [
        {
          "indexed": true,
          "internalType": "address",
          "name": "owner",
          "type": "address"
        },
        {
          "indexed": true,
          "internalType": "address",
          "name": "operator",
          "type": "address"
        },
        {
          "indexed": false,
          "internalType": "bool",
          "name": "approved",
          "type": "bool"
        }
      ],
      "name": "ApprovalForAll",
      "type": "event"
    },
    {
      "anonymous": false,
      "inputs": [
        {
          "indexed": true,
          "internalType": "uint256",
          "name": "fromTokenId",
          "type": "uint256"
        },
        {
          "indexed": false,
          "internalType": "uint256",
          "name": "toTokenId",
          "type": "uint256"
        },
        {
          "indexed": true,
          "internalType": "address",
          "name": "from",
          "type": "address"
        },
        {
          "indexed": true,
          "internalType": "address",
          "name": "to",
          "type": "address"
        }
      ],
      "name": "ConsecutiveTransfer",
      "type": "event"
    },
    {
      "anonymous": false,
      "inputs": [
        {
          "indexed": true,
          "internalType": "address",
          "name": "from",
          "type": "address"
        },
        {
          "indexed": true,
          "internalType": "address",
          "name": "to",
          "type": "address"
        },
        {
          "indexed": true,
          "internalType": "uint256",
          "name": "tokenId",
          "type": "uint256"
        }
      ],
      "name": "Transfer",
      "type": "event"
    },
    {
      "anonymous": false,
      "inputs": [
        {
          "indexed": true,
          "internalType": "uint256",
          "name": "tokenId",
          "type": "uint256"
        },
        {
          "indexed": true,
          "internalType": "address",
          "name": "user",
          "type": "address"
        },
        {
          "indexed": false,
          "internalType": "uint64",
          "name": "expires",
          "type": "uint64"
        }
      ],
      "name": "UpdateUser",
      "type": "event"
    },
    {
      "inputs": [
        {
          "internalType": "address",
          "name": "to",
          "type": "address"
        },
        {
          "internalType": "uint256",
          "name": "tokenId",
          "type": "uint256"
        }
      ],
      "name": "approve",
      "outputs": [],
      "stateMutability": "payable",
      "type": "function"
    },
    {
      "inputs": [
        {
          "internalType": "address",
          "name": "owner",
          "type": "address"
        }
      ],
      "name": "balanceOf",
      "outputs": [
        {
          "internalType": "uint256",
          "name": "",
          "type": "uint256"
        }
      ],
      "stateMutability": "view",
      "type": "function"
    },
    {
      "inputs": [
        {
          "internalType": "uint256",
          "name": "tokenId",
          "type": "uint256"
        }
      ],
      "name": "explicitUserOf",
      "outputs": [
        {
          "internalType": "address",
          "name": "",
          "type": "address"
        }
      ],
      "stateMutability": "view",
      "type": "function"
    },
    {
      "inputs": [
        {
          "internalType": "uint256",
          "name": "tokenId",
          "type": "uint256"
        }
      ],
      "name": "getApproved",
      "outputs": [
        {
          "internalType": "address",
          "name": "",
          "type": "address"
        }
      ],
      "stateMutability": "view",
      "type": "function"
    },
    {
      "inputs": [
        {
          "internalType": "address",
          "name": "owner",
          "type": "address"
        },
        {
          "internalType": "address",
          "name": "operator",
          "type": "address"
        }
      ],
      "name": "isApprovedForAll",
      "outputs": [
        {
          "internalType": "bool",
          "name": "",
          "type": "bool"
        }
      ],
      "stateMutability": "view",
      "type": "function"
    },
    {
      "inputs": [
        {
          "internalType": "address",
          "name": "to",
          "type": "address"
        },
        {
          "internalType": "uint256",
          "name": "quantity",
          "type": "uint256"
        }
      ],
      "name": "mint",
      "outputs": [],
      "stateMutability": "nonpayable",
      "type": "function"
    },
    {
      "inputs": [],
      "name": "name",
      "outputs": [
        {
          "internalType": "string",
          "name": "",
          "type": "string"
        }
      ],
      "stateMutability": "view",
      "type": "function"
    },
    {
      "inputs": [
        {
          "internalType": "uint256",
          "name": "tokenId",
          "type": "uint256"
        }
      ],
      "name": "ownerOf",
      "outputs": [
        {
          "internalType": "address",
          "name": "",
          "type": "address"
        }
      ],
      "stateMutability": "view",
      "type": "function"
    },
    {
      "inputs": [
        {
          "internalType": "address",
          "name": "from",
          "type": "address"
        },
        {
          "internalType": "address",
          "name": "to",
          "type": "address"
        },
        {
          "internalType": "uint256",
          "name": "tokenId",
          "type": "uint256"
        }
      ],
      "name": "safeTransferFrom",
      "outputs": [],
      "stateMutability": "payable",
      "type": "function"
    },
    {
      "inputs": [
        {
          "internalType": "address",
          "name": "from",
          "type": "address"
        },
        {
          "internalType": "address",
          "name": "to",
          "type": "address"
        },
        {
          "internalType": "uint256",
          "name": "tokenId",
          "type": "uint256"
        },
        {
          "internalType": "bytes",
          "name": "_data",
          "type": "bytes"
        }
      ],
      "name": "safeTransferFrom",
      "outputs": [],
      "stateMutability": "payable",
      "type": "function"
    },
    {
      "inputs": [
        {
          "internalType": "address",
          "name": "operator",
          "type": "address"
        },
        {
          "internalType": "bool",
          "name": "approved",
          "type": "bool"
        }
      ],
      "name": "setApprovalForAll",
      "outputs": [],
      "stateMutability": "nonpayable",
      "type": "function"
    },
    {
      "inputs": [
        {
          "internalType": "uint256",
          "name": "tokenId",
          "type": "uint256"
        },
        {
          "internalType": "address",
          "name": "user",
          "type": "address"
        },
        {
          "internalType": "uint64",
          "name": "expires",
          "type": "uint64"
        }
      ],
      "name": "setUser",
      "outputs": [],
      "stateMutability": "nonpayable",
      "type": "function"
    },
    {
      "inputs": [
        {
          "internalType": "bytes4",
          "name": "interfaceId",
          "type": "bytes4"
        }
      ],
      "name": "supportsInterface",
      "outputs": [
        {
          "internalType": "bool",
          "name": "",
          "type": "bool"
        }
      ],
      "stateMutability": "view",
      "type": "function"
    },
    {
      "inputs": [],
      "name": "symbol",
      "outputs": [
        {
          "internalType": "string",
          "name": "",
          "type": "string"
        }
      ],
      "stateMutability": "view",
      "type": "function"
    },
    {
      "inputs": [
        {
          "internalType": "uint256",
          "name": "tokenId",
          "type": "uint256"
        }
      ],
      "name": "tokenURI",
      "outputs": [
        {
          "internalType": "string",
          "name": "",
          "type": "string"
        }
      ],
      "stateMutability": "view",
      "type": "function"
    },
    {
      "inputs": [],
      "name": "totalSupply",
      "outputs": [
        {
          "internalType": "uint256",
          "name": "",
          "type": "uint256"
        }
      ],
      "stateMutability": "view",
      "type": "function"
    },
    {
      "inputs": [
        {
          "internalType": "address",
          "name": "from",
          "type": "address"
        },
        {
          "internalType": "address",
          "name": "to",
          "type": "address"
        },
        {
          "internalType": "uint256",
          "name": "tokenId",
          "type": "uint256"
        }
      ],
      "name": "transferFrom",
      "outputs": [],
      "stateMutability": "payable",
      "type": "function"
    },
    {
      "inputs": [
        {
          "internalType": "uint256",
          "name": "tokenId",
          "type": "uint256"
        }
      ],
      "name": "userExpires",
      "outputs": [
        {
          "internalType": "uint256",
          "name": "",
          "type": "uint256"
        }
      ],
      "stateMutability": "view",
      "type": "function"
    },
    {
      "inputs": [
        {
          "internalType": "uint256",
          "name": "tokenId",
          "type": "uint256"
        }
      ],
      "name": "userOf",
      "outputs": [
        {
          "internalType": "address",
          "name": "",
          "type": "address"
        }
      ],
      "stateMutability": "view",
      "type": "function"
    }
  ],
  "bytecode": "0x60806040523480156200001157600080fd5b50604051620013b6380380620013b68339810160408190526200003491620001e6565b8151829082906200004d90600290602085019062000073565b5080516200006390600390602084019062000073565b5060008055506200028d92505050565b828054620000819062000250565b90600052602060002090601f016020900481019282620000a55760008555620000f0565b82601f10620000c057805160ff1916838001178555620000f0565b82800160010185558215620000f0579182015b82811115620000f0578251825591602001919060010190620000d3565b50620000fe92915062000102565b5090565b5b80821115620000fe576000815560010162000103565b634e487b7160e01b600052604160045260246000fd5b600082601f8301126200014157600080fd5b81516001600160401b03808211156200015e576200015e62000119565b604051601f8301601f19908116603f0116810190828211818310171562000189576200018962000119565b81604052838152602092508683858801011115620001a657600080fd5b600091505b83821015620001ca5785820183015181830184015290820190620001ab565b83821115620001dc5760008385830101525b9695505050505050565b60008060408385031215620001fa57600080fd5b82516001600160401b03808211156200021257600080fd5b62000220868387016200012f565b935060208501519150808211156200023757600080fd5b5062000246858286016200012f565b9150509250929050565b600181811c908216806200026557607f821691505b602082108114156200028757634e487b7160e01b600052602260045260246000fd5b50919050565b611119806200029d6000396000f3fe6080604052600436106101445760003560e01c806370a08231116100c0578063c2f1f14a11610074578063e030565e11610059578063e030565e14610362578063e985e9c514610382578063ed195968146103cb57600080fd5b8063c2f1f14a1461030e578063c87b56dd1461034257600080fd5b806395d89b41116100a557806395d89b41146102c6578063a22cb465146102db578063b88d4fde146102fb57600080fd5b806370a08231146102765780638fc88c481461029657600080fd5b806318160ddd1161011757806340c10f19116100fc57806340c10f191461022357806342842e0e146102435780636352211e1461025657600080fd5b806318160ddd146101ed57806323b872dd1461021057600080fd5b806301ffc9a71461014957806306fdde031461017e578063081812fc146101a0578063095ea7b3146101d8575b600080fd5b34801561015557600080fd5b50610169610164366004610d34565b6103eb565b60405190151581526020015b60405180910390f35b34801561018a57600080fd5b506101936103fc565b6040516101759190610da9565b3480156101ac57600080fd5b506101c06101bb366004610dbc565b61048e565b6040516001600160a01b039091168152602001610175565b6101eb6101e6366004610df1565b6104d2565b005b3480156101f957600080fd5b50600154600054035b604051908152602001610175565b6101eb61021e366004610e1b565b61058a565b34801561022f57600080fd5b506101eb61023e366004610df1565b61071b565b6101eb610251366004610e1b565b610729565b34801561026257600080fd5b506101c0610271366004610dbc565b610749565b34801561028257600080fd5b50610202610291366004610e57565b610754565b3480156102a257600080fd5b506102026102b1366004610dbc565b60009081526008602052604090205460a01c90565b3480156102d257600080fd5b506101936107a3565b3480156102e757600080fd5b506101eb6102f6366004610e72565b6107b2565b6101eb610309366004610ec4565b61081e565b34801561031a57600080fd5b506101c0610329366004610dbc565b6000908152600860205260409020544260a01b81110290565b34801561034e57600080fd5b5061019361035d366004610dbc565b610868565b34801561036e57600080fd5b506101eb61037d366004610fa0565b6108fa565b34801561038e57600080fd5b5061016961039d366004610fed565b6001600160a01b03918216600090815260076020908152604080832093909416825291909152205460ff1690565b3480156103d757600080fd5b506101c06103e6366004610dbc565b6109dc565b60006103f6826109f0565b92915050565b60606002805461040b90611020565b80601f016020809104026020016040519081016040528092919081815260200182805461043790611020565b80156104845780601f1061045957610100808354040283529160200191610484565b820191906000526020600020905b81548152906001019060200180831161046757829003601f168201915b5050505050905090565b600061049982610a18565b6104b6576040516333d1c03960e21b815260040160405180910390fd5b506000908152600660205260409020546001600160a01b031690565b60006104dd82610749565b9050336001600160a01b03821614610516576104f9813361039d565b610516576040516367d9dca160e11b815260040160405180910390fd5b60008281526006602052604080822080547fffffffffffffffffffffffff0000000000000000000000000000000000000000166001600160a01b0387811691821790925591518593918516917f8c5be1e5ebec7d5bd14f71427d1e84f3dd0314c0f7b2291e5b200ac8c7c3b92591a4505050565b600061059582610a3f565b9050836001600160a01b0316816001600160a01b0316146105c85760405162a1148160e81b815260040160405180910390fd5b60008281526006602052604090208054338082146001600160a01b03881690911417610615576105f8863361039d565b61061557604051632ce44b5f60e11b815260040160405180910390fd5b6001600160a01b03851661063c57604051633a954ecd60e21b815260040160405180910390fd5b801561064757600082555b6001600160a01b038681166000908152600560205260408082208054600019019055918716808252919020805460010190554260a01b17600160e11b17600085815260046020526040902055600160e11b83166106d257600184016000818152600460205260409020546106d05760005481146106d05760008181526004602052604090208490555b505b83856001600160a01b0316876001600160a01b03167fddf252ad1be2c89b69c2b068fc378daa952ba7f163c4a11628f55a4df523b3ef60405160405180910390a4505050505050565b6107258282610aa0565b5050565b6107448383836040518060200160405280600081525061081e565b505050565b60006103f682610a3f565b60006001600160a01b03821661077d576040516323d3ad8160e21b815260040160405180910390fd5b506001600160a01b031660009081526005602052604090205467ffffffffffffffff1690565b60606003805461040b90611020565b3360008181526007602090815260408083206001600160a01b03871680855290835292819020805460ff191686151590811790915590519081529192917f17307eab39ab6107e8899845ad3d59bd9653f200f220920489ca2b5937696c31910160405180910390a35050565b61082984848461058a565b6001600160a01b0383163b156108625761084584848484610b97565b610862576040516368d2bf6b60e11b815260040160405180910390fd5b50505050565b606061087382610a18565b61089057604051630a14c4b560e41b815260040160405180910390fd5b60006108a760408051602081019091526000815290565b90508051600014156108c857604051806020016040528060008152506108f3565b806108d284610c7f565b6040516020016108e392919061105b565b6040516020818303038152906040525b9392505050565b600061090584610749565b9050336001600160a01b0382161461095657610921813361039d565b610956573361092f8561048e565b6001600160a01b031614610956576040516309e3bb1d60e31b815260040160405180910390fd5b6000848152600860209081526040918290206001600160a01b03861660a086901b7bffffffffffffffff0000000000000000000000000000000000000000168117909155915167ffffffffffffffff8516815286917f4e06b4e7000e659094299b3533b47b6aa8ad048e95e872d23d1f4ee55af89cfe910160405180910390a350505050565b6000818152600860205260408120546103f6565b60006109fb82610ccd565b806103f65750506001600160e01b031916632b424ad760e21b1490565b60008054821080156103f6575050600090815260046020526040902054600160e01b161590565b600081600054811015610a8757600081815260046020526040902054600160e01b8116610a85575b806108f3575060001901600081815260046020526040902054610a67565b505b604051636f96cda160e11b815260040160405180910390fd5b60005481610ac15760405163b562e8dd60e01b815260040160405180910390fd5b6001600160a01b03831660008181526005602090815260408083208054680100000000000000018802019055848352600490915281206001851460e11b4260a01b178317905582840190839083907fddf252ad1be2c89b69c2b068fc378daa952ba7f163c4a11628f55a4df523b3ef8180a4600183015b818114610b7057808360007fddf252ad1be2c89b69c2b068fc378daa952ba7f163c4a11628f55a4df523b3ef600080a4600101610b38565b5081610b8e57604051622e076360e81b815260040160405180910390fd5b60005550505050565b604051630a85bd0160e11b81526000906001600160a01b0385169063150b7a0290610bcc90339089908890889060040161108a565b6020604051808303816000875af1925050508015610c07575060408051601f3d908101601f19168201909252610c04918101906110c6565b60015b610c62573d808015610c35576040519150601f19603f3d011682016040523d82523d6000602084013e610c3a565b606091505b508051610c5a576040516368d2bf6b60e11b815260040160405180910390fd5b805181602001fd5b6001600160e01b031916630a85bd0160e11b149050949350505050565b606060a06040510180604052602081039150506000815280825b600183039250600a81066030018353600a900480610cb657610cbb565b610c99565b50819003601f19909101908152919050565b60006301ffc9a760e01b6001600160e01b031983161480610cfe57506380ac58cd60e01b6001600160e01b03198316145b806103f65750506001600160e01b031916635b5e139f60e01b1490565b6001600160e01b031981168114610d3157600080fd5b50565b600060208284031215610d4657600080fd5b81356108f381610d1b565b60005b83811015610d6c578181015183820152602001610d54565b838111156108625750506000910152565b60008151808452610d95816020860160208601610d51565b601f01601f19169290920160200192915050565b6020815260006108f36020830184610d7d565b600060208284031215610dce57600080fd5b5035919050565b80356001600160a01b0381168114610dec57600080fd5b919050565b60008060408385031215610e0457600080fd5b610e0d83610dd5565b946020939093013593505050565b600080600060608486031215610e3057600080fd5b610e3984610dd5565b9250610e4760208501610dd5565b9150604084013590509250925092565b600060208284031215610e6957600080fd5b6108f382610dd5565b60008060408385031215610e8557600080fd5b610e8e83610dd5565b915060208301358015158114610ea357600080fd5b809150509250929050565b634e487b7160e01b600052604160045260246000fd5b60008060008060808587031215610eda57600080fd5b610ee385610dd5565b9350610ef160208601610dd5565b925060408501359150606085013567ffffffffffffffff80821115610f1557600080fd5b818701915087601f830112610f2957600080fd5b813581811115610f3b57610f3b610eae565b604051601f8201601f19908116603f01168101908382118183101715610f6357610f63610eae565b816040528281528a6020848701011115610f7c57600080fd5b82602086016020830137600060208483010152809550505050505092959194509250565b600080600060608486031215610fb557600080fd5b83359250610fc560208501610dd5565b9150604084013567ffffffffffffffff81168114610fe257600080fd5b809150509250925092565b6000806040838503121561100057600080fd5b61100983610dd5565b915061101760208401610dd5565b90509250929050565b600181811c9082168061103457607f821691505b6020821081141561105557634e487b7160e01b600052602260045260246000fd5b50919050565b6000835161106d818460208801610d51565b835190830190611081818360208801610d51565b01949350505050565b60006001600160a01b038087168352808616602084015250836040830152608060608301526110bc6080830184610d7d565b9695505050505050565b6000602082840312156110d857600080fd5b81516108f381610d1b56fea26469706673582212201e7e72d28e0ced0cc8a2fa99fe3cd085bb644c0976064df45f30d0543b84670e64736f6c634300080b0033",
  "linkReferences": {},
  "deployedLinkReferences": {}
}