{
  "_format": "hh-sol-artifact-1",
  "contractName": "ERC721AWithERC2309Mock",
  "sourceName": "contracts/mocks/ERC721AWithERC2309Mock.sol",
  "abi": [
    {
      "inputs": [
        {
          "internalType": "string",
          "name": "name_",
          "type": "string"
        },
        {
          "internalType": "string",
          "name": "symbol_",
          "type": "string"
        },
        {
          "internalType": "address",
          "name": "to",
          "type": "address"
        },
        {
          "internalType": "uint256",
          "name": "quantity",
          "type": "uint256"
        },
        {
          "internalType": "bool",
          "name": "mintInConstructor",
          "type": "bool"
        }
      ],
      "stateMutability": "nonpayable",
      "type": "constructor"
    },
    {
      "inputs": [],
      "name": "ApprovalCallerNotOwnerNorApproved",
      "type": "error"
    },
    {
      "inputs": [],
      "name": "ApprovalQueryForNonexistentToken",
      "type": "error"
    },
    {
      "inputs": [],
      "name": "BalanceQueryForZeroAddress",
      "type": "error"
    },
    {
      "inputs": [],
      "name": "MintERC2309QuantityExceedsLimit",
      "type": "error"
    },
    {
      "inputs": [],
      "name": "MintToZeroAddress",
      "type": "error"
    },
    {
      "inputs": [],
      "name": "MintZeroQuantity",
      "type": "error"
    },
    {
      "inputs": [],
      "name": "OwnerQueryForNonexistentToken",
      "type": "error"
    },
    {
      "inputs": [],
      "name": "OwnershipNotInitializedForExtraData",
      "type": "error"
    },
    {
      "inputs": [],
      "name": "TransferCallerNotOwnerNorApproved",
      "type": "error"
    },
    {
      "inputs": [],
      "name": "TransferFromIncorrectOwner",
      "type": "error"
    },
    {
      "inputs": [],
      "name": "TransferToNonERC721ReceiverImplementer",
      "type": "error"
    },
    {
      "inputs": [],
      "name": "TransferToZeroAddress",
      "type": "error"
    },
    {
      "inputs": [],
      "name": "URIQueryForNonexistentToken",
      "type": "error"
    },
    {
      "anonymous": false,
      "inputs": [
        {
          "indexed": true,
          "internalType": "address",
          "name": "owner",
          "type": "address"
        },
        {
          "indexed": true,
          "internalType": "address",
          "name": "approved",
          "type": "address"
        },
        {
          "indexed": true,
          "internalType": "uint256",
          "name": "tokenId",
          "type": "uint256"
        }
      ],
      "name": "Approval",
      "type": "event"
    },
    {
      "anonymous": false,
      "inputs": [
        {
          "indexed": true,
          "internalType": "address",
          "name": "owner",
          "type": "address"
        },
        {
          "indexed": true,
          "internalType": "address",
          "name": "operator",
          "type": "address"
        },
        {
          "indexed": false,
          "internalType": "bool",
          "name": "approved",
          "type": "bool"
        }
      ],
      "name": "ApprovalForAll",
      "type": "event"
    },
    {
      "anonymous": false,
      "inputs": [
        {
          "indexed": true,
          "internalType": "uint256",
          "name": "fromTokenId",
          "type": "uint256"
        },
        {
          "indexed": false,
          "internalType": "uint256",
          "name": "toTokenId",
          "type": "uint256"
        },
        {
          "indexed": true,
          "internalType": "address",
          "name": "from",
          "type": "address"
        },
        {
          "indexed": true,
          "internalType": "address",
          "name": "to",
          "type": "address"
        }
      ],
      "name": "ConsecutiveTransfer",
      "type": "event"
    },
    {
      "anonymous": false,
      "inputs": [
        {
          "indexed": true,
          "internalType": "address",
          "name": "from",
          "type": "address"
        },
        {
          "indexed": true,
          "internalType": "address",
          "name": "to",
          "type": "address"
        },
        {
          "indexed": true,
          "internalType": "uint256",
          "name": "tokenId",
          "type": "uint256"
        }
      ],
      "name": "Transfer",
      "type": "event"
    },
    {
      "inputs": [
        {
          "internalType": "address",
          "name": "to",
          "type": "address"
        },
        {
          "internalType": "uint256",
          "name": "tokenId",
          "type": "uint256"
        }
      ],
      "name": "approve",
      "outputs": [],
      "stateMutability": "payable",
      "type": "function"
    },
    {
      "inputs": [
        {
          "internalType": "address",
          "name": "owner",
          "type": "address"
        }
      ],
      "name": "balanceOf",
      "outputs": [
        {
          "internalType": "uint256",
          "name": "",
          "type": "uint256"
        }
      ],
      "stateMutability": "view",
      "type": "function"
    },
    {
      "inputs": [
        {
          "internalType": "uint256",
          "name": "tokenId",
          "type": "uint256"
        }
      ],
      "name": "getApproved",
      "outputs": [
        {
          "internalType": "address",
          "name": "",
          "type": "address"
        }
      ],
      "stateMutability": "view",
      "type": "function"
    },
    {
      "inputs": [
        {
          "internalType": "address",
          "name": "owner",
          "type": "address"
        },
        {
          "internalType": "address",
          "name": "operator",
          "type": "address"
        }
      ],
      "name": "isApprovedForAll",
      "outputs": [
        {
          "internalType": "bool",
          "name": "",
          "type": "bool"
        }
      ],
      "stateMutability": "view",
      "type": "function"
    },
    {
      "inputs": [
        {
          "internalType": "address",
          "name": "to",
          "type": "address"
        }
      ],
      "name": "mintOneERC2309",
      "outputs": [],
      "stateMutability": "nonpayable",
      "type": "function"
    },
    {
      "inputs": [
        {
          "internalType": "address",
          "name": "to",
          "type": "address"
        }
      ],
      "name": "mintTenERC2309",
      "outputs": [],
      "stateMutability": "nonpayable",
      "type": "function"
    },
    {
      "inputs": [],
      "name": "name",
      "outputs": [
        {
          "internalType": "string",
          "name": "",
          "type": "string"
        }
      ],
      "stateMutability": "view",
      "type": "function"
    },
    {
      "inputs": [
        {
          "internalType": "uint256",
          "name": "tokenId",
          "type": "uint256"
        }
      ],
      "name": "ownerOf",
      "outputs": [
        {
          "internalType": "address",
          "name": "",
          "type": "address"
        }
      ],
      "stateMutability": "view",
      "type": "function"
    },
    {
      "inputs": [
        {
          "internalType": "address",
          "name": "from",
          "type": "address"
        },
        {
          "internalType": "address",
          "name": "to",
          "type": "address"
        },
        {
          "internalType": "uint256",
          "name": "tokenId",
          "type": "uint256"
        }
      ],
      "name": "safeTransferFrom",
      "outputs": [],
      "stateMutability": "payable",
      "type": "function"
    },
    {
      "inputs": [
        {
          "internalType": "address",
          "name": "from",
          "type": "address"
        },
        {
          "internalType": "address",
          "name": "to",
          "type": "address"
        },
        {
          "internalType": "uint256",
          "name": "tokenId",
          "type": "uint256"
        },
        {
          "internalType": "bytes",
          "name": "_data",
          "type": "bytes"
        }
      ],
      "name": "safeTransferFrom",
      "outputs": [],
      "stateMutability": "payable",
      "type": "function"
    },
    {
      "inputs": [
        {
          "internalType": "address",
          "name": "operator",
          "type": "address"
        },
        {
          "internalType": "bool",
          "name": "approved",
          "type": "bool"
        }
      ],
      "name": "setApprovalForAll",
      "outputs": [],
      "stateMutability": "nonpayable",
      "type": "function"
    },
    {
      "inputs": [
        {
          "internalType": "bytes4",
          "name": "interfaceId",
          "type": "bytes4"
        }
      ],
      "name": "supportsInterface",
      "outputs": [
        {
          "internalType": "bool",
          "name": "",
          "type": "bool"
        }
      ],
      "stateMutability": "view",
      "type": "function"
    },
    {
      "inputs": [],
      "name": "symbol",
      "outputs": [
        {
          "internalType": "string",
          "name": "",
          "type": "string"
        }
      ],
      "stateMutability": "view",
      "type": "function"
    },
    {
      "inputs": [
        {
          "internalType": "uint256",
          "name": "tokenId",
          "type": "uint256"
        }
      ],
      "name": "tokenURI",
      "outputs": [
        {
          "internalType": "string",
          "name": "",
          "type": "string"
        }
      ],
      "stateMutability": "view",
      "type": "function"
    },
    {
      "inputs": [],
      "name": "totalSupply",
      "outputs": [
        {
          "internalType": "uint256",
          "name": "",
          "type": "uint256"
        }
      ],
      "stateMutability": "view",
      "type": "function"
    },
    {
      "inputs": [
        {
          "internalType": "address",
          "name": "from",
          "type": "address"
        },
        {
          "internalType": "address",
          "name": "to",
          "type": "address"
        },
        {
          "internalType": "uint256",
          "name": "tokenId",
          "type": "uint256"
        }
      ],
      "name": "transferFrom",
      "outputs": [],
      "stateMutability": "payable",
      "type": "function"
    }
  ],
  "bytecode": "0x60806040523480156200001157600080fd5b50604051620012b5380380620012b58339810160408190526200003491620002ec565b8451859085906200004d90600290602085019062000179565b5080516200006390600390602084019062000179565b5060008055505080156200007d576200007d838362000088565b5050505050620003da565b6000546001600160a01b038316620000b257604051622e076360e81b815260040160405180910390fd5b81620000d15760405163b562e8dd60e01b815260040160405180910390fd5b611388821115620000f557604051633db1f9af60e01b815260040160405180910390fd5b6001600160a01b03831660008181526005602090815260408083208054680100000000000000018802019055848352600482528083206001871460e11b4260a01b17851790558051600019868801018152905185927fdeaa91b6123d068f5821d0fb0678463d1a8a6079fe8af5de3ce5e896dcf9133d928290030190a40160005550565b82805462000187906200039d565b90600052602060002090601f016020900481019282620001ab5760008555620001f6565b82601f10620001c657805160ff1916838001178555620001f6565b82800160010185558215620001f6579182015b82811115620001f6578251825591602001919060010190620001d9565b506200020492915062000208565b5090565b5b8082111562000204576000815560010162000209565b634e487b7160e01b600052604160045260246000fd5b600082601f8301126200024757600080fd5b81516001600160401b03808211156200026457620002646200021f565b604051601f8301601f19908116603f011681019082821181831017156200028f576200028f6200021f565b81604052838152602092508683858801011115620002ac57600080fd5b600091505b83821015620002d05785820183015181830184015290820190620002b1565b83821115620002e25760008385830101525b9695505050505050565b600080600080600060a086880312156200030557600080fd5b85516001600160401b03808211156200031d57600080fd5b6200032b89838a0162000235565b965060208801519150808211156200034257600080fd5b50620003518882890162000235565b604088015190955090506001600160a01b03811681146200037157600080fd5b60608701516080880151919450925080151581146200038f57600080fd5b809150509295509295909350565b600181811c90821680620003b257607f821691505b60208210811415620003d457634e487b7160e01b600052602260045260246000fd5b50919050565b610ecb80620003ea6000396000f3fe6080604052600436106100f35760003560e01c806370a082311161008a578063ad46468f11610059578063ad46468f1461027a578063b88d4fde1461029a578063c87b56dd146102ad578063e985e9c5146102cd57600080fd5b806370a082311461020557806394cfadd71461022557806395d89b4114610245578063a22cb4651461025a57600080fd5b806318160ddd116100c657806318160ddd1461019c57806323b872dd146101bf57806342842e0e146101d25780636352211e146101e557600080fd5b806301ffc9a7146100f857806306fdde031461012d578063081812fc1461014f578063095ea7b314610187575b600080fd5b34801561010457600080fd5b50610118610113366004610b33565b610316565b60405190151581526020015b60405180910390f35b34801561013957600080fd5b50610142610368565b6040516101249190610ba8565b34801561015b57600080fd5b5061016f61016a366004610bbb565b6103fa565b6040516001600160a01b039091168152602001610124565b61019a610195366004610bf0565b61043e565b005b3480156101a857600080fd5b50600154600054035b604051908152602001610124565b61019a6101cd366004610c1a565b6104f6565b61019a6101e0366004610c1a565b610687565b3480156101f157600080fd5b5061016f610200366004610bbb565b6106a7565b34801561021157600080fd5b506101b1610220366004610c56565b6106b2565b34801561023157600080fd5b5061019a610240366004610c56565b610701565b34801561025157600080fd5b5061014261070f565b34801561026657600080fd5b5061019a610275366004610c71565b61071e565b34801561028657600080fd5b5061019a610295366004610c56565b61078a565b61019a6102a8366004610cc3565b610795565b3480156102b957600080fd5b506101426102c8366004610bbb565b6107df565b3480156102d957600080fd5b506101186102e8366004610d9f565b6001600160a01b03918216600090815260076020908152604080832093909416825291909152205460ff1690565b60006301ffc9a760e01b6001600160e01b03198316148061034757506380ac58cd60e01b6001600160e01b03198316145b806103625750635b5e139f60e01b6001600160e01b03198316145b92915050565b60606002805461037790610dd2565b80601f01602080910402602001604051908101604052809291908181526020018280546103a390610dd2565b80156103f05780601f106103c5576101008083540402835291602001916103f0565b820191906000526020600020905b8154815290600101906020018083116103d357829003601f168201915b5050505050905090565b600061040582610871565b610422576040516333d1c03960e21b815260040160405180910390fd5b506000908152600660205260409020546001600160a01b031690565b6000610449826106a7565b9050336001600160a01b038216146104825761046581336102e8565b610482576040516367d9dca160e11b815260040160405180910390fd5b60008281526006602052604080822080547fffffffffffffffffffffffff0000000000000000000000000000000000000000166001600160a01b0387811691821790925591518593918516917f8c5be1e5ebec7d5bd14f71427d1e84f3dd0314c0f7b2291e5b200ac8c7c3b92591a4505050565b600061050182610898565b9050836001600160a01b0316816001600160a01b0316146105345760405162a1148160e81b815260040160405180910390fd5b60008281526006602052604090208054338082146001600160a01b038816909114176105815761056486336102e8565b61058157604051632ce44b5f60e11b815260040160405180910390fd5b6001600160a01b0385166105a857604051633a954ecd60e21b815260040160405180910390fd5b80156105b357600082555b6001600160a01b038681166000908152600560205260408082208054600019019055918716808252919020805460010190554260a01b17600160e11b17600085815260046020526040902055600160e11b831661063e576001840160008181526004602052604090205461063c57600054811461063c5760008181526004602052604090208490555b505b83856001600160a01b0316876001600160a01b03167fddf252ad1be2c89b69c2b068fc378daa952ba7f163c4a11628f55a4df523b3ef60405160405180910390a4505050505050565b6106a283838360405180602001604052806000815250610795565b505050565b600061036282610898565b60006001600160a01b0382166106db576040516323d3ad8160e21b815260040160405180910390fd5b506001600160a01b031660009081526005602052604090205467ffffffffffffffff1690565b61070c8160016108f9565b50565b60606003805461037790610dd2565b3360008181526007602090815260408083206001600160a01b03871680855290835292819020805460ff191686151590811790915590519081529192917f17307eab39ab6107e8899845ad3d59bd9653f200f220920489ca2b5937696c31910160405180910390a35050565b61070c81600a6108f9565b6107a08484846104f6565b6001600160a01b0383163b156107d9576107bc848484846109e7565b6107d9576040516368d2bf6b60e11b815260040160405180910390fd5b50505050565b60606107ea82610871565b61080757604051630a14c4b560e41b815260040160405180910390fd5b600061081e60408051602081019091526000815290565b905080516000141561083f576040518060200160405280600081525061086a565b8061084984610acf565b60405160200161085a929190610e0d565b6040516020818303038152906040525b9392505050565b6000805482108015610362575050600090815260046020526040902054600160e01b161590565b6000816000548110156108e057600081815260046020526040902054600160e01b81166108de575b8061086a5750600019016000818152600460205260409020546108c0565b505b604051636f96cda160e11b815260040160405180910390fd5b6000546001600160a01b03831661092257604051622e076360e81b815260040160405180910390fd5b816109405760405163b562e8dd60e01b815260040160405180910390fd5b61138882111561096357604051633db1f9af60e01b815260040160405180910390fd5b6001600160a01b03831660008181526005602090815260408083208054680100000000000000018802019055848352600482528083206001871460e11b4260a01b17851790558051600019868801018152905185927fdeaa91b6123d068f5821d0fb0678463d1a8a6079fe8af5de3ce5e896dcf9133d928290030190a40160005550565b604051630a85bd0160e11b81526000906001600160a01b0385169063150b7a0290610a1c903390899088908890600401610e3c565b6020604051808303816000875af1925050508015610a57575060408051601f3d908101601f19168201909252610a5491810190610e78565b60015b610ab2573d808015610a85576040519150601f19603f3d011682016040523d82523d6000602084013e610a8a565b606091505b508051610aaa576040516368d2bf6b60e11b815260040160405180910390fd5b805181602001fd5b6001600160e01b031916630a85bd0160e11b149050949350505050565b606060a06040510180604052602081039150506000815280825b600183039250600a81066030018353600a900480610b0657610b0b565b610ae9565b50819003601f19909101908152919050565b6001600160e01b03198116811461070c57600080fd5b600060208284031215610b4557600080fd5b813561086a81610b1d565b60005b83811015610b6b578181015183820152602001610b53565b838111156107d95750506000910152565b60008151808452610b94816020860160208601610b50565b601f01601f19169290920160200192915050565b60208152600061086a6020830184610b7c565b600060208284031215610bcd57600080fd5b5035919050565b80356001600160a01b0381168114610beb57600080fd5b919050565b60008060408385031215610c0357600080fd5b610c0c83610bd4565b946020939093013593505050565b600080600060608486031215610c2f57600080fd5b610c3884610bd4565b9250610c4660208501610bd4565b9150604084013590509250925092565b600060208284031215610c6857600080fd5b61086a82610bd4565b60008060408385031215610c8457600080fd5b610c8d83610bd4565b915060208301358015158114610ca257600080fd5b809150509250929050565b634e487b7160e01b600052604160045260246000fd5b60008060008060808587031215610cd957600080fd5b610ce285610bd4565b9350610cf060208601610bd4565b925060408501359150606085013567ffffffffffffffff80821115610d1457600080fd5b818701915087601f830112610d2857600080fd5b813581811115610d3a57610d3a610cad565b604051601f8201601f19908116603f01168101908382118183101715610d6257610d62610cad565b816040528281528a6020848701011115610d7b57600080fd5b82602086016020830137600060208483010152809550505050505092959194509250565b60008060408385031215610db257600080fd5b610dbb83610bd4565b9150610dc960208401610bd4565b90509250929050565b600181811c90821680610de657607f821691505b60208210811415610e0757634e487b7160e01b600052602260045260246000fd5b50919050565b60008351610e1f818460208801610b50565b835190830190610e33818360208801610b50565b01949350505050565b60006001600160a01b03808716835280861660208401525083604083015260806060830152610e6e6080830184610b7c565b9695505050505050565b600060208284031215610e8a57600080fd5b815161086a81610b1d56fea2646970667358221220376a64f3583597eb4f6196b9028e53542712d96c48aef772637175cbfdc0672a64736f6c634300080b0033",
  "linkReferences": {},
  "deployedLinkReferences": {}
}