{
  "_format": "hh-sol-artifact-1",
  "contractName": "ERC721AMock",
  "sourceName": "contracts/mocks/ERC721AMock.sol",
  "abi": [
    {
      "inputs": [
        {
          "internalType": "string",
          "name": "name_",
          "type": "string"
        },
        {
          "internalType": "string",
          "name": "symbol_",
          "type": "string"
        }
      ],
      "stateMutability": "nonpayable",
      "type": "constructor"
    },
    {
      "inputs": [],
      "name": "ApprovalCallerNotOwnerNorApproved",
      "type": "error"
    },
    {
      "inputs": [],
      "name": "ApprovalQueryForNonexistentToken",
      "type": "error"
    },
    {
      "inputs": [],
      "name": "BalanceQueryForZeroAddress",
      "type": "error"
    },
    {
      "inputs": [],
      "name": "MintERC2309QuantityExceedsLimit",
      "type": "error"
    },
    {
      "inputs": [],
      "name": "MintToZeroAddress",
      "type": "error"
    },
    {
      "inputs": [],
      "name": "MintZeroQuantity",
      "type": "error"
    },
    {
      "inputs": [],
      "name": "OwnerQueryForNonexistentToken",
      "type": "error"
    },
    {
      "inputs": [],
      "name": "OwnershipNotInitializedForExtraData",
      "type": "error"
    },
    {
      "inputs": [],
      "name": "TransferCallerNotOwnerNorApproved",
      "type": "error"
    },
    {
      "inputs": [],
      "name": "TransferFromIncorrectOwner",
      "type": "error"
    },
    {
      "inputs": [],
      "name": "TransferToNonERC721ReceiverImplementer",
      "type": "error"
    },
    {
      "inputs": [],
      "name": "TransferToZeroAddress",
      "type": "error"
    },
    {
      "inputs": [],
      "name": "URIQueryForNonexistentToken",
      "type": "error"
    },
    {
      "anonymous": false,
      "inputs": [
        {
          "indexed": true,
          "internalType": "address",
          "name": "owner",
          "type": "address"
        },
        {
          "indexed": true,
          "internalType": "address",
          "name": "approved",
          "type": "address"
        },
        {
          "indexed": true,
          "internalType": "uint256",
          "name": "tokenId",
          "type": "uint256"
        }
      ],
      "name": "Approval",
      "type": "event"
    },
    {
      "anonymous": false,
      "inputs": [
        {
          "indexed": true,
          "internalType": "address",
          "name": "owner",
          "type": "address"
        },
        {
          "indexed": true,
          "internalType": "address",
          "name": "operator",
          "type": "address"
        },
        {
          "indexed": false,
          "internalType": "bool",
          "name": "approved",
          "type": "bool"
        }
      ],
      "name": "ApprovalForAll",
      "type": "event"
    },
    {
      "anonymous": false,
      "inputs": [
        {
          "indexed": true,
          "internalType": "uint256",
          "name": "fromTokenId",
          "type": "uint256"
        },
        {
          "indexed": false,
          "internalType": "uint256",
          "name": "toTokenId",
          "type": "uint256"
        },
        {
          "indexed": true,
          "internalType": "address",
          "name": "from",
          "type": "address"
        },
        {
          "indexed": true,
          "internalType": "address",
          "name": "to",
          "type": "address"
        }
      ],
      "name": "ConsecutiveTransfer",
      "type": "event"
    },
    {
      "anonymous": false,
      "inputs": [
        {
          "indexed": true,
          "internalType": "address",
          "name": "from",
          "type": "address"
        },
        {
          "indexed": true,
          "internalType": "address",
          "name": "to",
          "type": "address"
        },
        {
          "indexed": true,
          "internalType": "uint256",
          "name": "tokenId",
          "type": "uint256"
        }
      ],
      "name": "Transfer",
      "type": "event"
    },
    {
      "inputs": [
        {
          "internalType": "address",
          "name": "to",
          "type": "address"
        },
        {
          "internalType": "uint256",
          "name": "tokenId",
          "type": "uint256"
        }
      ],
      "name": "approve",
      "outputs": [],
      "stateMutability": "payable",
      "type": "function"
    },
    {
      "inputs": [
        {
          "internalType": "address",
          "name": "owner",
          "type": "address"
        }
      ],
      "name": "balanceOf",
      "outputs": [
        {
          "internalType": "uint256",
          "name": "",
          "type": "uint256"
        }
      ],
      "stateMutability": "view",
      "type": "function"
    },
    {
      "inputs": [],
      "name": "baseURI",
      "outputs": [
        {
          "internalType": "string",
          "name": "",
          "type": "string"
        }
      ],
      "stateMutability": "view",
      "type": "function"
    },
    {
      "inputs": [
        {
          "internalType": "uint256",
          "name": "tokenId",
          "type": "uint256"
        }
      ],
      "name": "burn",
      "outputs": [],
      "stateMutability": "nonpayable",
      "type": "function"
    },
    {
      "inputs": [
        {
          "internalType": "uint256",
          "name": "tokenId",
          "type": "uint256"
        },
        {
          "internalType": "bool",
          "name": "approvalCheck",
          "type": "bool"
        }
      ],
      "name": "burn",
      "outputs": [],
      "stateMutability": "nonpayable",
      "type": "function"
    },
    {
      "inputs": [
        {
          "internalType": "uint256",
          "name": "tokenId",
          "type": "uint256"
        }
      ],
      "name": "exists",
      "outputs": [
        {
          "internalType": "bool",
          "name": "",
          "type": "bool"
        }
      ],
      "stateMutability": "view",
      "type": "function"
    },
    {
      "inputs": [
        {
          "internalType": "uint256",
          "name": "tokenId",
          "type": "uint256"
        }
      ],
      "name": "getApproved",
      "outputs": [
        {
          "internalType": "address",
          "name": "",
          "type": "address"
        }
      ],
      "stateMutability": "view",
      "type": "function"
    },
    {
      "inputs": [
        {
          "internalType": "address",
          "name": "owner",
          "type": "address"
        }
      ],
      "name": "getAux",
      "outputs": [
        {
          "internalType": "uint64",
          "name": "",
          "type": "uint64"
        }
      ],
      "stateMutability": "view",
      "type": "function"
    },
    {
      "inputs": [
        {
          "internalType": "uint256",
          "name": "index",
          "type": "uint256"
        }
      ],
      "name": "getOwnershipAt",
      "outputs": [
        {
          "components": [
            {
              "internalType": "address",
              "name": "addr",
              "type": "address"
            },
            {
              "internalType": "uint64",
              "name": "startTimestamp",
              "type": "uint64"
            },
            {
              "internalType": "bool",
              "name": "burned",
              "type": "bool"
            },
            {
              "internalType": "uint24",
              "name": "extraData",
              "type": "uint24"
            }
          ],
          "internalType": "struct IERC721A.TokenOwnership",
          "name": "",
          "type": "tuple"
        }
      ],
      "stateMutability": "view",
      "type": "function"
    },
    {
      "inputs": [
        {
          "internalType": "uint256",
          "name": "index",
          "type": "uint256"
        }
      ],
      "name": "getOwnershipOf",
      "outputs": [
        {
          "components": [
            {
              "internalType": "address",
              "name": "addr",
              "type": "address"
            },
            {
              "internalType": "uint64",
              "name": "startTimestamp",
              "type": "uint64"
            },
            {
              "internalType": "bool",
              "name": "burned",
              "type": "bool"
            },
            {
              "internalType": "uint24",
              "name": "extraData",
              "type": "uint24"
            }
          ],
          "internalType": "struct IERC721A.TokenOwnership",
          "name": "",
          "type": "tuple"
        }
      ],
      "stateMutability": "view",
      "type": "function"
    },
    {
      "inputs": [
        {
          "internalType": "uint256",
          "name": "index",
          "type": "uint256"
        }
      ],
      "name": "initializeOwnershipAt",
      "outputs": [],
      "stateMutability": "nonpayable",
      "type": "function"
    },
    {
      "inputs": [
        {
          "internalType": "address",
          "name": "owner",
          "type": "address"
        },
        {
          "internalType": "address",
          "name": "operator",
          "type": "address"
        }
      ],
      "name": "isApprovedForAll",
      "outputs": [
        {
          "internalType": "bool",
          "name": "",
          "type": "bool"
        }
      ],
      "stateMutability": "view",
      "type": "function"
    },
    {
      "inputs": [
        {
          "internalType": "address",
          "name": "to",
          "type": "address"
        },
        {
          "internalType": "uint256",
          "name": "quantity",
          "type": "uint256"
        }
      ],
      "name": "mint",
      "outputs": [],
      "stateMutability": "nonpayable",
      "type": "function"
    },
    {
      "inputs": [],
      "name": "name",
      "outputs": [
        {
          "internalType": "string",
          "name": "",
          "type": "string"
        }
      ],
      "stateMutability": "view",
      "type": "function"
    },
    {
      "inputs": [],
      "name": "nextTokenId",
      "outputs": [
        {
          "internalType": "uint256",
          "name": "",
          "type": "uint256"
        }
      ],
      "stateMutability": "view",
      "type": "function"
    },
    {
      "inputs": [
        {
          "internalType": "address",
          "name": "owner",
          "type": "address"
        }
      ],
      "name": "numberMinted",
      "outputs": [
        {
          "internalType": "uint256",
          "name": "",
          "type": "uint256"
        }
      ],
      "stateMutability": "view",
      "type": "function"
    },
    {
      "inputs": [
        {
          "internalType": "uint256",
          "name": "tokenId",
          "type": "uint256"
        }
      ],
      "name": "ownerOf",
      "outputs": [
        {
          "internalType": "address",
          "name": "",
          "type": "address"
        }
      ],
      "stateMutability": "view",
      "type": "function"
    },
    {
      "inputs": [
        {
          "internalType": "address",
          "name": "to",
          "type": "address"
        },
        {
          "internalType": "uint256",
          "name": "quantity",
          "type": "uint256"
        },
        {
          "internalType": "bytes",
          "name": "_data",
          "type": "bytes"
        }
      ],
      "name": "safeMint",
      "outputs": [],
      "stateMutability": "nonpayable",
      "type": "function"
    },
    {
      "inputs": [
        {
          "internalType": "address",
          "name": "to",
          "type": "address"
        },
        {
          "internalType": "uint256",
          "name": "quantity",
          "type": "uint256"
        }
      ],
      "name": "safeMint",
      "outputs": [],
      "stateMutability": "nonpayable",
      "type": "function"
    },
    {
      "inputs": [
        {
          "internalType": "address",
          "name": "from",
          "type": "address"
        },
        {
          "internalType": "address",
          "name": "to",
          "type": "address"
        },
        {
          "internalType": "uint256",
          "name": "tokenId",
          "type": "uint256"
        }
      ],
      "name": "safeTransferFrom",
      "outputs": [],
      "stateMutability": "payable",
      "type": "function"
    },
    {
      "inputs": [
        {
          "internalType": "address",
          "name": "from",
          "type": "address"
        },
        {
          "internalType": "address",
          "name": "to",
          "type": "address"
        },
        {
          "internalType": "uint256",
          "name": "tokenId",
          "type": "uint256"
        },
        {
          "internalType": "bytes",
          "name": "_data",
          "type": "bytes"
        }
      ],
      "name": "safeTransferFrom",
      "outputs": [],
      "stateMutability": "payable",
      "type": "function"
    },
    {
      "inputs": [
        {
          "internalType": "address",
          "name": "operator",
          "type": "address"
        },
        {
          "internalType": "bool",
          "name": "approved",
          "type": "bool"
        }
      ],
      "name": "setApprovalForAll",
      "outputs": [],
      "stateMutability": "nonpayable",
      "type": "function"
    },
    {
      "inputs": [
        {
          "internalType": "address",
          "name": "owner",
          "type": "address"
        },
        {
          "internalType": "uint64",
          "name": "aux",
          "type": "uint64"
        }
      ],
      "name": "setAux",
      "outputs": [],
      "stateMutability": "nonpayable",
      "type": "function"
    },
    {
      "inputs": [
        {
          "internalType": "bytes4",
          "name": "interfaceId",
          "type": "bytes4"
        }
      ],
      "name": "supportsInterface",
      "outputs": [
        {
          "internalType": "bool",
          "name": "",
          "type": "bool"
        }
      ],
      "stateMutability": "view",
      "type": "function"
    },
    {
      "inputs": [],
      "name": "symbol",
      "outputs": [
        {
          "internalType": "string",
          "name": "",
          "type": "string"
        }
      ],
      "stateMutability": "view",
      "type": "function"
    },
    {
      "inputs": [
        {
          "internalType": "uint256",
          "name": "x",
          "type": "uint256"
        }
      ],
      "name": "toString",
      "outputs": [
        {
          "internalType": "string",
          "name": "",
          "type": "string"
        }
      ],
      "stateMutability": "pure",
      "type": "function"
    },
    {
      "inputs": [
        {
          "internalType": "uint256",
          "name": "tokenId",
          "type": "uint256"
        }
      ],
      "name": "tokenURI",
      "outputs": [
        {
          "internalType": "string",
          "name": "",
          "type": "string"
        }
      ],
      "stateMutability": "view",
      "type": "function"
    },
    {
      "inputs": [],
      "name": "totalBurned",
      "outputs": [
        {
          "internalType": "uint256",
          "name": "",
          "type": "uint256"
        }
      ],
      "stateMutability": "view",
      "type": "function"
    },
    {
      "inputs": [],
      "name": "totalMinted",
      "outputs": [
        {
          "internalType": "uint256",
          "name": "",
          "type": "uint256"
        }
      ],
      "stateMutability": "view",
      "type": "function"
    },
    {
      "inputs": [],
      "name": "totalSupply",
      "outputs": [
        {
          "internalType": "uint256",
          "name": "",
          "type": "uint256"
        }
      ],
      "stateMutability": "view",
      "type": "function"
    },
    {
      "inputs": [
        {
          "internalType": "address",
          "name": "from",
          "type": "address"
        },
        {
          "internalType": "address",
          "name": "to",
          "type": "address"
        },
        {
          "internalType": "uint256",
          "name": "tokenId",
          "type": "uint256"
        }
      ],
      "name": "transferFrom",
      "outputs": [],
      "stateMutability": "payable",
      "type": "function"
    }
  ],
  "bytecode": "0x60806040523480156200001157600080fd5b5060405162001978380380620019788339810160408190526200003491620001e6565b8151829082906200004d90600290602085019062000073565b5080516200006390600390602084019062000073565b5060008055506200028d92505050565b828054620000819062000250565b90600052602060002090601f016020900481019282620000a55760008555620000f0565b82601f10620000c057805160ff1916838001178555620000f0565b82800160010185558215620000f0579182015b82811115620000f0578251825591602001919060010190620000d3565b50620000fe92915062000102565b5090565b5b80821115620000fe576000815560010162000103565b634e487b7160e01b600052604160045260246000fd5b600082601f8301126200014157600080fd5b81516001600160401b03808211156200015e576200015e62000119565b604051601f8301601f19908116603f0116810190828211818310171562000189576200018962000119565b81604052838152602092508683858801011115620001a657600080fd5b600091505b83821015620001ca5785820183015181830184015290820190620001ab565b83821115620001dc5760008385830101525b9695505050505050565b60008060408385031215620001fa57600080fd5b82516001600160401b03808211156200021257600080fd5b62000220868387016200012f565b935060208501519150808211156200023757600080fd5b5062000246858286016200012f565b9150509250929050565b600181811c908216806200026557607f821691505b602082108114156200028757634e487b7160e01b600052602260045260246000fd5b50919050565b6116db806200029d6000396000f3fe6080604052600436106101d85760003560e01c80636c0360eb11610102578063a2309ff811610095578063d89135cd11610064578063d89135cd1461059f578063dc33e681146105b4578063e985e9c5146105d4578063f25236331461061d57600080fd5b8063a2309ff814610489578063b88d4fde14610533578063bf0b175e14610546578063c87b56dd1461057f57600080fd5b806395d89b41116100d157806395d89b41146104be5780639fac68cb146104d3578063a1448194146104f3578063a22cb4651461051357600080fd5b80636c0360eb1461045457806370a082311461046957806375794a3c146104895780638832e6e31461049e57600080fd5b806342842e0e1161017a57806352d8a4d11161014957806352d8a4d11461038757806353b1233d146103f45780636352211e146104145780636900a3ae1461043457600080fd5b806342842e0e146102d757806342966c68146102ea578063453ab1411461030a5780634f558e791461036757600080fd5b8063095ea7b3116101b6578063095ea7b31461026c57806318160ddd1461028157806323b872dd146102a457806340c10f19146102b757600080fd5b806301ffc9a7146101dd57806306fdde0314610212578063081812fc14610234575b600080fd5b3480156101e957600080fd5b506101fd6101f836600461126e565b61063d565b60405190151581526020015b60405180910390f35b34801561021e57600080fd5b5061022761068f565b60405161020991906112e3565b34801561024057600080fd5b5061025461024f3660046112f6565b610721565b6040516001600160a01b039091168152602001610209565b61027f61027a36600461132b565b610765565b005b34801561028d57600080fd5b50600154600054035b604051908152602001610209565b61027f6102b2366004611355565b61081d565b3480156102c357600080fd5b5061027f6102d236600461132b565b6109b8565b61027f6102e5366004611355565b6109c6565b3480156102f657600080fd5b5061027f6103053660046112f6565b6109e6565b34801561031657600080fd5b5061027f610325366004611391565b6001600160a01b0382166000908152600560205260409020805460c083901b77ffffffffffffffffffffffffffffffffffffffffffffffff9091161790555050565b34801561037357600080fd5b506101fd6103823660046112f6565b6109f2565b34801561039357600080fd5b506103a76103a23660046112f6565b6109fd565b604051610209919081516001600160a01b0316815260208083015167ffffffffffffffff169082015260408083015115159082015260609182015162ffffff169181019190915260800190565b34801561040057600080fd5b5061027f61040f3660046112f6565b610a2a565b34801561042057600080fd5b5061025461042f3660046112f6565b610a33565b34801561044057600080fd5b5061022761044f3660046112f6565b610a3e565b34801561046057600080fd5b50610227610a49565b34801561047557600080fd5b506102966104843660046113d5565b610a65565b34801561049557600080fd5b50600054610296565b3480156104aa57600080fd5b5061027f6104b9366004611493565b610ab4565b3480156104ca57600080fd5b50610227610abf565b3480156104df57600080fd5b5061027f6104ee3660046114fa565b610ace565b3480156104ff57600080fd5b5061027f61050e36600461132b565b610ad8565b34801561051f57600080fd5b5061027f61052e366004611526565b610ae2565b61027f610541366004611550565b610b4e565b34801561055257600080fd5b506105666105613660046113d5565b610b98565b60405167ffffffffffffffff9091168152602001610209565b34801561058b57600080fd5b5061022761059a3660046112f6565b610bb9565b3480156105ab57600080fd5b50610296610c4b565b3480156105c057600080fd5b506102966105cf3660046113d5565b610c56565b3480156105e057600080fd5b506101fd6105ef3660046115b8565b6001600160a01b03918216600090815260076020908152604080832093909416825291909152205460ff1690565b34801561062957600080fd5b506103a76106383660046112f6565b610c81565b60006301ffc9a760e01b6001600160e01b03198316148061066e57506380ac58cd60e01b6001600160e01b03198316145b806106895750635b5e139f60e01b6001600160e01b03198316145b92915050565b60606002805461069e906115e2565b80601f01602080910402602001604051908101604052809291908181526020018280546106ca906115e2565b80156107175780601f106106ec57610100808354040283529160200191610717565b820191906000526020600020905b8154815290600101906020018083116106fa57829003601f168201915b5050505050905090565b600061072c82610d28565b610749576040516333d1c03960e21b815260040160405180910390fd5b506000908152600660205260409020546001600160a01b031690565b600061077082610a33565b9050336001600160a01b038216146107a95761078c81336105ef565b6107a9576040516367d9dca160e11b815260040160405180910390fd5b60008281526006602052604080822080547fffffffffffffffffffffffff0000000000000000000000000000000000000000166001600160a01b0387811691821790925591518593918516917f8c5be1e5ebec7d5bd14f71427d1e84f3dd0314c0f7b2291e5b200ac8c7c3b92591a4505050565b600061082882610d4f565b9050836001600160a01b0316816001600160a01b03161461085b5760405162a1148160e81b815260040160405180910390fd5b600082815260066020526040902080546108878187335b6001600160a01b039081169116811491141790565b6108b25761089586336105ef565b6108b257604051632ce44b5f60e11b815260040160405180910390fd5b6001600160a01b0385166108d957604051633a954ecd60e21b815260040160405180910390fd5b80156108e457600082555b6001600160a01b038681166000908152600560205260408082208054600019019055918716808252919020805460010190554260a01b17600160e11b17600085815260046020526040902055600160e11b831661096f576001840160008181526004602052604090205461096d57600054811461096d5760008181526004602052604090208490555b505b83856001600160a01b0316876001600160a01b03167fddf252ad1be2c89b69c2b068fc378daa952ba7f163c4a11628f55a4df523b3ef60405160405180910390a4505050505050565b6109c28282610db0565b5050565b6109e183838360405180602001604052806000815250610b4e565b505050565b6109ef81610ea7565b50565b600061068982610d28565b60408051608081018252600080825260208201819052918101829052606081019190915261068982610eb2565b6109ef81610f2a565b600061068982610d4f565b606061068982610f58565b6060610a6060408051602081019091526000815290565b905090565b60006001600160a01b038216610a8e576040516323d3ad8160e21b815260040160405180910390fd5b506001600160a01b031660009081526005602052604090205467ffffffffffffffff1690565b6109e1838383610fa6565b60606003805461069e906115e2565b6109c28282611013565b6109c28282611156565b3360008181526007602090815260408083206001600160a01b03871680855290835292819020805460ff191686151590811790915590519081529192917f17307eab39ab6107e8899845ad3d59bd9653f200f220920489ca2b5937696c31910160405180910390a35050565b610b5984848461081d565b6001600160a01b0383163b15610b9257610b7584848484611170565b610b92576040516368d2bf6b60e11b815260040160405180910390fd5b50505050565b6001600160a01b03811660009081526005602052604081205460c01c610689565b6060610bc482610d28565b610be157604051630a14c4b560e41b815260040160405180910390fd5b6000610bf860408051602081019091526000815290565b9050805160001415610c195760405180602001604052806000815250610c44565b80610c2384610f58565b604051602001610c3492919061161d565b6040516020818303038152906040525b9392505050565b6000610a6060015490565b6001600160a01b0381166000908152600560205260408082205467ffffffffffffffff911c16610689565b6040805160808101825260008082526020820181905291810182905260608101919091526106898260408051608081018252600080825260208201819052918101829052606081019190915260008281526004602052604090205461068990604080516080810182526001600160a01b038316815260a083901c67ffffffffffffffff166020820152600160e01b831615159181019190915260e89190911c606082015290565b6000805482108015610689575050600090815260046020526040902054600160e01b161590565b600081600054811015610d9757600081815260046020526040902054600160e01b8116610d95575b80610c44575060001901600081815260046020526040902054610d77565b505b604051636f96cda160e11b815260040160405180910390fd5b60005481610dd15760405163b562e8dd60e01b815260040160405180910390fd5b6001600160a01b03831660008181526005602090815260408083208054680100000000000000018802019055848352600490915281206001851460e11b4260a01b178317905582840190839083907fddf252ad1be2c89b69c2b068fc378daa952ba7f163c4a11628f55a4df523b3ef8180a4600183015b818114610e8057808360007fddf252ad1be2c89b69c2b068fc378daa952ba7f163c4a11628f55a4df523b3ef600080a4600101610e48565b5081610e9e57604051622e076360e81b815260040160405180910390fd5b60005550505050565b6109ef816000611013565b604080516080810182526000808252602082018190529181018290526060810191909152610689610ee283610d4f565b604080516080810182526001600160a01b038316815260a083901c67ffffffffffffffff166020820152600160e01b831615159181019190915260e89190911c606082015290565b6000818152600460205260409020546109ef57610f4681610d4f565b60008281526004602052604090205550565b606060a06040510180604052602081039150506000815280825b600183039250600a81066030018353600a900480610f8f57610f94565b610f72565b50819003601f19909101908152919050565b610fb08383610db0565b6001600160a01b0383163b156109e1576000548281035b610fda6000868380600101945086611170565b610ff7576040516368d2bf6b60e11b815260040160405180910390fd5b818110610fc757816000541461100c57600080fd5b5050505050565b600061101e83610d4f565b90508060008061103c86600090815260066020526040902080549091565b91509150841561107c57611051818433610872565b61107c5761105f83336105ef565b61107c57604051632ce44b5f60e11b815260040160405180910390fd5b801561108757600082555b6001600160a01b038316600081815260056020526040902080546fffffffffffffffffffffffffffffffff0190554260a01b17600360e01b17600087815260046020526040902055600160e11b841661110e576001860160008181526004602052604090205461110c57600054811461110c5760008181526004602052604090208590555b505b60405186906000906001600160a01b038616907fddf252ad1be2c89b69c2b068fc378daa952ba7f163c4a11628f55a4df523b3ef908390a45050600180548101905550505050565b6109c2828260405180602001604052806000815250610fa6565b604051630a85bd0160e11b81526000906001600160a01b0385169063150b7a02906111a590339089908890889060040161164c565b6020604051808303816000875af19250505080156111e0575060408051601f3d908101601f191682019092526111dd91810190611688565b60015b61123b573d80801561120e576040519150601f19603f3d011682016040523d82523d6000602084013e611213565b606091505b508051611233576040516368d2bf6b60e11b815260040160405180910390fd5b805181602001fd5b6001600160e01b031916630a85bd0160e11b149050949350505050565b6001600160e01b0319811681146109ef57600080fd5b60006020828403121561128057600080fd5b8135610c4481611258565b60005b838110156112a657818101518382015260200161128e565b83811115610b925750506000910152565b600081518084526112cf81602086016020860161128b565b601f01601f19169290920160200192915050565b602081526000610c4460208301846112b7565b60006020828403121561130857600080fd5b5035919050565b80356001600160a01b038116811461132657600080fd5b919050565b6000806040838503121561133e57600080fd5b6113478361130f565b946020939093013593505050565b60008060006060848603121561136a57600080fd5b6113738461130f565b92506113816020850161130f565b9150604084013590509250925092565b600080604083850312156113a457600080fd5b6113ad8361130f565b9150602083013567ffffffffffffffff811681146113ca57600080fd5b809150509250929050565b6000602082840312156113e757600080fd5b610c448261130f565b634e487b7160e01b600052604160045260246000fd5b600082601f83011261141757600080fd5b813567ffffffffffffffff80821115611432576114326113f0565b604051601f8301601f19908116603f0116810190828211818310171561145a5761145a6113f0565b8160405283815286602085880101111561147357600080fd5b836020870160208301376000602085830101528094505050505092915050565b6000806000606084860312156114a857600080fd5b6114b18461130f565b925060208401359150604084013567ffffffffffffffff8111156114d457600080fd5b6114e086828701611406565b9150509250925092565b8035801515811461132657600080fd5b6000806040838503121561150d57600080fd5b8235915061151d602084016114ea565b90509250929050565b6000806040838503121561153957600080fd5b6115428361130f565b915061151d602084016114ea565b6000806000806080858703121561156657600080fd5b61156f8561130f565b935061157d6020860161130f565b925060408501359150606085013567ffffffffffffffff8111156115a057600080fd5b6115ac87828801611406565b91505092959194509250565b600080604083850312156115cb57600080fd5b6115d48361130f565b915061151d6020840161130f565b600181811c908216806115f657607f821691505b6020821081141561161757634e487b7160e01b600052602260045260246000fd5b50919050565b6000835161162f81846020880161128b565b83519083019061164381836020880161128b565b01949350505050565b60006001600160a01b0380871683528086166020840152508360408301526080606083015261167e60808301846112b7565b9695505050505050565b60006020828403121561169a57600080fd5b8151610c448161125856fea2646970667358221220328bd789bfb31ccef45a1b61ecd43fae87ae8df140a640e84d4fbec4539a9ce964736f6c634300080b0033",
  "linkReferences": {},
  "deployedLinkReferences": {}
}