{
  "_format": "hh-sol-artifact-1",
  "contractName": "ERC721AQueryableStartTokenIdMock",
  "sourceName": "contracts/mocks/ERC721AQueryableStartTokenIdMock.sol",
  "abi": [
    {
      "inputs": [
        {
          "internalType": "string",
          "name": "name_",
          "type": "string"
        },
        {
          "internalType": "string",
          "name": "symbol_",
          "type": "string"
        },
        {
          "internalType": "uint256",
          "name": "startTokenId_",
          "type": "uint256"
        }
      ],
      "stateMutability": "nonpayable",
      "type": "constructor"
    },
    {
      "inputs": [],
      "name": "ApprovalCallerNotOwnerNorApproved",
      "type": "error"
    },
    {
      "inputs": [],
      "name": "ApprovalQueryForNonexistentToken",
      "type": "error"
    },
    {
      "inputs": [],
      "name": "BalanceQueryForZeroAddress",
      "type": "error"
    },
    {
      "inputs": [],
      "name": "InvalidQueryRange",
      "type": "error"
    },
    {
      "inputs": [],
      "name": "MintERC2309QuantityExceedsLimit",
      "type": "error"
    },
    {
      "inputs": [],
      "name": "MintToZeroAddress",
      "type": "error"
    },
    {
      "inputs": [],
      "name": "MintZeroQuantity",
      "type": "error"
    },
    {
      "inputs": [],
      "name": "OwnerQueryForNonexistentToken",
      "type": "error"
    },
    {
      "inputs": [],
      "name": "OwnershipNotInitializedForExtraData",
      "type": "error"
    },
    {
      "inputs": [],
      "name": "TransferCallerNotOwnerNorApproved",
      "type": "error"
    },
    {
      "inputs": [],
      "name": "TransferFromIncorrectOwner",
      "type": "error"
    },
    {
      "inputs": [],
      "name": "TransferToNonERC721ReceiverImplementer",
      "type": "error"
    },
    {
      "inputs": [],
      "name": "TransferToZeroAddress",
      "type": "error"
    },
    {
      "inputs": [],
      "name": "URIQueryForNonexistentToken",
      "type": "error"
    },
    {
      "anonymous": false,
      "inputs": [
        {
          "indexed": true,
          "internalType": "address",
          "name": "owner",
          "type": "address"
        },
        {
          "indexed": true,
          "internalType": "address",
          "name": "approved",
          "type": "address"
        },
        {
          "indexed": true,
          "internalType": "uint256",
          "name": "tokenId",
          "type": "uint256"
        }
      ],
      "name": "Approval",
      "type": "event"
    },
    {
      "anonymous": false,
      "inputs": [
        {
          "indexed": true,
          "internalType": "address",
          "name": "owner",
          "type": "address"
        },
        {
          "indexed": true,
          "internalType": "address",
          "name": "operator",
          "type": "address"
        },
        {
          "indexed": false,
          "internalType": "bool",
          "name": "approved",
          "type": "bool"
        }
      ],
      "name": "ApprovalForAll",
      "type": "event"
    },
    {
      "anonymous": false,
      "inputs": [
        {
          "indexed": true,
          "internalType": "uint256",
          "name": "fromTokenId",
          "type": "uint256"
        },
        {
          "indexed": false,
          "internalType": "uint256",
          "name": "toTokenId",
          "type": "uint256"
        },
        {
          "indexed": true,
          "internalType": "address",
          "name": "from",
          "type": "address"
        },
        {
          "indexed": true,
          "internalType": "address",
          "name": "to",
          "type": "address"
        }
      ],
      "name": "ConsecutiveTransfer",
      "type": "event"
    },
    {
      "anonymous": false,
      "inputs": [
        {
          "indexed": true,
          "internalType": "address",
          "name": "from",
          "type": "address"
        },
        {
          "indexed": true,
          "internalType": "address",
          "name": "to",
          "type": "address"
        },
        {
          "indexed": true,
          "internalType": "uint256",
          "name": "tokenId",
          "type": "uint256"
        }
      ],
      "name": "Transfer",
      "type": "event"
    },
    {
      "inputs": [
        {
          "internalType": "address",
          "name": "to",
          "type": "address"
        },
        {
          "internalType": "uint256",
          "name": "tokenId",
          "type": "uint256"
        }
      ],
      "name": "approve",
      "outputs": [],
      "stateMutability": "payable",
      "type": "function"
    },
    {
      "inputs": [
        {
          "internalType": "address",
          "name": "owner",
          "type": "address"
        }
      ],
      "name": "balanceOf",
      "outputs": [
        {
          "internalType": "uint256",
          "name": "",
          "type": "uint256"
        }
      ],
      "stateMutability": "view",
      "type": "function"
    },
    {
      "inputs": [
        {
          "internalType": "uint256",
          "name": "tokenId",
          "type": "uint256"
        }
      ],
      "name": "burn",
      "outputs": [],
      "stateMutability": "nonpayable",
      "type": "function"
    },
    {
      "inputs": [
        {
          "internalType": "uint256",
          "name": "tokenId",
          "type": "uint256"
        }
      ],
      "name": "explicitOwnershipOf",
      "outputs": [
        {
          "components": [
            {
              "internalType": "address",
              "name": "addr",
              "type": "address"
            },
            {
              "internalType": "uint64",
              "name": "startTimestamp",
              "type": "uint64"
            },
            {
              "internalType": "bool",
              "name": "burned",
              "type": "bool"
            },
            {
              "internalType": "uint24",
              "name": "extraData",
              "type": "uint24"
            }
          ],
          "internalType": "struct IERC721A.TokenOwnership",
          "name": "",
          "type": "tuple"
        }
      ],
      "stateMutability": "view",
      "type": "function"
    },
    {
      "inputs": [
        {
          "internalType": "uint256[]",
          "name": "tokenIds",
          "type": "uint256[]"
        }
      ],
      "name": "explicitOwnershipsOf",
      "outputs": [
        {
          "components": [
            {
              "internalType": "address",
              "name": "addr",
              "type": "address"
            },
            {
              "internalType": "uint64",
              "name": "startTimestamp",
              "type": "uint64"
            },
            {
              "internalType": "bool",
              "name": "burned",
              "type": "bool"
            },
            {
              "internalType": "uint24",
              "name": "extraData",
              "type": "uint24"
            }
          ],
          "internalType": "struct IERC721A.TokenOwnership[]",
          "name": "",
          "type": "tuple[]"
        }
      ],
      "stateMutability": "view",
      "type": "function"
    },
    {
      "inputs": [
        {
          "internalType": "uint256",
          "name": "tokenId",
          "type": "uint256"
        }
      ],
      "name": "getApproved",
      "outputs": [
        {
          "internalType": "address",
          "name": "",
          "type": "address"
        }
      ],
      "stateMutability": "view",
      "type": "function"
    },
    {
      "inputs": [
        {
          "internalType": "address",
          "name": "owner",
          "type": "address"
        },
        {
          "internalType": "address",
          "name": "operator",
          "type": "address"
        }
      ],
      "name": "isApprovedForAll",
      "outputs": [
        {
          "internalType": "bool",
          "name": "",
          "type": "bool"
        }
      ],
      "stateMutability": "view",
      "type": "function"
    },
    {
      "inputs": [],
      "name": "name",
      "outputs": [
        {
          "internalType": "string",
          "name": "",
          "type": "string"
        }
      ],
      "stateMutability": "view",
      "type": "function"
    },
    {
      "inputs": [
        {
          "internalType": "uint256",
          "name": "tokenId",
          "type": "uint256"
        }
      ],
      "name": "ownerOf",
      "outputs": [
        {
          "internalType": "address",
          "name": "",
          "type": "address"
        }
      ],
      "stateMutability": "view",
      "type": "function"
    },
    {
      "inputs": [
        {
          "internalType": "address",
          "name": "to",
          "type": "address"
        },
        {
          "internalType": "uint256",
          "name": "quantity",
          "type": "uint256"
        }
      ],
      "name": "safeMint",
      "outputs": [],
      "stateMutability": "nonpayable",
      "type": "function"
    },
    {
      "inputs": [
        {
          "internalType": "address",
          "name": "from",
          "type": "address"
        },
        {
          "internalType": "address",
          "name": "to",
          "type": "address"
        },
        {
          "internalType": "uint256",
          "name": "tokenId",
          "type": "uint256"
        }
      ],
      "name": "safeTransferFrom",
      "outputs": [],
      "stateMutability": "payable",
      "type": "function"
    },
    {
      "inputs": [
        {
          "internalType": "address",
          "name": "from",
          "type": "address"
        },
        {
          "internalType": "address",
          "name": "to",
          "type": "address"
        },
        {
          "internalType": "uint256",
          "name": "tokenId",
          "type": "uint256"
        },
        {
          "internalType": "bytes",
          "name": "_data",
          "type": "bytes"
        }
      ],
      "name": "safeTransferFrom",
      "outputs": [],
      "stateMutability": "payable",
      "type": "function"
    },
    {
      "inputs": [
        {
          "internalType": "address",
          "name": "operator",
          "type": "address"
        },
        {
          "internalType": "bool",
          "name": "approved",
          "type": "bool"
        }
      ],
      "name": "setApprovalForAll",
      "outputs": [],
      "stateMutability": "nonpayable",
      "type": "function"
    },
    {
      "inputs": [],
      "name": "startTokenId",
      "outputs": [
        {
          "internalType": "uint256",
          "name": "",
          "type": "uint256"
        }
      ],
      "stateMutability": "view",
      "type": "function"
    },
    {
      "inputs": [
        {
          "internalType": "bytes4",
          "name": "interfaceId",
          "type": "bytes4"
        }
      ],
      "name": "supportsInterface",
      "outputs": [
        {
          "internalType": "bool",
          "name": "",
          "type": "bool"
        }
      ],
      "stateMutability": "view",
      "type": "function"
    },
    {
      "inputs": [],
      "name": "symbol",
      "outputs": [
        {
          "internalType": "string",
          "name": "",
          "type": "string"
        }
      ],
      "stateMutability": "view",
      "type": "function"
    },
    {
      "inputs": [
        {
          "internalType": "uint256",
          "name": "tokenId",
          "type": "uint256"
        }
      ],
      "name": "tokenURI",
      "outputs": [
        {
          "internalType": "string",
          "name": "",
          "type": "string"
        }
      ],
      "stateMutability": "view",
      "type": "function"
    },
    {
      "inputs": [
        {
          "internalType": "address",
          "name": "owner",
          "type": "address"
        }
      ],
      "name": "tokensOfOwner",
      "outputs": [
        {
          "internalType": "uint256[]",
          "name": "",
          "type": "uint256[]"
        }
      ],
      "stateMutability": "view",
      "type": "function"
    },
    {
      "inputs": [
        {
          "internalType": "address",
          "name": "owner",
          "type": "address"
        },
        {
          "internalType": "uint256",
          "name": "start",
          "type": "uint256"
        },
        {
          "internalType": "uint256",
          "name": "stop",
          "type": "uint256"
        }
      ],
      "name": "tokensOfOwnerIn",
      "outputs": [
        {
          "internalType": "uint256[]",
          "name": "",
          "type": "uint256[]"
        }
      ],
      "stateMutability": "view",
      "type": "function"
    },
    {
      "inputs": [],
      "name": "totalSupply",
      "outputs": [
        {
          "internalType": "uint256",
          "name": "",
          "type": "uint256"
        }
      ],
      "stateMutability": "view",
      "type": "function"
    },
    {
      "inputs": [
        {
          "internalType": "address",
          "name": "from",
          "type": "address"
        },
        {
          "internalType": "address",
          "name": "to",
          "type": "address"
        },
        {
          "internalType": "uint256",
          "name": "tokenId",
          "type": "uint256"
        }
      ],
      "name": "transferFrom",
      "outputs": [],
      "stateMutability": "payable",
      "type": "function"
    }
  ],
  "bytecode": "0x60806040523480156200001157600080fd5b5060405162001b5e38038062001b5e8339810160408190526200003491620001f4565b6000819055825183908390829082906200005690600390602085019062000081565b5080516200006c90600490602084019062000081565b5060005460015550620002a495505050505050565b8280546200008f9062000267565b90600052602060002090601f016020900481019282620000b35760008555620000fe565b82601f10620000ce57805160ff1916838001178555620000fe565b82800160010185558215620000fe579182015b82811115620000fe578251825591602001919060010190620000e1565b506200010c92915062000110565b5090565b5b808211156200010c576000815560010162000111565b634e487b7160e01b600052604160045260246000fd5b600082601f8301126200014f57600080fd5b81516001600160401b03808211156200016c576200016c62000127565b604051601f8301601f19908116603f0116810190828211818310171562000197576200019762000127565b81604052838152602092508683858801011115620001b457600080fd5b600091505b83821015620001d85785820183015181830184015290820190620001b9565b83821115620001ea5760008385830101525b9695505050505050565b6000806000606084860312156200020a57600080fd5b83516001600160401b03808211156200022257600080fd5b62000230878388016200013d565b945060208601519150808211156200024757600080fd5b5062000256868287016200013d565b925050604084015190509250925092565b600181811c908216806200027c57607f821691505b602082108114156200029e57634e487b7160e01b600052602260045260246000fd5b50919050565b6118aa80620002b46000396000f3fe60806040526004361061016a5760003560e01c806370a08231116100cb578063a22cb4651161007f578063c87b56dd11610059578063c87b56dd146103cf578063e6798baa146103ef578063e985e9c51461040557600080fd5b8063a22cb4651461036f578063b88d4fde1461038f578063c23dc68f146103a257600080fd5b806395d89b41116100b057806395d89b411461031a57806399a2557a1461032f578063a14481941461034f57600080fd5b806370a08231146102cd5780638462151c146102ed57600080fd5b806323b872dd1161012257806342966c681161010757806342966c68146102605780635bbb2177146102805780636352211e146102ad57600080fd5b806323b872dd1461023a57806342842e0e1461024d57600080fd5b8063081812fc11610153578063081812fc146101c6578063095ea7b3146101fe57806318160ddd1461021357600080fd5b806301ffc9a71461016f57806306fdde03146101a4575b600080fd5b34801561017b57600080fd5b5061018f61018a36600461135a565b61044e565b60405190151581526020015b60405180910390f35b3480156101b057600080fd5b506101b96104a0565b60405161019b91906113cf565b3480156101d257600080fd5b506101e66101e13660046113e2565b610532565b6040516001600160a01b03909116815260200161019b565b61021161020c366004611417565b610576565b005b34801561021f57600080fd5b5060005460025460015403035b60405190815260200161019b565b610211610248366004611441565b61062e565b61021161025b366004611441565b6107c9565b34801561026c57600080fd5b5061021161027b3660046113e2565b6107e9565b34801561028c57600080fd5b506102a061029b36600461147d565b6107f7565b60405161019b91906114f2565b3480156102b957600080fd5b506101e66102c83660046113e2565b6108c3565b3480156102d957600080fd5b5061022c6102e836600461156f565b6108ce565b3480156102f957600080fd5b5061030d61030836600461156f565b61091d565b60405161019b919061158a565b34801561032657600080fd5b506101b9610a28565b34801561033b57600080fd5b5061030d61034a3660046115c2565b610a37565b34801561035b57600080fd5b5061021161036a366004611417565b610bcb565b34801561037b57600080fd5b5061021161038a3660046115f5565b610bd9565b61021161039d366004611647565b610c45565b3480156103ae57600080fd5b506103c26103bd3660046113e2565b610c8f565b60405161019b9190611723565b3480156103db57600080fd5b506101b96103ea3660046113e2565b610d18565b3480156103fb57600080fd5b5061022c60005481565b34801561041157600080fd5b5061018f610420366004611768565b6001600160a01b03918216600090815260086020908152604080832093909416825291909152205460ff1690565b60006301ffc9a760e01b6001600160e01b03198316148061047f57506380ac58cd60e01b6001600160e01b03198316145b8061049a5750635b5e139f60e01b6001600160e01b03198316145b92915050565b6060600380546104af9061179b565b80601f01602080910402602001604051908101604052809291908181526020018280546104db9061179b565b80156105285780601f106104fd57610100808354040283529160200191610528565b820191906000526020600020905b81548152906001019060200180831161050b57829003601f168201915b5050505050905090565b600061053d82610da9565b61055a576040516333d1c03960e21b815260040160405180910390fd5b506000908152600760205260409020546001600160a01b031690565b6000610581826108c3565b9050336001600160a01b038216146105ba5761059d8133610420565b6105ba576040516367d9dca160e11b815260040160405180910390fd5b60008281526007602052604080822080547fffffffffffffffffffffffff0000000000000000000000000000000000000000166001600160a01b0387811691821790925591518593918516917f8c5be1e5ebec7d5bd14f71427d1e84f3dd0314c0f7b2291e5b200ac8c7c3b92591a4505050565b600061063982610de5565b9050836001600160a01b0316816001600160a01b03161461066c5760405162a1148160e81b815260040160405180910390fd5b600082815260076020526040902080546106988187335b6001600160a01b039081169116811491141790565b6106c3576106a68633610420565b6106c357604051632ce44b5f60e11b815260040160405180910390fd5b6001600160a01b0385166106ea57604051633a954ecd60e21b815260040160405180910390fd5b80156106f557600082555b6001600160a01b038681166000908152600660205260408082208054600019019055918716808252919020805460010190554260a01b17600160e11b17600085815260056020526040902055600160e11b8316610780576001840160008181526005602052604090205461077e57600154811461077e5760008181526005602052604090208490555b505b83856001600160a01b0316876001600160a01b03167fddf252ad1be2c89b69c2b068fc378daa952ba7f163c4a11628f55a4df523b3ef60405160405180910390a4505050505050565b6107e483838360405180602001604052806000815250610c45565b505050565b6107f4816001610e55565b50565b60608160008167ffffffffffffffff81111561081557610815611631565b60405190808252806020026020018201604052801561086757816020015b6040805160808101825260008082526020808301829052928201819052606082015282526000199092019101816108335790505b50905060005b8281146108ba57610895868683818110610889576108896117d6565b90506020020135610c8f565b8282815181106108a7576108a76117d6565b602090810291909101015260010161086d565b50949350505050565b600061049a82610de5565b60006001600160a01b0382166108f7576040516323d3ad8160e21b815260040160405180910390fd5b506001600160a01b031660009081526006602052604090205467ffffffffffffffff1690565b6060600080600061092d856108ce565b905060008167ffffffffffffffff81111561094a5761094a611631565b604051908082528060200260200182016040528015610973578160200160208202803683370190505b5060408051608081018252600080825260208201819052918101829052606081018290529054919250905b838614610a1c576109ae81610f99565b91508160400151156109bf57610a14565b81516001600160a01b0316156109d457815194505b876001600160a01b0316856001600160a01b03161415610a145780838780600101985081518110610a0757610a076117d6565b6020026020010181815250505b60010161099e565b50909695505050505050565b6060600480546104af9061179b565b6060818310610a5957604051631960ccad60e11b815260040160405180910390fd5b600080610a6560015490565b9050610a7060005490565b851015610a7d5760005494505b80841115610a89578093505b6000610a94876108ce565b905084861015610ab35785850381811015610aad578091505b50610ab7565b5060005b60008167ffffffffffffffff811115610ad257610ad2611631565b604051908082528060200260200182016040528015610afb578160200160208202803683370190505b50905081610b0e579350610bc492505050565b6000610b1988610c8f565b905060008160400151610b2a575080515b885b888114158015610b3c5750848714155b15610bb857610b4a81610f99565b9250826040015115610b5b57610bb0565b82516001600160a01b031615610b7057825191505b8a6001600160a01b0316826001600160a01b03161415610bb05780848880600101995081518110610ba357610ba36117d6565b6020026020010181815250505b600101610b2c565b50505092835250909150505b9392505050565b610bd58282611018565b5050565b3360008181526008602090815260408083206001600160a01b03871680855290835292819020805460ff191686151590811790915590519081529192917f17307eab39ab6107e8899845ad3d59bd9653f200f220920489ca2b5937696c31910160405180910390a35050565b610c5084848461062e565b6001600160a01b0383163b15610c8957610c6c84848484611032565b610c89576040516368d2bf6b60e11b815260040160405180910390fd5b50505050565b604080516080810182526000808252602082018190529181018290526060810191909152604080516080810182526000808252602082018190529181018290526060810191909152600054831080610ce957506001548310155b15610cf45792915050565b610cfd83610f99565b9050806040015115610d0f5792915050565b610bc48361111a565b6060610d2382610da9565b610d4057604051630a14c4b560e41b815260040160405180910390fd5b6000610d5760408051602081019091526000815290565b9050805160001415610d785760405180602001604052806000815250610bc4565b80610d8284611192565b604051602001610d939291906117ec565b6040516020818303038152906040529392505050565b600081610db560005490565b11158015610dc4575060015482105b801561049a575050600090815260056020526040902054600160e01b161590565b60008180610df260005490565b11610e3c57600154811015610e3c57600081815260056020526040902054600160e01b8116610e3a575b80610bc4575060001901600081815260056020526040902054610e1c565b505b604051636f96cda160e11b815260040160405180910390fd5b6000610e6083610de5565b905080600080610e7e86600090815260076020526040902080549091565b915091508415610ebe57610e93818433610683565b610ebe57610ea18333610420565b610ebe57604051632ce44b5f60e11b815260040160405180910390fd5b8015610ec957600082555b6001600160a01b038316600081815260066020526040902080546fffffffffffffffffffffffffffffffff0190554260a01b17600360e01b17600087815260056020526040902055600160e11b8416610f505760018601600081815260056020526040902054610f4e576001548114610f4e5760008181526005602052604090208590555b505b60405186906000906001600160a01b038616907fddf252ad1be2c89b69c2b068fc378daa952ba7f163c4a11628f55a4df523b3ef908390a4505060028054600101905550505050565b60408051608081018252600080825260208201819052918101829052606081019190915260008281526005602052604090205461049a90604080516080810182526001600160a01b038316815260a083901c67ffffffffffffffff166020820152600160e01b831615159181019190915260e89190911c606082015290565b610bd58282604051806020016040528060008152506111e0565b604051630a85bd0160e11b81526000906001600160a01b0385169063150b7a029061106790339089908890889060040161181b565b6020604051808303816000875af19250505080156110a2575060408051601f3d908101601f1916820190925261109f91810190611857565b60015b6110fd573d8080156110d0576040519150601f19603f3d011682016040523d82523d6000602084013e6110d5565b606091505b5080516110f5576040516368d2bf6b60e11b815260040160405180910390fd5b805181602001fd5b6001600160e01b031916630a85bd0160e11b149050949350505050565b60408051608081018252600080825260208201819052918101829052606081019190915261049a61114a83610de5565b604080516080810182526001600160a01b038316815260a083901c67ffffffffffffffff166020820152600160e01b831615159181019190915260e89190911c606082015290565b606060a06040510180604052602081039150506000815280825b600183039250600a81066030018353600a9004806111c9576111ce565b6111ac565b50819003601f19909101908152919050565b6111ea838361124d565b6001600160a01b0383163b156107e4576001548281035b6112146000868380600101945086611032565b611231576040516368d2bf6b60e11b815260040160405180910390fd5b81811061120157816001541461124657600080fd5b5050505050565b6001548161126e5760405163b562e8dd60e01b815260040160405180910390fd5b6001600160a01b03831660008181526006602090815260408083208054680100000000000000018802019055848352600590915281206001851460e11b4260a01b178317905582840190839083907fddf252ad1be2c89b69c2b068fc378daa952ba7f163c4a11628f55a4df523b3ef8180a4600183015b81811461131d57808360007fddf252ad1be2c89b69c2b068fc378daa952ba7f163c4a11628f55a4df523b3ef600080a46001016112e5565b508161133b57604051622e076360e81b815260040160405180910390fd5b60015550505050565b6001600160e01b0319811681146107f457600080fd5b60006020828403121561136c57600080fd5b8135610bc481611344565b60005b8381101561139257818101518382015260200161137a565b83811115610c895750506000910152565b600081518084526113bb816020860160208601611377565b601f01601f19169290920160200192915050565b602081526000610bc460208301846113a3565b6000602082840312156113f457600080fd5b5035919050565b80356001600160a01b038116811461141257600080fd5b919050565b6000806040838503121561142a57600080fd5b611433836113fb565b946020939093013593505050565b60008060006060848603121561145657600080fd5b61145f846113fb565b925061146d602085016113fb565b9150604084013590509250925092565b6000806020838503121561149057600080fd5b823567ffffffffffffffff808211156114a857600080fd5b818501915085601f8301126114bc57600080fd5b8135818111156114cb57600080fd5b8660208260051b85010111156114e057600080fd5b60209290920196919550909350505050565b6020808252825182820181905260009190848201906040850190845b81811015610a1c5761155c8385516001600160a01b03815116825267ffffffffffffffff602082015116602083015260408101511515604083015262ffffff60608201511660608301525050565b928401926080929092019160010161150e565b60006020828403121561158157600080fd5b610bc4826113fb565b6020808252825182820181905260009190848201906040850190845b81811015610a1c578351835292840192918401916001016115a6565b6000806000606084860312156115d757600080fd5b6115e0846113fb565b95602085013595506040909401359392505050565b6000806040838503121561160857600080fd5b611611836113fb565b91506020830135801515811461162657600080fd5b809150509250929050565b634e487b7160e01b600052604160045260246000fd5b6000806000806080858703121561165d57600080fd5b611666856113fb565b9350611674602086016113fb565b925060408501359150606085013567ffffffffffffffff8082111561169857600080fd5b818701915087601f8301126116ac57600080fd5b8135818111156116be576116be611631565b604051601f8201601f19908116603f011681019083821181831017156116e6576116e6611631565b816040528281528a60208487010111156116ff57600080fd5b82602086016020830137600060208483010152809550505050505092959194509250565b81516001600160a01b0316815260208083015167ffffffffffffffff169082015260408083015115159082015260608083015162ffffff16908201526080810161049a565b6000806040838503121561177b57600080fd5b611784836113fb565b9150611792602084016113fb565b90509250929050565b600181811c908216806117af57607f821691505b602082108114156117d057634e487b7160e01b600052602260045260246000fd5b50919050565b634e487b7160e01b600052603260045260246000fd5b600083516117fe818460208801611377565b835190830190611812818360208801611377565b01949350505050565b60006001600160a01b0380871683528086166020840152508360408301526080606083015261184d60808301846113a3565b9695505050505050565b60006020828403121561186957600080fd5b8151610bc48161134456fea26469706673582212209d50bcf9ecd7e7b1b93c1b3f824179e19f40c4a14faa800336a9b062616ac2e964736f6c634300080b0033",
  "linkReferences": {},
  "deployedLinkReferences": {}
}