{
  "_format": "hh-sol-artifact-1",
  "contractName": "PSEUDO",
  "sourceName": "contracts/PSEUDO.sol",
  "abi": [
    {
      "inputs": [
        {
          "internalType": "string",
          "name": "name_",
          "type": "string"
        },
        {
          "internalType": "string",
          "name": "symbol_",
          "type": "string"
        },
        {
          "internalType": "string",
          "name": "_baseUri",
          "type": "string"
        },
        {
          "internalType": "address[]",
          "name": "initAddresses",
          "type": "address[]"
        }
      ],
      "stateMutability": "nonpayable",
      "type": "constructor"
    },
    {
      "inputs": [],
      "name": "ApprovalCallerNotOwnerNorApproved",
      "type": "error"
    },
    {
      "inputs": [],
      "name": "ApprovalQueryForNonexistentToken",
      "type": "error"
    },
    {
      "inputs": [],
      "name": "BalanceQueryForZeroAddress",
      "type": "error"
    },
    {
      "inputs": [],
      "name": "InvalidQueryRange",
      "type": "error"
    },
    {
      "inputs": [],
      "name": "MintERC2309QuantityExceedsLimit",
      "type": "error"
    },
    {
      "inputs": [],
      "name": "MintToZeroAddress",
      "type": "error"
    },
    {
      "inputs": [],
      "name": "MintZeroQuantity",
      "type": "error"
    },
    {
      "inputs": [],
      "name": "OwnerQueryForNonexistentToken",
      "type": "error"
    },
    {
      "inputs": [],
      "name": "OwnershipNotInitializedForExtraData",
      "type": "error"
    },
    {
      "inputs": [],
      "name": "TransferCallerNotOwnerNorApproved",
      "type": "error"
    },
    {
      "inputs": [],
      "name": "TransferFromIncorrectOwner",
      "type": "error"
    },
    {
      "inputs": [],
      "name": "TransferToNonERC721ReceiverImplementer",
      "type": "error"
    },
    {
      "inputs": [],
      "name": "TransferToZeroAddress",
      "type": "error"
    },
    {
      "inputs": [],
      "name": "URIQueryForNonexistentToken",
      "type": "error"
    },
    {
      "anonymous": false,
      "inputs": [
        {
          "indexed": true,
          "internalType": "address",
          "name": "owner",
          "type": "address"
        },
        {
          "indexed": true,
          "internalType": "address",
          "name": "approved",
          "type": "address"
        },
        {
          "indexed": true,
          "internalType": "uint256",
          "name": "tokenId",
          "type": "uint256"
        }
      ],
      "name": "Approval",
      "type": "event"
    },
    {
      "anonymous": false,
      "inputs": [
        {
          "indexed": true,
          "internalType": "address",
          "name": "owner",
          "type": "address"
        },
        {
          "indexed": true,
          "internalType": "address",
          "name": "operator",
          "type": "address"
        },
        {
          "indexed": false,
          "internalType": "bool",
          "name": "approved",
          "type": "bool"
        }
      ],
      "name": "ApprovalForAll",
      "type": "event"
    },
    {
      "anonymous": false,
      "inputs": [
        {
          "indexed": true,
          "internalType": "uint256",
          "name": "fromTokenId",
          "type": "uint256"
        },
        {
          "indexed": false,
          "internalType": "uint256",
          "name": "toTokenId",
          "type": "uint256"
        },
        {
          "indexed": true,
          "internalType": "address",
          "name": "from",
          "type": "address"
        },
        {
          "indexed": true,
          "internalType": "address",
          "name": "to",
          "type": "address"
        }
      ],
      "name": "ConsecutiveTransfer",
      "type": "event"
    },
    {
      "anonymous": false,
      "inputs": [
        {
          "indexed": true,
          "internalType": "address",
          "name": "from",
          "type": "address"
        },
        {
          "indexed": true,
          "internalType": "address",
          "name": "to",
          "type": "address"
        },
        {
          "indexed": true,
          "internalType": "uint256",
          "name": "tokenId",
          "type": "uint256"
        }
      ],
      "name": "Transfer",
      "type": "event"
    },
    {
      "inputs": [],
      "name": "MAX_SUPPLY",
      "outputs": [
        {
          "internalType": "uint256",
          "name": "",
          "type": "uint256"
        }
      ],
      "stateMutability": "view",
      "type": "function"
    },
    {
      "inputs": [],
      "name": "MINT_PRICE",
      "outputs": [
        {
          "internalType": "uint256",
          "name": "",
          "type": "uint256"
        }
      ],
      "stateMutability": "view",
      "type": "function"
    },
    {
      "inputs": [
        {
          "internalType": "address",
          "name": "to",
          "type": "address"
        },
        {
          "internalType": "uint256",
          "name": "tokenId",
          "type": "uint256"
        }
      ],
      "name": "approve",
      "outputs": [],
      "stateMutability": "payable",
      "type": "function"
    },
    {
      "inputs": [
        {
          "internalType": "address",
          "name": "owner",
          "type": "address"
        }
      ],
      "name": "balanceOf",
      "outputs": [
        {
          "internalType": "uint256",
          "name": "",
          "type": "uint256"
        }
      ],
      "stateMutability": "view",
      "type": "function"
    },
    {
      "inputs": [],
      "name": "baseURI",
      "outputs": [
        {
          "internalType": "string",
          "name": "",
          "type": "string"
        }
      ],
      "stateMutability": "view",
      "type": "function"
    },
    {
      "inputs": [],
      "name": "baseUri",
      "outputs": [
        {
          "internalType": "string",
          "name": "",
          "type": "string"
        }
      ],
      "stateMutability": "view",
      "type": "function"
    },
    {
      "inputs": [],
      "name": "deployer",
      "outputs": [
        {
          "internalType": "address",
          "name": "",
          "type": "address"
        }
      ],
      "stateMutability": "view",
      "type": "function"
    },
    {
      "inputs": [
        {
          "internalType": "uint256",
          "name": "tokenId",
          "type": "uint256"
        }
      ],
      "name": "explicitOwnershipOf",
      "outputs": [
        {
          "components": [
            {
              "internalType": "address",
              "name": "addr",
              "type": "address"
            },
            {
              "internalType": "uint64",
              "name": "startTimestamp",
              "type": "uint64"
            },
            {
              "internalType": "bool",
              "name": "burned",
              "type": "bool"
            },
            {
              "internalType": "uint24",
              "name": "extraData",
              "type": "uint24"
            }
          ],
          "internalType": "struct IERC721A.TokenOwnership",
          "name": "",
          "type": "tuple"
        }
      ],
      "stateMutability": "view",
      "type": "function"
    },
    {
      "inputs": [
        {
          "internalType": "uint256[]",
          "name": "tokenIds",
          "type": "uint256[]"
        }
      ],
      "name": "explicitOwnershipsOf",
      "outputs": [
        {
          "components": [
            {
              "internalType": "address",
              "name": "addr",
              "type": "address"
            },
            {
              "internalType": "uint64",
              "name": "startTimestamp",
              "type": "uint64"
            },
            {
              "internalType": "bool",
              "name": "burned",
              "type": "bool"
            },
            {
              "internalType": "uint24",
              "name": "extraData",
              "type": "uint24"
            }
          ],
          "internalType": "struct IERC721A.TokenOwnership[]",
          "name": "",
          "type": "tuple[]"
        }
      ],
      "stateMutability": "view",
      "type": "function"
    },
    {
      "inputs": [
        {
          "internalType": "uint256",
          "name": "tokenId",
          "type": "uint256"
        }
      ],
      "name": "getApproved",
      "outputs": [
        {
          "internalType": "address",
          "name": "",
          "type": "address"
        }
      ],
      "stateMutability": "view",
      "type": "function"
    },
    {
      "inputs": [
        {
          "internalType": "address",
          "name": "owner",
          "type": "address"
        },
        {
          "internalType": "address",
          "name": "operator",
          "type": "address"
        }
      ],
      "name": "isApprovedForAll",
      "outputs": [
        {
          "internalType": "bool",
          "name": "",
          "type": "bool"
        }
      ],
      "stateMutability": "view",
      "type": "function"
    },
    {
      "inputs": [],
      "name": "mint",
      "outputs": [],
      "stateMutability": "payable",
      "type": "function"
    },
    {
      "inputs": [],
      "name": "mintEnabled",
      "outputs": [
        {
          "internalType": "bool",
          "name": "",
          "type": "bool"
        }
      ],
      "stateMutability": "view",
      "type": "function"
    },
    {
      "inputs": [],
      "name": "mintFive",
      "outputs": [],
      "stateMutability": "payable",
      "type": "function"
    },
    {
      "inputs": [],
      "name": "mintTen",
      "outputs": [],
      "stateMutability": "payable",
      "type": "function"
    },
    {
      "inputs": [],
      "name": "name",
      "outputs": [
        {
          "internalType": "string",
          "name": "",
          "type": "string"
        }
      ],
      "stateMutability": "view",
      "type": "function"
    },
    {
      "inputs": [
        {
          "internalType": "uint256",
          "name": "tokenId",
          "type": "uint256"
        }
      ],
      "name": "ownerOf",
      "outputs": [
        {
          "internalType": "address",
          "name": "",
          "type": "address"
        }
      ],
      "stateMutability": "view",
      "type": "function"
    },
    {
      "inputs": [
        {
          "internalType": "address",
          "name": "from",
          "type": "address"
        },
        {
          "internalType": "address",
          "name": "to",
          "type": "address"
        },
        {
          "internalType": "uint256",
          "name": "tokenId",
          "type": "uint256"
        }
      ],
      "name": "safeTransferFrom",
      "outputs": [],
      "stateMutability": "payable",
      "type": "function"
    },
    {
      "inputs": [
        {
          "internalType": "address",
          "name": "from",
          "type": "address"
        },
        {
          "internalType": "address",
          "name": "to",
          "type": "address"
        },
        {
          "internalType": "uint256",
          "name": "tokenId",
          "type": "uint256"
        },
        {
          "internalType": "bytes",
          "name": "_data",
          "type": "bytes"
        }
      ],
      "name": "safeTransferFrom",
      "outputs": [],
      "stateMutability": "payable",
      "type": "function"
    },
    {
      "inputs": [
        {
          "internalType": "address",
          "name": "operator",
          "type": "address"
        },
        {
          "internalType": "bool",
          "name": "approved",
          "type": "bool"
        }
      ],
      "name": "setApprovalForAll",
      "outputs": [],
      "stateMutability": "nonpayable",
      "type": "function"
    },
    {
      "inputs": [
        {
          "internalType": "string",
          "name": "_baseUri",
          "type": "string"
        }
      ],
      "name": "setMintEnabled",
      "outputs": [],
      "stateMutability": "nonpayable",
      "type": "function"
    },
    {
      "inputs": [],
      "name": "startTokenId",
      "outputs": [
        {
          "internalType": "uint256",
          "name": "",
          "type": "uint256"
        }
      ],
      "stateMutability": "view",
      "type": "function"
    },
    {
      "inputs": [
        {
          "internalType": "bytes4",
          "name": "interfaceId",
          "type": "bytes4"
        }
      ],
      "name": "supportsInterface",
      "outputs": [
        {
          "internalType": "bool",
          "name": "",
          "type": "bool"
        }
      ],
      "stateMutability": "view",
      "type": "function"
    },
    {
      "inputs": [],
      "name": "symbol",
      "outputs": [
        {
          "internalType": "string",
          "name": "",
          "type": "string"
        }
      ],
      "stateMutability": "view",
      "type": "function"
    },
    {
      "inputs": [
        {
          "internalType": "bool",
          "name": "toggle",
          "type": "bool"
        }
      ],
      "name": "toggleMintEnabled",
      "outputs": [],
      "stateMutability": "nonpayable",
      "type": "function"
    },
    {
      "inputs": [
        {
          "internalType": "uint256",
          "name": "tokenId",
          "type": "uint256"
        }
      ],
      "name": "tokenURI",
      "outputs": [
        {
          "internalType": "string",
          "name": "",
          "type": "string"
        }
      ],
      "stateMutability": "view",
      "type": "function"
    },
    {
      "inputs": [
        {
          "internalType": "address",
          "name": "owner",
          "type": "address"
        }
      ],
      "name": "tokensOfOwner",
      "outputs": [
        {
          "internalType": "uint256[]",
          "name": "",
          "type": "uint256[]"
        }
      ],
      "stateMutability": "view",
      "type": "function"
    },
    {
      "inputs": [
        {
          "internalType": "address",
          "name": "owner",
          "type": "address"
        },
        {
          "internalType": "uint256",
          "name": "start",
          "type": "uint256"
        },
        {
          "internalType": "uint256",
          "name": "stop",
          "type": "uint256"
        }
      ],
      "name": "tokensOfOwnerIn",
      "outputs": [
        {
          "internalType": "uint256[]",
          "name": "",
          "type": "uint256[]"
        }
      ],
      "stateMutability": "view",
      "type": "function"
    },
    {
      "inputs": [],
      "name": "totalMinted",
      "outputs": [
        {
          "internalType": "uint256",
          "name": "",
          "type": "uint256"
        }
      ],
      "stateMutability": "view",
      "type": "function"
    },
    {
      "inputs": [],
      "name": "totalSupply",
      "outputs": [
        {
          "internalType": "uint256",
          "name": "",
          "type": "uint256"
        }
      ],
      "stateMutability": "view",
      "type": "function"
    },
    {
      "inputs": [
        {
          "internalType": "address",
          "name": "from",
          "type": "address"
        },
        {
          "internalType": "address",
          "name": "to",
          "type": "address"
        },
        {
          "internalType": "uint256",
          "name": "tokenId",
          "type": "uint256"
        }
      ],
      "name": "transferFrom",
      "outputs": [],
      "stateMutability": "payable",
      "type": "function"
    },
    {
      "inputs": [
        {
          "internalType": "string",
          "name": "_baseUri",
          "type": "string"
        }
      ],
      "name": "updateBaseURI",
      "outputs": [],
      "stateMutability": "nonpayable",
      "type": "function"
    },
    {
      "inputs": [],
      "name": "withdraw",
      "outputs": [],
      "stateMutability": "nonpayable",
      "type": "function"
    }
  ],
  "bytecode": "0x60806040526008805460ff191690553480156200001b57600080fd5b50604051620025a2380380620025a28339810160408190526200003e9162000477565b83518490849062000057906002906020850190620002f3565b5080516200006d906003906020840190620002f3565b50600a54600090815560088054610100600160a81b03191633610100021790558351620000bd9350849250620000a757620000a7620005b3565b602002602001015160156200020260201b60201c565b620000ed81600181518110620000d757620000d7620005b3565b602002602001015160326200020260201b60201c565b6200010781600281518110620000a757620000a7620005b3565b6200012181600381518110620000a757620000a7620005b3565b62000152816004815181106200013b576200013b620005b3565b602002602001015161014d6200020260201b60201c565b62000182816005815181106200016c576200016c620005b3565b6020026020010151602a6200020260201b60201c565b620001b2816006815181106200019c576200019c620005b3565b6020026020010151603a6200020260201b60201c565b620001e281600781518110620001cc57620001cc620005b3565b6020026020010151602f6200020260201b60201c565b8151620001f7906009906020850190620002f3565b505050505062000606565b6000546001600160a01b0383166200022c57604051622e076360e81b815260040160405180910390fd5b816200024b5760405163b562e8dd60e01b815260040160405180910390fd5b6113888211156200026f57604051633db1f9af60e01b815260040160405180910390fd5b6001600160a01b03831660008181526005602090815260408083208054680100000000000000018802019055848352600482528083206001871460e11b4260a01b17851790558051600019868801018152905185927fdeaa91b6123d068f5821d0fb0678463d1a8a6079fe8af5de3ce5e896dcf9133d928290030190a40160005550565b8280546200030190620005c9565b90600052602060002090601f01602090048101928262000325576000855562000370565b82601f106200034057805160ff191683800117855562000370565b8280016001018555821562000370579182015b828111156200037057825182559160200191906001019062000353565b506200037e92915062000382565b5090565b5b808211156200037e576000815560010162000383565b634e487b7160e01b600052604160045260246000fd5b604051601f8201601f191681016001600160401b0381118282101715620003da57620003da62000399565b604052919050565b600082601f830112620003f457600080fd5b81516001600160401b0381111562000410576200041062000399565b602062000426601f8301601f19168201620003af565b82815285828487010111156200043b57600080fd5b60005b838110156200045b5785810183015182820184015282016200043e565b838111156200046d5760008385840101525b5095945050505050565b600080600080608085870312156200048e57600080fd5b84516001600160401b0380821115620004a657600080fd5b620004b488838901620003e2565b9550602091508187015181811115620004cc57600080fd5b620004da89828a01620003e2565b955050604087015181811115620004f057600080fd5b620004fe89828a01620003e2565b9450506060870151818111156200051457600080fd5b8701601f810189136200052657600080fd5b8051828111156200053b576200053b62000399565b8060051b92506200054e848401620003af565b818152928201840192848101908b8511156200056957600080fd5b928501925b84841015620005a357835192506001600160a01b0383168314620005925760008081fd5b82825292850192908501906200056e565b989b979a50959850505050505050565b634e487b7160e01b600052603260045260246000fd5b600181811c90821680620005de57607f821691505b602082108114156200060057634e487b7160e01b600052602260045260246000fd5b50919050565b611f8c80620006166000396000f3fe6080604052600436106101fe5760003560e01c806385b50e8e1161011d578063c002d23d116100b0578063c87b56dd1161007f578063d5f3948811610064578063d5f3948814610556578063e6798baa1461057b578063e985e9c51461059157600080fd5b8063c87b56dd1461051c578063d12397301461053c57600080fd5b8063c002d23d146104ac578063c0335ea9146104c7578063c2230283146104cf578063c23dc68f146104ef57600080fd5b80639abc8320116100ec5780639abc83201461044f578063a22cb46514610464578063a2309ff814610484578063b88d4fde1461049957600080fd5b806385b50e8e146103da578063931688cb146103fa57806395d89b411461041a57806399a2557a1461042f57600080fd5b806332cb6b0c116101955780636352211e116101645780636352211e146103585780636c0360eb1461037857806370a082311461038d5780638462151c146103ad57600080fd5b806332cb6b0c146102ed5780633ccfd60b1461030357806342842e0e146103185780635bbb21771461032b57600080fd5b8063095ea7b3116101d1578063095ea7b31461029c5780631249c58b146102af57806318160ddd146102b757806323b872dd146102da57600080fd5b806301ffc9a71461020357806306fdde0314610238578063081812fc1461025a57806309327fac14610292575b600080fd5b34801561020f57600080fd5b5061022361021e366004611977565b6105da565b60405190151581526020015b60405180910390f35b34801561024457600080fd5b5061024d61062c565b60405161022f91906119ec565b34801561026657600080fd5b5061027a6102753660046119ff565b6106be565b6040516001600160a01b03909116815260200161022f565b61029a610702565b005b61029a6102aa366004611a34565b610810565b61029a6108c8565b3480156102c357600080fd5b506102cc6109c5565b60405190815260200161022f565b61029a6102e8366004611a5e565b6109dd565b3480156102f957600080fd5b506102cc610bb881565b34801561030f57600080fd5b5061029a610b6e565b61029a610326366004611a5e565b610bfc565b34801561033757600080fd5b5061034b610346366004611a9a565b610c1c565b60405161022f9190611b0f565b34801561036457600080fd5b5061027a6103733660046119ff565b610ce8565b34801561038457600080fd5b5061024d610cf3565b34801561039957600080fd5b506102cc6103a8366004611b8c565b610d02565b3480156103b957600080fd5b506103cd6103c8366004611b8c565b610d51565b60405161022f9190611ba7565b3480156103e657600080fd5b5061029a6103f5366004611c6b565b610e5e565b34801561040657600080fd5b5061029a610415366004611c6b565b610ee1565b34801561042657600080fd5b5061024d610f5d565b34801561043b57600080fd5b506103cd61044a366004611cb4565b610f6c565b34801561045b57600080fd5b5061024d611100565b34801561047057600080fd5b5061029a61047f366004611cf7565b61118e565b34801561049057600080fd5b506102cc6111fa565b61029a6104a7366004611d2a565b611204565b3480156104b857600080fd5b506102cc662386f26fc1000081565b61029a61124e565b3480156104db57600080fd5b5061029a6104ea366004611da6565b611355565b3480156104fb57600080fd5b5061050f61050a3660046119ff565b6113c7565b60405161022f9190611dc1565b34801561052857600080fd5b5061024d6105373660046119ff565b611450565b34801561054857600080fd5b506008546102239060ff1681565b34801561056257600080fd5b5060085461027a9061010090046001600160a01b031681565b34801561058757600080fd5b506102cc600a5481565b34801561059d57600080fd5b506102236105ac366004611e06565b6001600160a01b03918216600090815260076020908152604080832093909416825291909152205460ff1690565b60006301ffc9a760e01b6001600160e01b03198316148061060b57506380ac58cd60e01b6001600160e01b03198316145b806106265750635b5e139f60e01b6001600160e01b03198316145b92915050565b60606002805461063b90611e30565b80601f016020809104026020016040519081016040528092919081815260200182805461066790611e30565b80156106b45780601f10610689576101008083540402835291602001916106b4565b820191906000526020600020905b81548152906001019060200180831161069757829003601f168201915b5050505050905090565b60006106c9826114d4565b6106e6576040516333d1c03960e21b815260040160405180910390fd5b506000908152600660205260409020546001600160a01b031690565b610714662386f26fc100006005611e81565b3410156107595760405162461bcd60e51b815260206004820152600e60248201526d09cdee840cadcdeeaced0408aa8960931b60448201526064015b60405180910390fd5b610bb86107646109c5565b61076f906005611ea0565b106107b15760405162461bcd60e51b815260206004820152601260248201527113585e081cdd5c1c1b1e481c995858da195960721b6044820152606401610750565b60085460ff166108035760405162461bcd60e51b815260206004820152601660248201527f4d696e74696e67206973206e6f7420656e61626c6564000000000000000000006044820152606401610750565b61080e336005611510565b565b600061081b82610ce8565b9050336001600160a01b038216146108545761083781336105ac565b610854576040516367d9dca160e11b815260040160405180910390fd5b60008281526006602052604080822080547fffffffffffffffffffffffff0000000000000000000000000000000000000000166001600160a01b0387811691821790925591518593918516917f8c5be1e5ebec7d5bd14f71427d1e84f3dd0314c0f7b2291e5b200ac8c7c3b92591a4505050565b662386f26fc100003410156109105760405162461bcd60e51b815260206004820152600e60248201526d09cdee840cadcdeeaced0408aa8960931b6044820152606401610750565b610bb861091b6109c5565b610926906001611ea0565b106109685760405162461bcd60e51b815260206004820152601260248201527113585e081cdd5c1c1b1e481c995858da195960721b6044820152606401610750565b60085460ff166109ba5760405162461bcd60e51b815260206004820152601660248201527f4d696e74696e67206973206e6f7420656e61626c6564000000000000000000006044820152606401610750565b61080e336001611510565b60006109d0600a5490565b6001546000540303905090565b60006109e882611607565b9050836001600160a01b0316816001600160a01b031614610a1b5760405162a1148160e81b815260040160405180910390fd5b60008281526006602052604090208054338082146001600160a01b03881690911417610a6857610a4b86336105ac565b610a6857604051632ce44b5f60e11b815260040160405180910390fd5b6001600160a01b038516610a8f57604051633a954ecd60e21b815260040160405180910390fd5b8015610a9a57600082555b6001600160a01b038681166000908152600560205260408082208054600019019055918716808252919020805460010190554260a01b17600160e11b17600085815260046020526040902055600160e11b8316610b255760018401600081815260046020526040902054610b23576000548114610b235760008181526004602052604090208490555b505b83856001600160a01b0316876001600160a01b03167fddf252ad1be2c89b69c2b068fc378daa952ba7f163c4a11628f55a4df523b3ef60405160405180910390a4505050505050565b60085461010090046001600160a01b03163314610bcd5760405162461bcd60e51b815260206004820152600a60248201527f4f6e6c79206f776e6572000000000000000000000000000000000000000000006044820152606401610750565b60405133904780156108fc02916000818181858888f19350505050158015610bf9573d6000803e3d6000fd5b50565b610c1783838360405180602001604052806000815250611204565b505050565b60608160008167ffffffffffffffff811115610c3a57610c3a611bdf565b604051908082528060200260200182016040528015610c8c57816020015b604080516080810182526000808252602080830182905292820181905260608201528252600019909201910181610c585790505b50905060005b828114610cdf57610cba868683818110610cae57610cae611eb8565b905060200201356113c7565b828281518110610ccc57610ccc611eb8565b6020908102919091010152600101610c92565b50949350505050565b600061062682611607565b6060610cfd611677565b905090565b60006001600160a01b038216610d2b576040516323d3ad8160e21b815260040160405180910390fd5b506001600160a01b031660009081526005602052604090205467ffffffffffffffff1690565b60606000806000610d6185610d02565b905060008167ffffffffffffffff811115610d7e57610d7e611bdf565b604051908082528060200260200182016040528015610da7578160200160208202803683370190505b50604080516080810182526000808252602082018190529181018290526060810191909152600a54919250905b838614610e5257610de481611686565b9150816040015115610df557610e4a565b81516001600160a01b031615610e0a57815194505b876001600160a01b0316856001600160a01b03161415610e4a5780838780600101985081518110610e3d57610e3d611eb8565b6020026020010181815250505b600101610dd4565b50909695505050505050565b60085461010090046001600160a01b03163314610ebd5760405162461bcd60e51b815260206004820152601d60248201527f4f6e6c79206465706c6f7965722063616e20736574206d696e74696e670000006044820152606401610750565b6008805460ff191660011790558051610edd9060099060208401906118c8565b5050565b60085461010090046001600160a01b03163314610f4a5760405162461bcd60e51b815260206004820152602160248201527f4f6e6c79206465706c6f7965722063616e2075706461746520626173652055526044820152604960f81b6064820152608401610750565b8051610edd9060099060208401906118c8565b60606003805461063b90611e30565b6060818310610f8e57604051631960ccad60e11b815260040160405180910390fd5b600080610f9a60005490565b9050610fa5600a5490565b851015610fb257600a5494505b80841115610fbe578093505b6000610fc987610d02565b905084861015610fe85785850381811015610fe2578091505b50610fec565b5060005b60008167ffffffffffffffff81111561100757611007611bdf565b604051908082528060200260200182016040528015611030578160200160208202803683370190505b509050816110435793506110f992505050565b600061104e886113c7565b90506000816040015161105f575080515b885b8881141580156110715750848714155b156110ed5761107f81611686565b9250826040015115611090576110e5565b82516001600160a01b0316156110a557825191505b8a6001600160a01b0316826001600160a01b031614156110e557808488806001019950815181106110d8576110d8611eb8565b6020026020010181815250505b600101611061565b50505092835250909150505b9392505050565b6009805461110d90611e30565b80601f016020809104026020016040519081016040528092919081815260200182805461113990611e30565b80156111865780601f1061115b57610100808354040283529160200191611186565b820191906000526020600020905b81548152906001019060200180831161116957829003601f168201915b505050505081565b3360008181526007602090815260408083206001600160a01b03871680855290835292819020805460ff191686151590811790915590519081529192917f17307eab39ab6107e8899845ad3d59bd9653f200f220920489ca2b5937696c31910160405180910390a35050565b6000610cfd611705565b61120f8484846109dd565b6001600160a01b0383163b156112485761122b84848484611719565b611248576040516368d2bf6b60e11b815260040160405180910390fd5b50505050565b611260662386f26fc10000600a611e81565b3410156112a05760405162461bcd60e51b815260206004820152600e60248201526d09cdee840cadcdeeaced0408aa8960931b6044820152606401610750565b610bb86112ab6109c5565b6112b690600a611ea0565b106112f85760405162461bcd60e51b815260206004820152601260248201527113585e081cdd5c1c1b1e481c995858da195960721b6044820152606401610750565b60085460ff1661134a5760405162461bcd60e51b815260206004820152601660248201527f4d696e74696e67206973206e6f7420656e61626c6564000000000000000000006044820152606401610750565b61080e33600a611510565b60085461010090046001600160a01b031633146113b45760405162461bcd60e51b815260206004820181905260248201527f4f6e6c79206465706c6f7965722063616e20746f67676c65206d696e74696e676044820152606401610750565b6008805460ff1916911515919091179055565b604080516080810182526000808252602082018190529181018290526060810191909152604080516080810182526000808252602082018190529181018290526060810191909152600a5483108061142157506000548310155b1561142c5792915050565b61143583611686565b90508060400151156114475792915050565b6110f983611802565b606061145b826114d4565b61147857604051630a14c4b560e41b815260040160405180910390fd5b6000611482611677565b90508051600014156114a357604051806020016040528060008152506110f9565b806114ad8461187a565b6040516020016114be929190611ece565b6040516020818303038152906040529392505050565b6000816114e0600a5490565b111580156114ef575060005482105b8015610626575050600090815260046020526040902054600160e01b161590565b600054816115315760405163b562e8dd60e01b815260040160405180910390fd5b6001600160a01b03831660008181526005602090815260408083208054680100000000000000018802019055848352600490915281206001851460e11b4260a01b178317905582840190839083907fddf252ad1be2c89b69c2b068fc378daa952ba7f163c4a11628f55a4df523b3ef8180a4600183015b8181146115e057808360007fddf252ad1be2c89b69c2b068fc378daa952ba7f163c4a11628f55a4df523b3ef600080a46001016115a8565b50816115fe57604051622e076360e81b815260040160405180910390fd5b60005550505050565b60008180611614600a5490565b1161165e5760005481101561165e57600081815260046020526040902054600160e01b811661165c575b806110f957506000190160008181526004602052604090205461163e565b505b604051636f96cda160e11b815260040160405180910390fd5b60606009805461063b90611e30565b60408051608081018252600080825260208201819052918101829052606081019190915260008281526004602052604090205461062690604080516080810182526001600160a01b038316815260a083901c67ffffffffffffffff166020820152600160e01b831615159181019190915260e89190911c606082015290565b6000611710600a5490565b60005403905090565b604051630a85bd0160e11b81526000906001600160a01b0385169063150b7a029061174e903390899088908890600401611efd565b6020604051808303816000875af1925050508015611789575060408051601f3d908101601f1916820190925261178691810190611f39565b60015b6117e4573d8080156117b7576040519150601f19603f3d011682016040523d82523d6000602084013e6117bc565b606091505b5080516117dc576040516368d2bf6b60e11b815260040160405180910390fd5b805181602001fd5b6001600160e01b031916630a85bd0160e11b1490505b949350505050565b60408051608081018252600080825260208201819052918101829052606081019190915261062661183283611607565b604080516080810182526001600160a01b038316815260a083901c67ffffffffffffffff166020820152600160e01b831615159181019190915260e89190911c606082015290565b606060a06040510180604052602081039150506000815280825b600183039250600a81066030018353600a9004806118b1576118b6565b611894565b50819003601f19909101908152919050565b8280546118d490611e30565b90600052602060002090601f0160209004810192826118f6576000855561193c565b82601f1061190f57805160ff191683800117855561193c565b8280016001018555821561193c579182015b8281111561193c578251825591602001919060010190611921565b5061194892915061194c565b5090565b5b80821115611948576000815560010161194d565b6001600160e01b031981168114610bf957600080fd5b60006020828403121561198957600080fd5b81356110f981611961565b60005b838110156119af578181015183820152602001611997565b838111156112485750506000910152565b600081518084526119d8816020860160208601611994565b601f01601f19169290920160200192915050565b6020815260006110f960208301846119c0565b600060208284031215611a1157600080fd5b5035919050565b80356001600160a01b0381168114611a2f57600080fd5b919050565b60008060408385031215611a4757600080fd5b611a5083611a18565b946020939093013593505050565b600080600060608486031215611a7357600080fd5b611a7c84611a18565b9250611a8a60208501611a18565b9150604084013590509250925092565b60008060208385031215611aad57600080fd5b823567ffffffffffffffff80821115611ac557600080fd5b818501915085601f830112611ad957600080fd5b813581811115611ae857600080fd5b8660208260051b8501011115611afd57600080fd5b60209290920196919550909350505050565b6020808252825182820181905260009190848201906040850190845b81811015610e5257611b798385516001600160a01b03815116825267ffffffffffffffff602082015116602083015260408101511515604083015262ffffff60608201511660608301525050565b9284019260809290920191600101611b2b565b600060208284031215611b9e57600080fd5b6110f982611a18565b6020808252825182820181905260009190848201906040850190845b81811015610e5257835183529284019291840191600101611bc3565b634e487b7160e01b600052604160045260246000fd5b600067ffffffffffffffff80841115611c1057611c10611bdf565b604051601f8501601f19908116603f01168101908282118183101715611c3857611c38611bdf565b81604052809350858152868686011115611c5157600080fd5b858560208301376000602087830101525050509392505050565b600060208284031215611c7d57600080fd5b813567ffffffffffffffff811115611c9457600080fd5b8201601f81018413611ca557600080fd5b6117fa84823560208401611bf5565b600080600060608486031215611cc957600080fd5b611cd284611a18565b95602085013595506040909401359392505050565b80358015158114611a2f57600080fd5b60008060408385031215611d0a57600080fd5b611d1383611a18565b9150611d2160208401611ce7565b90509250929050565b60008060008060808587031215611d4057600080fd5b611d4985611a18565b9350611d5760208601611a18565b925060408501359150606085013567ffffffffffffffff811115611d7a57600080fd5b8501601f81018713611d8b57600080fd5b611d9a87823560208401611bf5565b91505092959194509250565b600060208284031215611db857600080fd5b6110f982611ce7565b81516001600160a01b0316815260208083015167ffffffffffffffff169082015260408083015115159082015260608083015162ffffff169082015260808101610626565b60008060408385031215611e1957600080fd5b611e2283611a18565b9150611d2160208401611a18565b600181811c90821680611e4457607f821691505b60208210811415611e6557634e487b7160e01b600052602260045260246000fd5b50919050565b634e487b7160e01b600052601160045260246000fd5b6000816000190483118215151615611e9b57611e9b611e6b565b500290565b60008219821115611eb357611eb3611e6b565b500190565b634e487b7160e01b600052603260045260246000fd5b60008351611ee0818460208801611994565b835190830190611ef4818360208801611994565b01949350505050565b60006001600160a01b03808716835280861660208401525083604083015260806060830152611f2f60808301846119c0565b9695505050505050565b600060208284031215611f4b57600080fd5b81516110f98161196156fea2646970667358221220377f7087c4bcfb9c9d58c504ca4d7ceef8ff1ac7fad73a8a9ca0b637bf31540764736f6c634300080b0033",
  "linkReferences": {},
  "deployedLinkReferences": {}
}