{
  "_format": "hh-sol-artifact-1",
  "contractName": "ERC721AGasReporterMock",
  "sourceName": "contracts/mocks/ERC721AGasReporterMock.sol",
  "abi": [
    {
      "inputs": [
        {
          "internalType": "string",
          "name": "name_",
          "type": "string"
        },
        {
          "internalType": "string",
          "name": "symbol_",
          "type": "string"
        }
      ],
      "stateMutability": "nonpayable",
      "type": "constructor"
    },
    {
      "inputs": [],
      "name": "ApprovalCallerNotOwnerNorApproved",
      "type": "error"
    },
    {
      "inputs": [],
      "name": "ApprovalQueryForNonexistentToken",
      "type": "error"
    },
    {
      "inputs": [],
      "name": "BalanceQueryForZeroAddress",
      "type": "error"
    },
    {
      "inputs": [],
      "name": "MintERC2309QuantityExceedsLimit",
      "type": "error"
    },
    {
      "inputs": [],
      "name": "MintToZeroAddress",
      "type": "error"
    },
    {
      "inputs": [],
      "name": "MintZeroQuantity",
      "type": "error"
    },
    {
      "inputs": [],
      "name": "OwnerQueryForNonexistentToken",
      "type": "error"
    },
    {
      "inputs": [],
      "name": "OwnershipNotInitializedForExtraData",
      "type": "error"
    },
    {
      "inputs": [],
      "name": "TransferCallerNotOwnerNorApproved",
      "type": "error"
    },
    {
      "inputs": [],
      "name": "TransferFromIncorrectOwner",
      "type": "error"
    },
    {
      "inputs": [],
      "name": "TransferToNonERC721ReceiverImplementer",
      "type": "error"
    },
    {
      "inputs": [],
      "name": "TransferToZeroAddress",
      "type": "error"
    },
    {
      "inputs": [],
      "name": "URIQueryForNonexistentToken",
      "type": "error"
    },
    {
      "anonymous": false,
      "inputs": [
        {
          "indexed": true,
          "internalType": "address",
          "name": "owner",
          "type": "address"
        },
        {
          "indexed": true,
          "internalType": "address",
          "name": "approved",
          "type": "address"
        },
        {
          "indexed": true,
          "internalType": "uint256",
          "name": "tokenId",
          "type": "uint256"
        }
      ],
      "name": "Approval",
      "type": "event"
    },
    {
      "anonymous": false,
      "inputs": [
        {
          "indexed": true,
          "internalType": "address",
          "name": "owner",
          "type": "address"
        },
        {
          "indexed": true,
          "internalType": "address",
          "name": "operator",
          "type": "address"
        },
        {
          "indexed": false,
          "internalType": "bool",
          "name": "approved",
          "type": "bool"
        }
      ],
      "name": "ApprovalForAll",
      "type": "event"
    },
    {
      "anonymous": false,
      "inputs": [
        {
          "indexed": true,
          "internalType": "uint256",
          "name": "fromTokenId",
          "type": "uint256"
        },
        {
          "indexed": false,
          "internalType": "uint256",
          "name": "toTokenId",
          "type": "uint256"
        },
        {
          "indexed": true,
          "internalType": "address",
          "name": "from",
          "type": "address"
        },
        {
          "indexed": true,
          "internalType": "address",
          "name": "to",
          "type": "address"
        }
      ],
      "name": "ConsecutiveTransfer",
      "type": "event"
    },
    {
      "anonymous": false,
      "inputs": [
        {
          "indexed": true,
          "internalType": "address",
          "name": "from",
          "type": "address"
        },
        {
          "indexed": true,
          "internalType": "address",
          "name": "to",
          "type": "address"
        },
        {
          "indexed": true,
          "internalType": "uint256",
          "name": "tokenId",
          "type": "uint256"
        }
      ],
      "name": "Transfer",
      "type": "event"
    },
    {
      "inputs": [
        {
          "internalType": "address",
          "name": "to",
          "type": "address"
        },
        {
          "internalType": "uint256",
          "name": "tokenId",
          "type": "uint256"
        }
      ],
      "name": "approve",
      "outputs": [],
      "stateMutability": "payable",
      "type": "function"
    },
    {
      "inputs": [
        {
          "internalType": "address",
          "name": "owner",
          "type": "address"
        }
      ],
      "name": "balanceOf",
      "outputs": [
        {
          "internalType": "uint256",
          "name": "",
          "type": "uint256"
        }
      ],
      "stateMutability": "view",
      "type": "function"
    },
    {
      "inputs": [
        {
          "internalType": "uint256",
          "name": "tokenId",
          "type": "uint256"
        }
      ],
      "name": "getApproved",
      "outputs": [
        {
          "internalType": "address",
          "name": "",
          "type": "address"
        }
      ],
      "stateMutability": "view",
      "type": "function"
    },
    {
      "inputs": [
        {
          "internalType": "address",
          "name": "owner",
          "type": "address"
        },
        {
          "internalType": "address",
          "name": "operator",
          "type": "address"
        }
      ],
      "name": "isApprovedForAll",
      "outputs": [
        {
          "internalType": "bool",
          "name": "",
          "type": "bool"
        }
      ],
      "stateMutability": "view",
      "type": "function"
    },
    {
      "inputs": [
        {
          "internalType": "address",
          "name": "to",
          "type": "address"
        }
      ],
      "name": "mintOne",
      "outputs": [],
      "stateMutability": "nonpayable",
      "type": "function"
    },
    {
      "inputs": [
        {
          "internalType": "address",
          "name": "to",
          "type": "address"
        }
      ],
      "name": "mintTen",
      "outputs": [],
      "stateMutability": "nonpayable",
      "type": "function"
    },
    {
      "inputs": [],
      "name": "name",
      "outputs": [
        {
          "internalType": "string",
          "name": "",
          "type": "string"
        }
      ],
      "stateMutability": "view",
      "type": "function"
    },
    {
      "inputs": [
        {
          "internalType": "uint256",
          "name": "tokenId",
          "type": "uint256"
        }
      ],
      "name": "ownerOf",
      "outputs": [
        {
          "internalType": "address",
          "name": "",
          "type": "address"
        }
      ],
      "stateMutability": "view",
      "type": "function"
    },
    {
      "inputs": [
        {
          "internalType": "address",
          "name": "to",
          "type": "address"
        }
      ],
      "name": "safeMintOne",
      "outputs": [],
      "stateMutability": "nonpayable",
      "type": "function"
    },
    {
      "inputs": [
        {
          "internalType": "address",
          "name": "to",
          "type": "address"
        }
      ],
      "name": "safeMintTen",
      "outputs": [],
      "stateMutability": "nonpayable",
      "type": "function"
    },
    {
      "inputs": [
        {
          "internalType": "address",
          "name": "from",
          "type": "address"
        },
        {
          "internalType": "address",
          "name": "to",
          "type": "address"
        },
        {
          "internalType": "uint256",
          "name": "tokenId",
          "type": "uint256"
        }
      ],
      "name": "safeTransferFrom",
      "outputs": [],
      "stateMutability": "payable",
      "type": "function"
    },
    {
      "inputs": [
        {
          "internalType": "address",
          "name": "from",
          "type": "address"
        },
        {
          "internalType": "address",
          "name": "to",
          "type": "address"
        },
        {
          "internalType": "uint256",
          "name": "tokenId",
          "type": "uint256"
        },
        {
          "internalType": "bytes",
          "name": "_data",
          "type": "bytes"
        }
      ],
      "name": "safeTransferFrom",
      "outputs": [],
      "stateMutability": "payable",
      "type": "function"
    },
    {
      "inputs": [
        {
          "internalType": "address",
          "name": "operator",
          "type": "address"
        },
        {
          "internalType": "bool",
          "name": "approved",
          "type": "bool"
        }
      ],
      "name": "setApprovalForAll",
      "outputs": [],
      "stateMutability": "nonpayable",
      "type": "function"
    },
    {
      "inputs": [
        {
          "internalType": "bytes4",
          "name": "interfaceId",
          "type": "bytes4"
        }
      ],
      "name": "supportsInterface",
      "outputs": [
        {
          "internalType": "bool",
          "name": "",
          "type": "bool"
        }
      ],
      "stateMutability": "view",
      "type": "function"
    },
    {
      "inputs": [],
      "name": "symbol",
      "outputs": [
        {
          "internalType": "string",
          "name": "",
          "type": "string"
        }
      ],
      "stateMutability": "view",
      "type": "function"
    },
    {
      "inputs": [
        {
          "internalType": "uint256",
          "name": "tokenId",
          "type": "uint256"
        }
      ],
      "name": "tokenURI",
      "outputs": [
        {
          "internalType": "string",
          "name": "",
          "type": "string"
        }
      ],
      "stateMutability": "view",
      "type": "function"
    },
    {
      "inputs": [],
      "name": "totalSupply",
      "outputs": [
        {
          "internalType": "uint256",
          "name": "",
          "type": "uint256"
        }
      ],
      "stateMutability": "view",
      "type": "function"
    },
    {
      "inputs": [
        {
          "internalType": "address",
          "name": "from",
          "type": "address"
        },
        {
          "internalType": "address",
          "name": "to",
          "type": "address"
        },
        {
          "internalType": "uint256",
          "name": "tokenId",
          "type": "uint256"
        }
      ],
      "name": "transferFrom",
      "outputs": [],
      "stateMutability": "payable",
      "type": "function"
    },
    {
      "inputs": [
        {
          "internalType": "address",
          "name": "to",
          "type": "address"
        }
      ],
      "name": "transferTenAsc",
      "outputs": [],
      "stateMutability": "nonpayable",
      "type": "function"
    },
    {
      "inputs": [
        {
          "internalType": "address",
          "name": "to",
          "type": "address"
        }
      ],
      "name": "transferTenAvg",
      "outputs": [],
      "stateMutability": "nonpayable",
      "type": "function"
    },
    {
      "inputs": [
        {
          "internalType": "address",
          "name": "to",
          "type": "address"
        }
      ],
      "name": "transferTenDesc",
      "outputs": [],
      "stateMutability": "nonpayable",
      "type": "function"
    }
  ],
  "bytecode": "0x60806040523480156200001157600080fd5b5060405162001485380380620014858339810160408190526200003491620001e6565b8151829082906200004d90600290602085019062000073565b5080516200006390600390602084019062000073565b5060008055506200028d92505050565b828054620000819062000250565b90600052602060002090601f016020900481019282620000a55760008555620000f0565b82601f10620000c057805160ff1916838001178555620000f0565b82800160010185558215620000f0579182015b82811115620000f0578251825591602001919060010190620000d3565b50620000fe92915062000102565b5090565b5b80821115620000fe576000815560010162000103565b634e487b7160e01b600052604160045260246000fd5b600082601f8301126200014157600080fd5b81516001600160401b03808211156200015e576200015e62000119565b604051601f8301601f19908116603f0116810190828211818310171562000189576200018962000119565b81604052838152602092508683858801011115620001a657600080fd5b600091505b83821015620001ca5785820183015181830184015290820190620001ab565b83821115620001dc5760008385830101525b9695505050505050565b60008060408385031215620001fa57600080fd5b82516001600160401b03808211156200021257600080fd5b62000220868387016200012f565b935060208501519150808211156200023757600080fd5b5062000246858286016200012f565b9150509250929050565b600181811c908216806200026557607f821691505b602082108114156200028757634e487b7160e01b600052602260045260246000fd5b50919050565b6111e8806200029d6000396000f3fe60806040526004361061016a5760003560e01c806370a08231116100cb578063bcd9bbbc1161007f578063e985e9c511610059578063e985e9c5146103a4578063ef9c0bec146103ed578063fa695a971461040d57600080fd5b8063bcd9bbbc14610344578063c87b56dd14610364578063db6745f81461038457600080fd5b806395d89b41116100b057806395d89b41146102fc578063a22cb46514610311578063b88d4fde1461033157600080fd5b806370a08231146102bc57806381861f84146102dc57600080fd5b806318160ddd1161012257806342842e0e1161010757806342842e0e146102695780634da42e581461027c5780636352211e1461029c57600080fd5b806318160ddd1461023357806323b872dd1461025657600080fd5b8063081812fc11610153578063081812fc146101c6578063095ea7b3146101fe5780630ff4ba631461021357600080fd5b806301ffc9a71461016f57806306fdde03146101a4575b600080fd5b34801561017b57600080fd5b5061018f61018a366004610e50565b61042d565b60405190151581526020015b60405180910390f35b3480156101b057600080fd5b506101b961047f565b60405161019b9190610ec5565b3480156101d257600080fd5b506101e66101e1366004610ed8565b610511565b6040516001600160a01b03909116815260200161019b565b61021161020c366004610f0d565b610555565b005b34801561021f57600080fd5b5061021161022e366004610f37565b61060d565b34801561023f57600080fd5b50600154600054035b60405190815260200161019b565b610211610264366004610f52565b610688565b610211610277366004610f52565b610819565b34801561028857600080fd5b50610211610297366004610f37565b610839565b3480156102a857600080fd5b506101e66102b7366004610ed8565b6108b1565b3480156102c857600080fd5b506102486102d7366004610f37565b6108bc565b3480156102e857600080fd5b506102116102f7366004610f37565b61090b565b34801561030857600080fd5b506101b9610916565b34801561031d57600080fd5b5061021161032c366004610f8e565b610925565b61021161033f366004610fe0565b610991565b34801561035057600080fd5b5061021161035f366004610f37565b6109db565b34801561037057600080fd5b506101b961037f366004610ed8565b610a47565b34801561039057600080fd5b5061021161039f366004610f37565b610ad9565b3480156103b057600080fd5b5061018f6103bf3660046110bc565b6001600160a01b03918216600090815260076020908152604080832093909416825291909152205460ff1690565b3480156103f957600080fd5b50610211610408366004610f37565b610ae4565b34801561041957600080fd5b50610211610428366004610f37565b610aef565b60006301ffc9a760e01b6001600160e01b03198316148061045e57506380ac58cd60e01b6001600160e01b03198316145b806104795750635b5e139f60e01b6001600160e01b03198316145b92915050565b60606002805461048e906110ef565b80601f01602080910402602001604051908101604052809291908181526020018280546104ba906110ef565b80156105075780601f106104dc57610100808354040283529160200191610507565b820191906000526020600020905b8154815290600101906020018083116104ea57829003601f168201915b5050505050905090565b600061051c82610afa565b610539576040516333d1c03960e21b815260040160405180910390fd5b506000908152600660205260409020546001600160a01b031690565b6000610560826108b1565b9050336001600160a01b038216146105995761057c81336103bf565b610599576040516367d9dca160e11b815260040160405180910390fd5b60008281526006602052604080822080547fffffffffffffffffffffffff0000000000000000000000000000000000000000166001600160a01b0387811691821790925591518593918516917f8c5be1e5ebec7d5bd14f71427d1e84f3dd0314c0f7b2291e5b200ac8c7c3b92591a4505050565b61061933826000610688565b61062533826001610688565b61063133826002610688565b61063d33826003610688565b61064933826004610688565b61065533826005610688565b61066133826006610688565b61066d33826007610688565b61067933826008610688565b61068533826009610688565b50565b600061069382610b21565b9050836001600160a01b0316816001600160a01b0316146106c65760405162a1148160e81b815260040160405180910390fd5b60008281526006602052604090208054338082146001600160a01b03881690911417610713576106f686336103bf565b61071357604051632ce44b5f60e11b815260040160405180910390fd5b6001600160a01b03851661073a57604051633a954ecd60e21b815260040160405180910390fd5b801561074557600082555b6001600160a01b038681166000908152600560205260408082208054600019019055918716808252919020805460010190554260a01b17600160e11b17600085815260046020526040902055600160e11b83166107d057600184016000818152600460205260409020546107ce5760005481146107ce5760008181526004602052604090208490555b505b83856001600160a01b0316876001600160a01b03167fddf252ad1be2c89b69c2b068fc378daa952ba7f163c4a11628f55a4df523b3ef60405160405180910390a4505050505050565b61083483838360405180602001604052806000815250610991565b505050565b61084533826009610688565b61085133826008610688565b61085d33826007610688565b61086933826006610688565b61087533826005610688565b61088133826004610688565b61088d33826003610688565b61089933826002610688565b6108a533826001610688565b61068533826000610688565b600061047982610b21565b60006001600160a01b0382166108e5576040516323d3ad8160e21b815260040160405180910390fd5b506001600160a01b031660009081526005602052604090205467ffffffffffffffff1690565b61068581600a610b82565b60606003805461048e906110ef565b3360008181526007602090815260408083206001600160a01b03871680855290835292819020805460ff191686151590811790915590519081529192917f17307eab39ab6107e8899845ad3d59bd9653f200f220920489ca2b5937696c31910160405180910390a35050565b61099c848484610688565b6001600160a01b0383163b156109d5576109b884848484610ba0565b6109d5576040516368d2bf6b60e11b815260040160405180910390fd5b50505050565b6109e733826004610688565b6109f333826005610688565b6109ff33826003610688565b610a0b33826006610688565b610a1733826002610688565b610a2333826007610688565b610a2f33826001610688565b610a3b33826008610688565b61067933826000610688565b6060610a5282610afa565b610a6f57604051630a14c4b560e41b815260040160405180910390fd5b6000610a8660408051602081019091526000815290565b9050805160001415610aa75760405180602001604052806000815250610ad2565b80610ab184610c88565b604051602001610ac292919061112a565b6040516020818303038152906040525b9392505050565b610685816001610b82565b61068581600a610cd6565b610685816001610cd6565b6000805482108015610479575050600090815260046020526040902054600160e01b161590565b600081600054811015610b6957600081815260046020526040902054600160e01b8116610b67575b80610ad2575060001901600081815260046020526040902054610b49565b505b604051636f96cda160e11b815260040160405180910390fd5b610b9c828260405180602001604052806000815250610dcd565b5050565b604051630a85bd0160e11b81526000906001600160a01b0385169063150b7a0290610bd5903390899088908890600401611159565b6020604051808303816000875af1925050508015610c10575060408051601f3d908101601f19168201909252610c0d91810190611195565b60015b610c6b573d808015610c3e576040519150601f19603f3d011682016040523d82523d6000602084013e610c43565b606091505b508051610c63576040516368d2bf6b60e11b815260040160405180910390fd5b805181602001fd5b6001600160e01b031916630a85bd0160e11b149050949350505050565b606060a06040510180604052602081039150506000815280825b600183039250600a81066030018353600a900480610cbf57610cc4565b610ca2565b50819003601f19909101908152919050565b60005481610cf75760405163b562e8dd60e01b815260040160405180910390fd5b6001600160a01b03831660008181526005602090815260408083208054680100000000000000018802019055848352600490915281206001851460e11b4260a01b178317905582840190839083907fddf252ad1be2c89b69c2b068fc378daa952ba7f163c4a11628f55a4df523b3ef8180a4600183015b818114610da657808360007fddf252ad1be2c89b69c2b068fc378daa952ba7f163c4a11628f55a4df523b3ef600080a4600101610d6e565b5081610dc457604051622e076360e81b815260040160405180910390fd5b60005550505050565b610dd78383610cd6565b6001600160a01b0383163b15610834576000548281035b610e016000868380600101945086610ba0565b610e1e576040516368d2bf6b60e11b815260040160405180910390fd5b818110610dee578160005414610e3357600080fd5b5050505050565b6001600160e01b03198116811461068557600080fd5b600060208284031215610e6257600080fd5b8135610ad281610e3a565b60005b83811015610e88578181015183820152602001610e70565b838111156109d55750506000910152565b60008151808452610eb1816020860160208601610e6d565b601f01601f19169290920160200192915050565b602081526000610ad26020830184610e99565b600060208284031215610eea57600080fd5b5035919050565b80356001600160a01b0381168114610f0857600080fd5b919050565b60008060408385031215610f2057600080fd5b610f2983610ef1565b946020939093013593505050565b600060208284031215610f4957600080fd5b610ad282610ef1565b600080600060608486031215610f6757600080fd5b610f7084610ef1565b9250610f7e60208501610ef1565b9150604084013590509250925092565b60008060408385031215610fa157600080fd5b610faa83610ef1565b915060208301358015158114610fbf57600080fd5b809150509250929050565b634e487b7160e01b600052604160045260246000fd5b60008060008060808587031215610ff657600080fd5b610fff85610ef1565b935061100d60208601610ef1565b925060408501359150606085013567ffffffffffffffff8082111561103157600080fd5b818701915087601f83011261104557600080fd5b81358181111561105757611057610fca565b604051601f8201601f19908116603f0116810190838211818310171561107f5761107f610fca565b816040528281528a602084870101111561109857600080fd5b82602086016020830137600060208483010152809550505050505092959194509250565b600080604083850312156110cf57600080fd5b6110d883610ef1565b91506110e660208401610ef1565b90509250929050565b600181811c9082168061110357607f821691505b6020821081141561112457634e487b7160e01b600052602260045260246000fd5b50919050565b6000835161113c818460208801610e6d565b835190830190611150818360208801610e6d565b01949350505050565b60006001600160a01b0380871683528086166020840152508360408301526080606083015261118b6080830184610e99565b9695505050505050565b6000602082840312156111a757600080fd5b8151610ad281610e3a56fea2646970667358221220ae8e9855e91fe11da130e0cf2a59a3371c5e4ad0d6d02e8394c0ec403247a5ba64736f6c634300080b0033",
  "linkReferences": {},
  "deployedLinkReferences": {}
}