{
  "_format": "hh-sol-artifact-1",
  "contractName": "ERC721AStartTokenIdMock",
  "sourceName": "contracts/mocks/ERC721AStartTokenIdMock.sol",
  "abi": [
    {
      "inputs": [
        {
          "internalType": "string",
          "name": "name_",
          "type": "string"
        },
        {
          "internalType": "string",
          "name": "symbol_",
          "type": "string"
        },
        {
          "internalType": "uint256",
          "name": "startTokenId_",
          "type": "uint256"
        }
      ],
      "stateMutability": "nonpayable",
      "type": "constructor"
    },
    {
      "inputs": [],
      "name": "ApprovalCallerNotOwnerNorApproved",
      "type": "error"
    },
    {
      "inputs": [],
      "name": "ApprovalQueryForNonexistentToken",
      "type": "error"
    },
    {
      "inputs": [],
      "name": "BalanceQueryForZeroAddress",
      "type": "error"
    },
    {
      "inputs": [],
      "name": "MintERC2309QuantityExceedsLimit",
      "type": "error"
    },
    {
      "inputs": [],
      "name": "MintToZeroAddress",
      "type": "error"
    },
    {
      "inputs": [],
      "name": "MintZeroQuantity",
      "type": "error"
    },
    {
      "inputs": [],
      "name": "OwnerQueryForNonexistentToken",
      "type": "error"
    },
    {
      "inputs": [],
      "name": "OwnershipNotInitializedForExtraData",
      "type": "error"
    },
    {
      "inputs": [],
      "name": "TransferCallerNotOwnerNorApproved",
      "type": "error"
    },
    {
      "inputs": [],
      "name": "TransferFromIncorrectOwner",
      "type": "error"
    },
    {
      "inputs": [],
      "name": "TransferToNonERC721ReceiverImplementer",
      "type": "error"
    },
    {
      "inputs": [],
      "name": "TransferToZeroAddress",
      "type": "error"
    },
    {
      "inputs": [],
      "name": "URIQueryForNonexistentToken",
      "type": "error"
    },
    {
      "anonymous": false,
      "inputs": [
        {
          "indexed": true,
          "internalType": "address",
          "name": "owner",
          "type": "address"
        },
        {
          "indexed": true,
          "internalType": "address",
          "name": "approved",
          "type": "address"
        },
        {
          "indexed": true,
          "internalType": "uint256",
          "name": "tokenId",
          "type": "uint256"
        }
      ],
      "name": "Approval",
      "type": "event"
    },
    {
      "anonymous": false,
      "inputs": [
        {
          "indexed": true,
          "internalType": "address",
          "name": "owner",
          "type": "address"
        },
        {
          "indexed": true,
          "internalType": "address",
          "name": "operator",
          "type": "address"
        },
        {
          "indexed": false,
          "internalType": "bool",
          "name": "approved",
          "type": "bool"
        }
      ],
      "name": "ApprovalForAll",
      "type": "event"
    },
    {
      "anonymous": false,
      "inputs": [
        {
          "indexed": true,
          "internalType": "uint256",
          "name": "fromTokenId",
          "type": "uint256"
        },
        {
          "indexed": false,
          "internalType": "uint256",
          "name": "toTokenId",
          "type": "uint256"
        },
        {
          "indexed": true,
          "internalType": "address",
          "name": "from",
          "type": "address"
        },
        {
          "indexed": true,
          "internalType": "address",
          "name": "to",
          "type": "address"
        }
      ],
      "name": "ConsecutiveTransfer",
      "type": "event"
    },
    {
      "anonymous": false,
      "inputs": [
        {
          "indexed": true,
          "internalType": "address",
          "name": "from",
          "type": "address"
        },
        {
          "indexed": true,
          "internalType": "address",
          "name": "to",
          "type": "address"
        },
        {
          "indexed": true,
          "internalType": "uint256",
          "name": "tokenId",
          "type": "uint256"
        }
      ],
      "name": "Transfer",
      "type": "event"
    },
    {
      "inputs": [
        {
          "internalType": "address",
          "name": "to",
          "type": "address"
        },
        {
          "internalType": "uint256",
          "name": "tokenId",
          "type": "uint256"
        }
      ],
      "name": "approve",
      "outputs": [],
      "stateMutability": "payable",
      "type": "function"
    },
    {
      "inputs": [
        {
          "internalType": "address",
          "name": "owner",
          "type": "address"
        }
      ],
      "name": "balanceOf",
      "outputs": [
        {
          "internalType": "uint256",
          "name": "",
          "type": "uint256"
        }
      ],
      "stateMutability": "view",
      "type": "function"
    },
    {
      "inputs": [],
      "name": "baseURI",
      "outputs": [
        {
          "internalType": "string",
          "name": "",
          "type": "string"
        }
      ],
      "stateMutability": "view",
      "type": "function"
    },
    {
      "inputs": [
        {
          "internalType": "uint256",
          "name": "tokenId",
          "type": "uint256"
        }
      ],
      "name": "burn",
      "outputs": [],
      "stateMutability": "nonpayable",
      "type": "function"
    },
    {
      "inputs": [
        {
          "internalType": "uint256",
          "name": "tokenId",
          "type": "uint256"
        },
        {
          "internalType": "bool",
          "name": "approvalCheck",
          "type": "bool"
        }
      ],
      "name": "burn",
      "outputs": [],
      "stateMutability": "nonpayable",
      "type": "function"
    },
    {
      "inputs": [
        {
          "internalType": "uint256",
          "name": "tokenId",
          "type": "uint256"
        }
      ],
      "name": "exists",
      "outputs": [
        {
          "internalType": "bool",
          "name": "",
          "type": "bool"
        }
      ],
      "stateMutability": "view",
      "type": "function"
    },
    {
      "inputs": [
        {
          "internalType": "uint256",
          "name": "tokenId",
          "type": "uint256"
        }
      ],
      "name": "getApproved",
      "outputs": [
        {
          "internalType": "address",
          "name": "",
          "type": "address"
        }
      ],
      "stateMutability": "view",
      "type": "function"
    },
    {
      "inputs": [
        {
          "internalType": "address",
          "name": "owner",
          "type": "address"
        }
      ],
      "name": "getAux",
      "outputs": [
        {
          "internalType": "uint64",
          "name": "",
          "type": "uint64"
        }
      ],
      "stateMutability": "view",
      "type": "function"
    },
    {
      "inputs": [
        {
          "internalType": "uint256",
          "name": "index",
          "type": "uint256"
        }
      ],
      "name": "getOwnershipAt",
      "outputs": [
        {
          "components": [
            {
              "internalType": "address",
              "name": "addr",
              "type": "address"
            },
            {
              "internalType": "uint64",
              "name": "startTimestamp",
              "type": "uint64"
            },
            {
              "internalType": "bool",
              "name": "burned",
              "type": "bool"
            },
            {
              "internalType": "uint24",
              "name": "extraData",
              "type": "uint24"
            }
          ],
          "internalType": "struct IERC721A.TokenOwnership",
          "name": "",
          "type": "tuple"
        }
      ],
      "stateMutability": "view",
      "type": "function"
    },
    {
      "inputs": [
        {
          "internalType": "uint256",
          "name": "index",
          "type": "uint256"
        }
      ],
      "name": "getOwnershipOf",
      "outputs": [
        {
          "components": [
            {
              "internalType": "address",
              "name": "addr",
              "type": "address"
            },
            {
              "internalType": "uint64",
              "name": "startTimestamp",
              "type": "uint64"
            },
            {
              "internalType": "bool",
              "name": "burned",
              "type": "bool"
            },
            {
              "internalType": "uint24",
              "name": "extraData",
              "type": "uint24"
            }
          ],
          "internalType": "struct IERC721A.TokenOwnership",
          "name": "",
          "type": "tuple"
        }
      ],
      "stateMutability": "view",
      "type": "function"
    },
    {
      "inputs": [
        {
          "internalType": "uint256",
          "name": "index",
          "type": "uint256"
        }
      ],
      "name": "initializeOwnershipAt",
      "outputs": [],
      "stateMutability": "nonpayable",
      "type": "function"
    },
    {
      "inputs": [
        {
          "internalType": "address",
          "name": "owner",
          "type": "address"
        },
        {
          "internalType": "address",
          "name": "operator",
          "type": "address"
        }
      ],
      "name": "isApprovedForAll",
      "outputs": [
        {
          "internalType": "bool",
          "name": "",
          "type": "bool"
        }
      ],
      "stateMutability": "view",
      "type": "function"
    },
    {
      "inputs": [
        {
          "internalType": "address",
          "name": "to",
          "type": "address"
        },
        {
          "internalType": "uint256",
          "name": "quantity",
          "type": "uint256"
        }
      ],
      "name": "mint",
      "outputs": [],
      "stateMutability": "nonpayable",
      "type": "function"
    },
    {
      "inputs": [],
      "name": "name",
      "outputs": [
        {
          "internalType": "string",
          "name": "",
          "type": "string"
        }
      ],
      "stateMutability": "view",
      "type": "function"
    },
    {
      "inputs": [],
      "name": "nextTokenId",
      "outputs": [
        {
          "internalType": "uint256",
          "name": "",
          "type": "uint256"
        }
      ],
      "stateMutability": "view",
      "type": "function"
    },
    {
      "inputs": [
        {
          "internalType": "address",
          "name": "owner",
          "type": "address"
        }
      ],
      "name": "numberMinted",
      "outputs": [
        {
          "internalType": "uint256",
          "name": "",
          "type": "uint256"
        }
      ],
      "stateMutability": "view",
      "type": "function"
    },
    {
      "inputs": [
        {
          "internalType": "uint256",
          "name": "tokenId",
          "type": "uint256"
        }
      ],
      "name": "ownerOf",
      "outputs": [
        {
          "internalType": "address",
          "name": "",
          "type": "address"
        }
      ],
      "stateMutability": "view",
      "type": "function"
    },
    {
      "inputs": [
        {
          "internalType": "address",
          "name": "to",
          "type": "address"
        },
        {
          "internalType": "uint256",
          "name": "quantity",
          "type": "uint256"
        },
        {
          "internalType": "bytes",
          "name": "_data",
          "type": "bytes"
        }
      ],
      "name": "safeMint",
      "outputs": [],
      "stateMutability": "nonpayable",
      "type": "function"
    },
    {
      "inputs": [
        {
          "internalType": "address",
          "name": "to",
          "type": "address"
        },
        {
          "internalType": "uint256",
          "name": "quantity",
          "type": "uint256"
        }
      ],
      "name": "safeMint",
      "outputs": [],
      "stateMutability": "nonpayable",
      "type": "function"
    },
    {
      "inputs": [
        {
          "internalType": "address",
          "name": "from",
          "type": "address"
        },
        {
          "internalType": "address",
          "name": "to",
          "type": "address"
        },
        {
          "internalType": "uint256",
          "name": "tokenId",
          "type": "uint256"
        }
      ],
      "name": "safeTransferFrom",
      "outputs": [],
      "stateMutability": "payable",
      "type": "function"
    },
    {
      "inputs": [
        {
          "internalType": "address",
          "name": "from",
          "type": "address"
        },
        {
          "internalType": "address",
          "name": "to",
          "type": "address"
        },
        {
          "internalType": "uint256",
          "name": "tokenId",
          "type": "uint256"
        },
        {
          "internalType": "bytes",
          "name": "_data",
          "type": "bytes"
        }
      ],
      "name": "safeTransferFrom",
      "outputs": [],
      "stateMutability": "payable",
      "type": "function"
    },
    {
      "inputs": [
        {
          "internalType": "address",
          "name": "operator",
          "type": "address"
        },
        {
          "internalType": "bool",
          "name": "approved",
          "type": "bool"
        }
      ],
      "name": "setApprovalForAll",
      "outputs": [],
      "stateMutability": "nonpayable",
      "type": "function"
    },
    {
      "inputs": [
        {
          "internalType": "address",
          "name": "owner",
          "type": "address"
        },
        {
          "internalType": "uint64",
          "name": "aux",
          "type": "uint64"
        }
      ],
      "name": "setAux",
      "outputs": [],
      "stateMutability": "nonpayable",
      "type": "function"
    },
    {
      "inputs": [],
      "name": "startTokenId",
      "outputs": [
        {
          "internalType": "uint256",
          "name": "",
          "type": "uint256"
        }
      ],
      "stateMutability": "view",
      "type": "function"
    },
    {
      "inputs": [
        {
          "internalType": "bytes4",
          "name": "interfaceId",
          "type": "bytes4"
        }
      ],
      "name": "supportsInterface",
      "outputs": [
        {
          "internalType": "bool",
          "name": "",
          "type": "bool"
        }
      ],
      "stateMutability": "view",
      "type": "function"
    },
    {
      "inputs": [],
      "name": "symbol",
      "outputs": [
        {
          "internalType": "string",
          "name": "",
          "type": "string"
        }
      ],
      "stateMutability": "view",
      "type": "function"
    },
    {
      "inputs": [
        {
          "internalType": "uint256",
          "name": "x",
          "type": "uint256"
        }
      ],
      "name": "toString",
      "outputs": [
        {
          "internalType": "string",
          "name": "",
          "type": "string"
        }
      ],
      "stateMutability": "pure",
      "type": "function"
    },
    {
      "inputs": [
        {
          "internalType": "uint256",
          "name": "tokenId",
          "type": "uint256"
        }
      ],
      "name": "tokenURI",
      "outputs": [
        {
          "internalType": "string",
          "name": "",
          "type": "string"
        }
      ],
      "stateMutability": "view",
      "type": "function"
    },
    {
      "inputs": [],
      "name": "totalBurned",
      "outputs": [
        {
          "internalType": "uint256",
          "name": "",
          "type": "uint256"
        }
      ],
      "stateMutability": "view",
      "type": "function"
    },
    {
      "inputs": [],
      "name": "totalMinted",
      "outputs": [
        {
          "internalType": "uint256",
          "name": "",
          "type": "uint256"
        }
      ],
      "stateMutability": "view",
      "type": "function"
    },
    {
      "inputs": [],
      "name": "totalSupply",
      "outputs": [
        {
          "internalType": "uint256",
          "name": "",
          "type": "uint256"
        }
      ],
      "stateMutability": "view",
      "type": "function"
    },
    {
      "inputs": [
        {
          "internalType": "address",
          "name": "from",
          "type": "address"
        },
        {
          "internalType": "address",
          "name": "to",
          "type": "address"
        },
        {
          "internalType": "uint256",
          "name": "tokenId",
          "type": "uint256"
        }
      ],
      "name": "transferFrom",
      "outputs": [],
      "stateMutability": "payable",
      "type": "function"
    }
  ],
  "bytecode": "0x60806040523480156200001157600080fd5b50604051620019fd380380620019fd8339810160408190526200003491620001f4565b6000819055825183908390829082906200005690600390602085019062000081565b5080516200006c90600490602084019062000081565b5060005460015550620002a495505050505050565b8280546200008f9062000267565b90600052602060002090601f016020900481019282620000b35760008555620000fe565b82601f10620000ce57805160ff1916838001178555620000fe565b82800160010185558215620000fe579182015b82811115620000fe578251825591602001919060010190620000e1565b506200010c92915062000110565b5090565b5b808211156200010c576000815560010162000111565b634e487b7160e01b600052604160045260246000fd5b600082601f8301126200014f57600080fd5b81516001600160401b03808211156200016c576200016c62000127565b604051601f8301601f19908116603f0116810190828211818310171562000197576200019762000127565b81604052838152602092508683858801011115620001b457600080fd5b600091505b83821015620001d85785820183015181830184015290820190620001b9565b83821115620001ea5760008385830101525b9695505050505050565b6000806000606084860312156200020a57600080fd5b83516001600160401b03808211156200022257600080fd5b62000230878388016200013d565b945060208601519150808211156200024757600080fd5b5062000256868287016200013d565b925050604084015190509250925092565b600181811c908216806200027c57607f821691505b602082108114156200029e57634e487b7160e01b600052602260045260246000fd5b50919050565b61174980620002b46000396000f3fe6080604052600436106101e35760003560e01c806370a0823111610102578063b88d4fde11610095578063dc33e68111610064578063dc33e681146105dc578063e6798baa146105fc578063e985e9c514610612578063f25236331461065b57600080fd5b8063b88d4fde1461055b578063bf0b175e1461056e578063c87b56dd146105a7578063d89135cd146105c757600080fd5b80639fac68cb116100d15780639fac68cb146104e2578063a144819414610502578063a22cb46514610522578063a2309ff81461054257600080fd5b806370a082311461047857806375794a3c146104985780638832e6e3146104ad57806395d89b41146104cd57600080fd5b806342966c681161017a57806353b1233d1161014957806353b1233d146104035780636352211e146104235780636900a3ae146104435780636c0360eb1461046357600080fd5b806342966c68146102f9578063453ab141146103195780634f558e791461037657806352d8a4d11461039657600080fd5b806318160ddd116101b657806318160ddd1461028c57806323b872dd146102b357806340c10f19146102c657806342842e0e146102e657600080fd5b806301ffc9a7146101e857806306fdde031461021d578063081812fc1461023f578063095ea7b314610277575b600080fd5b3480156101f457600080fd5b506102086102033660046112dc565b61067b565b60405190151581526020015b60405180910390f35b34801561022957600080fd5b506102326106cd565b6040516102149190611351565b34801561024b57600080fd5b5061025f61025a366004611364565b61075f565b6040516001600160a01b039091168152602001610214565b61028a610285366004611399565b6107a3565b005b34801561029857600080fd5b5060005460025460015403035b604051908152602001610214565b61028a6102c13660046113c3565b61085b565b3480156102d257600080fd5b5061028a6102e1366004611399565b6109f6565b61028a6102f43660046113c3565b610a04565b34801561030557600080fd5b5061028a610314366004611364565b610a24565b34801561032557600080fd5b5061028a6103343660046113ff565b6001600160a01b0382166000908152600660205260409020805460c083901b77ffffffffffffffffffffffffffffffffffffffffffffffff9091161790555050565b34801561038257600080fd5b50610208610391366004611364565b610a30565b3480156103a257600080fd5b506103b66103b1366004611364565b610a3b565b604051610214919081516001600160a01b0316815260208083015167ffffffffffffffff169082015260408083015115159082015260609182015162ffffff169181019190915260800190565b34801561040f57600080fd5b5061028a61041e366004611364565b610a68565b34801561042f57600080fd5b5061025f61043e366004611364565b610a71565b34801561044f57600080fd5b5061023261045e366004611364565b610a7c565b34801561046f57600080fd5b50610232610a87565b34801561048457600080fd5b506102a5610493366004611443565b610aa3565b3480156104a457600080fd5b506102a5610af2565b3480156104b957600080fd5b5061028a6104c8366004611501565b610afd565b3480156104d957600080fd5b50610232610b08565b3480156104ee57600080fd5b5061028a6104fd366004611568565b610b17565b34801561050e57600080fd5b5061028a61051d366004611399565b610b21565b34801561052e57600080fd5b5061028a61053d366004611594565b610b2b565b34801561054e57600080fd5b50600054600154036102a5565b61028a6105693660046115be565b610b97565b34801561057a57600080fd5b5061058e610589366004611443565b610be1565b60405167ffffffffffffffff9091168152602001610214565b3480156105b357600080fd5b506102326105c2366004611364565b610c02565b3480156105d357600080fd5b506102a5610c94565b3480156105e857600080fd5b506102a56105f7366004611443565b610c9f565b34801561060857600080fd5b506102a560005481565b34801561061e57600080fd5b5061020861062d366004611626565b6001600160a01b03918216600090815260086020908152604080832093909416825291909152205460ff1690565b34801561066757600080fd5b506103b6610676366004611364565b610cca565b60006301ffc9a760e01b6001600160e01b0319831614806106ac57506380ac58cd60e01b6001600160e01b03198316145b806106c75750635b5e139f60e01b6001600160e01b03198316145b92915050565b6060600380546106dc90611650565b80601f016020809104026020016040519081016040528092919081815260200182805461070890611650565b80156107555780601f1061072a57610100808354040283529160200191610755565b820191906000526020600020905b81548152906001019060200180831161073857829003601f168201915b5050505050905090565b600061076a82610d71565b610787576040516333d1c03960e21b815260040160405180910390fd5b506000908152600760205260409020546001600160a01b031690565b60006107ae82610a71565b9050336001600160a01b038216146107e7576107ca813361062d565b6107e7576040516367d9dca160e11b815260040160405180910390fd5b60008281526007602052604080822080547fffffffffffffffffffffffff0000000000000000000000000000000000000000166001600160a01b0387811691821790925591518593918516917f8c5be1e5ebec7d5bd14f71427d1e84f3dd0314c0f7b2291e5b200ac8c7c3b92591a4505050565b600061086682610dad565b9050836001600160a01b0316816001600160a01b0316146108995760405162a1148160e81b815260040160405180910390fd5b600082815260076020526040902080546108c58187335b6001600160a01b039081169116811491141790565b6108f0576108d3863361062d565b6108f057604051632ce44b5f60e11b815260040160405180910390fd5b6001600160a01b03851661091757604051633a954ecd60e21b815260040160405180910390fd5b801561092257600082555b6001600160a01b038681166000908152600660205260408082208054600019019055918716808252919020805460010190554260a01b17600160e11b17600085815260056020526040902055600160e11b83166109ad57600184016000818152600560205260409020546109ab5760015481146109ab5760008181526005602052604090208490555b505b83856001600160a01b0316876001600160a01b03167fddf252ad1be2c89b69c2b068fc378daa952ba7f163c4a11628f55a4df523b3ef60405160405180910390a4505050505050565b610a008282610e1d565b5050565b610a1f83838360405180602001604052806000815250610b97565b505050565b610a2d81610f14565b50565b60006106c782610d71565b6040805160808101825260008082526020820181905291810182905260608101919091526106c782610f1f565b610a2d81610f97565b60006106c782610dad565b60606106c782610fc5565b6060610a9e60408051602081019091526000815290565b905090565b60006001600160a01b038216610acc576040516323d3ad8160e21b815260040160405180910390fd5b506001600160a01b031660009081526006602052604090205467ffffffffffffffff1690565b6000610a9e60015490565b610a1f838383611013565b6060600480546106dc90611650565b610a008282611080565b610a0082826111c4565b3360008181526008602090815260408083206001600160a01b03871680855290835292819020805460ff191686151590811790915590519081529192917f17307eab39ab6107e8899845ad3d59bd9653f200f220920489ca2b5937696c31910160405180910390a35050565b610ba284848461085b565b6001600160a01b0383163b15610bdb57610bbe848484846111de565b610bdb576040516368d2bf6b60e11b815260040160405180910390fd5b50505050565b6001600160a01b03811660009081526006602052604081205460c01c6106c7565b6060610c0d82610d71565b610c2a57604051630a14c4b560e41b815260040160405180910390fd5b6000610c4160408051602081019091526000815290565b9050805160001415610c625760405180602001604052806000815250610c8d565b80610c6c84610fc5565b604051602001610c7d92919061168b565b6040516020818303038152906040525b9392505050565b6000610a9e60025490565b6001600160a01b0381166000908152600660205260408082205467ffffffffffffffff911c166106c7565b6040805160808101825260008082526020820181905291810182905260608101919091526106c7826040805160808101825260008082526020820181905291810182905260608101919091526000828152600560205260409020546106c790604080516080810182526001600160a01b038316815260a083901c67ffffffffffffffff166020820152600160e01b831615159181019190915260e89190911c606082015290565b600081610d7d60005490565b11158015610d8c575060015482105b80156106c7575050600090815260056020526040902054600160e01b161590565b60008180610dba60005490565b11610e0457600154811015610e0457600081815260056020526040902054600160e01b8116610e02575b80610c8d575060001901600081815260056020526040902054610de4565b505b604051636f96cda160e11b815260040160405180910390fd5b60015481610e3e5760405163b562e8dd60e01b815260040160405180910390fd5b6001600160a01b03831660008181526006602090815260408083208054680100000000000000018802019055848352600590915281206001851460e11b4260a01b178317905582840190839083907fddf252ad1be2c89b69c2b068fc378daa952ba7f163c4a11628f55a4df523b3ef8180a4600183015b818114610eed57808360007fddf252ad1be2c89b69c2b068fc378daa952ba7f163c4a11628f55a4df523b3ef600080a4600101610eb5565b5081610f0b57604051622e076360e81b815260040160405180910390fd5b60015550505050565b610a2d816000611080565b6040805160808101825260008082526020820181905291810182905260608101919091526106c7610f4f83610dad565b604080516080810182526001600160a01b038316815260a083901c67ffffffffffffffff166020820152600160e01b831615159181019190915260e89190911c606082015290565b600081815260056020526040902054610a2d57610fb381610dad565b60008281526005602052604090205550565b606060a06040510180604052602081039150506000815280825b600183039250600a81066030018353600a900480610ffc57611001565b610fdf565b50819003601f19909101908152919050565b61101d8383610e1d565b6001600160a01b0383163b15610a1f576001548281035b61104760008683806001019450866111de565b611064576040516368d2bf6b60e11b815260040160405180910390fd5b81811061103457816001541461107957600080fd5b5050505050565b600061108b83610dad565b9050806000806110a986600090815260076020526040902080549091565b9150915084156110e9576110be8184336108b0565b6110e9576110cc833361062d565b6110e957604051632ce44b5f60e11b815260040160405180910390fd5b80156110f457600082555b6001600160a01b038316600081815260066020526040902080546fffffffffffffffffffffffffffffffff0190554260a01b17600360e01b17600087815260056020526040902055600160e11b841661117b57600186016000818152600560205260409020546111795760015481146111795760008181526005602052604090208590555b505b60405186906000906001600160a01b038616907fddf252ad1be2c89b69c2b068fc378daa952ba7f163c4a11628f55a4df523b3ef908390a4505060028054600101905550505050565b610a00828260405180602001604052806000815250611013565b604051630a85bd0160e11b81526000906001600160a01b0385169063150b7a02906112139033908990889088906004016116ba565b6020604051808303816000875af192505050801561124e575060408051601f3d908101601f1916820190925261124b918101906116f6565b60015b6112a9573d80801561127c576040519150601f19603f3d011682016040523d82523d6000602084013e611281565b606091505b5080516112a1576040516368d2bf6b60e11b815260040160405180910390fd5b805181602001fd5b6001600160e01b031916630a85bd0160e11b149050949350505050565b6001600160e01b031981168114610a2d57600080fd5b6000602082840312156112ee57600080fd5b8135610c8d816112c6565b60005b838110156113145781810151838201526020016112fc565b83811115610bdb5750506000910152565b6000815180845261133d8160208601602086016112f9565b601f01601f19169290920160200192915050565b602081526000610c8d6020830184611325565b60006020828403121561137657600080fd5b5035919050565b80356001600160a01b038116811461139457600080fd5b919050565b600080604083850312156113ac57600080fd5b6113b58361137d565b946020939093013593505050565b6000806000606084860312156113d857600080fd5b6113e18461137d565b92506113ef6020850161137d565b9150604084013590509250925092565b6000806040838503121561141257600080fd5b61141b8361137d565b9150602083013567ffffffffffffffff8116811461143857600080fd5b809150509250929050565b60006020828403121561145557600080fd5b610c8d8261137d565b634e487b7160e01b600052604160045260246000fd5b600082601f83011261148557600080fd5b813567ffffffffffffffff808211156114a0576114a061145e565b604051601f8301601f19908116603f011681019082821181831017156114c8576114c861145e565b816040528381528660208588010111156114e157600080fd5b836020870160208301376000602085830101528094505050505092915050565b60008060006060848603121561151657600080fd5b61151f8461137d565b925060208401359150604084013567ffffffffffffffff81111561154257600080fd5b61154e86828701611474565b9150509250925092565b8035801515811461139457600080fd5b6000806040838503121561157b57600080fd5b8235915061158b60208401611558565b90509250929050565b600080604083850312156115a757600080fd5b6115b08361137d565b915061158b60208401611558565b600080600080608085870312156115d457600080fd5b6115dd8561137d565b93506115eb6020860161137d565b925060408501359150606085013567ffffffffffffffff81111561160e57600080fd5b61161a87828801611474565b91505092959194509250565b6000806040838503121561163957600080fd5b6116428361137d565b915061158b6020840161137d565b600181811c9082168061166457607f821691505b6020821081141561168557634e487b7160e01b600052602260045260246000fd5b50919050565b6000835161169d8184602088016112f9565b8351908301906116b18183602088016112f9565b01949350505050565b60006001600160a01b038087168352808616602084015250836040830152608060608301526116ec6080830184611325565b9695505050505050565b60006020828403121561170857600080fd5b8151610c8d816112c656fea26469706673582212203b19739dce254595a74cd3d3a45152f81ed4a85afba4d99800a9e236b672d0ff64736f6c634300080b0033",
  "linkReferences": {},
  "deployedLinkReferences": {}
}